{
  "_format": "hh-sol-artifact-1",
  "contractName": "SuperAppFactoryMock",
  "sourceName": "contracts/mocks/SuperAppMocks.sol",
  "abi": [
    {
      "inputs": [
        {
          "internalType": "contract ISuperfluid",
          "name": "host",
          "type": "address"
        },
        {
          "internalType": "contract ISuperApp",
          "name": "app",
          "type": "address"
        },
        {
          "internalType": "uint256",
          "name": "configWord",
          "type": "uint256"
        }
      ],
      "name": "registerAppWithHost",
      "outputs": [],
      "stateMutability": "nonpayable",
      "type": "function"
    }
  ],
  "bytecode": "0x608060405234801561001057600080fd5b5061012c806100206000396000f3fe6080604052348015600f57600080fd5b506004361060285760003560e01c8063ad88671d14602d575b600080fd5b603c603836600460ba565b603e565b005b6040516379b9982960e11b81526001600160a01b0383811660048301526024820183905284169063f373305290604401600060405180830381600087803b158015608757600080fd5b505af1158015609a573d6000803e3d6000fd5b50505050505050565b6001600160a01b038116811460b757600080fd5b50565b60008060006060848603121560ce57600080fd5b833560d78160a3565b9250602084013560e58160a3565b92959294505050604091909101359056fea26469706673582212205b43997e717346e4fb2989eaa832eeab1e2e630fae6f9196f91f202817112b2664736f6c63430008100033",
  "linkReferences": {},
  "deployedLinkReferences": {}
}