{
  "_format": "hh-sol-artifact-1",
  "contractName": "SuperAppMockAux",
  "sourceName": "contracts/mocks/SuperAppMocks.sol",
  "abi": [
    {
      "inputs": [
        {
          "internalType": "contract ISuperfluid",
          "name": "host",
          "type": "address"
        },
        {
          "internalType": "contract SuperAppMock",
          "name": "app",
          "type": "address"
        },
        {
          "internalType": "bytes",
          "name": "ctx",
          "type": "bytes"
        }
      ],
      "name": "actionCallActionNoop",
      "outputs": [],
      "stateMutability": "nonpayable",
      "type": "function"
    },
    {
      "inputs": [
        {
          "internalType": "contract ISuperfluid",
          "name": "host",
          "type": "address"
        },
        {
          "internalType": "contract AgreementMock",
          "name": "agreement",
          "type": "address"
        },
        {
          "internalType": "uint256",
          "name": "ping",
          "type": "uint256"
        },
        {
          "internalType": "bytes",
          "name": "ctx",
          "type": "bytes"
        }
      ],
      "name": "actionPingAgreement",
      "outputs": [],
      "stateMutability": "nonpayable",
      "type": "function"
    }
  ],
  "bytecode": "0x608060405234801561001057600080fd5b50610627806100206000396000f3fe608060405234801561001057600080fd5b50600436106100365760003560e01c806314379f4a1461003b5780634c79edd414610050575b600080fd5b61004e61004936600461027e565b610063565b005b61004e61005e3660046102f1565b610148565b6040805160008152602081019091526001600160a01b0386811691634329d29391879190821690638e6b2749906100a19030908a90604481016103bc565b60408051601f19818403018152918152602080830180516001600160e01b031660e095861b179052815160008152908101918290529286901b6001600160e01b03191690526100f893925090878760248301610415565b6000604051808303816000875af1158015610117573d6000803e3d6000fd5b505050506040513d6000823e601f3d908101601f1916820160405261013f91908101906104f4565b50505050505050565b6040805160008152602081019091526001600160a01b038581169163ba48b5f89186919082169063e772ecc1906101829060448101610558565b60408051808303601f1901815291815260208201805160e094851b6001600160e01b03909116179052519185901b6001600160e01b03191682526101cf9392509087908790600401610572565b6000604051808303816000875af11580156101ee573d6000803e3d6000fd5b505050506040513d6000823e601f3d908101601f1916820160405261021691908101906105b4565b5050505050565b6001600160a01b038116811461023257600080fd5b50565b60008083601f84011261024757600080fd5b50813567ffffffffffffffff81111561025f57600080fd5b60208301915083602082850101111561027757600080fd5b9250929050565b60008060008060006080868803121561029657600080fd5b85356102a18161021d565b945060208601356102b18161021d565b935060408601359250606086013567ffffffffffffffff8111156102d457600080fd5b6102e088828901610235565b969995985093965092949392505050565b6000806000806060858703121561030757600080fd5b84356103128161021d565b935060208501356103228161021d565b9250604085013567ffffffffffffffff81111561033e57600080fd5b61034a87828801610235565b95989497509550505050565b634e487b7160e01b600052604160045260246000fd5b60005b8381101561038757818101518382015260200161036f565b50506000910152565b600081518084526103a881602086016020860161036c565b601f01601f19169290920160200192915050565b60018060a01b03841681528260208201526060604082015260006103e36060830184610390565b95945050505050565b81835281816020850137506000828201602090810191909152601f909101601f19169091010190565b6001600160a01b038616815260806020820181905260009061043990830187610390565b828103604084015261044b8187610390565b905082810360608401526104608185876103ec565b98975050505050505050565b600082601f83011261047d57600080fd5b815167ffffffffffffffff8082111561049857610498610356565b604051601f8301601f19908116603f011681019082821181831017156104c0576104c0610356565b816040528381528660208588010111156104d957600080fd5b6104ea84602083016020890161036c565b9695505050505050565b6000806040838503121561050757600080fd5b825167ffffffffffffffff8082111561051f57600080fd5b61052b8683870161046c565b9350602085015191508082111561054157600080fd5b5061054e8582860161046c565b9150509250929050565b60208152600061056b6020830184610390565b9392505050565b6001600160a01b038516815260606020820181905260009061059690830186610390565b82810360408401526105a98185876103ec565b979650505050505050565b6000602082840312156105c657600080fd5b815167ffffffffffffffff8111156105dd57600080fd5b6105e98482850161046c565b94935050505056fea2646970667358221220cf8b44782fb15cfa3c10a942129d53e7c573b04053c99b9f9d5203e018a62ed464736f6c63430008100033",
  "linkReferences": {},
  "deployedLinkReferences": {}
}