{
  "_format": "hh-sol-artifact-1",
  "contractName": "SuperTokenMock",
  "sourceName": "contracts/mocks/SuperTokenMock.sol",
  "abi": [
    {
      "inputs": [
        {
          "internalType": "contract ISuperfluid",
          "name": "host",
          "type": "address"
        },
        {
          "internalType": "uint256",
          "name": "w",
          "type": "uint256"
        }
      ],
      "stateMutability": "nonpayable",
      "type": "constructor"
    },
    {
      "inputs": [],
      "name": "SF_TOKEN_AGREEMENT_ALREADY_EXISTS",
      "type": "error"
    },
    {
      "inputs": [],
      "name": "SF_TOKEN_AGREEMENT_DOES_NOT_EXIST",
      "type": "error"
    },
    {
      "inputs": [],
      "name": "SF_TOKEN_BURN_INSUFFICIENT_BALANCE",
      "type": "error"
    },
    {
      "inputs": [],
      "name": "SF_TOKEN_MOVE_INSUFFICIENT_BALANCE",
      "type": "error"
    },
    {
      "inputs": [],
      "name": "SF_TOKEN_ONLY_HOST",
      "type": "error"
    },
    {
      "inputs": [],
      "name": "SF_TOKEN_ONLY_LISTED_AGREEMENT",
      "type": "error"
    },
    {
      "inputs": [],
      "name": "SUPER_TOKEN_APPROVE_FROM_ZERO_ADDRESS",
      "type": "error"
    },
    {
      "inputs": [],
      "name": "SUPER_TOKEN_APPROVE_TO_ZERO_ADDRESS",
      "type": "error"
    },
    {
      "inputs": [],
      "name": "SUPER_TOKEN_BURN_FROM_ZERO_ADDRESS",
      "type": "error"
    },
    {
      "inputs": [],
      "name": "SUPER_TOKEN_CALLER_IS_NOT_OPERATOR_FOR_HOLDER",
      "type": "error"
    },
    {
      "inputs": [],
      "name": "SUPER_TOKEN_INFLATIONARY_DEFLATIONARY_NOT_SUPPORTED",
      "type": "error"
    },
    {
      "inputs": [],
      "name": "SUPER_TOKEN_MINT_TO_ZERO_ADDRESS",
      "type": "error"
    },
    {
      "inputs": [],
      "name": "SUPER_TOKEN_NOT_ERC777_TOKENS_RECIPIENT",
      "type": "error"
    },
    {
      "inputs": [],
      "name": "SUPER_TOKEN_NO_UNDERLYING_TOKEN",
      "type": "error"
    },
    {
      "inputs": [],
      "name": "SUPER_TOKEN_ONLY_HOST",
      "type": "error"
    },
    {
      "inputs": [],
      "name": "SUPER_TOKEN_ONLY_SELF",
      "type": "error"
    },
    {
      "inputs": [],
      "name": "SUPER_TOKEN_TRANSFER_FROM_ZERO_ADDRESS",
      "type": "error"
    },
    {
      "inputs": [],
      "name": "SUPER_TOKEN_TRANSFER_TO_ZERO_ADDRESS",
      "type": "error"
    },
    {
      "anonymous": false,
      "inputs": [
        {
          "indexed": true,
          "internalType": "address",
          "name": "agreementClass",
          "type": "address"
        },
        {
          "indexed": false,
          "internalType": "bytes32",
          "name": "id",
          "type": "bytes32"
        },
        {
          "indexed": false,
          "internalType": "bytes32[]",
          "name": "data",
          "type": "bytes32[]"
        }
      ],
      "name": "AgreementCreated",
      "type": "event"
    },
    {
      "anonymous": false,
      "inputs": [
        {
          "indexed": true,
          "internalType": "address",
          "name": "agreementClass",
          "type": "address"
        },
        {
          "indexed": false,
          "internalType": "bytes32",
          "name": "id",
          "type": "bytes32"
        },
        {
          "indexed": true,
          "internalType": "address",
          "name": "penaltyAccount",
          "type": "address"
        },
        {
          "indexed": true,
          "internalType": "address",
          "name": "rewardAccount",
          "type": "address"
        },
        {
          "indexed": false,
          "internalType": "uint256",
          "name": "rewardAmount",
          "type": "uint256"
        }
      ],
      "name": "AgreementLiquidated",
      "type": "event"
    },
    {
      "anonymous": false,
      "inputs": [
        {
          "indexed": false,
          "internalType": "address",
          "name": "liquidatorAccount",
          "type": "address"
        },
        {
          "indexed": true,
          "internalType": "address",
          "name": "agreementClass",
          "type": "address"
        },
        {
          "indexed": false,
          "internalType": "bytes32",
          "name": "id",
          "type": "bytes32"
        },
        {
          "indexed": true,
          "internalType": "address",
          "name": "penaltyAccount",
          "type": "address"
        },
        {
          "indexed": true,
          "internalType": "address",
          "name": "bondAccount",
          "type": "address"
        },
        {
          "indexed": false,
          "internalType": "uint256",
          "name": "rewardAmount",
          "type": "uint256"
        },
        {
          "indexed": false,
          "internalType": "uint256",
          "name": "bailoutAmount",
          "type": "uint256"
        }
      ],
      "name": "AgreementLiquidatedBy",
      "type": "event"
    },
    {
      "anonymous": false,
      "inputs": [
        {
          "indexed": true,
          "internalType": "address",
          "name": "agreementClass",
          "type": "address"
        },
        {
          "indexed": false,
          "internalType": "bytes32",
          "name": "id",
          "type": "bytes32"
        },
        {
          "indexed": true,
          "internalType": "address",
          "name": "liquidatorAccount",
          "type": "address"
        },
        {
          "indexed": true,
          "internalType": "address",
          "name": "targetAccount",
          "type": "address"
        },
        {
          "indexed": false,
          "internalType": "address",
          "name": "rewardAmountReceiver",
          "type": "address"
        },
        {
          "indexed": false,
          "internalType": "uint256",
          "name": "rewardAmount",
          "type": "uint256"
        },
        {
          "indexed": false,
          "internalType": "int256",
          "name": "targetAccountBalanceDelta",
          "type": "int256"
        },
        {
          "indexed": false,
          "internalType": "bytes",
          "name": "liquidationTypeData",
          "type": "bytes"
        }
      ],
      "name": "AgreementLiquidatedV2",
      "type": "event"
    },
    {
      "anonymous": false,
      "inputs": [
        {
          "indexed": true,
          "internalType": "address",
          "name": "agreementClass",
          "type": "address"
        },
        {
          "indexed": true,
          "internalType": "address",
          "name": "account",
          "type": "address"
        },
        {
          "indexed": false,
          "internalType": "uint256",
          "name": "slotId",
          "type": "uint256"
        }
      ],
      "name": "AgreementStateUpdated",
      "type": "event"
    },
    {
      "anonymous": false,
      "inputs": [
        {
          "indexed": true,
          "internalType": "address",
          "name": "agreementClass",
          "type": "address"
        },
        {
          "indexed": false,
          "internalType": "bytes32",
          "name": "id",
          "type": "bytes32"
        }
      ],
      "name": "AgreementTerminated",
      "type": "event"
    },
    {
      "anonymous": false,
      "inputs": [
        {
          "indexed": true,
          "internalType": "address",
          "name": "agreementClass",
          "type": "address"
        },
        {
          "indexed": false,
          "internalType": "bytes32",
          "name": "id",
          "type": "bytes32"
        },
        {
          "indexed": false,
          "internalType": "bytes32[]",
          "name": "data",
          "type": "bytes32[]"
        }
      ],
      "name": "AgreementUpdated",
      "type": "event"
    },
    {
      "anonymous": false,
      "inputs": [
        {
          "indexed": true,
          "internalType": "address",
          "name": "owner",
          "type": "address"
        },
        {
          "indexed": true,
          "internalType": "address",
          "name": "spender",
          "type": "address"
        },
        {
          "indexed": false,
          "internalType": "uint256",
          "name": "value",
          "type": "uint256"
        }
      ],
      "name": "Approval",
      "type": "event"
    },
    {
      "anonymous": false,
      "inputs": [
        {
          "indexed": true,
          "internalType": "address",
          "name": "operator",
          "type": "address"
        },
        {
          "indexed": true,
          "internalType": "address",
          "name": "tokenHolder",
          "type": "address"
        }
      ],
      "name": "AuthorizedOperator",
      "type": "event"
    },
    {
      "anonymous": false,
      "inputs": [
        {
          "indexed": true,
          "internalType": "address",
          "name": "bailoutAccount",
          "type": "address"
        },
        {
          "indexed": false,
          "internalType": "uint256",
          "name": "bailoutAmount",
          "type": "uint256"
        }
      ],
      "name": "Bailout",
      "type": "event"
    },
    {
      "anonymous": false,
      "inputs": [
        {
          "indexed": true,
          "internalType": "address",
          "name": "operator",
          "type": "address"
        },
        {
          "indexed": true,
          "internalType": "address",
          "name": "from",
          "type": "address"
        },
        {
          "indexed": false,
          "internalType": "uint256",
          "name": "amount",
          "type": "uint256"
        },
        {
          "indexed": false,
          "internalType": "bytes",
          "name": "data",
          "type": "bytes"
        },
        {
          "indexed": false,
          "internalType": "bytes",
          "name": "operatorData",
          "type": "bytes"
        }
      ],
      "name": "Burned",
      "type": "event"
    },
    {
      "anonymous": false,
      "inputs": [
        {
          "indexed": false,
          "internalType": "bytes32",
          "name": "uuid",
          "type": "bytes32"
        },
        {
          "indexed": false,
          "internalType": "address",
          "name": "codeAddress",
          "type": "address"
        }
      ],
      "name": "CodeUpdated",
      "type": "event"
    },
    {
      "anonymous": false,
      "inputs": [
        {
          "indexed": false,
          "internalType": "uint8",
          "name": "version",
          "type": "uint8"
        }
      ],
      "name": "Initialized",
      "type": "event"
    },
    {
      "anonymous": false,
      "inputs": [
        {
          "indexed": true,
          "internalType": "address",
          "name": "operator",
          "type": "address"
        },
        {
          "indexed": true,
          "internalType": "address",
          "name": "to",
          "type": "address"
        },
        {
          "indexed": false,
          "internalType": "uint256",
          "name": "amount",
          "type": "uint256"
        },
        {
          "indexed": false,
          "internalType": "bytes",
          "name": "data",
          "type": "bytes"
        },
        {
          "indexed": false,
          "internalType": "bytes",
          "name": "operatorData",
          "type": "bytes"
        }
      ],
      "name": "Minted",
      "type": "event"
    },
    {
      "anonymous": false,
      "inputs": [
        {
          "indexed": true,
          "internalType": "address",
          "name": "operator",
          "type": "address"
        },
        {
          "indexed": true,
          "internalType": "address",
          "name": "tokenHolder",
          "type": "address"
        }
      ],
      "name": "RevokedOperator",
      "type": "event"
    },
    {
      "anonymous": false,
      "inputs": [
        {
          "indexed": true,
          "internalType": "address",
          "name": "operator",
          "type": "address"
        },
        {
          "indexed": true,
          "internalType": "address",
          "name": "from",
          "type": "address"
        },
        {
          "indexed": true,
          "internalType": "address",
          "name": "to",
          "type": "address"
        },
        {
          "indexed": false,
          "internalType": "uint256",
          "name": "amount",
          "type": "uint256"
        },
        {
          "indexed": false,
          "internalType": "bytes",
          "name": "data",
          "type": "bytes"
        },
        {
          "indexed": false,
          "internalType": "bytes",
          "name": "operatorData",
          "type": "bytes"
        }
      ],
      "name": "Sent",
      "type": "event"
    },
    {
      "anonymous": false,
      "inputs": [
        {
          "indexed": true,
          "internalType": "address",
          "name": "account",
          "type": "address"
        },
        {
          "indexed": false,
          "internalType": "uint256",
          "name": "amount",
          "type": "uint256"
        }
      ],
      "name": "TokenDowngraded",
      "type": "event"
    },
    {
      "anonymous": false,
      "inputs": [
        {
          "indexed": true,
          "internalType": "address",
          "name": "account",
          "type": "address"
        },
        {
          "indexed": false,
          "internalType": "uint256",
          "name": "amount",
          "type": "uint256"
        }
      ],
      "name": "TokenUpgraded",
      "type": "event"
    },
    {
      "anonymous": false,
      "inputs": [
        {
          "indexed": true,
          "internalType": "address",
          "name": "from",
          "type": "address"
        },
        {
          "indexed": true,
          "internalType": "address",
          "name": "to",
          "type": "address"
        },
        {
          "indexed": false,
          "internalType": "uint256",
          "name": "value",
          "type": "uint256"
        }
      ],
      "name": "Transfer",
      "type": "event"
    },
    {
      "inputs": [
        {
          "internalType": "address",
          "name": "account",
          "type": "address"
        },
        {
          "internalType": "address",
          "name": "spender",
          "type": "address"
        }
      ],
      "name": "allowance",
      "outputs": [
        {
          "internalType": "uint256",
          "name": "",
          "type": "uint256"
        }
      ],
      "stateMutability": "view",
      "type": "function"
    },
    {
      "inputs": [
        {
          "internalType": "address",
          "name": "spender",
          "type": "address"
        },
        {
          "internalType": "uint256",
          "name": "amount",
          "type": "uint256"
        }
      ],
      "name": "approve",
      "outputs": [
        {
          "internalType": "bool",
          "name": "",
          "type": "bool"
        }
      ],
      "stateMutability": "nonpayable",
      "type": "function"
    },
    {
      "inputs": [
        {
          "internalType": "address",
          "name": "owner",
          "type": "address"
        },
        {
          "internalType": "address",
          "name": "spender",
          "type": "address"
        },
        {
          "internalType": "uint256",
          "name": "value",
          "type": "uint256"
        }
      ],
      "name": "approveInternal",
      "outputs": [],
      "stateMutability": "nonpayable",
      "type": "function"
    },
    {
      "inputs": [
        {
          "internalType": "address",
          "name": "operator",
          "type": "address"
        }
      ],
      "name": "authorizeOperator",
      "outputs": [],
      "stateMutability": "nonpayable",
      "type": "function"
    },
    {
      "inputs": [
        {
          "internalType": "address",
          "name": "account",
          "type": "address"
        }
      ],
      "name": "balanceOf",
      "outputs": [
        {
          "internalType": "uint256",
          "name": "balance",
          "type": "uint256"
        }
      ],
      "stateMutability": "view",
      "type": "function"
    },
    {
      "inputs": [
        {
          "internalType": "uint256",
          "name": "amount",
          "type": "uint256"
        },
        {
          "internalType": "bytes",
          "name": "data",
          "type": "bytes"
        }
      ],
      "name": "burn",
      "outputs": [],
      "stateMutability": "nonpayable",
      "type": "function"
    },
    {
      "inputs": [],
      "name": "castrate",
      "outputs": [],
      "stateMutability": "nonpayable",
      "type": "function"
    },
    {
      "inputs": [
        {
          "internalType": "bytes32",
          "name": "id",
          "type": "bytes32"
        },
        {
          "internalType": "bytes32[]",
          "name": "data",
          "type": "bytes32[]"
        }
      ],
      "name": "createAgreement",
      "outputs": [],
      "stateMutability": "nonpayable",
      "type": "function"
    },
    {
      "inputs": [],
      "name": "decimals",
      "outputs": [
        {
          "internalType": "uint8",
          "name": "",
          "type": "uint8"
        }
      ],
      "stateMutability": "pure",
      "type": "function"
    },
    {
      "inputs": [
        {
          "internalType": "address",
          "name": "spender",
          "type": "address"
        },
        {
          "internalType": "uint256",
          "name": "subtractedValue",
          "type": "uint256"
        }
      ],
      "name": "decreaseAllowance",
      "outputs": [
        {
          "internalType": "bool",
          "name": "",
          "type": "bool"
        }
      ],
      "stateMutability": "nonpayable",
      "type": "function"
    },
    {
      "inputs": [],
      "name": "defaultOperators",
      "outputs": [
        {
          "internalType": "address[]",
          "name": "",
          "type": "address[]"
        }
      ],
      "stateMutability": "view",
      "type": "function"
    },
    {
      "inputs": [
        {
          "internalType": "uint256",
          "name": "amount",
          "type": "uint256"
        }
      ],
      "name": "downgrade",
      "outputs": [],
      "stateMutability": "nonpayable",
      "type": "function"
    },
    {
      "inputs": [
        {
          "internalType": "address",
          "name": "to",
          "type": "address"
        },
        {
          "internalType": "uint256",
          "name": "amount",
          "type": "uint256"
        }
      ],
      "name": "downgradeTo",
      "outputs": [],
      "stateMutability": "nonpayable",
      "type": "function"
    },
    {
      "inputs": [
        {
          "internalType": "address",
          "name": "account",
          "type": "address"
        }
      ],
      "name": "getAccountActiveAgreements",
      "outputs": [
        {
          "internalType": "contract ISuperAgreement[]",
          "name": "",
          "type": "address[]"
        }
      ],
      "stateMutability": "view",
      "type": "function"
    },
    {
      "inputs": [
        {
          "internalType": "address",
          "name": "agreementClass",
          "type": "address"
        },
        {
          "internalType": "bytes32",
          "name": "id",
          "type": "bytes32"
        },
        {
          "internalType": "uint256",
          "name": "dataLength",
          "type": "uint256"
        }
      ],
      "name": "getAgreementData",
      "outputs": [
        {
          "internalType": "bytes32[]",
          "name": "data",
          "type": "bytes32[]"
        }
      ],
      "stateMutability": "view",
      "type": "function"
    },
    {
      "inputs": [
        {
          "internalType": "address",
          "name": "agreementClass",
          "type": "address"
        },
        {
          "internalType": "address",
          "name": "account",
          "type": "address"
        },
        {
          "internalType": "uint256",
          "name": "slotId",
          "type": "uint256"
        },
        {
          "internalType": "uint256",
          "name": "dataLength",
          "type": "uint256"
        }
      ],
      "name": "getAgreementStateSlot",
      "outputs": [
        {
          "internalType": "bytes32[]",
          "name": "slotData",
          "type": "bytes32[]"
        }
      ],
      "stateMutability": "view",
      "type": "function"
    },
    {
      "inputs": [],
      "name": "getCodeAddress",
      "outputs": [
        {
          "internalType": "address",
          "name": "codeAddress",
          "type": "address"
        }
      ],
      "stateMutability": "view",
      "type": "function"
    },
    {
      "inputs": [],
      "name": "getHost",
      "outputs": [
        {
          "internalType": "address",
          "name": "host",
          "type": "address"
        }
      ],
      "stateMutability": "view",
      "type": "function"
    },
    {
      "inputs": [],
      "name": "getUnderlyingToken",
      "outputs": [
        {
          "internalType": "address",
          "name": "",
          "type": "address"
        }
      ],
      "stateMutability": "view",
      "type": "function"
    },
    {
      "inputs": [],
      "name": "granularity",
      "outputs": [
        {
          "internalType": "uint256",
          "name": "",
          "type": "uint256"
        }
      ],
      "stateMutability": "pure",
      "type": "function"
    },
    {
      "inputs": [
        {
          "internalType": "address",
          "name": "spender",
          "type": "address"
        },
        {
          "internalType": "uint256",
          "name": "addedValue",
          "type": "uint256"
        }
      ],
      "name": "increaseAllowance",
      "outputs": [
        {
          "internalType": "bool",
          "name": "",
          "type": "bool"
        }
      ],
      "stateMutability": "nonpayable",
      "type": "function"
    },
    {
      "inputs": [
        {
          "internalType": "contract IERC20",
          "name": "underlyingToken",
          "type": "address"
        },
        {
          "internalType": "uint8",
          "name": "underlyingDecimals",
          "type": "uint8"
        },
        {
          "internalType": "string",
          "name": "n",
          "type": "string"
        },
        {
          "internalType": "string",
          "name": "s",
          "type": "string"
        }
      ],
      "name": "initialize",
      "outputs": [],
      "stateMutability": "nonpayable",
      "type": "function"
    },
    {
      "inputs": [
        {
          "internalType": "address",
          "name": "account",
          "type": "address"
        },
        {
          "internalType": "uint256",
          "name": "timestamp",
          "type": "uint256"
        }
      ],
      "name": "isAccountCritical",
      "outputs": [
        {
          "internalType": "bool",
          "name": "isCritical",
          "type": "bool"
        }
      ],
      "stateMutability": "view",
      "type": "function"
    },
    {
      "inputs": [
        {
          "internalType": "address",
          "name": "account",
          "type": "address"
        }
      ],
      "name": "isAccountCriticalNow",
      "outputs": [
        {
          "internalType": "bool",
          "name": "isCritical",
          "type": "bool"
        }
      ],
      "stateMutability": "view",
      "type": "function"
    },
    {
      "inputs": [
        {
          "internalType": "address",
          "name": "account",
          "type": "address"
        },
        {
          "internalType": "uint256",
          "name": "timestamp",
          "type": "uint256"
        }
      ],
      "name": "isAccountSolvent",
      "outputs": [
        {
          "internalType": "bool",
          "name": "isSolvent",
          "type": "bool"
        }
      ],
      "stateMutability": "view",
      "type": "function"
    },
    {
      "inputs": [
        {
          "internalType": "address",
          "name": "account",
          "type": "address"
        }
      ],
      "name": "isAccountSolventNow",
      "outputs": [
        {
          "internalType": "bool",
          "name": "isSolvent",
          "type": "bool"
        }
      ],
      "stateMutability": "view",
      "type": "function"
    },
    {
      "inputs": [
        {
          "internalType": "address",
          "name": "operator",
          "type": "address"
        },
        {
          "internalType": "address",
          "name": "tokenHolder",
          "type": "address"
        }
      ],
      "name": "isOperatorFor",
      "outputs": [
        {
          "internalType": "bool",
          "name": "",
          "type": "bool"
        }
      ],
      "stateMutability": "view",
      "type": "function"
    },
    {
      "inputs": [
        {
          "internalType": "bytes32",
          "name": "id",
          "type": "bytes32"
        },
        {
          "internalType": "bytes",
          "name": "liquidationTypeData",
          "type": "bytes"
        },
        {
          "internalType": "address",
          "name": "liquidatorAccount",
          "type": "address"
        },
        {
          "internalType": "bool",
          "name": "useDefaultRewardAccount",
          "type": "bool"
        },
        {
          "internalType": "address",
          "name": "targetAccount",
          "type": "address"
        },
        {
          "internalType": "uint256",
          "name": "rewardAmount",
          "type": "uint256"
        },
        {
          "internalType": "int256",
          "name": "targetAccountBalanceDelta",
          "type": "int256"
        }
      ],
      "name": "makeLiquidationPayoutsV2",
      "outputs": [],
      "stateMutability": "nonpayable",
      "type": "function"
    },
    {
      "inputs": [
        {
          "internalType": "address",
          "name": "to",
          "type": "address"
        },
        {
          "internalType": "uint256",
          "name": "amount",
          "type": "uint256"
        },
        {
          "internalType": "bytes",
          "name": "userData",
          "type": "bytes"
        },
        {
          "internalType": "bytes",
          "name": "operatorData",
          "type": "bytes"
        }
      ],
      "name": "mintInternal",
      "outputs": [],
      "stateMutability": "nonpayable",
      "type": "function"
    },
    {
      "inputs": [],
      "name": "name",
      "outputs": [
        {
          "internalType": "string",
          "name": "",
          "type": "string"
        }
      ],
      "stateMutability": "view",
      "type": "function"
    },
    {
      "inputs": [
        {
          "internalType": "address",
          "name": "account",
          "type": "address"
        },
        {
          "internalType": "address",
          "name": "spender",
          "type": "address"
        },
        {
          "internalType": "uint256",
          "name": "amount",
          "type": "uint256"
        }
      ],
      "name": "operationApprove",
      "outputs": [],
      "stateMutability": "nonpayable",
      "type": "function"
    },
    {
      "inputs": [
        {
          "internalType": "address",
          "name": "account",
          "type": "address"
        },
        {
          "internalType": "uint256",
          "name": "amount",
          "type": "uint256"
        }
      ],
      "name": "operationDowngrade",
      "outputs": [],
      "stateMutability": "nonpayable",
      "type": "function"
    },
    {
      "inputs": [
        {
          "internalType": "address",
          "name": "spender",
          "type": "address"
        },
        {
          "internalType": "address",
          "name": "recipient",
          "type": "address"
        },
        {
          "internalType": "uint256",
          "name": "amount",
          "type": "uint256"
        },
        {
          "internalType": "bytes",
          "name": "userData",
          "type": "bytes"
        }
      ],
      "name": "operationSend",
      "outputs": [],
      "stateMutability": "nonpayable",
      "type": "function"
    },
    {
      "inputs": [
        {
          "internalType": "address",
          "name": "account",
          "type": "address"
        },
        {
          "internalType": "address",
          "name": "spender",
          "type": "address"
        },
        {
          "internalType": "address",
          "name": "recipient",
          "type": "address"
        },
        {
          "internalType": "uint256",
          "name": "amount",
          "type": "uint256"
        }
      ],
      "name": "operationTransferFrom",
      "outputs": [],
      "stateMutability": "nonpayable",
      "type": "function"
    },
    {
      "inputs": [
        {
          "internalType": "address",
          "name": "account",
          "type": "address"
        },
        {
          "internalType": "uint256",
          "name": "amount",
          "type": "uint256"
        }
      ],
      "name": "operationUpgrade",
      "outputs": [],
      "stateMutability": "nonpayable",
      "type": "function"
    },
    {
      "inputs": [
        {
          "internalType": "address",
          "name": "account",
          "type": "address"
        },
        {
          "internalType": "uint256",
          "name": "amount",
          "type": "uint256"
        },
        {
          "internalType": "bytes",
          "name": "data",
          "type": "bytes"
        },
        {
          "internalType": "bytes",
          "name": "operatorData",
          "type": "bytes"
        }
      ],
      "name": "operatorBurn",
      "outputs": [],
      "stateMutability": "nonpayable",
      "type": "function"
    },
    {
      "inputs": [
        {
          "internalType": "address",
          "name": "sender",
          "type": "address"
        },
        {
          "internalType": "address",
          "name": "recipient",
          "type": "address"
        },
        {
          "internalType": "uint256",
          "name": "amount",
          "type": "uint256"
        },
        {
          "internalType": "bytes",
          "name": "data",
          "type": "bytes"
        },
        {
          "internalType": "bytes",
          "name": "operatorData",
          "type": "bytes"
        }
      ],
      "name": "operatorSend",
      "outputs": [],
      "stateMutability": "nonpayable",
      "type": "function"
    },
    {
      "inputs": [],
      "name": "proxiableUUID",
      "outputs": [
        {
          "internalType": "bytes32",
          "name": "",
          "type": "bytes32"
        }
      ],
      "stateMutability": "pure",
      "type": "function"
    },
    {
      "inputs": [
        {
          "internalType": "address",
          "name": "account",
          "type": "address"
        },
        {
          "internalType": "uint256",
          "name": "timestamp",
          "type": "uint256"
        }
      ],
      "name": "realtimeBalanceOf",
      "outputs": [
        {
          "internalType": "int256",
          "name": "availableBalance",
          "type": "int256"
        },
        {
          "internalType": "uint256",
          "name": "deposit",
          "type": "uint256"
        },
        {
          "internalType": "uint256",
          "name": "owedDeposit",
          "type": "uint256"
        }
      ],
      "stateMutability": "view",
      "type": "function"
    },
    {
      "inputs": [
        {
          "internalType": "address",
          "name": "account",
          "type": "address"
        }
      ],
      "name": "realtimeBalanceOfNow",
      "outputs": [
        {
          "internalType": "int256",
          "name": "availableBalance",
          "type": "int256"
        },
        {
          "internalType": "uint256",
          "name": "deposit",
          "type": "uint256"
        },
        {
          "internalType": "uint256",
          "name": "owedDeposit",
          "type": "uint256"
        },
        {
          "internalType": "uint256",
          "name": "timestamp",
          "type": "uint256"
        }
      ],
      "stateMutability": "view",
      "type": "function"
    },
    {
      "inputs": [
        {
          "internalType": "address",
          "name": "operator",
          "type": "address"
        }
      ],
      "name": "revokeOperator",
      "outputs": [],
      "stateMutability": "nonpayable",
      "type": "function"
    },
    {
      "inputs": [
        {
          "internalType": "address",
          "name": "account",
          "type": "address"
        },
        {
          "internalType": "address",
          "name": "spender",
          "type": "address"
        },
        {
          "internalType": "uint256",
          "name": "amount",
          "type": "uint256"
        }
      ],
      "name": "selfApproveFor",
      "outputs": [],
      "stateMutability": "nonpayable",
      "type": "function"
    },
    {
      "inputs": [
        {
          "internalType": "address",
          "name": "account",
          "type": "address"
        },
        {
          "internalType": "uint256",
          "name": "amount",
          "type": "uint256"
        },
        {
          "internalType": "bytes",
          "name": "userData",
          "type": "bytes"
        }
      ],
      "name": "selfBurn",
      "outputs": [],
      "stateMutability": "nonpayable",
      "type": "function"
    },
    {
      "inputs": [
        {
          "internalType": "address",
          "name": "account",
          "type": "address"
        },
        {
          "internalType": "uint256",
          "name": "amount",
          "type": "uint256"
        },
        {
          "internalType": "bytes",
          "name": "userData",
          "type": "bytes"
        }
      ],
      "name": "selfMint",
      "outputs": [],
      "stateMutability": "nonpayable",
      "type": "function"
    },
    {
      "inputs": [
        {
          "internalType": "address",
          "name": "holder",
          "type": "address"
        },
        {
          "internalType": "address",
          "name": "spender",
          "type": "address"
        },
        {
          "internalType": "address",
          "name": "recipient",
          "type": "address"
        },
        {
          "internalType": "uint256",
          "name": "amount",
          "type": "uint256"
        }
      ],
      "name": "selfTransferFrom",
      "outputs": [],
      "stateMutability": "nonpayable",
      "type": "function"
    },
    {
      "inputs": [
        {
          "internalType": "address",
          "name": "recipient",
          "type": "address"
        },
        {
          "internalType": "uint256",
          "name": "amount",
          "type": "uint256"
        },
        {
          "internalType": "bytes",
          "name": "data",
          "type": "bytes"
        }
      ],
      "name": "send",
      "outputs": [],
      "stateMutability": "nonpayable",
      "type": "function"
    },
    {
      "inputs": [
        {
          "internalType": "address",
          "name": "account",
          "type": "address"
        },
        {
          "internalType": "int256",
          "name": "delta",
          "type": "int256"
        }
      ],
      "name": "settleBalance",
      "outputs": [],
      "stateMutability": "nonpayable",
      "type": "function"
    },
    {
      "inputs": [
        {
          "internalType": "address[]",
          "name": "operators",
          "type": "address[]"
        }
      ],
      "name": "setupDefaultOperators",
      "outputs": [],
      "stateMutability": "nonpayable",
      "type": "function"
    },
    {
      "inputs": [],
      "name": "symbol",
      "outputs": [
        {
          "internalType": "string",
          "name": "",
          "type": "string"
        }
      ],
      "stateMutability": "view",
      "type": "function"
    },
    {
      "inputs": [
        {
          "internalType": "bytes32",
          "name": "id",
          "type": "bytes32"
        },
        {
          "internalType": "uint256",
          "name": "dataLength",
          "type": "uint256"
        }
      ],
      "name": "terminateAgreement",
      "outputs": [],
      "stateMutability": "nonpayable",
      "type": "function"
    },
    {
      "inputs": [],
      "name": "totalSupply",
      "outputs": [
        {
          "internalType": "uint256",
          "name": "",
          "type": "uint256"
        }
      ],
      "stateMutability": "view",
      "type": "function"
    },
    {
      "inputs": [
        {
          "internalType": "address",
          "name": "recipient",
          "type": "address"
        },
        {
          "internalType": "uint256",
          "name": "amount",
          "type": "uint256"
        }
      ],
      "name": "transfer",
      "outputs": [
        {
          "internalType": "bool",
          "name": "",
          "type": "bool"
        }
      ],
      "stateMutability": "nonpayable",
      "type": "function"
    },
    {
      "inputs": [
        {
          "internalType": "address",
          "name": "recipient",
          "type": "address"
        }
      ],
      "name": "transferAll",
      "outputs": [],
      "stateMutability": "nonpayable",
      "type": "function"
    },
    {
      "inputs": [
        {
          "internalType": "address",
          "name": "holder",
          "type": "address"
        },
        {
          "internalType": "address",
          "name": "recipient",
          "type": "address"
        },
        {
          "internalType": "uint256",
          "name": "amount",
          "type": "uint256"
        }
      ],
      "name": "transferFrom",
      "outputs": [
        {
          "internalType": "bool",
          "name": "",
          "type": "bool"
        }
      ],
      "stateMutability": "nonpayable",
      "type": "function"
    },
    {
      "inputs": [
        {
          "internalType": "address",
          "name": "from",
          "type": "address"
        },
        {
          "internalType": "address",
          "name": "to",
          "type": "address"
        },
        {
          "internalType": "uint256",
          "name": "value",
          "type": "uint256"
        }
      ],
      "name": "transferInternal",
      "outputs": [],
      "stateMutability": "nonpayable",
      "type": "function"
    },
    {
      "inputs": [
        {
          "internalType": "bytes32",
          "name": "id",
          "type": "bytes32"
        },
        {
          "internalType": "bytes32[]",
          "name": "data",
          "type": "bytes32[]"
        }
      ],
      "name": "updateAgreementData",
      "outputs": [],
      "stateMutability": "nonpayable",
      "type": "function"
    },
    {
      "inputs": [
        {
          "internalType": "address",
          "name": "account",
          "type": "address"
        },
        {
          "internalType": "uint256",
          "name": "slotId",
          "type": "uint256"
        },
        {
          "internalType": "bytes32[]",
          "name": "slotData",
          "type": "bytes32[]"
        }
      ],
      "name": "updateAgreementStateSlot",
      "outputs": [],
      "stateMutability": "nonpayable",
      "type": "function"
    },
    {
      "inputs": [
        {
          "internalType": "address",
          "name": "newAddress",
          "type": "address"
        }
      ],
      "name": "updateCode",
      "outputs": [],
      "stateMutability": "nonpayable",
      "type": "function"
    },
    {
      "inputs": [
        {
          "internalType": "uint256",
          "name": "amount",
          "type": "uint256"
        }
      ],
      "name": "upgrade",
      "outputs": [],
      "stateMutability": "nonpayable",
      "type": "function"
    },
    {
      "inputs": [
        {
          "internalType": "address",
          "name": "to",
          "type": "address"
        },
        {
          "internalType": "uint256",
          "name": "amount",
          "type": "uint256"
        },
        {
          "internalType": "bytes",
          "name": "data",
          "type": "bytes"
        }
      ],
      "name": "upgradeTo",
      "outputs": [],
      "stateMutability": "nonpayable",
      "type": "function"
    },
    {
      "inputs": [],
      "name": "waterMark",
      "outputs": [
        {
          "internalType": "uint256",
          "name": "",
          "type": "uint256"
        }
      ],
      "stateMutability": "view",
      "type": "function"
    }
  ],
  "bytecode": "0x60c06040523480156200001157600080fd5b5060405162004ab938038062004ab983398101604081905262000034916200004b565b6001600160a01b0390911660805260a05262000087565b600080604083850312156200005f57600080fd5b82516001600160a01b03811681146200007757600080fd5b6020939093015192949293505050565b60805160a05161499c6200011d600039600061064a01526000818161047f01528181610b6401528181610bd301528181610e8801528181610fa301528181611072015281816112cd015281816113e60152818161156e0152818161195301528181611a1601528181611a7e01528181611b06015281816122f1015281816123880152818161347101526136ad015261499c6000f3fe608060405234801561001057600080fd5b50600436106103af5760003560e01c806362aa5287116101f4578063a9059cbb1161011a578063d95b6371116100ad578063ee719bc81161007c578063ee719bc814610898578063fad8b32a146108a9578063fc673c4f146108bc578063fe9d9303146108cf57600080fd5b8063d95b63711461080b578063d9d078d61461081e578063dd62ed3e14610831578063eb3537cc1461086a57600080fd5b8063c68d4283116100e9578063c68d4283146107bf578063ca0c1e7f146107d2578063ca789464146107e5578063cf97256d146107f857600080fd5b8063a9059cbb14610773578063b1f0b5be14610786578063b84cdd4a14610799578063bb0d196e146107ac57600080fd5b8063959b8c3f116101925780639d876741116101615780639d87674114610727578063a1b2bf8b1461073a578063a3a7e7f31461074d578063a457c2d71461076057600080fd5b8063959b8c3f146106f157806395d89b41146107045780639903ad381461070c5780639bd9bbc61461071457600080fd5b80636c2d9f2f116101ce5780636c2d9f2f146106a557806370a08231146106b857806379359f6f146106cb57806383ba2525146106de57600080fd5b806362aa52871461066c57806362ad1b831461067f57806366a12fb61461069257600080fd5b8063313ce567116102d95780634695195411610277578063556f0dc711610246578063556f0dc71461061857806356189cb41461061f5780635b9d09cc146106325780636154b1021461064557600080fd5b806346951954146105b75780634b61cc33146105ca57806350d75d25146105ea57806352d1902d146105f257600080fd5b8063397be931116102b3578063397be9311461056b57806341b706be1461057e57806342fe09801461059157806345977d03146105a457600080fd5b8063313ce56714610536578063386fa22114610545578063395093511461055857600080fd5b806318160ddd1161035157806323b872dd1161032057806323b872dd146104ca578063245887fc146104dd57806327048397146104f05780632ec8eec71461050357600080fd5b806318160ddd146104585780631863e8091461046a57806320bc44251461047d578063222f5be0146104b757600080fd5b8063095ea7b31161038d578063095ea7b3146103fc57806311bcc81e1461041f57806312a6a3f81461043257806316d055d61461044557600080fd5b806306e48538146103b457806306fdde03146103d2578063090c415e146103e7575b600080fd5b6103bc6108e2565b6040516103c99190613938565b60405180910390f35b6103da6108f3565b6040516103c991906139d5565b6103fa6103f5366004613a48565b610985565b005b61040f61040a366004613aa3565b610a39565b60405190151581526020016103c9565b6103fa61042d366004613acf565b610a50565b6103fa610440366004613ae8565b610a7f565b6103fa610453366004613b33565b610b62565b6003545b6040519081526020016103c9565b6103fa610478366004613c47565b610bbe565b7f00000000000000000000000000000000000000000000000000000000000000005b6040516001600160a01b0390911681526020016103c9565b6103fa6104c5366004613cd9565b610e5e565b61040f6104d8366004613cd9565b610e70565b6103fa6104eb366004613aa3565b610e86565b6103fa6104fe366004613d1a565b610eff565b610516610511366004613d3c565b610f9b565b6040805194855260208501939093529183015260608201526080016103c9565b604051601281526020016103c9565b6103bc610553366004613d3c565b61103e565b61040f610566366004613aa3565b6110e1565b6103fa610579366004613d7c565b61111d565b6103fa61058c366004613b33565b611126565b6103fa61059f366004613e50565b611152565b6103fa6105b2366004613acf565b611296565b6103fa6105c5366004613d3c565b6112c2565b6105dd6105d8366004613eea565b611314565b6040516103c99190613f30565b61049f611359565b7f6bfbb132610e56cb96575dba244667b9d6dbfeffe22b68a79fa16f2d18eb001961045c565b600161045c565b6103fa61062d366004613cd9565b611383565b6103fa610640366004613f68565b611393565b61045c7f000000000000000000000000000000000000000000000000000000000000000081565b6103fa61067a366004613cd9565b6113e4565b6103fa61068d366004613fb7565b61142d565b6103fa6106a0366004613cd9565b6114db565b6105dd6106b3366004614055565b6114fb565b61045c6106c6366004613d3c565b61153d565b61040f6106d9366004613d3c565b611566565b6103fa6106ec366004613aa3565b6115ee565b6103fa6106ff366004613d3c565b61161a565b6103da61166b565b6103fa61167a565b6103fa610722366004613f68565b61173c565b6103fa61073536600461408a565b611790565b6103fa610748366004613ae8565b6117d0565b6103fa61075b366004613d3c565b61187a565b61040f61076e366004613aa3565b61188e565b61040f610781366004613aa3565b6118dd565b6103fa6107943660046140e2565b6118eb565b61040f6107a7366004613aa3565b6118fa565b61040f6107ba366004613d3c565b61194b565b6103fa6107cd36600461408a565b6119d3565b6103fa6107e0366004614161565b611a14565b6103fa6107f3366004613aa3565b611a7c565b6103fa610806366004613aa3565b611af1565b61040f6108193660046141c0565b611bda565b61040f61082c366004613aa3565b611be8565b61045c61083f3660046141c0565b6001600160a01b03918216600090815260116020908152604080832093909416825291909152205490565b61087d610878366004613aa3565b611c02565b604080519384526020840192909252908201526060016103c9565b600e546001600160a01b031661049f565b6103fa6108b7366004613d3c565b611d3c565b6103fa6108ca3660046141f9565b611d8d565b6103fa6108dd366004614240565b611e2e565b60606108ee6012611e7f565b905090565b6060600f80546109029061427e565b80601f016020809104026020016040519081016040528092919081815260200182805461092e9061427e565b801561097b5780601f106109505761010080835404028352916020019161097b565b820191906000526020600020905b81548152906001019060200180831161095e57829003601f168201915b5050505050905090565b600033858560405160200161099c939291906142b8565b6040516020818303038152906040528051906020012090506109f181848480806020026020016040519081016040528093929190818152602001838360200280828437600092019190915250611ee592505050565b6040518481526001600160a01b0386169033907f30f416fa68fca014a0f334464c64b000ba53e99b6d2afdea9d5ca756372d5985906020015b60405180910390a35050505050565b6000610a46338484611f26565b5060015b92915050565b610a7c333333846040518060200160405280600081525060405180602001604052806000815250611fd6565b50565b6040513390600090610a979083908790602001614301565b60408051601f1981840301815291905280516020909101209050610abb8184612190565b15610ad95760405163782a90fb60e11b815260040160405180910390fd5b610b1681858580806020026020016040519081016040528093929190818152602001838360200280828437600092019190915250611ee592505050565b816001600160a01b03167f770ea40a13a4644573ed785e5c7116890709947918747febc5add46feb531e2d868686604051610b539392919061433e565b60405180910390a25050505050565b7f00000000000000000000000000000000000000000000000000000000000000006001600160a01b03163314610bab5760405163c51efddd60e01b815260040160405180910390fd5b610bb7848484846121cc565b5050505050565b604051632329212160e21b81523360048201527f00000000000000000000000000000000000000000000000000000000000000006001600160a01b031690638ca4848490602401602060405180830381865afa158015610c22573d6000803e3d6000fd5b505050506040513d601f19601f82011682018060405250810190610c46919061437f565b610c635760405163327fd99160e21b815260040160405180910390fd5b6000610c6d6122ec565b90506001600160a01b038116610c805750845b600085610c8d5786610c8f565b815b905060008313610d2c57610ca2836143b2565b610cab85612431565b14610cb857610cb86143ce565b610cc184612431565b6001600160a01b03821660009081526002602052604081208054909190610ce99084906143e4565b90915550506001600160a01b03851660009081526002602052604081208054859290610d169084906143e4565b90915550610d27905085828661249f565b610df6565b8515610d3a57610d3a6143ce565b82610d4485612431565b610d4e91906143e4565b6001600160a01b03831660009081526002602052604081208054909190610d7690849061440c565b90915550610d85905084612431565b6001600160a01b03881660009081526002602052604081208054909190610dad9084906143e4565b90915550506001600160a01b03851660009081526002602052604081208054859290610dda9084906143e4565b90915550610deb905082888661249f565b610df682868561249f565b846001600160a01b0316876001600160a01b0316336001600160a01b03167fb8381a3ce157650e06186e3e8f4dd4dc29236f2688b6eed1893d0a60d7c6386f8c8589898f604051610e4b95949392919061442c565b60405180910390a4505050505050505050565b610e6a838484846121cc565b50505050565b6000610e7e338585856121cc565b949350505050565b7f00000000000000000000000000000000000000000000000000000000000000006001600160a01b03163314610ecf5760405163c51efddd60e01b815260040160405180910390fd5b610efb338384846040518060200160405280600081525060405180602001604052806000815250611fd6565b5050565b6040513390600090610f179083908690602001614301565b604051602081830303815290604052805190602001209050610f398184612190565b610f565760405163dae1880960e01b815260040160405180910390fd5b610f6081846124d2565b60405184815233907f71a63dc095de07aa5512ad57a7596a39516317e316981a1cd71000057be1537b9060200160405180910390a250505050565b6000806000807f00000000000000000000000000000000000000000000000000000000000000006001600160a01b031663bbe4fd506040518163ffffffff1660e01b8152600401602060405180830381865afa158015610fff573d6000803e3d6000fd5b505050506040513d601f19601f82011682018060405250810190611023919061445f565b905061102f8582611c02565b91979096509094509092509050565b6001600160a01b038181166000908152600160205260409081902054905163c56a069d60e01b8152901960048201526060917f0000000000000000000000000000000000000000000000000000000000000000169063c56a069d90602401600060405180830381865afa1580156110b9573d6000803e3d6000fd5b505050506040513d6000823e601f3d908101601f19168201604052610a4a9190810190614478565b3360008181526011602090815260408083206001600160a01b03871684529091528120549091610a46918590611118908690614506565b611f26565b610a7c816124f3565b33301461114657604051630fff4cc960e31b815260040160405180910390fd5b610bb7838584846121cc565b600054610100900460ff16158080156111725750600054600160ff909116105b8061118c5750303b15801561118c575060005460ff166001145b6111b15760405162461bcd60e51b81526004016111a890614519565b60405180910390fd5b6000805460ff1916600117905580156111d4576000805461ff0019166101001790555b600e805460ff8816600160a01b026001600160a81b03199091166001600160a01b038a1617179055600f6112098587836145b5565b5060106112178385836145b5565b50611221306124fe565b604051600080825290819060008051602061491a8339815191529060200160405180910390a3801561128d576000805461ff0019169055604051600181527f7f26b83ff96e1f2b6a682f133852f6798a09c465da95921460cefb38474024989060200160405180910390a15b50505050505050565b610a7c33333384604051806020016040528060008152506040518060200160405280600081525061262c565b336001600160a01b037f0000000000000000000000000000000000000000000000000000000000000000161461130b5760405163263dcdc160e21b815260040160405180910390fd5b610a7c816127dc565b6060600085858560405160200161132d939291906142b8565b60405160208183030381529060405280519060200120905061134f8184612a16565b9695505050505050565b60006108ee7f360894a13ba1a3210667c828492db98dca3e2076cc3735a920a3ca505d382bbc5490565b61138e838383611f26565b505050565b610e6a3333868686868080601f01602080910402602001604051908101604052809392919081815260200183838082843760009201829052506040805160208101909152908152925061262c915050565b7f00000000000000000000000000000000000000000000000000000000000000006001600160a01b031633146113835760405163c51efddd60e01b815260040160405180910390fd5b3361143a6012828a612aa5565b6114575760405163f7f0222760e01b815260040160405180910390fd5b6114d18189898989898080601f01602080910402602001604051908101604052809392919081815260200183838082843760009201919091525050604080516020601f8d018190048102820181019092528b815292508b91508a908190840183828082843760009201919091525060019250612b4e915050565b5050505050505050565b33301461138357604051630fff4cc960e31b815260040160405180910390fd5b606060008484604051602001611512929190614301565b6040516020818303038152906040528051906020012090506115348184612a16565b95945050505050565b60008061154983610f9b565b50505090506000811261155c578061155f565b60005b9392505050565b6000610a4a827f00000000000000000000000000000000000000000000000000000000000000006001600160a01b031663bbe4fd506040518163ffffffff1660e01b8152600401602060405180830381865afa1580156115ca573d6000803e3d6000fd5b505050506040513d601f19601f8201168201806040525081019061082c919061445f565b610efb333384846040518060200160405280600081525060405180602001604052806000815250611fd6565b3361162760128284612bc7565b806001600160a01b0316826001600160a01b03167ff4caeb2d6ca8932a215a353d0703c326ec2d81fc68170f320eb2ab49e9df61f960405160405180910390a35050565b6060601080546109029061427e565b600054610100900460ff161580801561169a5750600054600160ff909116105b806116b45750303b1580156116b4575060005460ff166001145b6116d05760405162461bcd60e51b81526004016111a890614519565b6000805460ff1916600117905580156116f3576000805461ff0019166101001790555b8015610a7c576000805461ff0019169055604051600181527f7f26b83ff96e1f2b6a682f133852f6798a09c465da95921460cefb3847402498906020015b60405180910390a150565b610e6a3333868686868080601f01602080910402602001604051908101604052809392919081815260200183838082843760009201829052506040805160208101909152908152925060019150612b4e9050565b3330146117b057604051630fff4cc960e31b815260040160405180910390fd5b60408051600081526020810190915261138e903390859085908590612ccb565b60405133906000906117e89083908790602001614301565b60405160208183030381529060405280519060200120905061183d81858580806020026020016040519081016040528093929190818152602001838360200280828437600092019190915250611ee592505050565b336001600160a01b03167f0c4c547b3a4fcaa5be8353b3111472b124155bccc86de811d4a481c9e6e9faca868686604051610b539392919061433e565b610efb3333836118893361153d565b6121cc565b6000610a463384611118856040518060600160405280602a81526020016148f0602a91393360009081526011602090815260408083206001600160a01b038d1684529091529020549190612d86565b600061155f333385856121cc565b610e6a33858560018686612db2565b60008060008061190a8686611c02565b9250925092506000611932828411611923576000612431565b61192d8385614674565b612431565b61193c90856143e4565b60001315979650505050505050565b6000610a4a827f00000000000000000000000000000000000000000000000000000000000000006001600160a01b031663bbe4fd506040518163ffffffff1660e01b8152600401602060405180830381865afa1580156119af573d6000803e3d6000fd5b505050506040513d601f19601f820116820180604052508101906107a7919061445f565b3330146119f357604051630fff4cc960e31b815260040160405180910390fd5b6040805160008082526020820190925261138e913391869186918690612db2565b7f00000000000000000000000000000000000000000000000000000000000000006001600160a01b03163314611a5d5760405163c51efddd60e01b815260040160405180910390fd5b610e6a3385858585604051806020016040528060008152506001612b4e565b7f00000000000000000000000000000000000000000000000000000000000000006001600160a01b03163314611ac55760405163c51efddd60e01b815260040160405180910390fd5b610efb33838484604051806020016040528060008152506040518060200160405280600081525061262c565b604051632329212160e21b81523360048201527f00000000000000000000000000000000000000000000000000000000000000006001600160a01b031690638ca4848490602401602060405180830381865afa158015611b55573d6000803e3d6000fd5b505050506040513d601f19601f82011682018060405250810190611b79919061437f565b611b965760405163327fd99160e21b815260040160405180910390fd5b6001600160a01b038216600090815260026020526040902054611bba9082906143e4565b6001600160a01b0390921660009081526002602052604090209190915550565b600061155f60128484612aa5565b600080611bf58484611c02565b5050600013949350505050565b6001600160a01b038216600090815260026020526040812054908080611c278661103e565b905060005b8151811015611d33576000806000848481518110611c4c57611c4c614687565b60209081029190910101516040516326cb922f60e21b81523060048201526001600160a01b038c81166024830152604482018c905290911690639b2e48bc90606401606060405180830381865afa158015611cab573d6000803e3d6000fd5b505050506040513d601f19601f82011682018060405250810190611ccf919061469d565b91945092509050611ce08288614506565b9650611cec8187614506565b9550611d09818311611cff576000612431565b61192d8284614674565b611d13848a6143e4565b611d1d919061440c565b975050505080611d2c906146cb565b9050611c2c565b50509250925092565b33611d4960128284612e7a565b806001600160a01b0316826001600160a01b03167f50546e66e5f44d728365dc3908c63bc5cfeeab470722c1677e3073a6ac294aa160405160405180910390a35050565b33611d9a60128289612aa5565b611db75760405163f7f0222760e01b815260040160405180910390fd5b61128d8188898989898080601f01602080910402602001604051908101604052809392919081815260200183838082843760009201919091525050604080516020601f8d018190048102820181019092528b815292508b91508a9081908401838280828437600092019190915250611fd692505050565b61138e3333338686868080601f016020809104026020016040519081016040528093929190818152602001838380828437600092018290525060408051602081019091529081529250611fd6915050565b606081600001805480602002602001604051908101604052809291908181526020018280548015611ed957602002820191906000526020600020905b81546001600160a01b03168152600190910190602001808311611ebb575b50505050509050919050565b60005b815181101561138e576000828281518110611f0557611f05614687565b6020026020010151905080828501555080611f1f906146cb565b9050611ee8565b6001600160a01b038316611f4d57604051638163862760e01b815260040160405180910390fd5b6001600160a01b038216611f74576040516337c1c09d60e21b815260040160405180910390fd5b6001600160a01b0383811660008181526011602090815260408083209487168084529482529182902085905590518481527f8c5be1e5ebec7d5bd14f71427d1e84f3dd0314c0f7b2291e5b200ac8c7c3b92591015b60405180910390a3505050565b600e546001600160a01b0316611fff57604051637bce7b2b60e11b815260040160405180910390fd5b60008061200b85612f72565b9150915061201c8888838787612ccb565b600e546040516370a0823160e01b81523060048201526000916001600160a01b0316906370a0823190602401602060405180830381865afa158015612065573d6000803e3d6000fd5b505050506040513d601f19601f82011682018060405250810190612089919061445f565b600e549091506120a3906001600160a01b0316888561302e565b600e546040516370a0823160e01b81523060048201526000916001600160a01b0316906370a0823190602401602060405180830381865afa1580156120ec573d6000803e3d6000fd5b505050506040513d601f19601f82011682018060405250810190612110919061445f565b9050600061211e8284614674565b905080851461214057604051631c7c26d360e31b815260040160405180910390fd5b896001600160a01b03167f3bc27981aebbb57f9247dc00fde9d6cd91e4b230083fec3238fedbcba1f9ab3d8560405161217b91815260200190565b60405180910390a25050505050505050505050565b6000805b828110156121c2578381015480156121b157600192505050610a4a565b506121bb816146cb565b9050612194565b5060009392505050565b60006001600160a01b0384166121f55760405163eecd6c9b60e01b815260040160405180910390fd5b6001600160a01b03831661221c5760405163e219bd3960e01b815260040160405180910390fd5b600033905061224d818686866040518060200160405280600081525060405180602001604052806000815250613091565b846001600160a01b0316866001600160a01b0316146122e0576122e08587611118866040518060600160405280602d815260200161493a602d9139601160008c6001600160a01b03166001600160a01b0316815260200190815260200160002060008d6001600160a01b03166001600160a01b0316815260200190815260200160002054612d869092919063ffffffff16565b50600195945050505050565b6000807f00000000000000000000000000000000000000000000000000000000000000006001600160a01b031663289b3c0d6040518163ffffffff1660e01b8152600401602060405180830381865afa15801561234d573d6000803e3d6000fd5b505050506040513d601f19601f8201168201806040525081019061237191906146e4565b604051638369a0f160e01b81526001600160a01b037f0000000000000000000000000000000000000000000000000000000000000000811660048301523060248301527f9f60ae461adf056670e03ae602566409933242392cb06744f5747c9f38b05d09604483015291925090821690638369a0f190606401602060405180830381865afa158015612407573d6000803e3d6000fd5b505050506040513d601f19601f8201168201806040525081019061242b91906146e4565b91505090565b60006001600160ff1b0382111561249b5760405162461bcd60e51b815260206004820152602860248201527f53616665436173743a2076616c756520646f65736e27742066697420696e2061604482015267371034b73a191a9b60c11b60648201526084016111a8565b5090565b816001600160a01b0316836001600160a01b031660008051602061491a83398151915283604051611fc991815260200190565b60005b8181101561138e576000838201556124ec816146cb565b90506124d5565b610a7c601282613130565b6040516329965a1d60e01b81526001600160a01b03821660048201527fac7fbab5f54a3ca8194167523c6753bfeb96a445279294b6125b68cce21770546024820152306044820152731820a4b7618bde71dce8cdc73aab6c95905fad24906329965a1d90606401600060405180830381600087803b15801561257f57600080fd5b505af1158015612593573d6000803e3d6000fd5b50506040516329965a1d60e01b81526001600160a01b03841660048201527faea199e31a596269b42cdafd93407f14436db6e4cad65417994c2eb37381e05a6024820152306044820152731820a4b7618bde71dce8cdc73aab6c95905fad2492506329965a1d9150606401600060405180830381600087803b15801561261857600080fd5b505af1158015610bb7573d6000803e3d6000fd5b600e546001600160a01b031661265557604051637bce7b2b60e11b815260040160405180910390fd5b60008061266185612f72565b600e546040516370a0823160e01b81523060048201529294509092506000916001600160a01b03909116906370a0823190602401602060405180830381865afa1580156126b2573d6000803e3d6000fd5b505050506040513d601f19601f820116820180604052508101906126d6919061445f565b600e549091506126f1906001600160a01b03168930866131ba565b600e546040516370a0823160e01b81523060048201526000916001600160a01b0316906370a0823190602401602060405180830381865afa15801561273a573d6000803e3d6000fd5b505050506040513d601f19601f8201168201806040525081019061275e919061445f565b9050600061276c8383614674565b905080851461278e57604051631c7c26d360e31b815260040160405180910390fd5b6127a18b8a868a51600014158b8b612db2565b886001600160a01b03167f25ca84076773b0455db53621c459ddc84fe40840e4932a62706a032566f399df8560405161217b91815260200190565b60006128067f360894a13ba1a3210667c828492db98dca3e2076cc3735a920a3ca505d382bbc5490565b6001600160a01b03160361285c5760405162461bcd60e51b815260206004820152601d60248201527f5555505350726f786961626c653a206e6f742075706772616461626c6500000060448201526064016111a8565b806001600160a01b03166352d1902d6040518163ffffffff1660e01b8152600401602060405180830381865afa15801561289a573d6000803e3d6000fd5b505050506040513d601f19601f820116820180604052508101906128be919061445f565b7f6bfbb132610e56cb96575dba244667b9d6dbfeffe22b68a79fa16f2d18eb0019146129385760405162461bcd60e51b815260206004820152602360248201527f5555505350726f786961626c653a206e6f7420636f6d70617469626c65206c6f60448201526267696360e81b60648201526084016111a8565b6001600160a01b03811630036129905760405162461bcd60e51b815260206004820152601960248201527f5555505350726f786961626c653a2070726f7879206c6f6f700000000000000060448201526064016111a8565b6129b8817f360894a13ba1a3210667c828492db98dca3e2076cc3735a920a3ca505d382bbc55565b7fe011bc04c286c344a8fcbb8de77f953da762c3e25d8cdea984147fc4168a5dcc7f6bfbb132610e56cb96575dba244667b9d6dbfeffe22b68a79fa16f2d18eb0019604080519182526001600160a01b038416602083015201611731565b6060816001600160401b03811115612a3057612a30613b84565b604051908082528060200260200182016040528015612a59578160200160208202803683370190505b50905060005b82811015612a9e57600081850154905080838381518110612a8257612a82614687565b602090810291909101015250612a97816146cb565b9050612a5f565b5092915050565b6000816001600160a01b0316836001600160a01b03161480612b1457506001600160a01b038316600090815260018501602052604090205460ff168015612b1457506001600160a01b03808316600090815260038601602090815260408083209387168352929052205460ff16155b80610e7e57506001600160a01b03808316600090815260028601602090815260408083209387168352929052205460ff1690509392505050565b6001600160a01b038616612b755760405163eecd6c9b60e01b815260040160405180910390fd5b6001600160a01b038516612b9c5760405163e219bd3960e01b815260040160405180910390fd5b612baa8787878787876131f2565b612bb8878787878787613091565b61128d87878787878787613319565b806001600160a01b0316826001600160a01b031603612c3e5760405162461bcd60e51b815260206004820152602d60248201527f4552433737374f70657261746f72733a20617574686f72697a696e672073656c60448201526c331030b99037b832b930ba37b960991b60648201526084016111a8565b6001600160a01b038116600090815260018401602052604090205460ff1615612c94576001600160a01b03918216600090815260039390930160209081526040808520929093168452529020805460ff19169055565b6001600160a01b0380831660009081526002850160209081526040808320938516835292905220805460ff19166001179055505050565b6001600160a01b038416612cf257604051632e8aac6160e21b815260040160405180910390fd5b612d01858560008686866131f2565b612d0b8484613469565b836001600160a01b0316856001600160a01b03167fa78a9be3a7b862d26933ad85fb11d80ef66b8f972d7cbba06621d583943a4098858585604051612d5293929190614701565b60405180910390a36040518381526000906001600160a01b0386169060008051602061491a83398151915290602001610a2a565b60008184841115612daa5760405162461bcd60e51b81526004016111a891906139d5565b505050900390565b6001600160a01b038516612dd957604051630d24315760e01b815260040160405180910390fd5b612de38585613579565b612df38660008787868689613319565b846001600160a01b0316866001600160a01b03167f2fe5be0146f74c5bce36c0b80911af6c7d86ff27e89d5cfa61fc681327954e5d868585604051612e3a93929190614701565b60405180910390a36040518481526001600160a01b0386169060009060008051602061491a833981519152906020015b60405180910390a3505050505050565b336001600160a01b03821603612ee55760405162461bcd60e51b815260206004820152602a60248201527f4552433737374f70657261746f72733a207265766f6b696e672073656c662061604482015269399037b832b930ba37b960b11b60648201526084016111a8565b6001600160a01b038116600090815260018401602052604090205460ff1615612f3f576001600160a01b0380831660009081526003850160209081526040808320938516835292905220805460ff19166001179055505050565b6001600160a01b03918216600090815260029390930160209081526040808520929093168452529020805460ff19169055565b600e54600090819081906012600160a01b90910460ff161015612fd157600e54612fa790600160a01b900460ff16601261472c565b612fb290600a614829565b9050612fbe8185614838565b9250612fca818461485a565b9150613028565b600e546012600160a01b90910460ff16111561302157600e5461300090601290600160a01b900460ff1661472c565b61300b90600a614829565b9050613017818561485a565b9250839150613028565b8391508192505b50915091565b6040516001600160a01b03831660248201526044810182905261138e90849063a9059cbb60e01b906064015b60408051601f198184030181529190526020810180516001600160e01b03166001600160e01b0319909316929092179091526135d3565b6130a4858561309f86612431565b6136a5565b836001600160a01b0316856001600160a01b0316876001600160a01b03167f06b541ddaa720db2b10a4d0cdac39b8d360425fc073085fac19bc826146779878686866040516130f593929190614701565b60405180910390a4836001600160a01b0316856001600160a01b031660008051602061491a83398151915285604051612e6a91815260200190565b81541561313f5761313f6143ce565b805161315190839060208401906138c7565b5060005b815181101561138e57600183600101600084848151811061317857613178614687565b6020908102919091018101516001600160a01b03168252810191909152604001600020805460ff19169115159190911790556131b3816146cb565b9050613155565b6040516001600160a01b0380851660248301528316604482015260648101829052610e6a9085906323b872dd60e01b9060840161305a565b60405163555ddc6560e11b81526001600160a01b03861660048201527f29ddb589b1fb5fc7cf394961c1adf5f8c6454761adf795e67fe149f658abe8956024820152600090731820a4b7618bde71dce8cdc73aab6c95905fad249063aabbb8ca90604401602060405180830381865afa158015613273573d6000803e3d6000fd5b505050506040513d601f19601f8201168201806040525081019061329791906146e4565b90506001600160a01b0381161561128d57604051633ad5cbc160e11b81526001600160a01b038216906375ab9782906132de908a908a908a908a908a908a90600401614879565b600060405180830381600087803b1580156132f857600080fd5b505af115801561330c573d6000803e3d6000fd5b5050505050505050505050565b60405163555ddc6560e11b81526001600160a01b03861660048201527fb281fc8c12954d22544db45de3159a39272895b169a852b314f9cc762e44c53b6024820152600090731820a4b7618bde71dce8cdc73aab6c95905fad249063aabbb8ca90604401602060405180830381865afa15801561339a573d6000803e3d6000fd5b505050506040513d601f19601f820116820180604052508101906133be91906146e4565b90506001600160a01b0381161561343a576040516223de2960e01b81526001600160a01b038216906223de2990613403908b908b908b908b908b908b90600401614879565b600060405180830381600087803b15801561341d57600080fd5b505af1158015613431573d6000803e3d6000fd5b505050506114d1565b81156114d1576001600160a01b0386163b156114d15760405163fe737d0560e01b815260040160405180910390fd5b60006134f1837f00000000000000000000000000000000000000000000000000000000000000006001600160a01b031663bbe4fd506040518163ffffffff1660e01b8152600401602060405180830381865afa1580156134cd573d6000803e3d6000fd5b505050506040513d601f19601f82011682018060405250810190610878919061445f565b505090506134fe82612431565b81121561351e5760405163043b37d160e21b815260040160405180910390fd5b61352782612431565b6001600160a01b03841660009081526002602052604090205461354a919061440c565b6001600160a01b038416600090815260026020526040902055600354613571908390614674565b600355505050565b61358281612431565b6001600160a01b0383166000908152600260205260409020546135a591906143e4565b6001600160a01b0383166000908152600260205260409020556003546135cc908290614506565b6003555050565b6000613628826040518060400160405280602081526020017f5361666545524332303a206c6f772d6c6576656c2063616c6c206661696c6564815250856001600160a01b03166137a49092919063ffffffff16565b80519091501561138e5780806020019051810190613646919061437f565b61138e5760405162461bcd60e51b815260206004820152602a60248201527f5361666545524332303a204552433230206f7065726174696f6e20646964206e6044820152691bdd081cdd58d8d9595960b21b60648201526084016111a8565b6000613709847f00000000000000000000000000000000000000000000000000000000000000006001600160a01b031663bbe4fd506040518163ffffffff1660e01b8152600401602060405180830381865afa1580156134cd573d6000803e3d6000fd5b505090508181121561372e57604051632f4cb94160e01b815260040160405180910390fd5b6001600160a01b03841660009081526002602052604090205461375290839061440c565b6001600160a01b0380861660009081526002602052604080822093909355908516815220546137829083906143e4565b6001600160a01b03909316600090815260026020526040902092909255505050565b6060610e7e848460008585600080866001600160a01b031685876040516137cb91906148d3565b60006040518083038185875af1925050503d8060008114613808576040519150601f19603f3d011682016040523d82523d6000602084013e61380d565b606091505b509150915061381e87838387613829565b979650505050505050565b60608315613898578251600003613891576001600160a01b0385163b6138915760405162461bcd60e51b815260206004820152601d60248201527f416464726573733a2063616c6c20746f206e6f6e2d636f6e747261637400000060448201526064016111a8565b5081610e7e565b610e7e83838151156138ad5781518083602001fd5b8060405162461bcd60e51b81526004016111a891906139d5565b82805482825590600052602060002090810192821561391c579160200282015b8281111561391c57825182546001600160a01b0319166001600160a01b039091161782556020909201916001909101906138e7565b5061249b9291505b8082111561249b5760008155600101613924565b6020808252825182820181905260009190848201906040850190845b818110156139795783516001600160a01b031683529284019291840191600101613954565b50909695505050505050565b60005b838110156139a0578181015183820152602001613988565b50506000910152565b600081518084526139c1816020860160208601613985565b601f01601f19169290920160200192915050565b60208152600061155f60208301846139a9565b6001600160a01b0381168114610a7c57600080fd5b60008083601f840112613a0f57600080fd5b5081356001600160401b03811115613a2657600080fd5b6020830191508360208260051b8501011115613a4157600080fd5b9250929050565b60008060008060608587031215613a5e57600080fd5b8435613a69816139e8565b93506020850135925060408501356001600160401b03811115613a8b57600080fd5b613a97878288016139fd565b95989497509550505050565b60008060408385031215613ab657600080fd5b8235613ac1816139e8565b946020939093013593505050565b600060208284031215613ae157600080fd5b5035919050565b600080600060408486031215613afd57600080fd5b8335925060208401356001600160401b03811115613b1a57600080fd5b613b26868287016139fd565b9497909650939450505050565b60008060008060808587031215613b4957600080fd5b8435613b54816139e8565b93506020850135613b64816139e8565b92506040850135613b74816139e8565b9396929550929360600135925050565b634e487b7160e01b600052604160045260246000fd5b604051601f8201601f191681016001600160401b0381118282101715613bc257613bc2613b84565b604052919050565b600082601f830112613bdb57600080fd5b81356001600160401b03811115613bf457613bf4613b84565b613c07601f8201601f1916602001613b9a565b818152846020838601011115613c1c57600080fd5b816020850160208301376000918101602001919091529392505050565b8015158114610a7c57600080fd5b600080600080600080600060e0888a031215613c6257600080fd5b8735965060208801356001600160401b03811115613c7f57600080fd5b613c8b8a828b01613bca565b9650506040880135613c9c816139e8565b94506060880135613cac81613c39565b93506080880135613cbc816139e8565b9699959850939692959460a0840135945060c09093013592915050565b600080600060608486031215613cee57600080fd5b8335613cf9816139e8565b92506020840135613d09816139e8565b929592945050506040919091013590565b60008060408385031215613d2d57600080fd5b50508035926020909101359150565b600060208284031215613d4e57600080fd5b813561155f816139e8565b60006001600160401b03821115613d7257613d72613b84565b5060051b60200190565b60006020808385031215613d8f57600080fd5b82356001600160401b03811115613da557600080fd5b8301601f81018513613db657600080fd5b8035613dc9613dc482613d59565b613b9a565b81815260059190911b82018301908381019087831115613de857600080fd5b928401925b8284101561381e578335613e00816139e8565b82529284019290840190613ded565b60008083601f840112613e2157600080fd5b5081356001600160401b03811115613e3857600080fd5b602083019150836020828501011115613a4157600080fd5b60008060008060008060808789031215613e6957600080fd5b8635613e74816139e8565b9550602087013560ff81168114613e8a57600080fd5b945060408701356001600160401b0380821115613ea657600080fd5b613eb28a838b01613e0f565b90965094506060890135915080821115613ecb57600080fd5b50613ed889828a01613e0f565b979a9699509497509295939492505050565b60008060008060808587031215613f0057600080fd5b8435613f0b816139e8565b93506020850135613f1b816139e8565b93969395505050506040820135916060013590565b6020808252825182820181905260009190848201906040850190845b8181101561397957835183529284019291840191600101613f4c565b60008060008060608587031215613f7e57600080fd5b8435613f89816139e8565b93506020850135925060408501356001600160401b03811115613fab57600080fd5b613a9787828801613e0f565b600080600080600080600060a0888a031215613fd257600080fd5b8735613fdd816139e8565b96506020880135613fed816139e8565b95506040880135945060608801356001600160401b038082111561401057600080fd5b61401c8b838c01613e0f565b909650945060808a013591508082111561403557600080fd5b506140428a828b01613e0f565b989b979a50959850939692959293505050565b60008060006060848603121561406a57600080fd5b8335614075816139e8565b95602085013595506040909401359392505050565b60008060006060848603121561409f57600080fd5b83356140aa816139e8565b92506020840135915060408401356001600160401b038111156140cc57600080fd5b6140d886828701613bca565b9150509250925092565b600080600080608085870312156140f857600080fd5b8435614103816139e8565b93506020850135925060408501356001600160401b038082111561412657600080fd5b61413288838901613bca565b9350606087013591508082111561414857600080fd5b5061415587828801613bca565b91505092959194509250565b6000806000806080858703121561417757600080fd5b8435614182816139e8565b93506020850135614192816139e8565b92506040850135915060608501356001600160401b038111156141b457600080fd5b61415587828801613bca565b600080604083850312156141d357600080fd5b82356141de816139e8565b915060208301356141ee816139e8565b809150509250929050565b6000806000806000806080878903121561421257600080fd5b863561421d816139e8565b95506020870135945060408701356001600160401b0380821115613ea657600080fd5b60008060006040848603121561425557600080fd5b8335925060208401356001600160401b0381111561427257600080fd5b613b2686828701613e0f565b600181811c9082168061429257607f821691505b6020821081036142b257634e487b7160e01b600052602260045260246000fd5b50919050565b6080808252600e908201526d41677265656d656e74537461746560901b60a08201526001600160a01b039384166020820152919092166040820152606081019190915260c00190565b6060808252600d908201526c41677265656d656e744461746160981b60808201526001600160a01b03929092166020830152604082015260a00190565b838152604060208201819052810182905260006001600160fb1b0383111561436557600080fd5b8260051b8085606085013791909101606001949350505050565b60006020828403121561439157600080fd5b815161155f81613c39565b634e487b7160e01b600052601160045260246000fd5b6000600160ff1b82016143c7576143c761439c565b5060000390565b634e487b7160e01b600052600160045260246000fd5b80820182811260008312801582168215821617156144045761440461439c565b505092915050565b8181036000831280158383131683831282161715612a9e57612a9e61439c565b85815260018060a01b038516602082015283604082015282606082015260a06080820152600061381e60a08301846139a9565b60006020828403121561447157600080fd5b5051919050565b6000602080838503121561448b57600080fd5b82516001600160401b038111156144a157600080fd5b8301601f810185136144b257600080fd5b80516144c0613dc482613d59565b81815260059190911b820183019083810190878311156144df57600080fd5b928401925b8284101561381e5783516144f7816139e8565b825292840192908401906144e4565b80820180821115610a4a57610a4a61439c565b6020808252602e908201527f496e697469616c697a61626c653a20636f6e747261637420697320616c72656160408201526d191e481a5b9a5d1a585b1a5e995960921b606082015260800190565b601f82111561138e57600081815260208120601f850160051c8101602086101561458e5750805b601f850160051c820191505b818110156145ad5782815560010161459a565b505050505050565b6001600160401b038311156145cc576145cc613b84565b6145e0836145da835461427e565b83614567565b6000601f84116001811461461457600085156145fc5750838201355b600019600387901b1c1916600186901b178355610bb7565b600083815260209020601f19861690835b828110156146455786850135825560209485019460019092019101614625565b50868210156146625760001960f88860031b161c19848701351681555b505060018560011b0183555050505050565b81810381811115610a4a57610a4a61439c565b634e487b7160e01b600052603260045260246000fd5b6000806000606084860312156146b257600080fd5b8351925060208401519150604084015190509250925092565b6000600182016146dd576146dd61439c565b5060010190565b6000602082840312156146f657600080fd5b815161155f816139e8565b83815260606020820152600061471a60608301856139a9565b828103604084015261134f81856139a9565b60ff8281168282160390811115610a4a57610a4a61439c565b600181815b808511156147805781600019048211156147665761476661439c565b8085161561477357918102915b93841c939080029061474a565b509250929050565b60008261479757506001610a4a565b816147a457506000610a4a565b81600181146147ba57600281146147c4576147e0565b6001915050610a4a565b60ff8411156147d5576147d561439c565b50506001821b610a4a565b5060208310610133831016604e8410600b8410161715614803575081810a610a4a565b61480d8383614745565b80600019048211156148215761482161439c565b029392505050565b600061155f60ff841683614788565b60008261485557634e487b7160e01b600052601260045260246000fd5b500490565b60008160001904831182151516156148745761487461439c565b500290565b6001600160a01b0387811682528681166020830152851660408201526060810184905260c0608082018190526000906148b4908301856139a9565b82810360a08401526148c681856139a9565b9998505050505050505050565b600082516148e5818460208701613985565b919091019291505056fe5375706572546f6b656e3a2064656372656173656420616c6c6f77616e63652062656c6f77207a65726fddf252ad1be2c89b69c2b068fc378daa952ba7f163c4a11628f55a4df523b3ef5375706572546f6b656e3a207472616e7366657220616d6f756e74206578636565647320616c6c6f77616e6365a2646970667358221220ada952bc6094663e2afb437c4c51f78dc6cf3ece575641f2d85e39d3732ec98264736f6c63430008100033",
  "linkReferences": {},
  "deployedLinkReferences": {}
}