{
  "_format": "hh-sol-artifact-1",
  "contractName": "SuperTokenLibraryIDASuperAppMock",
  "sourceName": "contracts/mocks/SuperTokenLibraryV1Mock.sol",
  "abi": [
    {
      "inputs": [
        {
          "internalType": "contract ISuperfluid",
          "name": "_host",
          "type": "address"
        }
      ],
      "stateMutability": "nonpayable",
      "type": "constructor"
    },
    {
      "inputs": [
        {
          "internalType": "contract ISuperToken",
          "name": "token",
          "type": "address"
        },
        {
          "internalType": "address",
          "name": "",
          "type": "address"
        },
        {
          "internalType": "bytes32",
          "name": "",
          "type": "bytes32"
        },
        {
          "internalType": "bytes",
          "name": "",
          "type": "bytes"
        },
        {
          "internalType": "bytes",
          "name": "",
          "type": "bytes"
        },
        {
          "internalType": "bytes",
          "name": "ctx",
          "type": "bytes"
        }
      ],
      "name": "afterAgreementCreated",
      "outputs": [
        {
          "internalType": "bytes",
          "name": "newCtx",
          "type": "bytes"
        }
      ],
      "stateMutability": "nonpayable",
      "type": "function"
    },
    {
      "inputs": [
        {
          "internalType": "contract ISuperToken",
          "name": "",
          "type": "address"
        },
        {
          "internalType": "address",
          "name": "",
          "type": "address"
        },
        {
          "internalType": "bytes32",
          "name": "",
          "type": "bytes32"
        },
        {
          "internalType": "bytes",
          "name": "",
          "type": "bytes"
        },
        {
          "internalType": "bytes",
          "name": "",
          "type": "bytes"
        },
        {
          "internalType": "bytes",
          "name": "",
          "type": "bytes"
        }
      ],
      "name": "afterAgreementTerminated",
      "outputs": [
        {
          "internalType": "bytes",
          "name": "",
          "type": "bytes"
        }
      ],
      "stateMutability": "nonpayable",
      "type": "function"
    },
    {
      "inputs": [
        {
          "internalType": "contract ISuperToken",
          "name": "token",
          "type": "address"
        },
        {
          "internalType": "address",
          "name": "",
          "type": "address"
        },
        {
          "internalType": "bytes32",
          "name": "",
          "type": "bytes32"
        },
        {
          "internalType": "bytes",
          "name": "",
          "type": "bytes"
        },
        {
          "internalType": "bytes",
          "name": "",
          "type": "bytes"
        },
        {
          "internalType": "bytes",
          "name": "ctx",
          "type": "bytes"
        }
      ],
      "name": "afterAgreementUpdated",
      "outputs": [
        {
          "internalType": "bytes",
          "name": "newCtx",
          "type": "bytes"
        }
      ],
      "stateMutability": "nonpayable",
      "type": "function"
    },
    {
      "inputs": [
        {
          "internalType": "contract ISuperToken",
          "name": "token",
          "type": "address"
        },
        {
          "internalType": "address",
          "name": "publisher",
          "type": "address"
        },
        {
          "internalType": "uint32",
          "name": "indexId",
          "type": "uint32"
        }
      ],
      "name": "approveSubscriptionTest",
      "outputs": [],
      "stateMutability": "nonpayable",
      "type": "function"
    },
    {
      "inputs": [
        {
          "internalType": "contract ISuperToken",
          "name": "token",
          "type": "address"
        },
        {
          "internalType": "address",
          "name": "publisher",
          "type": "address"
        },
        {
          "internalType": "uint32",
          "name": "indexId",
          "type": "uint32"
        },
        {
          "internalType": "bytes",
          "name": "userData",
          "type": "bytes"
        }
      ],
      "name": "approveSubscriptionWithUserDataTest",
      "outputs": [],
      "stateMutability": "nonpayable",
      "type": "function"
    },
    {
      "inputs": [
        {
          "internalType": "contract ISuperToken",
          "name": "",
          "type": "address"
        },
        {
          "internalType": "address",
          "name": "",
          "type": "address"
        },
        {
          "internalType": "bytes32",
          "name": "",
          "type": "bytes32"
        },
        {
          "internalType": "bytes",
          "name": "",
          "type": "bytes"
        },
        {
          "internalType": "bytes",
          "name": "",
          "type": "bytes"
        }
      ],
      "name": "beforeAgreementCreated",
      "outputs": [
        {
          "internalType": "bytes",
          "name": "",
          "type": "bytes"
        }
      ],
      "stateMutability": "view",
      "type": "function"
    },
    {
      "inputs": [
        {
          "internalType": "contract ISuperToken",
          "name": "",
          "type": "address"
        },
        {
          "internalType": "address",
          "name": "",
          "type": "address"
        },
        {
          "internalType": "bytes32",
          "name": "",
          "type": "bytes32"
        },
        {
          "internalType": "bytes",
          "name": "",
          "type": "bytes"
        },
        {
          "internalType": "bytes",
          "name": "",
          "type": "bytes"
        }
      ],
      "name": "beforeAgreementTerminated",
      "outputs": [
        {
          "internalType": "bytes",
          "name": "",
          "type": "bytes"
        }
      ],
      "stateMutability": "view",
      "type": "function"
    },
    {
      "inputs": [
        {
          "internalType": "contract ISuperToken",
          "name": "",
          "type": "address"
        },
        {
          "internalType": "address",
          "name": "",
          "type": "address"
        },
        {
          "internalType": "bytes32",
          "name": "",
          "type": "bytes32"
        },
        {
          "internalType": "bytes",
          "name": "",
          "type": "bytes"
        },
        {
          "internalType": "bytes",
          "name": "",
          "type": "bytes"
        }
      ],
      "name": "beforeAgreementUpdated",
      "outputs": [
        {
          "internalType": "bytes",
          "name": "",
          "type": "bytes"
        }
      ],
      "stateMutability": "view",
      "type": "function"
    },
    {
      "inputs": [
        {
          "internalType": "contract ISuperToken",
          "name": "token",
          "type": "address"
        },
        {
          "internalType": "address",
          "name": "publisher",
          "type": "address"
        },
        {
          "internalType": "uint32",
          "name": "indexId",
          "type": "uint32"
        },
        {
          "internalType": "uint256",
          "name": "amount",
          "type": "uint256"
        }
      ],
      "name": "calculateDistributionTest",
      "outputs": [
        {
          "internalType": "uint256",
          "name": "actualAmount",
          "type": "uint256"
        },
        {
          "internalType": "uint128",
          "name": "newIndexValue",
          "type": "uint128"
        }
      ],
      "stateMutability": "view",
      "type": "function"
    },
    {
      "inputs": [
        {
          "internalType": "contract ISuperToken",
          "name": "token",
          "type": "address"
        },
        {
          "internalType": "address",
          "name": "publisher",
          "type": "address"
        },
        {
          "internalType": "uint32",
          "name": "indexId",
          "type": "uint32"
        },
        {
          "internalType": "address",
          "name": "subscriber",
          "type": "address"
        }
      ],
      "name": "claimTest",
      "outputs": [],
      "stateMutability": "nonpayable",
      "type": "function"
    },
    {
      "inputs": [
        {
          "internalType": "contract ISuperToken",
          "name": "token",
          "type": "address"
        },
        {
          "internalType": "address",
          "name": "publisher",
          "type": "address"
        },
        {
          "internalType": "uint32",
          "name": "indexId",
          "type": "uint32"
        },
        {
          "internalType": "address",
          "name": "subscriber",
          "type": "address"
        },
        {
          "internalType": "bytes",
          "name": "userData",
          "type": "bytes"
        }
      ],
      "name": "claimWithUserDataTest",
      "outputs": [],
      "stateMutability": "nonpayable",
      "type": "function"
    },
    {
      "inputs": [
        {
          "internalType": "contract ISuperToken",
          "name": "token",
          "type": "address"
        },
        {
          "internalType": "uint32",
          "name": "indexId",
          "type": "uint32"
        }
      ],
      "name": "createIndexTest",
      "outputs": [],
      "stateMutability": "nonpayable",
      "type": "function"
    },
    {
      "inputs": [
        {
          "internalType": "contract ISuperToken",
          "name": "token",
          "type": "address"
        },
        {
          "internalType": "uint32",
          "name": "indexId",
          "type": "uint32"
        },
        {
          "internalType": "bytes",
          "name": "userData",
          "type": "bytes"
        }
      ],
      "name": "createIndexWithUserDataTest",
      "outputs": [],
      "stateMutability": "nonpayable",
      "type": "function"
    },
    {
      "inputs": [
        {
          "internalType": "contract ISuperToken",
          "name": "token",
          "type": "address"
        },
        {
          "internalType": "address",
          "name": "publisher",
          "type": "address"
        },
        {
          "internalType": "uint32",
          "name": "indexId",
          "type": "uint32"
        },
        {
          "internalType": "address",
          "name": "subscriber",
          "type": "address"
        }
      ],
      "name": "deleteSubscriptionTest",
      "outputs": [],
      "stateMutability": "nonpayable",
      "type": "function"
    },
    {
      "inputs": [
        {
          "internalType": "contract ISuperToken",
          "name": "token",
          "type": "address"
        },
        {
          "internalType": "address",
          "name": "publisher",
          "type": "address"
        },
        {
          "internalType": "uint32",
          "name": "indexId",
          "type": "uint32"
        },
        {
          "internalType": "address",
          "name": "subscriber",
          "type": "address"
        },
        {
          "internalType": "bytes",
          "name": "userData",
          "type": "bytes"
        }
      ],
      "name": "deleteSubscriptionWithUserDataTest",
      "outputs": [],
      "stateMutability": "nonpayable",
      "type": "function"
    },
    {
      "inputs": [
        {
          "internalType": "contract ISuperToken",
          "name": "token",
          "type": "address"
        },
        {
          "internalType": "uint32",
          "name": "indexId",
          "type": "uint32"
        },
        {
          "internalType": "uint256",
          "name": "amount",
          "type": "uint256"
        }
      ],
      "name": "distributeTest",
      "outputs": [],
      "stateMutability": "nonpayable",
      "type": "function"
    },
    {
      "inputs": [
        {
          "internalType": "contract ISuperToken",
          "name": "token",
          "type": "address"
        },
        {
          "internalType": "uint32",
          "name": "indexId",
          "type": "uint32"
        },
        {
          "internalType": "uint256",
          "name": "amount",
          "type": "uint256"
        },
        {
          "internalType": "bytes",
          "name": "userData",
          "type": "bytes"
        }
      ],
      "name": "distributeWithUserDataTest",
      "outputs": [],
      "stateMutability": "nonpayable",
      "type": "function"
    },
    {
      "inputs": [
        {
          "internalType": "contract ISuperToken",
          "name": "token",
          "type": "address"
        },
        {
          "internalType": "address",
          "name": "publisher",
          "type": "address"
        },
        {
          "internalType": "uint32",
          "name": "indexId",
          "type": "uint32"
        }
      ],
      "name": "getIndexTest",
      "outputs": [
        {
          "internalType": "bool",
          "name": "exist",
          "type": "bool"
        },
        {
          "internalType": "uint128",
          "name": "indexValue",
          "type": "uint128"
        },
        {
          "internalType": "uint128",
          "name": "totalUnitsApproved",
          "type": "uint128"
        },
        {
          "internalType": "uint128",
          "name": "totalUnitsPending",
          "type": "uint128"
        }
      ],
      "stateMutability": "view",
      "type": "function"
    },
    {
      "inputs": [
        {
          "internalType": "contract ISuperToken",
          "name": "token",
          "type": "address"
        },
        {
          "internalType": "bytes32",
          "name": "agreementId",
          "type": "bytes32"
        }
      ],
      "name": "getSubscriptionByIDTest",
      "outputs": [
        {
          "internalType": "address",
          "name": "publisher",
          "type": "address"
        },
        {
          "internalType": "uint32",
          "name": "indexId",
          "type": "uint32"
        },
        {
          "internalType": "bool",
          "name": "approved",
          "type": "bool"
        },
        {
          "internalType": "uint128",
          "name": "units",
          "type": "uint128"
        },
        {
          "internalType": "uint256",
          "name": "pendingDistribution",
          "type": "uint256"
        }
      ],
      "stateMutability": "view",
      "type": "function"
    },
    {
      "inputs": [
        {
          "internalType": "contract ISuperToken",
          "name": "token",
          "type": "address"
        },
        {
          "internalType": "address",
          "name": "publisher",
          "type": "address"
        },
        {
          "internalType": "uint32",
          "name": "indexId",
          "type": "uint32"
        },
        {
          "internalType": "address",
          "name": "subscriber",
          "type": "address"
        }
      ],
      "name": "getSubscriptionTest",
      "outputs": [
        {
          "internalType": "bool",
          "name": "exist",
          "type": "bool"
        },
        {
          "internalType": "bool",
          "name": "approved",
          "type": "bool"
        },
        {
          "internalType": "uint128",
          "name": "units",
          "type": "uint128"
        },
        {
          "internalType": "uint256",
          "name": "pendingDistribution",
          "type": "uint256"
        }
      ],
      "stateMutability": "view",
      "type": "function"
    },
    {
      "inputs": [
        {
          "internalType": "contract ISuperToken",
          "name": "token",
          "type": "address"
        },
        {
          "internalType": "address",
          "name": "subscriber",
          "type": "address"
        }
      ],
      "name": "listSubscriptionsTest",
      "outputs": [
        {
          "internalType": "address[]",
          "name": "publishers",
          "type": "address[]"
        },
        {
          "internalType": "uint32[]",
          "name": "indexIds",
          "type": "uint32[]"
        },
        {
          "internalType": "uint128[]",
          "name": "unitsList",
          "type": "uint128[]"
        }
      ],
      "stateMutability": "view",
      "type": "function"
    },
    {
      "inputs": [
        {
          "internalType": "contract ISuperToken",
          "name": "token",
          "type": "address"
        },
        {
          "internalType": "address",
          "name": "publisher",
          "type": "address"
        },
        {
          "internalType": "uint32",
          "name": "indexId",
          "type": "uint32"
        }
      ],
      "name": "revokeSubscriptionTest",
      "outputs": [],
      "stateMutability": "nonpayable",
      "type": "function"
    },
    {
      "inputs": [
        {
          "internalType": "contract ISuperToken",
          "name": "token",
          "type": "address"
        },
        {
          "internalType": "address",
          "name": "publisher",
          "type": "address"
        },
        {
          "internalType": "uint32",
          "name": "indexId",
          "type": "uint32"
        },
        {
          "internalType": "bytes",
          "name": "userData",
          "type": "bytes"
        }
      ],
      "name": "revokeSubscriptionWithUserDataTest",
      "outputs": [],
      "stateMutability": "nonpayable",
      "type": "function"
    },
    {
      "inputs": [
        {
          "internalType": "contract ISuperToken",
          "name": "token",
          "type": "address"
        },
        {
          "internalType": "uint32",
          "name": "indexId",
          "type": "uint32"
        },
        {
          "internalType": "uint128",
          "name": "indexValue",
          "type": "uint128"
        }
      ],
      "name": "updateIndexValueTest",
      "outputs": [],
      "stateMutability": "nonpayable",
      "type": "function"
    },
    {
      "inputs": [
        {
          "internalType": "contract ISuperToken",
          "name": "token",
          "type": "address"
        },
        {
          "internalType": "uint32",
          "name": "indexId",
          "type": "uint32"
        },
        {
          "internalType": "uint128",
          "name": "indexValue",
          "type": "uint128"
        },
        {
          "internalType": "bytes",
          "name": "userData",
          "type": "bytes"
        }
      ],
      "name": "updateIndexValueWithUserDataTest",
      "outputs": [],
      "stateMutability": "nonpayable",
      "type": "function"
    },
    {
      "inputs": [
        {
          "internalType": "contract ISuperToken",
          "name": "token",
          "type": "address"
        },
        {
          "internalType": "uint32",
          "name": "indexId",
          "type": "uint32"
        },
        {
          "internalType": "address",
          "name": "subscriber",
          "type": "address"
        },
        {
          "internalType": "uint128",
          "name": "units",
          "type": "uint128"
        }
      ],
      "name": "updateSubscriptionUnitsTest",
      "outputs": [],
      "stateMutability": "nonpayable",
      "type": "function"
    },
    {
      "inputs": [
        {
          "internalType": "contract ISuperToken",
          "name": "token",
          "type": "address"
        },
        {
          "internalType": "uint32",
          "name": "indexId",
          "type": "uint32"
        },
        {
          "internalType": "address",
          "name": "subscriber",
          "type": "address"
        },
        {
          "internalType": "uint128",
          "name": "units",
          "type": "uint128"
        },
        {
          "internalType": "bytes",
          "name": "userData",
          "type": "bytes"
        }
      ],
      "name": "updateSubscriptionUnitsWithUserDataTest",
      "outputs": [],
      "stateMutability": "nonpayable",
      "type": "function"
    }
  ],
  "bytecode": "0x60806040523480156200001157600080fd5b50604051620034b9380380620034b98339810160408190526200003491620000c2565b600080546001600160a01b0319166001600160a01b03831690811782556040805163bd1c448b60e01b815264350000000160048201819052602482019290925260448101939093529163bd1c448b90606401600060405180830381600087803b158015620000a157600080fd5b505af1158015620000b6573d6000803e3d6000fd5b505050505050620000f4565b600060208284031215620000d557600080fd5b81516001600160a01b0381168114620000ed57600080fd5b9392505050565b6133b580620001046000396000f3fe608060405234801561001057600080fd5b50600436106101a95760003560e01c806353c11f99116100f95780639cdf4d6711610097578063d39363c011610071578063d39363c01461044e578063d86ed3e5146101e9578063eadc455114610461578063fe134e9f1461047457600080fd5b80639cdf4d67146103e4578063c9869ed0146103f7578063c9b8a2f61461040a57600080fd5b80636ddb6798116100d35780636ddb6798146103985780637489c503146103ab57806378bb14ea146103be578063884d1f40146103d157600080fd5b806353c11f991461035f5780635f9e7d77146103725780636436e3d31461038557600080fd5b806330d9c915116101665780634277b78f116101405780634277b78f146102e25780635002bb09146102f557806350c8da8f146103085780635158472c1461034c57600080fd5b806330d9c9151461029a5780633939709e146102ad5780634018cb64146102c057600080fd5b8063068f3d19146101ae57806306f75d2e146101c357806316dfe927146101d6578063230dbd29146101e957806325a108af146102125780632a722c061461026a575b600080fd5b6101c16101bc3660046123b1565b610487565b005b6101c16101d1366004612438565b6104a5565b6101c16101e43660046124ac565b6104c1565b6101fc6101f7366004612555565b6104db565b604051610209919061266f565b60405180910390f35b610225610220366004612689565b61052b565b604080516001600160a01b03909616865263ffffffff9094166020860152911515928401929092526001600160801b039091166060830152608082015260a001610209565b61027d6102783660046126b5565b610557565b604080519283526001600160801b03909116602083015201610209565b6101fc6102a8366004612706565b61057c565b6101c16102bb3660046127b9565b6105e4565b6102d36102ce3660046127fa565b6105f9565b60405161020993929190612877565b6101c16102f0366004612914565b61061d565b6101c1610303366004612967565b610633565b61031b6103163660046129c3565b610648565b6040805194151585526001600160801b03938416602086015291831691840191909152166060820152608001610209565b6101c161035a3660046123b1565b610672565b6101fc61036d366004612555565b610688565b6101fc610380366004612706565b6106ed565b6101c1610393366004612438565b610754565b6101c16103a63660046129c3565b610769565b6101c16103b9366004612a0e565b61077d565b6101c16103cc366004612a4f565b610791565b6101fc6103df366004612706565b6107a5565b6101c16103f2366004612a8f565b610808565b6101c1610405366004612967565b61081d565b61041d610418366004612967565b610832565b6040516102099493929190931515845291151560208401526001600160801b03166040830152606082015260800190565b6101c161045c3660046129c3565b61085e565b6101c161046f366004612ae0565b610872565b6101c1610482366004612b0e565b61088a565b61049d6001600160a01b0386168585858561089f565b505050505050565b6104ba6001600160a01b0385168484846109cd565b5050505050565b6104d56001600160a01b0384168383610af8565b50505050565b606061051d8a84848080601f016020809104026020016040519081016040528093929190818152602001838380828437600092019190915250610c2092505050565b9a9950505050505050505050565b6000808080806105446001600160a01b03881687610f3c565b939b929a50909850965090945092505050565b60008061056f6001600160a01b038716868686610fd8565b9150915094509492505050565b60405162461bcd60e51b815260206004820152602f60248201527f556e737570706f727465642063616c6c6261636b202d204265666f726520416760448201526e1c99595b595b9d0810dc99585d1959608a1b60648201526060906084015b60405180910390fd5b6104ba6001600160a01b03851684848461107d565b606080806106106001600160a01b03861685611108565b9250925092509250925092565b61049d6001600160a01b038616858585856111a1565b6104ba6001600160a01b03851684848461122e565b60008080806106616001600160a01b0388168787611304565b935093509350935093509350935093565b61049d6001600160a01b038616858585856113aa565b60405162461bcd60e51b815260206004820152603160248201527f556e737570706f727465642063616c6c6261636b202d2041667465722041677260448201527019595b595b9d0815195c9b5a5b985d1959607a1b60648201526060906084016105db565b60405162461bcd60e51b815260206004820152603360248201527f556e737570706f727465642063616c6c6261636b202d20204265666f7265204160448201527219dc99595b595b9d0815195c9b5a5b985d1959606a1b60648201526060906084016105db565b6104ba6001600160a01b0385168484846113f8565b6104d56001600160a01b0384168383611445565b6104d56001600160a01b0384168383611519565b6104d56001600160a01b03841683836115a4565b60405162461bcd60e51b815260206004820152602f60248201527f556e737570706f727465642063616c6c6261636b202d204265666f726520416760448201526e1c99595b595b9d081d5c19185d1959608a1b60648201526060906084016105db565b6104ba6001600160a01b03851684848461162f565b6104ba6001600160a01b0385168484846116bc565b600080808061084c6001600160a01b03891688888861170a565b929b919a509850909650945050505050565b6104d56001600160a01b03841683836117b9565b6108856001600160a01b03831682611806565b505050565b6104ba6001600160a01b03851684848461192b565b60008060006108ad886119b6565b91509150816001600160a01b03166339255d5b82836001600160a01b031663acafa1b88c8c8c8c60006001600160401b038111156108ed576108ed6122c5565b6040519080825280601f01601f191660200182016040528015610917576020820181803683370190505b5060405160240161092c959493929190612b61565b60408051808303601f1901815291815260208201805160e094851b6001600160e01b03909116179052519185901b6001600160e01b0319168252610977939250908990600401612bac565b6000604051808303816000875af1158015610996573d6000803e3d6000fd5b505050506040513d6000823e601f3d908101601f191682016040526109be9190810190612c39565b50600198975050505050505050565b60008060006109db876119b6565b91509150816001600160a01b03166339255d5b82836001600160a01b0316636041ae968b8b8b60006001600160401b03811115610a1a57610a1a6122c5565b6040519080825280601f01601f191660200182016040528015610a44576020820181803683370190505b50604051602401610a589493929190612c6d565b60408051808303601f1901815291815260208201805160e094851b6001600160e01b03909116179052519185901b6001600160e01b0319168252610aa3939250908990600401612bac565b6000604051808303816000875af1158015610ac2573d6000803e3d6000fd5b505050506040513d6000823e601f3d908101601f19168201604052610aea9190810190612c39565b506001979650505050505050565b6000806000610b06866119b6565b91509150816001600160a01b03166339255d5b82836001600160a01b031663d787840a8a8a60006001600160401b03811115610b4457610b446122c5565b6040519080825280601f01601f191660200182016040528015610b6e576020820181803683370190505b50604051602401610b8193929190612ca5565b60408051808303601f1901815291815260208201805160e094851b6001600160e01b03909116179052519185901b6001600160e01b0319168252610bcc939250908990600401612bac565b6000604051808303816000875af1158015610beb573d6000803e3d6000fd5b505050506040513d6000823e601f3d908101601f19168201604052610c139190810190612c39565b5060019695505050505050565b60008054604051631fb6491d60e11b8152606092916001600160a01b031690633f6c923a90610c5390869060040161266f565b600060405180830381865afa158015610c70573d6000803e3d6000fd5b505050506040513d6000823e601f3d908101601f19168201604052610c989190810190612d17565b60a001519050600080600080600085806020019051810190610cba9190612e1d565b93985091965094509250905060ff8516610cef57610ce26001600160a01b038a16858a611b7d565b9650505050505050610f36565b60001960ff861601610d0f57610ce26001600160a01b038a16858a611b7d565b60011960ff861601610d3057610ce26001600160a01b038a1685838b611ca3565b60021960ff861601610d5157610ce26001600160a01b038a1685838b611ca3565b60031960ff861601610d7b57610ce26001600160a01b038a16856001600160801b0384168b611dcc565b60041960ff861601610da557610ce26001600160a01b038a16856001600160801b0384168b611dcc565b60051960ff861601610dc657610ce26001600160a01b038a1684868b611e57565b60061960ff861601610de757610ce26001600160a01b038a1684868b611e57565b60071960ff861601610e0857610ce26001600160a01b038a1684868b611ee2565b60081960ff861601610e2957610ce26001600160a01b038a1684868b611ee2565b60091960ff861601610e4b57610ce26001600160a01b038a168584848c611f2f565b600a1960ff861601610e6d57610ce26001600160a01b038a168584848c611f2f565b600b1960ff861601610e8f57610ce26001600160a01b038a168486858c61205b565b600c1960ff861601610eb157610ce26001600160a01b038a168486858c61205b565b600d1960ff861601610ed357610ce26001600160a01b038a168486858c6120e8565b600e1960ff861601610ef557610ce26001600160a01b038a168486858c6120e8565b60405162461bcd60e51b81526020600482015260166024820152750d2dcecc2d8d2c840cceadcc6e8d2dedc40d2dcc8caf60531b60448201526064016105db565b92915050565b600080600080600080610f4e88612136565b60405163cd7245c560e01b81526001600160a01b038b81166004830152602482018b9052919350908316915063cd7245c59060440160a060405180830381865afa158015610fa0573d6000803e3d6000fd5b505050506040513d601f19601f82011682018060405250810190610fc49190612e9f565b939c929b5090995097509095509350505050565b6000806000610fe687612136565b604051632266eabb60e21b81526001600160a01b038a81166004830152898116602483015263ffffffff8916604483015260648201889052919350908316915063899baaec906084016040805180830381865afa15801561104b573d6000803e3d6000fd5b505050506040513d601f19601f8201168201806040525081019061106f9190612f06565b925092505094509492505050565b600080600061108b876119b6565b91509150816001600160a01b03166339255d5b82836001600160a01b0316637fbc76398b8b8b60006001600160401b038111156110ca576110ca6122c5565b6040519080825280601f01601f1916602001820160405280156110f4576020820181803683370190505b50604051602401610a589493929190612f2b565b6060806060600061111886612136565b6040516316db59b760e31b81526001600160a01b0389811660048301528881166024830152919350908316915063b6dacdb890604401600060405180830381865afa15801561116b573d6000803e3d6000fd5b505050506040513d6000823e601f3d908101601f191682016040526111939190810190613055565b935093509350509250925092565b60008060006111af886119b6565b91509150816001600160a01b03166339255d5b82836001600160a01b031663232d2b588c8c8c8c60006001600160401b038111156111ef576111ef6122c5565b6040519080825280601f01601f191660200182016040528015611219576020820181803683370190505b5060405160240161092c959493929190613133565b600080600061123c876119b6565b91509150816001600160a01b03166339255d5b82836001600160a01b0316632e5e74c68b8b8b8b60006001600160401b0381111561127c5761127c6122c5565b6040519080825280601f01601f1916602001820160405280156112a6576020820181803683370190505b506040516024016112bb959493929190612b61565b60408051808303601f1901815291815260208201805160e094851b6001600160e01b03909116179052519185901b6001600160e01b0319168252610aa39392509060040161317a565b600080600080600061131588612136565b6040516323fc23f360e01b81526001600160a01b038b811660048301528a8116602483015263ffffffff8a16604483015291935090831691506323fc23f390606401608060405180830381865afa158015611374573d6000803e3d6000fd5b505050506040513d601f19601f8201168201806040525081019061139891906131bf565b94509450945094505093509350935093565b60008060006113b8886119b6565b91509150816001600160a01b03166339255d5b82836001600160a01b0316632e5e74c68c8c8c8c60006001600160401b038111156108ed576108ed6122c5565b6000806000611406876119b6565b91509150816001600160a01b03166339255d5b82836001600160a01b031663acf4a6c28b8b8b60006001600160401b03811115610a1a57610a1a6122c5565b6000806000611453866119b6565b91509150816001600160a01b03166339255d5b82836001600160a01b031663acf4a6c28a8a8a60006001600160401b03811115611492576114926122c5565b6040519080825280601f01601f1916602001820160405280156114bc576020820181803683370190505b506040516024016114d09493929190612c6d565b60408051808303601f1901815291815260208201805160e094851b6001600160e01b03909116179052519185901b6001600160e01b0319168252610bcc9392509060040161317a565b6000806000611527866119b6565b91509150816001600160a01b03166339255d5b82836001600160a01b031663b96731c28a8a8a60006001600160401b03811115611566576115666122c5565b6040519080825280601f01601f191660200182016040528015611590576020820181803683370190505b506040516024016114d09493929190613210565b60008060006115b2866119b6565b91509150816001600160a01b03166339255d5b82836001600160a01b0316637fbc76398a8a8a60006001600160401b038111156115f1576115f16122c5565b6040519080825280601f01601f19166020018201604052801561161b576020820181803683370190505b506040516024016114d09493929190612f2b565b600080600061163d876119b6565b91509150816001600160a01b03166339255d5b82836001600160a01b031663232d2b588b8b8b8b60006001600160401b0381111561167d5761167d6122c5565b6040519080825280601f01601f1916602001820160405280156116a7576020820181803683370190505b506040516024016112bb959493929190613133565b60008060006116ca876119b6565b91509150816001600160a01b03166339255d5b82836001600160a01b031663acafa1b88b8b8b8b60006001600160401b0381111561127c5761127c6122c5565b600080600080600061171b89612136565b604051635b53405160e01b81526001600160a01b038c811660048301528b8116602483015263ffffffff8b16604483015289811660648301529193509083169150635b53405190608401608060405180830381865afa158015611782573d6000803e3d6000fd5b505050506040513d601f19601f820116820180604052508101906117a69190613243565b929c919b50995090975095505050505050565b60008060006117c7866119b6565b91509150816001600160a01b03166339255d5b82836001600160a01b0316636041ae968a8a8a60006001600160401b03811115611492576114926122c5565b6000806000611814856119b6565b91509150816001600160a01b03166339255d5b82836001600160a01b031663d787840a898960006001600160401b03811115611852576118526122c5565b6040519080825280601f01601f19166020018201604052801561187c576020820181803683370190505b5060405160240161188f93929190612ca5565b60408051808303601f1901815291815260208201805160e094851b6001600160e01b03909116179052519185901b6001600160e01b03191682526118d89392509060040161317a565b6000604051808303816000875af11580156118f7573d6000803e3d6000fd5b505050506040513d6000823e601f3d908101601f1916820160405261191f9190810190612c39565b50600195945050505050565b6000806000611939876119b6565b91509150816001600160a01b03166339255d5b82836001600160a01b031663b96731c28b8b8b60006001600160401b03811115611978576119786122c5565b6040519080825280601f01601f1916602001820160405280156119a2576020820181803683370190505b50604051602401610a589493929190613210565b7f65599bf746e17a00ea62e3610586992d88101b78eec3cf380706621fb97ea837547fa832ee1924ea960211af2df07d65d166232018f613ac6708043cd8f8773eddeb546001600160a01b038116611b4c576001600160a01b038216611a7b57826001600160a01b03166320bc44256040518163ffffffff1660e01b8152600401602060405180830381865afa158015611a54573d6000803e3d6000fd5b505050506040513d601f19601f82011682018060405250810190611a789190613290565b91505b604051635b69006f60e11b81527f8aedc3b5d4bf031e11a7e2940f7251c005698405d58e02e1c247fed3b1b3a67460048201526001600160a01b0383169063b6d200de90602401602060405180830381865afa158015611adf573d6000803e3d6000fd5b505050506040513d601f19601f82011682018060405250810190611b039190613290565b9050817f65599bf746e17a00ea62e3610586992d88101b78eec3cf380706621fb97ea83755807fa832ee1924ea960211af2df07d65d166232018f613ac6708043cd8f8773eddeb555b6001600160a01b038216611b6257611b626132ad565b6001600160a01b038116611b7857611b786132ad565b915091565b6060600080611b8b866119b6565b91509150816001600160a01b0316634329d29382836001600160a01b031663d787840a8a8a60006001600160401b03811115611bc957611bc96122c5565b6040519080825280601f01601f191660200182016040528015611bf3576020820181803683370190505b50604051602401611c0693929190612ca5565b60408051808303601f1901815291815260208201805160e094851b6001600160e01b03909116179052519185901b6001600160e01b0319168252611c519392509089906004016132c3565b6000604051808303816000875af1158015611c70573d6000803e3d6000fd5b505050506040513d6000823e601f3d908101601f19168201604052611c98919081019061331c565b509695505050505050565b6060600080611cb1876119b6565b91509150816001600160a01b0316634329d29382836001600160a01b0316637fbc76398b8b8b60006001600160401b03811115611cf057611cf06122c5565b6040519080825280601f01601f191660200182016040528015611d1a576020820181803683370190505b50604051602401611d2e9493929190612f2b565b60408051808303601f1901815291815260208201805160e094851b6001600160e01b03909116179052519185901b6001600160e01b0319168252611d799392509089906004016132c3565b6000604051808303816000875af1158015611d98573d6000803e3d6000fd5b505050506040513d6000823e601f3d908101601f19168201604052611dc0919081019061331c565b50979650505050505050565b6060600080611dda876119b6565b91509150816001600160a01b0316634329d29382836001600160a01b031663b96731c28b8b8b60006001600160401b03811115611e1957611e196122c5565b6040519080825280601f01601f191660200182016040528015611e43576020820181803683370190505b50604051602401611d2e9493929190613210565b6060600080611e65876119b6565b91509150816001600160a01b0316634329d29382836001600160a01b031663acf4a6c28b8b8b60006001600160401b03811115611ea457611ea46122c5565b6040519080825280601f01601f191660200182016040528015611ece576020820181803683370190505b50604051602401611d2e9493929190612c6d565b6060600080611ef0876119b6565b91509150816001600160a01b0316634329d29382836001600160a01b0316636041ae968b8b8b60006001600160401b03811115611ea457611ea46122c5565b6060600080611f3d886119b6565b91509150816001600160a01b0316634329d29382836001600160a01b031663232d2b588c8c8c8c60006001600160401b03811115611f7d57611f7d6122c5565b6040519080825280601f01601f191660200182016040528015611fa7576020820181803683370190505b50604051602401611fbc959493929190613133565b60408051808303601f1901815291815260208201805160e094851b6001600160e01b03909116179052519185901b6001600160e01b03191682526120079392509089906004016132c3565b6000604051808303816000875af1158015612026573d6000803e3d6000fd5b505050506040513d6000823e601f3d908101601f1916820160405261204e919081019061331c565b5098975050505050505050565b6060600080612069886119b6565b91509150816001600160a01b0316634329d29382836001600160a01b0316632e5e74c68c8c8c8c60006001600160401b038111156120a9576120a96122c5565b6040519080825280601f01601f1916602001820160405280156120d3576020820181803683370190505b50604051602401611fbc959493929190612b61565b60606000806120f6886119b6565b91509150816001600160a01b0316634329d29382836001600160a01b031663acafa1b88c8c8c8c60006001600160401b038111156120a9576120a96122c5565b7f65599bf746e17a00ea62e3610586992d88101b78eec3cf380706621fb97ea837547fa832ee1924ea960211af2df07d65d166232018f613ac6708043cd8f8773eddeb546001600160a01b038116611b4c576001600160a01b0382166121fb57826001600160a01b03166320bc44256040518163ffffffff1660e01b8152600401602060405180830381865afa1580156121d4573d6000803e3d6000fd5b505050506040513d601f19601f820116820180604052508101906121f89190613290565b91505b604051635b69006f60e11b81527f15609310ae3c30189a1218b7adabaf36c267255e70cf91b6cba384367d9eda3260048201526001600160a01b0383169063b6d200de90602401602060405180830381865afa15801561225f573d6000803e3d6000fd5b505050506040513d601f19601f820116820180604052508101906122839190613290565b90506001600160a01b038216611b6257611b626132ad565b6001600160a01b03811681146122b057600080fd5b50565b63ffffffff811681146122b057600080fd5b634e487b7160e01b600052604160045260246000fd5b60405161016081016001600160401b03811182821017156122fe576122fe6122c5565b60405290565b604051601f8201601f191681016001600160401b038111828210171561232c5761232c6122c5565b604052919050565b60006001600160401b0382111561234d5761234d6122c5565b50601f01601f191660200190565b600082601f83011261236c57600080fd5b813561237f61237a82612334565b612304565b81815284602083860101111561239457600080fd5b816020850160208301376000918101602001919091529392505050565b600080600080600060a086880312156123c957600080fd5b85356123d48161229b565b945060208601356123e48161229b565b935060408601356123f4816122b3565b925060608601356124048161229b565b915060808601356001600160401b0381111561241f57600080fd5b61242b8882890161235b565b9150509295509295909350565b6000806000806080858703121561244e57600080fd5b84356124598161229b565b935060208501356124698161229b565b92506040850135612479816122b3565b915060608501356001600160401b0381111561249457600080fd5b6124a08782880161235b565b91505092959194509250565b6000806000606084860312156124c157600080fd5b83356124cc8161229b565b925060208401356124dc816122b3565b915060408401356001600160401b038111156124f757600080fd5b6125038682870161235b565b9150509250925092565b60008083601f84011261251f57600080fd5b5081356001600160401b0381111561253657600080fd5b60208301915083602082850101111561254e57600080fd5b9250929050565b600080600080600080600080600060c08a8c03121561257357600080fd5b893561257e8161229b565b985060208a013561258e8161229b565b975060408a0135965060608a01356001600160401b03808211156125b157600080fd5b6125bd8d838e0161250d565b909850965060808c01359150808211156125d657600080fd5b6125e28d838e0161250d565b909650945060a08c01359150808211156125fb57600080fd5b506126088c828d0161250d565b915080935050809150509295985092959850929598565b60005b8381101561263a578181015183820152602001612622565b50506000910152565b6000815180845261265b81602086016020860161261f565b601f01601f19169290920160200192915050565b6020815260006126826020830184612643565b9392505050565b6000806040838503121561269c57600080fd5b82356126a78161229b565b946020939093013593505050565b600080600080608085870312156126cb57600080fd5b84356126d68161229b565b935060208501356126e68161229b565b925060408501356126f6816122b3565b9396929550929360600135925050565b600080600080600080600060a0888a03121561272157600080fd5b873561272c8161229b565b9650602088013561273c8161229b565b95506040880135945060608801356001600160401b038082111561275f57600080fd5b61276b8b838c0161250d565b909650945060808a013591508082111561278457600080fd5b506127918a828b0161250d565b989b979a50959850939692959293505050565b6001600160801b03811681146122b057600080fd5b600080600080608085870312156127cf57600080fd5b84356127da8161229b565b935060208501356127ea816122b3565b92506040850135612479816127a4565b6000806040838503121561280d57600080fd5b82356128188161229b565b915060208301356128288161229b565b809150509250929050565b600081518084526020808501945080840160005b8381101561286c5781516001600160801b031687529582019590820190600101612847565b509495945050505050565b606080825284519082018190526000906020906080840190828801845b828110156128b95781516001600160a01b031684529284019290840190600101612894565b5050508381038285015285518082528683019183019060005b818110156128f457835163ffffffff16835292840192918401916001016128d2565b505084810360408601526129088187612833565b98975050505050505050565b600080600080600060a0868803121561292c57600080fd5b85356129378161229b565b94506020860135612947816122b3565b935060408601356129578161229b565b92506060860135612404816127a4565b6000806000806080858703121561297d57600080fd5b84356129888161229b565b935060208501356129988161229b565b925060408501356129a8816122b3565b915060608501356129b88161229b565b939692955090935050565b6000806000606084860312156129d857600080fd5b83356129e38161229b565b925060208401356129f38161229b565b91506040840135612a03816122b3565b809150509250925092565b600080600060608486031215612a2357600080fd5b8335612a2e8161229b565b92506020840135612a3e816122b3565b929592945050506040919091013590565b600080600060608486031215612a6457600080fd5b8335612a6f8161229b565b92506020840135612a7f816122b3565b91506040840135612a03816127a4565b60008060008060808587031215612aa557600080fd5b8435612ab08161229b565b93506020850135612ac0816122b3565b92506040850135612ad08161229b565b915060608501356129b8816127a4565b60008060408385031215612af357600080fd5b8235612afe8161229b565b91506020830135612828816122b3565b60008060008060808587031215612b2457600080fd5b8435612b2f8161229b565b93506020850135612b3f816122b3565b92506040850135915060608501356001600160401b0381111561249457600080fd5b6001600160a01b038681168252858116602083015263ffffffff851660408301528316606082015260a060808201819052600090612ba190830184612643565b979650505050505050565b6001600160a01b0384168152606060208201819052600090612bd090830185612643565b8281036040840152612be28185612643565b9695505050505050565b600082601f830112612bfd57600080fd5b8151612c0b61237a82612334565b818152846020838601011115612c2057600080fd5b612c3182602083016020870161261f565b949350505050565b600060208284031215612c4b57600080fd5b81516001600160401b03811115612c6157600080fd5b612c3184828501612bec565b6001600160a01b0385811682528416602082015263ffffffff83166040820152608060608201819052600090612be290830184612643565b6001600160a01b038416815263ffffffff83166020820152606060408201819052600090612cd590830184612643565b95945050505050565b805160ff81168114612cef57600080fd5b919050565b8051612cef8161229b565b80516001600160e01b031981168114612cef57600080fd5b600060208284031215612d2957600080fd5b81516001600160401b0380821115612d4057600080fd5b908301906101608286031215612d5557600080fd5b612d5d6122db565b612d6683612cde565b8152612d7460208401612cde565b602082015260408301516040820152612d8f60608401612cf4565b6060820152612da060808401612cff565b608082015260a083015182811115612db757600080fd5b612dc387828601612bec565b60a08301525060c083015160c082015260e083015160e0820152610100915081830151828201526101209150612dfa828401612cf4565b828201526101409150612e0e828401612cf4565b91810191909152949350505050565b600080600080600060a08688031215612e3557600080fd5b612e3e86612cde565b94506020860151612e4e816122b3565b6040870151909450612e5f8161229b565b6060870151909350612e708161229b565b6080870151909250612e81816127a4565b809150509295509295909350565b80518015158114612cef57600080fd5b600080600080600060a08688031215612eb757600080fd5b8551612ec28161229b565b6020870151909550612ed3816122b3565b9350612ee160408701612e8f565b92506060860151612ef1816127a4565b80925050608086015190509295509295909350565b60008060408385031215612f1957600080fd5b825191506020830151612828816127a4565b6001600160a01b038516815263ffffffff841660208201526001600160801b0383166040820152608060608201819052600090612be290830184612643565b60006001600160401b03821115612f8357612f836122c5565b5060051b60200190565b600082601f830112612f9e57600080fd5b81516020612fae61237a83612f6a565b82815260059290921b84018101918181019086841115612fcd57600080fd5b8286015b84811015611c98578051612fe4816122b3565b8352918301918301612fd1565b600082601f83011261300257600080fd5b8151602061301261237a83612f6a565b82815260059290921b8401810191818101908684111561303157600080fd5b8286015b84811015611c98578051613048816127a4565b8352918301918301613035565b60008060006060848603121561306a57600080fd5b83516001600160401b038082111561308157600080fd5b818601915086601f83011261309557600080fd5b815160206130a561237a83612f6a565b82815260059290921b8401810191818101908a8411156130c457600080fd5b948201945b838610156130eb5785516130dc8161229b565b825294820194908201906130c9565b9189015191975090935050508082111561310457600080fd5b61311087838801612f8d565b9350604086015191508082111561312657600080fd5b5061250386828701612ff1565b6001600160a01b03868116825263ffffffff86166020830152841660408201526001600160801b038316606082015260a060808201819052600090612ba190830184612643565b6001600160a01b038316815260606020820181905260009061319e90830184612643565b8281036040840152612cd5816002815261060f60f31b602082015260400190565b600080600080608085870312156131d557600080fd5b6131de85612e8f565b935060208501516131ee816127a4565b60408601519093506131ff816127a4565b60608601519092506129b8816127a4565b60018060a01b038516815263ffffffff84166020820152826040820152608060608201526000612be26080830184612643565b6000806000806080858703121561325957600080fd5b61326285612e8f565b935061327060208601612e8f565b92506040850151613280816127a4565b6060959095015193969295505050565b6000602082840312156132a257600080fd5b81516126828161229b565b634e487b7160e01b600052600160045260246000fd5b6001600160a01b03841681526080602082018190526000906132e790830185612643565b8281036040840152613308816002815261060f60f31b602082015260400190565b90508281036060840152612be28185612643565b6000806040838503121561332f57600080fd5b82516001600160401b038082111561334657600080fd5b61335286838701612bec565b9350602085015191508082111561336857600080fd5b5061337585828601612bec565b915050925092905056fea2646970667358221220e4671d39289b8d0034d87455b9992c7f9ed0f786950ad3fd60751a0cdfa05e9164736f6c63430008100033",
  "linkReferences": {},
  "deployedLinkReferences": {}
}