{
  "_format": "hh-sol-artifact-1",
  "contractName": "SuperTokenFactoryMock42",
  "sourceName": "contracts/mocks/SuperTokenFactoryMock.sol",
  "abi": [
    {
      "inputs": [
        {
          "internalType": "contract ISuperfluid",
          "name": "host",
          "type": "address"
        },
        {
          "internalType": "contract SuperTokenFactoryMockHelper",
          "name": "helper",
          "type": "address"
        }
      ],
      "stateMutability": "nonpayable",
      "type": "constructor"
    },
    {
      "inputs": [],
      "name": "SUPER_TOKEN_FACTORY_ALREADY_EXISTS",
      "type": "error"
    },
    {
      "inputs": [],
      "name": "SUPER_TOKEN_FACTORY_DOES_NOT_EXIST",
      "type": "error"
    },
    {
      "inputs": [],
      "name": "SUPER_TOKEN_FACTORY_ONLY_GOVERNANCE_OWNER",
      "type": "error"
    },
    {
      "inputs": [],
      "name": "SUPER_TOKEN_FACTORY_ONLY_HOST",
      "type": "error"
    },
    {
      "inputs": [],
      "name": "SUPER_TOKEN_FACTORY_UNINITIALIZED",
      "type": "error"
    },
    {
      "inputs": [],
      "name": "SUPER_TOKEN_FACTORY_ZERO_ADDRESS",
      "type": "error"
    },
    {
      "anonymous": false,
      "inputs": [
        {
          "indexed": false,
          "internalType": "bytes32",
          "name": "uuid",
          "type": "bytes32"
        },
        {
          "indexed": false,
          "internalType": "address",
          "name": "codeAddress",
          "type": "address"
        }
      ],
      "name": "CodeUpdated",
      "type": "event"
    },
    {
      "anonymous": false,
      "inputs": [
        {
          "indexed": true,
          "internalType": "contract ISuperToken",
          "name": "token",
          "type": "address"
        }
      ],
      "name": "CustomSuperTokenCreated",
      "type": "event"
    },
    {
      "anonymous": false,
      "inputs": [
        {
          "indexed": false,
          "internalType": "uint8",
          "name": "version",
          "type": "uint8"
        }
      ],
      "name": "Initialized",
      "type": "event"
    },
    {
      "anonymous": false,
      "inputs": [
        {
          "indexed": true,
          "internalType": "contract ISuperToken",
          "name": "token",
          "type": "address"
        }
      ],
      "name": "SuperTokenCreated",
      "type": "event"
    },
    {
      "anonymous": false,
      "inputs": [
        {
          "indexed": true,
          "internalType": "contract ISuperToken",
          "name": "tokenLogic",
          "type": "address"
        }
      ],
      "name": "SuperTokenLogicCreated",
      "type": "event"
    },
    {
      "inputs": [],
      "name": "castrate",
      "outputs": [],
      "stateMutability": "nonpayable",
      "type": "function"
    },
    {
      "inputs": [
        {
          "internalType": "address",
          "name": "_underlyingToken",
          "type": "address"
        }
      ],
      "name": "computeCanonicalERC20WrapperAddress",
      "outputs": [
        {
          "internalType": "address",
          "name": "superTokenAddress",
          "type": "address"
        },
        {
          "internalType": "bool",
          "name": "isDeployed",
          "type": "bool"
        }
      ],
      "stateMutability": "view",
      "type": "function"
    },
    {
      "inputs": [
        {
          "internalType": "contract ERC20WithTokenInfo",
          "name": "_underlyingToken",
          "type": "address"
        }
      ],
      "name": "createCanonicalERC20Wrapper",
      "outputs": [
        {
          "internalType": "contract ISuperToken",
          "name": "",
          "type": "address"
        }
      ],
      "stateMutability": "nonpayable",
      "type": "function"
    },
    {
      "inputs": [
        {
          "internalType": "contract ERC20WithTokenInfo",
          "name": "underlyingToken",
          "type": "address"
        },
        {
          "internalType": "enum ISuperTokenFactory.Upgradability",
          "name": "upgradability",
          "type": "uint8"
        },
        {
          "internalType": "string",
          "name": "name",
          "type": "string"
        },
        {
          "internalType": "string",
          "name": "symbol",
          "type": "string"
        }
      ],
      "name": "createERC20Wrapper",
      "outputs": [
        {
          "internalType": "contract ISuperToken",
          "name": "superToken",
          "type": "address"
        }
      ],
      "stateMutability": "nonpayable",
      "type": "function"
    },
    {
      "inputs": [
        {
          "internalType": "contract IERC20",
          "name": "underlyingToken",
          "type": "address"
        },
        {
          "internalType": "uint8",
          "name": "underlyingDecimals",
          "type": "uint8"
        },
        {
          "internalType": "enum ISuperTokenFactory.Upgradability",
          "name": "upgradability",
          "type": "uint8"
        },
        {
          "internalType": "string",
          "name": "name",
          "type": "string"
        },
        {
          "internalType": "string",
          "name": "symbol",
          "type": "string"
        }
      ],
      "name": "createERC20Wrapper",
      "outputs": [
        {
          "internalType": "contract ISuperToken",
          "name": "superToken",
          "type": "address"
        }
      ],
      "stateMutability": "nonpayable",
      "type": "function"
    },
    {
      "inputs": [
        {
          "internalType": "contract ISuperfluid",
          "name": "host",
          "type": "address"
        }
      ],
      "name": "createSuperTokenLogic",
      "outputs": [
        {
          "internalType": "address",
          "name": "logic",
          "type": "address"
        }
      ],
      "stateMutability": "nonpayable",
      "type": "function"
    },
    {
      "inputs": [
        {
          "internalType": "address",
          "name": "_underlyingTokenAddress",
          "type": "address"
        }
      ],
      "name": "getCanonicalERC20Wrapper",
      "outputs": [
        {
          "internalType": "address",
          "name": "superTokenAddress",
          "type": "address"
        }
      ],
      "stateMutability": "view",
      "type": "function"
    },
    {
      "inputs": [],
      "name": "getCodeAddress",
      "outputs": [
        {
          "internalType": "address",
          "name": "codeAddress",
          "type": "address"
        }
      ],
      "stateMutability": "view",
      "type": "function"
    },
    {
      "inputs": [],
      "name": "getHost",
      "outputs": [
        {
          "internalType": "address",
          "name": "host",
          "type": "address"
        }
      ],
      "stateMutability": "view",
      "type": "function"
    },
    {
      "inputs": [],
      "name": "getSuperTokenLogic",
      "outputs": [
        {
          "internalType": "contract ISuperToken",
          "name": "",
          "type": "address"
        }
      ],
      "stateMutability": "view",
      "type": "function"
    },
    {
      "inputs": [],
      "name": "initialize",
      "outputs": [],
      "stateMutability": "nonpayable",
      "type": "function"
    },
    {
      "inputs": [
        {
          "components": [
            {
              "internalType": "address",
              "name": "underlyingToken",
              "type": "address"
            },
            {
              "internalType": "address",
              "name": "superToken",
              "type": "address"
            }
          ],
          "internalType": "struct SuperTokenFactoryBase.InitializeData[]",
          "name": "_data",
          "type": "tuple[]"
        }
      ],
      "name": "initializeCanonicalWrapperSuperTokens",
      "outputs": [],
      "stateMutability": "nonpayable",
      "type": "function"
    },
    {
      "inputs": [
        {
          "internalType": "address",
          "name": "customSuperTokenProxy",
          "type": "address"
        }
      ],
      "name": "initializeCustomSuperToken",
      "outputs": [],
      "stateMutability": "nonpayable",
      "type": "function"
    },
    {
      "inputs": [],
      "name": "proxiableUUID",
      "outputs": [
        {
          "internalType": "bytes32",
          "name": "",
          "type": "bytes32"
        }
      ],
      "stateMutability": "pure",
      "type": "function"
    },
    {
      "inputs": [
        {
          "internalType": "address",
          "name": "newAddress",
          "type": "address"
        }
      ],
      "name": "updateCode",
      "outputs": [],
      "stateMutability": "nonpayable",
      "type": "function"
    }
  ],
  "bytecode": "0x60c06040523480156200001157600080fd5b5060405162001e4e38038062001e4e833981016040819052620000349162000065565b6001600160a01b039182166080521660a052620000a4565b6001600160a01b03811681146200006257600080fd5b50565b600080604083850312156200007957600080fd5b825162000086816200004c565b602084015190925062000099816200004c565b809150509250929050565b60805160a051611d68620000e6600039600061071c01526000818161012c015281816106a10152818161089701528181610bbb01526112050152611d686000f3fe608060405234801561001057600080fd5b50600436106100f55760003560e01c80638129fc1c11610097578063a6d0c53411610066578063a6d0c534146101fb578063bab74c891461020e578063d412d34414610240578063eff0a89d1461025357600080fd5b80638129fc1c146101c15780639470a5b2146101c957806397e011ed146101e05780639903ad38146101f357600080fd5b806346951954116100d357806346951954146101635780634dcc4d791461017857806350d75d251461018b57806352d1902d1461019357600080fd5b8063151188dc146100fa57806320bc44251461012a578063431f148114610150575b600080fd5b61010d610108366004611372565b61027f565b6040516001600160a01b0390911681526020015b60405180910390f35b7f000000000000000000000000000000000000000000000000000000000000000061010d565b61010d61015e3660046113f3565b610619565b610176610171366004611372565b610696565b005b61010d610186366004611372565b6106f3565b61010d610791565b6040517fb146a22bc9644a3313a7e28592f37d32718a2b618d3d136aa524b0d86b87b6208152602001610121565b6101766107c0565b6000546201000090046001600160a01b031661010d565b6101766101ee366004611486565b610893565b610176610aa8565b61010d61020936600461150a565b610b62565b61022161021c366004611372565b610e13565b604080516001600160a01b039093168352901515602083015201610121565b61017661024e366004611372565b610f16565b61010d610261366004611372565b6001600160a01b039081166000908152600160205260409020541690565b600080805260016020527fa6eef7e35abe7026729641147f7915573c7e97b47efa546f5f6e3230263bcb49546001600160a01b03166102d1576040516306ce6e6d60e21b815260040160405180910390fd5b6001600160a01b03808316600090815260016020526040902054839116801561030d576040516348eb3cb960e11b815260040160405180910390fd5b604080516001600160a01b03841660208201526000910160405160208183030381529060405280519060200120905060008160405161034b90611343565b8190604051809103906000f590508015801561036b573d6000803e3d6000fd5b506001600160a01b0385811660009081526001602052604080822080546001600160a01b03191685851690811790915591549051634a0687ef60e01b8152620100009091049092166004830152919250634a0687ef90602401600060405180830381600087803b1580156103de57600080fd5b505af11580156103f2573d6000803e3d6000fd5b5050505060008190506000876001600160a01b031663313ce5676040518163ffffffff1660e01b8152600401602060405180830381865afa15801561043b573d6000803e3d6000fd5b505050506040513d601f19601f8201168201806040525081019061045f91906115b0565b90506000886001600160a01b03166306fdde036040518163ffffffff1660e01b8152600401600060405180830381865afa1580156104a1573d6000803e3d6000fd5b505050506040513d6000823e601f3d908101601f191682016040526104c99190810190611607565b90506000896001600160a01b03166395d89b416040518163ffffffff1660e01b8152600401600060405180830381865afa15801561050b573d6000803e3d6000fd5b505050506040513d6000823e601f3d908101601f191682016040526105339190810190611607565b9050836001600160a01b03166342fe09808b858560405160200161055791906116a9565b6040516020818303038152906040528560405160200161057791906116d7565b6040516020818303038152906040526040518563ffffffff1660e01b81526004016105a59493929190611728565b600060405180830381600087803b1580156105bf57600080fd5b505af11580156105d3573d6000803e3d6000fd5b50506040516001600160a01b03871692507fb52c6d9d122e8c07769b96d7bb14e66db58ee03fdebaaa2f92547e9c7ef0e65f9150600090a2509198975050505050505050565b600061068b87886001600160a01b031663313ce5676040518163ffffffff1660e01b8152600401602060405180830381865afa15801561065d573d6000803e3d6000fd5b505050506040513d601f19601f8201168201806040525081019061068191906115b0565b8888888888610b62565b979650505050505050565b336001600160a01b037f000000000000000000000000000000000000000000000000000000000000000016146106df5760405163478b8e8360e01b815260040160405180910390fd5b6106e881610fb4565b6106f06111ee565b50565b604051630ecaea7360e01b81526001600160a01b038281166004830152602a60248301526000917f000000000000000000000000000000000000000000000000000000000000000090911690630ecaea73906044016020604051808303816000875af1158015610767573d6000803e3d6000fd5b505050506040513d601f19601f8201168201806040525081019061078b9190611767565b92915050565b60006107bb7f360894a13ba1a3210667c828492db98dca3e2076cc3735a920a3ca505d382bbc5490565b905090565b600054610100900460ff16158080156107e05750600054600160ff909116105b806107fa5750303b1580156107fa575060005460ff166001145b61081f5760405162461bcd60e51b815260040161081690611784565b60405180910390fd5b6000805460ff191660011790558015610842576000805461ff0019166101001790555b61084a6111ee565b80156106f0576000805461ff0019169055604051600181527f7f26b83ff96e1f2b6a682f133852f6798a09c465da95921460cefb3847402498906020015b60405180910390a150565b60007f00000000000000000000000000000000000000000000000000000000000000006001600160a01b031663289b3c0d6040518163ffffffff1660e01b8152600401602060405180830381865afa1580156108f3573d6000803e3d6000fd5b505050506040513d601f19601f820116820180604052508101906109179190611767565b9050806001600160a01b0316638da5cb5b6040518163ffffffff1660e01b8152600401602060405180830381865afa158015610957573d6000803e3d6000fd5b505050506040513d601f19601f8201168201806040525081019061097b9190611767565b6001600160a01b0316336001600160a01b0316146109ac57604051632bf2a63360e21b815260040160405180910390fd5b6000805260016020527fa6eef7e35abe7026729641147f7915573c7e97b47efa546f5f6e3230263bcb49546001600160a01b0316156109fe576040516348eb3cb960e11b815260040160405180910390fd5b60005b82811015610aa257838382818110610a1b57610a1b6117d2565b9050604002016020016020810190610a339190611372565b60016000868685818110610a4957610a496117d2565b610a5f9260206040909202019081019150611372565b6001600160a01b039081168252602082019290925260400160002080546001600160a01b0319169290911691909117905580610a9a816117e8565b915050610a01565b50505050565b600054610100900460ff1615808015610ac85750600054600160ff909116105b80610ae25750303b158015610ae2575060005460ff166001145b610afe5760405162461bcd60e51b815260040161081690611784565b6000805460ff19166001179055801561084a576000805461ff00191661010017905580156106f0576000805461ff0019169055604051600181527f7f26b83ff96e1f2b6a682f133852f6798a09c465da95921460cefb384740249890602001610888565b60006001600160a01b038816610b8b5760405163182e4f4160e11b815260040160405180910390fd5b6000866002811115610b9f57610b9f61180f565b03610c3557604051634dcc4d7960e01b81526001600160a01b037f00000000000000000000000000000000000000000000000000000000000000001660048201523090634dcc4d79906024016020604051808303816000875af1158015610c0a573d6000803e3d6000fd5b505050506040513d601f19601f82011682018060405250810190610c2e9190611767565b9050610d6d565b6001866002811115610c4957610c4961180f565b03610ce9576000604051610c5c90611343565b604051809103906000f080158015610c78573d6000803e3d6000fd5b50600054604051634a0687ef60e01b81526001600160a01b036201000090920482166004820152919250821690634a0687ef90602401600060405180830381600087803b158015610cc857600080fd5b505af1158015610cdc573d6000803e3d6000fd5b5050505080915050610d6d565b6000604051610cf790611350565b604051809103906000f080158015610d13573d6000803e3d6000fd5b509050806001600160a01b0316638129fc1c6040518163ffffffff1660e01b8152600401600060405180830381600087803b158015610d5157600080fd5b505af1158015610d65573d6000803e3d6000fd5b509293505050505b6040516285fc1360e71b81526001600160a01b038216906342fe098090610da2908b908b908a908a908a908a9060040161184e565b600060405180830381600087803b158015610dbc57600080fd5b505af1158015610dd0573d6000803e3d6000fd5b50506040516001600160a01b03841692507fb52c6d9d122e8c07769b96d7bb14e66db58ee03fdebaaa2f92547e9c7ef0e65f9150600090a2979650505050505050565b6001600160a01b0380821660009081526001602052604081205490918291168015610e445780925060019150610f10565b600060405180602001610e5690611343565b601f1982820381018352601f9091011660408181526001600160a01b03881660208301529192506001600160f81b031991309101604051602081830303815290604052805190602001208380519060200120604051602001610eef94939291906001600160f81b031994909416845260609290921b6bffffffffffffffffffffffff191660018401526015830152603582015260550190565b6040516020818303038152906040528051906020012060001c935060009250505b50915091565b600054604051634a0687ef60e01b81526001600160a01b0362010000909204821660048201528291821690634a0687ef90602401600060405180830381600087803b158015610f6457600080fd5b505af1158015610f78573d6000803e3d6000fd5b50506040516001600160a01b03851692507f437790724a6e97b75d23117f28cdd4b1beeafc34f7a0911ef256e9334f4369a59150600090a25050565b6000610fde7f360894a13ba1a3210667c828492db98dca3e2076cc3735a920a3ca505d382bbc5490565b6001600160a01b0316036110345760405162461bcd60e51b815260206004820152601d60248201527f5555505350726f786961626c653a206e6f742075706772616461626c650000006044820152606401610816565b806001600160a01b03166352d1902d6040518163ffffffff1660e01b8152600401602060405180830381865afa158015611072573d6000803e3d6000fd5b505050506040513d601f19601f82011682018060405250810190611096919061189c565b7fb146a22bc9644a3313a7e28592f37d32718a2b618d3d136aa524b0d86b87b620146111105760405162461bcd60e51b815260206004820152602360248201527f5555505350726f786961626c653a206e6f7420636f6d70617469626c65206c6f60448201526267696360e81b6064820152608401610816565b6001600160a01b03811630036111685760405162461bcd60e51b815260206004820152601960248201527f5555505350726f786961626c653a2070726f7879206c6f6f70000000000000006044820152606401610816565b611190817f360894a13ba1a3210667c828492db98dca3e2076cc3735a920a3ca505d382bbc55565b7fe011bc04c286c344a8fcbb8de77f953da762c3e25d8cdea984147fc4168a5dcc7fb146a22bc9644a3313a7e28592f37d32718a2b618d3d136aa524b0d86b87b620604080519182526001600160a01b038416602083015201610888565b604051634dcc4d7960e01b81526001600160a01b037f00000000000000000000000000000000000000000000000000000000000000001660048201523090634dcc4d79906024016020604051808303816000875af1158015611254573d6000803e3d6000fd5b505050506040513d601f19601f820116820180604052508101906112789190611767565b600060026101000a8154816001600160a01b0302191690836001600160a01b03160217905550600060029054906101000a90046001600160a01b03166001600160a01b0316639903ad386040518163ffffffff1660e01b8152600401600060405180830381600087803b1580156112ee57600080fd5b505af1158015611302573d6000803e3d6000fd5b505060008054604051620100009091046001600160a01b031693507fc13fb19d60857980e565bf5dae406b8802d3c1cec50c6156b30b12b8740297839250a2565b61024a806118b683390190565b61023380611b0083390190565b6001600160a01b03811681146106f057600080fd5b60006020828403121561138457600080fd5b813561138f8161135d565b9392505050565b8035600381106113a557600080fd5b919050565b60008083601f8401126113bc57600080fd5b50813567ffffffffffffffff8111156113d457600080fd5b6020830191508360208285010111156113ec57600080fd5b9250929050565b6000806000806000806080878903121561140c57600080fd5b86356114178161135d565b955061142560208801611396565b9450604087013567ffffffffffffffff8082111561144257600080fd5b61144e8a838b016113aa565b9096509450606089013591508082111561146757600080fd5b5061147489828a016113aa565b979a9699509497509295939492505050565b6000806020838503121561149957600080fd5b823567ffffffffffffffff808211156114b157600080fd5b818501915085601f8301126114c557600080fd5b8135818111156114d457600080fd5b8660208260061b85010111156114e957600080fd5b60209290920196919550909350505050565b60ff811681146106f057600080fd5b600080600080600080600060a0888a03121561152557600080fd5b87356115308161135d565b96506020880135611540816114fb565b955061154e60408901611396565b9450606088013567ffffffffffffffff8082111561156b57600080fd5b6115778b838c016113aa565b909650945060808a013591508082111561159057600080fd5b5061159d8a828b016113aa565b989b979a50959850939692959293505050565b6000602082840312156115c257600080fd5b815161138f816114fb565b634e487b7160e01b600052604160045260246000fd5b60005b838110156115fe5781810151838201526020016115e6565b50506000910152565b60006020828403121561161957600080fd5b815167ffffffffffffffff8082111561163157600080fd5b818401915084601f83011261164557600080fd5b815181811115611657576116576115cd565b604051601f8201601f19908116603f0116810190838211818310171561167f5761167f6115cd565b8160405282815287602084870101111561169857600080fd5b61068b8360208301602088016115e3565b65029bab832b9160d51b8152600082516116ca8160068501602087016115e3565b9190910160060192915050565b600082516116e98184602087016115e3565b600f60fb1b920191825250600101919050565b600081518084526117148160208601602086016115e3565b601f01601f19169290920160200192915050565b6001600160a01b038516815260ff84166020820152608060408201819052600090611755908301856116fc565b828103606084015261068b81856116fc565b60006020828403121561177957600080fd5b815161138f8161135d565b6020808252602e908201527f496e697469616c697a61626c653a20636f6e747261637420697320616c72656160408201526d191e481a5b9a5d1a585b1a5e995960921b606082015260800190565b634e487b7160e01b600052603260045260246000fd5b60006001820161180857634e487b7160e01b600052601160045260246000fd5b5060010190565b634e487b7160e01b600052602160045260246000fd5b81835281816020850137506000828201602090810191909152601f909101601f19169091010190565b6001600160a01b038716815260ff8616602082015260806040820181905260009061187c9083018688611825565b828103606084015261188f818587611825565b9998505050505050505050565b6000602082840312156118ae57600080fd5b505191905056fe608060405234801561001057600080fd5b5061022a806100206000396000f3fe6080604052600436106100225760003560e01c80634a0687ef1461003957610031565b366100315761002f610059565b005b61002f610059565b34801561004557600080fd5b5061002f6100543660046101c4565b61006b565b610069610064610171565b6101a0565b565b6001600160a01b0381166100c65760405162461bcd60e51b815260206004820152601760248201527f5555505350726f78793a207a65726f206164647265737300000000000000000060448201526064015b60405180910390fd5b60006100f07f360894a13ba1a3210667c828492db98dca3e2076cc3735a920a3ca505d382bbc5490565b6001600160a01b0316146101465760405162461bcd60e51b815260206004820152601e60248201527f5555505350726f78793a20616c726561647920696e697469616c697a6564000060448201526064016100bd565b61016e817f360894a13ba1a3210667c828492db98dca3e2076cc3735a920a3ca505d382bbc55565b50565b600061019b7f360894a13ba1a3210667c828492db98dca3e2076cc3735a920a3ca505d382bbc5490565b905090565b3660008037600080366000845af43d6000803e8080156101bf573d6000f35b3d6000fd5b6000602082840312156101d657600080fd5b81356001600160a01b03811681146101ed57600080fd5b939250505056fea26469706673582212209b58aa53d1a30f60f937a8ec6ab95e94f3b48e2e1cae54384ae904ce731e1a4e64736f6c63430008100033608060405234801561001057600080fd5b50610213806100206000396000f3fe6080604052600436106100225760003560e01c80638129fc1c1461003957610031565b366100315761002f61004e565b005b61002f61004e565b34801561004557600080fd5b5061002f610060565b61005e6100596100d0565b610173565b565b7fb8fcd5719b3ddf8626f3664705a89b7fc476129a58c1aa5eda57c600cc1821a0546001600160a01b038116156100aa576040516305c5d81960e01b815260040160405180910390fd5b50337fb8fcd5719b3ddf8626f3664705a89b7fc476129a58c1aa5eda57c600cc1821a055565b7fb8fcd5719b3ddf8626f3664705a89b7fc476129a58c1aa5eda57c600cc1821a0546000906001600160a01b03811661010b5761010b610197565b806001600160a01b0316639470a5b26040518163ffffffff1660e01b8152600401602060405180830381865afa158015610149573d6000803e3d6000fd5b505050506040513d601f19601f8201168201806040525081019061016d91906101ad565b91505090565b3660008037600080366000845af43d6000803e808015610192573d6000f35b3d6000fd5b634e487b7160e01b600052600160045260246000fd5b6000602082840312156101bf57600080fd5b81516001600160a01b03811681146101d657600080fd5b939250505056fea2646970667358221220a8b65c73e76c1cd1d055a1dcb94db8e993b101cd6795e0a31a71e054d0a9732464736f6c63430008100033a264697066735822122066dc2c722240eb705561bff833ca9c5ff1d2b95e2c09cbe4f00dad523774d92864736f6c63430008100033",
  "linkReferences": {},
  "deployedLinkReferences": {}
}