{
  "_format": "hh-sol-artifact-1",
  "contractName": "SuperfluidFrameworkDeployer",
  "sourceName": "contracts/utils/SuperfluidFrameworkDeployer.sol",
  "abi": [
    {
      "inputs": [],
      "stateMutability": "nonpayable",
      "type": "constructor"
    },
    {
      "inputs": [],
      "name": "RESOLVER_BASE_SUPER_TOKEN_KEY",
      "outputs": [
        {
          "internalType": "string",
          "name": "",
          "type": "string"
        }
      ],
      "stateMutability": "view",
      "type": "function"
    },
    {
      "inputs": [],
      "name": "RESOLVER_BASE_TOKEN_KEY",
      "outputs": [
        {
          "internalType": "string",
          "name": "",
          "type": "string"
        }
      ],
      "stateMutability": "view",
      "type": "function"
    },
    {
      "inputs": [
        {
          "internalType": "string",
          "name": "_name",
          "type": "string"
        },
        {
          "internalType": "string",
          "name": "_symbol",
          "type": "string"
        }
      ],
      "name": "deployNativeAssetSuperToken",
      "outputs": [
        {
          "internalType": "contract ISETH",
          "name": "nativeAssetSuperToken",
          "type": "address"
        }
      ],
      "stateMutability": "nonpayable",
      "type": "function"
    },
    {
      "inputs": [
        {
          "internalType": "string",
          "name": "_name",
          "type": "string"
        },
        {
          "internalType": "string",
          "name": "_symbol",
          "type": "string"
        },
        {
          "internalType": "uint256",
          "name": "_initialSupply",
          "type": "uint256"
        }
      ],
      "name": "deployPureSuperToken",
      "outputs": [
        {
          "internalType": "contract IPureSuperToken",
          "name": "pureSuperToken",
          "type": "address"
        }
      ],
      "stateMutability": "nonpayable",
      "type": "function"
    },
    {
      "inputs": [
        {
          "internalType": "string",
          "name": "_underlyingName",
          "type": "string"
        },
        {
          "internalType": "string",
          "name": "_underlyingSymbol",
          "type": "string"
        },
        {
          "internalType": "uint8",
          "name": "_decimals",
          "type": "uint8"
        },
        {
          "internalType": "uint256",
          "name": "_mintLimit",
          "type": "uint256"
        }
      ],
      "name": "deployWrapperSuperToken",
      "outputs": [
        {
          "internalType": "contract TestToken",
          "name": "underlyingToken",
          "type": "address"
        },
        {
          "internalType": "contract SuperToken",
          "name": "superToken",
          "type": "address"
        }
      ],
      "stateMutability": "nonpayable",
      "type": "function"
    },
    {
      "inputs": [],
      "name": "getFramework",
      "outputs": [
        {
          "components": [
            {
              "internalType": "contract TestGovernance",
              "name": "governance",
              "type": "address"
            },
            {
              "internalType": "contract Superfluid",
              "name": "host",
              "type": "address"
            },
            {
              "internalType": "contract ConstantFlowAgreementV1",
              "name": "cfa",
              "type": "address"
            },
            {
              "components": [
                {
                  "internalType": "contract ISuperfluid",
                  "name": "host",
                  "type": "address"
                },
                {
                  "internalType": "contract IConstantFlowAgreementV1",
                  "name": "cfa",
                  "type": "address"
                }
              ],
              "internalType": "struct CFAv1Library.InitData",
              "name": "cfaLib",
              "type": "tuple"
            },
            {
              "internalType": "contract InstantDistributionAgreementV1",
              "name": "ida",
              "type": "address"
            },
            {
              "components": [
                {
                  "internalType": "contract ISuperfluid",
                  "name": "host",
                  "type": "address"
                },
                {
                  "internalType": "contract IInstantDistributionAgreementV1",
                  "name": "ida",
                  "type": "address"
                }
              ],
              "internalType": "struct IDAv1Library.InitData",
              "name": "idaLib",
              "type": "tuple"
            },
            {
              "internalType": "contract SuperTokenFactory",
              "name": "superTokenFactory",
              "type": "address"
            },
            {
              "internalType": "contract TestResolver",
              "name": "resolver",
              "type": "address"
            },
            {
              "internalType": "contract SuperfluidLoader",
              "name": "superfluidLoader",
              "type": "address"
            },
            {
              "internalType": "contract CFAv1Forwarder",
              "name": "cfaV1Forwarder",
              "type": "address"
            }
          ],
          "internalType": "struct SuperfluidFrameworkDeployer.Framework",
          "name": "sf",
          "type": "tuple"
        }
      ],
      "stateMutability": "view",
      "type": "function"
    }
  ],
  "bytecode": "0x60806040523480156200001157600080fd5b5073__$755048f6702cd9120fbdffde92682d39c9$__63c3acf1b36040518163ffffffff1660e01b8152600401602060405180830381865af41580156200005c573d6000803e3d6000fd5b505050506040513d601f19601f8201168201806040525081019062000082919062000a94565b600080546001600160a01b0319166001600160a01b03929092169182179055604051633f5b172b60e11b8152600481019190915230602482015273__$755048f6702cd9120fbdffde92682d39c9$__90637eb62e569060440160006040518083038186803b158015620000f457600080fd5b505af415801562000109573d6000803e3d6000fd5b5050604051638a25422160e01b8152600160048201526000602482015273__$3f23398ebef7c119dfc7e06d0ee8fd4403$__9250638a2542219150604401602060405180830381865af415801562000165573d6000803e3d6000fd5b505050506040513d601f19601f820116820180604052508101906200018b919062000a94565b600180546001600160a01b0319166001600160a01b0392831690811790915560005460405163189acdbd60e31b8152921660048301529063c4d66de890602401600060405180830381600087803b158015620001e657600080fd5b505af1158015620001fb573d6000803e3d6000fd5b50600092508291506200020b9050565b60405190808252806020026020018201604052801562000235578160200160208202803683370190505b50600054600154604051630b520f0360e31b81529293506001600160a01b0391821692635a907818926200027b9216906045906138409061070890889060040162000b01565b600060405180830381600087803b1580156200029657600080fd5b505af1158015620002ab573d6000803e3d6000fd5b5050600154604051637b38e54160e01b81526001600160a01b0390911660048201526000602482015273__$b4c3d2c4c4644283f04d39fad59a7abb25$__9250637b38e5419150604401602060405180830381865af415801562000313573d6000803e3d6000fd5b505050506040513d601f19601f8201168201806040525081019062000339919062000a94565b600280546001600160a01b0319166001600160a01b0392831690811790915560005460015460405163cadf8f8560e01b8152908416600482015260248101929092529091169063cadf8f8590604401600060405180830381600087803b158015620003a357600080fd5b505af1158015620003b8573d6000803e3d6000fd5b50506001546040516001600160a01b039091169250620003d9915062000a5f565b6001600160a01b039091168152602001604051809103906000f08015801562000406573d6000803e3d6000fd5b50600780546001600160a01b0319166001600160a01b03928316908117909155600080546001546040516355c2378d60e11b815290851660048201526024810192909252604482019290925291169063ab846f1a90606401600060405180830381600087803b1580156200047957600080fd5b505af11580156200048e573d6000803e3d6000fd5b5050600154604051630cce0ce360e31b81526001600160a01b03909116600482015273__$028eff5f0409fdbdb481a25927e39f8293$__925063667067189150602401602060405180830381865af4158015620004ef573d6000803e3d6000fd5b505050506040513d601f19601f8201168201806040525081019062000515919062000a94565b600380546001600160a01b0319166001600160a01b0392831690811790915560005460015460405163cadf8f8560e01b8152908416600482015260248101929092529091169063cadf8f8590604401600060405180830381600087803b1580156200057f57600080fd5b505af115801562000594573d6000803e3d6000fd5b50505050600073__$4dd0a060b2478ed327e37de23a8093a60f$__63b8ea201b6040518163ffffffff1660e01b8152600401602060405180830381865af4158015620005e4573d6000803e3d6000fd5b505050506040513d601f19601f820116820180604052508101906200060a919062000a94565b6001546040516353039d3d60e11b81526001600160a01b039182166004820152908216602482015290915073__$0650184630fb824f3ce7a4098e1c4e02ac$__9063a6073a7a90604401602060405180830381865af415801562000672573d6000803e3d6000fd5b505050506040513d601f19601f8201168201806040525081019062000698919062000a94565b600480546001600160a01b0319166001600160a01b039283169081179091556000805460015460408051848152602081019182905263109e50a960e21b9091529185169463427942a494620006f7949290911692906024820162000b48565b600060405180830381600087803b1580156200071257600080fd5b505af115801562000727573d6000803e3d6000fd5b5050604051632f0f279d60e01b815233600482015273__$0650184630fb824f3ce7a4098e1c4e02ac$__9250632f0f279d9150602401602060405180830381865af41580156200077b573d6000803e3d6000fd5b505050506040513d601f19601f82011682018060405250810190620007a1919062000a94565b600580546001600160a01b0319166001600160a01b03929092169182179055604051620007ce9062000a6d565b6001600160a01b039091168152602001604051809103906000f080158015620007fb573d6000803e3d6000fd5b50600680546001600160a01b0319166001600160a01b039283161790556005546000546040805163a815ff1560e01b81526004810191909152601360448201527f54657374476f7665726e616e63652e74657374000000000000000000000000006064820152908316602482015291169063a815ff1590608401600060405180830381600087803b1580156200089057600080fd5b505af1158015620008a5573d6000803e3d6000fd5b50506005546001546040805163a815ff1560e01b81526004810191909152600f60448201526e14dd5c195c999b1d5a590b9d195cdd608a1b60648201526001600160a01b0391821660248201529116925063a815ff159150608401600060405180830381600087803b1580156200091b57600080fd5b505af115801562000930573d6000803e3d6000fd5b50506005546006546040805163a815ff1560e01b81526004810191909152601360448201527f5375706572666c7569644c6f616465722d76310000000000000000000000000060648201526001600160a01b0391821660248201529116925063a815ff159150608401600060405180830381600087803b158015620009b457600080fd5b505af1158015620009c9573d6000803e3d6000fd5b50506005546007546040805163a815ff1560e01b81526004810191909152600e60448201526d21a320bb18a337b93bb0b93232b960911b60648201526001600160a01b0391821660248201529116925063a815ff159150608401600060405180830381600087803b15801562000a3e57600080fd5b505af115801562000a53573d6000803e3d6000fd5b50505050505062000b88565b6117db806200329f83390190565b6104ea8062004a7a83390190565b6001600160a01b038116811462000a9157600080fd5b50565b60006020828403121562000aa757600080fd5b815162000ab48162000a7b565b9392505050565b600081518084526020808501945080840160005b8381101562000af65781516001600160a01b03168752958201959082019060010162000acf565b509495945050505050565b6001600160a01b03868116825285166020820152604081018490526060810183905260a06080820181905260009062000b3d9083018462000abb565b979650505050505050565b600060018060a01b03808716835280861660208401526080604084015262000b74608084018662000abb565b915080841660608401525095945050505050565b6127078062000b986000396000f3fe60806040523480156200001157600080fd5b50600436106200006a5760003560e01c80633df285fe146200006f57806362a32e1e14620000b85780637dc2dc1214620000e4578063cbcd7449146200011c578063dfa98ad5146200014c578063fa0215fc146200026a575b600080fd5b620000a06040518060400160405280601181526020017039bab832b93a37b5b2b739973a32b9ba1760791b81525081565b604051620000af919062000929565b60405180910390f35b620000a06040518060400160405280600c81526020016b3a37b5b2b739973a32b9ba1760a11b81525081565b620000fb620000f536600462000991565b62000281565b604080516001600160a01b03938416815292909116602083015201620000af565b620001336200012d36600462000a2b565b6200051d565b6040516001600160a01b039091168152602001620000af565b6200025b604080516101408101825260008082526020808301829052828401829052835180850185528281528082018390526060840152608083018290528351808501909452818452830181905260a082019290925260c0810182905260e0810182905261010081018290526101208101919091525060408051610140810182526000546001600160a01b03908116825260015481166020808401829052600254831684860181905285518087018752838152808301919091526060850152600354831660808501819052855180870190965291855284015260a0820192909252600454821660c0820152600554821660e0820152600654821661010082015260075490911661012082015290565b604051620000af919062000a9e565b620001336200027b36600462000bb0565b62000670565b6000808787878787876040516200029890620008ab565b620002a99695949392919062000c54565b604051809103906000f080158015620002c6573d6000803e3d6000fd5b506004546040519193506001600160a01b03169063431f1481908490600190620002f7908b908b9060200162000c98565b6040516020818303038152906040528a8a6040516020016200031b92919062000cba565b6040516020818303038152906040526040518563ffffffff1660e01b81526004016200034b949392919062000cd0565b6020604051808303816000875af11580156200036b573d6000803e3d6000fd5b505050506040513d601f19601f8201168201806040525081019062000391919062000d38565b90506200045060016040518060400160405280600c81526020016b3a37b5b2b739973a32b9ba1760a11b815250846001600160a01b03166395d89b416040518163ffffffff1660e01b8152600401600060405180830381865afa158015620003fd573d6000803e3d6000fd5b505050506040513d6000823e601f3d908101601f1916820160405262000427919081019062000d79565b6040516020016200043a92919062000e27565b6040516020818303038152906040528462000836565b6200051260016040518060400160405280601181526020017039bab832b93a37b5b2b739973a32b9ba1760791b815250836001600160a01b03166395d89b416040518163ffffffff1660e01b8152600401600060405180830381865afa158015620004bf573d6000803e3d6000fd5b505050506040513d6000823e601f3d908101601f19168201604052620004e9919081019062000d79565b604051602001620004fc92919062000e27565b6040516020818303038152906040528362000836565b965096945050505050565b6000806040516200052e90620008b9565b604051809103906000f0801580156200054b573d6000803e3d6000fd5b5060048054604051633504b4d160e21b81526001600160a01b0380851693820193909352929450849350169063d412d34490602401600060405180830381600087803b1580156200059b57600080fd5b505af1158015620005b0573d6000803e3d6000fd5b50506040516285fc1360e71b81526001600160a01b03851692506342fe09809150620005ed906000906012908b908b908b908b9060040162000e5a565b600060405180830381600087803b1580156200060857600080fd5b505af11580156200061d573d6000803e3d6000fd5b505050506200066760016040518060400160405280601181526020017039bab832b93a37b5b2b739973a32b9ba1760791b81525086866040516020016200043a9392919062000eac565b50949350505050565b6000806040516200068190620008c7565b604051809103906000f0801580156200069e573d6000803e3d6000fd5b5060048054604051633504b4d160e21b81526001600160a01b0380851693820193909352929350169063d412d34490602401600060405180830381600087803b158015620006eb57600080fd5b505af115801562000700573d6000803e3d6000fd5b505060405163588ca48760e11b81526001600160a01b038416925063b119490e91506200073a908a908a908a908a908a9060040162000ed6565b600060405180830381600087803b1580156200075557600080fd5b505af11580156200076a573d6000803e3d6000fd5b50505050809150620007b760016040518060400160405280601181526020017039bab832b93a37b5b2b739973a32b9ba1760791b81525087876040516020016200043a9392919062000eac565b60405163a9059cbb60e01b8152336004820152602481018490526001600160a01b0383169063a9059cbb906044016020604051808303816000875af115801562000805573d6000803e3d6000fd5b505050506040513d601f19601f820116820180604052508101906200082b919062000f14565b505095945050505050565b8215620008a65760055460405163a815ff1560e01b81526001600160a01b039091169063a815ff159062000871908590859060040162000f38565b600060405180830381600087803b1580156200088c57600080fd5b505af1158015620008a1573d6000803e3d6000fd5b505050505b505050565b610cce8062000f6583390190565b6105c48062001c3383390190565b6104db80620021f783390190565b60005b83811015620008f2578181015183820152602001620008d8565b50506000910152565b6000815180845262000915816020860160208601620008d5565b601f01601f19169290920160200192915050565b6020815260006200093e6020830184620008fb565b9392505050565b60008083601f8401126200095857600080fd5b50813567ffffffffffffffff8111156200097157600080fd5b6020830191508360208285010111156200098a57600080fd5b9250929050565b60008060008060008060808789031215620009ab57600080fd5b863567ffffffffffffffff80821115620009c457600080fd5b620009d28a838b0162000945565b90985096506020890135915080821115620009ec57600080fd5b50620009fb89828a0162000945565b909550935050604087013560ff8116811462000a1657600080fd5b80925050606087013590509295509295509295565b6000806000806040858703121562000a4257600080fd5b843567ffffffffffffffff8082111562000a5b57600080fd5b62000a698883890162000945565b9096509450602087013591508082111562000a8357600080fd5b5062000a928782880162000945565b95989497509550505050565b81516001600160a01b031681526101808101602083015162000acb60208401826001600160a01b03169052565b50604083015162000ae760408401826001600160a01b03169052565b50606083015162000b11606084018280516001600160a01b03908116835260209182015116910152565b5060808301516001600160a01b03811660a08401525060a083015180516001600160a01b0390811660c085015260208201511660e08401525060c083015161010062000b67818501836001600160a01b03169052565b60e0850151915061012062000b86818601846001600160a01b03169052565b908501516001600160a01b0390811661014086015294015190931661016090920191909152919050565b60008060008060006060868803121562000bc957600080fd5b853567ffffffffffffffff8082111562000be257600080fd5b62000bf089838a0162000945565b9097509550602088013591508082111562000c0a57600080fd5b5062000c198882890162000945565b96999598509660400135949350505050565b81835281816020850137506000828201602090810191909152601f909101601f19169091010190565b60808152600062000c6a60808301888a62000c2b565b828103602084015262000c7f81878962000c2b565b60ff959095166040840152505060600152949350505050565b65029bab832b9160d51b81528183600683013760009101600601908152919050565b81838237600f60fb1b9101908152600101919050565b6001600160a01b038516815260006003851062000cfd57634e487b7160e01b600052602160045260246000fd5b8460208301526080604083015262000d196080830185620008fb565b828103606084015262000d2d8185620008fb565b979650505050505050565b60006020828403121562000d4b57600080fd5b81516001600160a01b03811681146200093e57600080fd5b634e487b7160e01b600052604160045260246000fd5b60006020828403121562000d8c57600080fd5b815167ffffffffffffffff8082111562000da557600080fd5b818401915084601f83011262000dba57600080fd5b81518181111562000dcf5762000dcf62000d63565b604051601f8201601f19908116603f0116810190838211818310171562000dfa5762000dfa62000d63565b8160405282815287602084870101111562000e1457600080fd5b62000d2d836020830160208801620008d5565b6000835162000e3b818460208801620008d5565b83519083019062000e51818360208801620008d5565b01949350505050565b6001600160a01b038716815260ff8616602082015260806040820181905260009062000e8a908301868862000c2b565b828103606084015262000e9f81858762000c2b565b9998505050505050505050565b6000845162000ec0818460208901620008d5565b8201838582376000930192835250909392505050565b60608152600062000eec60608301878962000c2b565b828103602084015262000f0181868862000c2b565b9150508260408301529695505050505050565b60006020828403121562000f2757600080fd5b815180151581146200093e57600080fd5b60408152600062000f4d6040830185620008fb565b905060018060a01b0383166020830152939250505056fe60a06040523480156200001157600080fd5b5060405162000cce38038062000cce83398101604081905262000034916200013c565b8383600362000044838262000256565b50600462000053828262000256565b50506005805460ff191660ff94909416939093179092556080525062000322915050565b634e487b7160e01b600052604160045260246000fd5b600082601f8301126200009f57600080fd5b81516001600160401b0380821115620000bc57620000bc62000077565b604051601f8301601f19908116603f01168101908282118183101715620000e757620000e762000077565b816040528381526020925086838588010111156200010457600080fd5b600091505b8382101562000128578582018301518183018401529082019062000109565b600093810190920192909252949350505050565b600080600080608085870312156200015357600080fd5b84516001600160401b03808211156200016b57600080fd5b62000179888389016200008d565b955060208701519150808211156200019057600080fd5b506200019f878288016200008d565b935050604085015160ff81168114620001b757600080fd5b6060959095015193969295505050565b600181811c90821680620001dc57607f821691505b602082108103620001fd57634e487b7160e01b600052602260045260246000fd5b50919050565b601f8211156200025157600081815260208120601f850160051c810160208610156200022c5750805b601f850160051c820191505b818110156200024d5782815560010162000238565b5050505b505050565b81516001600160401b0381111562000272576200027262000077565b6200028a81620002838454620001c7565b8462000203565b602080601f831160018114620002c25760008415620002a95750858301515b600019600386901b1c1916600185901b1785556200024d565b600085815260208120601f198616915b82811015620002f357888601518255948401946001909101908401620002d2565b5085821015620003125787850151600019600388901b60f8161c191681555b5050505050600190811b01905550565b6080516109906200033e60003960006102ba01526109906000f3fe608060405234801561001057600080fd5b50600436106100b45760003560e01c806340c10f191161007157806340c10f191461014757806370a082311461015a57806395d89b4114610183578063a457c2d71461018b578063a9059cbb1461019e578063dd62ed3e146101b157600080fd5b806306fdde03146100b9578063095ea7b3146100d757806318160ddd146100fa57806323b872dd1461010c578063313ce5671461011f5780633950935114610134575b600080fd5b6100c16101c4565b6040516100ce91906107c4565b60405180910390f35b6100ea6100e536600461082e565b610256565b60405190151581526020016100ce565b6002545b6040519081526020016100ce565b6100ea61011a366004610858565b610270565b60055460405160ff90911681526020016100ce565b6100ea61014236600461082e565b610294565b6100ea61015536600461082e565b6102b6565b6100fe610168366004610894565b6001600160a01b031660009081526020819052604090205490565b6100c16102fb565b6100ea61019936600461082e565b61030a565b6100ea6101ac36600461082e565b61038a565b6100fe6101bf3660046108b6565b610398565b6060600380546101d3906108e9565b80601f01602080910402602001604051908101604052809291908181526020018280546101ff906108e9565b801561024c5780601f106102215761010080835404028352916020019161024c565b820191906000526020600020905b81548152906001019060200180831161022f57829003601f168201915b5050505050905090565b6000336102648185856103c3565b60019150505b92915050565b60003361027e8582856104e7565b610289858585610561565b506001949350505050565b6000336102648185856102a78383610398565b6102b19190610923565b6103c3565b60007f00000000000000000000000000000000000000000000000000000000000000008211156102e8576102e8610944565b6102f28383610705565b50600192915050565b6060600480546101d3906108e9565b600033816103188286610398565b90508381101561037d5760405162461bcd60e51b815260206004820152602560248201527f45524332303a2064656372656173656420616c6c6f77616e63652062656c6f77604482015264207a65726f60d81b60648201526084015b60405180910390fd5b61028982868684036103c3565b600033610264818585610561565b6001600160a01b03918216600090815260016020908152604080832093909416825291909152205490565b6001600160a01b0383166104255760405162461bcd60e51b8152602060048201526024808201527f45524332303a20617070726f76652066726f6d20746865207a65726f206164646044820152637265737360e01b6064820152608401610374565b6001600160a01b0382166104865760405162461bcd60e51b815260206004820152602260248201527f45524332303a20617070726f766520746f20746865207a65726f206164647265604482015261737360f01b6064820152608401610374565b6001600160a01b0383811660008181526001602090815260408083209487168084529482529182902085905590518481527f8c5be1e5ebec7d5bd14f71427d1e84f3dd0314c0f7b2291e5b200ac8c7c3b925910160405180910390a3505050565b60006104f38484610398565b9050600019811461055b578181101561054e5760405162461bcd60e51b815260206004820152601d60248201527f45524332303a20696e73756666696369656e7420616c6c6f77616e63650000006044820152606401610374565b61055b84848484036103c3565b50505050565b6001600160a01b0383166105c55760405162461bcd60e51b815260206004820152602560248201527f45524332303a207472616e736665722066726f6d20746865207a65726f206164604482015264647265737360d81b6064820152608401610374565b6001600160a01b0382166106275760405162461bcd60e51b815260206004820152602360248201527f45524332303a207472616e7366657220746f20746865207a65726f206164647260448201526265737360e81b6064820152608401610374565b6001600160a01b0383166000908152602081905260409020548181101561069f5760405162461bcd60e51b815260206004820152602660248201527f45524332303a207472616e7366657220616d6f756e7420657863656564732062604482015265616c616e636560d01b6064820152608401610374565b6001600160a01b03848116600081815260208181526040808320878703905593871680835291849020805487019055925185815290927fddf252ad1be2c89b69c2b068fc378daa952ba7f163c4a11628f55a4df523b3ef910160405180910390a361055b565b6001600160a01b03821661075b5760405162461bcd60e51b815260206004820152601f60248201527f45524332303a206d696e7420746f20746865207a65726f2061646472657373006044820152606401610374565b806002600082825461076d9190610923565b90915550506001600160a01b038216600081815260208181526040808320805486019055518481527fddf252ad1be2c89b69c2b068fc378daa952ba7f163c4a11628f55a4df523b3ef910160405180910390a35050565b600060208083528351808285015260005b818110156107f1578581018301518582016040015282016107d5565b506000604082860101526040601f19601f8301168501019250505092915050565b80356001600160a01b038116811461082957600080fd5b919050565b6000806040838503121561084157600080fd5b61084a83610812565b946020939093013593505050565b60008060006060848603121561086d57600080fd5b61087684610812565b925061088460208501610812565b9150604084013590509250925092565b6000602082840312156108a657600080fd5b6108af82610812565b9392505050565b600080604083850312156108c957600080fd5b6108d283610812565b91506108e060208401610812565b90509250929050565b600181811c908216806108fd57607f821691505b60208210810361091d57634e487b7160e01b600052602260045260246000fd5b50919050565b8082018082111561026a57634e487b7160e01b600052601160045260246000fd5b634e487b7160e01b600052600160045260246000fdfea26469706673582212208c828ad20c4d7423d9fa0d72da93617d530e9863e09bc1d825ccc38853c28dc464736f6c63430008100033608060405234801561001057600080fd5b506105a4806100206000396000f3fe6080604052600436106100435760003560e01c8063160e8be3146100ef5780634a0687ef1461010f5780637687d19b1461012f578063cf81464b14610142576100e5565b366100e5576040805160008152602081019182905263c68d428360e01b909152309063c68d42839061007c9033903490602481016104c0565b600060405180830381600087803b15801561009657600080fd5b505af11580156100aa573d6000803e3d6000fd5b50506040513481523392507f25ca84076773b0455db53621c459ddc84fe40840e4932a62706a032566f399df915060200160405180910390a2005b6100ed61014a565b005b3480156100fb57600080fd5b506100ed61010a366004610525565b61015c565b34801561011b57600080fd5b506100ed61012a36600461053e565b610229565b6100ed61013d36600461053e565b61032f565b6100ed6103d0565b61015a61015561046d565b61049c565b565b60408051600081526020810191829052639d87674160e01b9091523090639d876741906101909033908590602481016104c0565b600060405180830381600087803b1580156101aa57600080fd5b505af11580156101be573d6000803e3d6000fd5b505060405133925083156108fc02915083906000818181858888f193505050501580156101ef573d6000803e3d6000fd5b5060405181815233907f3bc27981aebbb57f9247dc00fde9d6cd91e4b230083fec3238fedbcba1f9ab3d906020015b60405180910390a250565b6001600160a01b0381166102845760405162461bcd60e51b815260206004820152601760248201527f5555505350726f78793a207a65726f206164647265737300000000000000000060448201526064015b60405180910390fd5b60006102ae7f360894a13ba1a3210667c828492db98dca3e2076cc3735a920a3ca505d382bbc5490565b6001600160a01b0316146103045760405162461bcd60e51b815260206004820152601e60248201527f5555505350726f78793a20616c726561647920696e697469616c697a65640000604482015260640161027b565b61032c817f360894a13ba1a3210667c828492db98dca3e2076cc3735a920a3ca505d382bbc55565b50565b6040805160008152602081019182905263c68d428360e01b909152309063c68d4283906103639084903490602481016104c0565b600060405180830381600087803b15801561037d57600080fd5b505af1158015610391573d6000803e3d6000fd5b50505050806001600160a01b03167f25ca84076773b0455db53621c459ddc84fe40840e4932a62706a032566f399df3460405161021e91815260200190565b6040805160008152602081019182905263c68d428360e01b909152309063c68d4283906104049033903490602481016104c0565b600060405180830381600087803b15801561041e57600080fd5b505af1158015610432573d6000803e3d6000fd5b50506040513481523392507f25ca84076773b0455db53621c459ddc84fe40840e4932a62706a032566f399df915060200160405180910390a2565b60006104977f360894a13ba1a3210667c828492db98dca3e2076cc3735a920a3ca505d382bbc5490565b905090565b3660008037600080366000845af43d6000803e8080156104bb573d6000f35b3d6000fd5b60018060a01b038416815260006020848184015260606040840152835180606085015260005b81811015610502578581018301518582016080015282016104e6565b506000608082860101526080601f19601f83011685010192505050949350505050565b60006020828403121561053757600080fd5b5035919050565b60006020828403121561055057600080fd5b81356001600160a01b038116811461056757600080fd5b939250505056fea2646970667358221220e7238feb38cec5269208bb0ef4c711d0568b3aca6caeaac1492037d8fb16c70764736f6c63430008100033608060405234801561001057600080fd5b506104bb806100206000396000f3fe60806040526004361061002d5760003560e01c80634a0687ef14610044578063b119490e146100645761003c565b3661003c5761003a610084565b005b61003a610084565b34801561005057600080fd5b5061003a61005f3660046102bc565b610096565b34801561007057600080fd5b5061003a61007f366004610335565b61019c565b61009461008f610269565b610298565b565b6001600160a01b0381166100f15760405162461bcd60e51b815260206004820152601760248201527f5555505350726f78793a207a65726f206164647265737300000000000000000060448201526064015b60405180910390fd5b600061011b7f360894a13ba1a3210667c828492db98dca3e2076cc3735a920a3ca505d382bbc5490565b6001600160a01b0316146101715760405162461bcd60e51b815260206004820152601e60248201527f5555505350726f78793a20616c726561647920696e697469616c697a6564000060448201526064016100e8565b610199817f360894a13ba1a3210667c828492db98dca3e2076cc3735a920a3ca505d382bbc55565b50565b6040516285fc1360e71b815230906342fe0980906101ca906000906012908a908a908a908a906004016103d2565b600060405180830381600087803b1580156101e457600080fd5b505af11580156101f8573d6000803e3d6000fd5b50506040805160008152602081019182905263c68d428360e01b90915230925063c68d42839150610230903390859060248101610420565b600060405180830381600087803b15801561024a57600080fd5b505af115801561025e573d6000803e3d6000fd5b505050505050505050565b60006102937f360894a13ba1a3210667c828492db98dca3e2076cc3735a920a3ca505d382bbc5490565b905090565b3660008037600080366000845af43d6000803e8080156102b7573d6000f35b3d6000fd5b6000602082840312156102ce57600080fd5b81356001600160a01b03811681146102e557600080fd5b9392505050565b60008083601f8401126102fe57600080fd5b50813567ffffffffffffffff81111561031657600080fd5b60208301915083602082850101111561032e57600080fd5b9250929050565b60008060008060006060868803121561034d57600080fd5b853567ffffffffffffffff8082111561036557600080fd5b61037189838a016102ec565b9097509550602088013591508082111561038a57600080fd5b50610397888289016102ec565b96999598509660400135949350505050565b81835281816020850137506000828201602090810191909152601f909101601f19169091010190565b6001600160a01b038716815260ff8616602082015260806040820181905260009061040090830186886103a9565b82810360608401526104138185876103a9565b9998505050505050505050565b60018060a01b038416815260006020848184015260606040840152835180606085015260005b8181101561046257858101830151858201608001528201610446565b506000608082860101526080601f19601f8301168501019250505094935050505056fea2646970667358221220b00cf6cba1d88bac7caa86a253a66fb24a733c02923947ca54de7f7c4ac462f264736f6c63430008100033a26469706673582212206665989aa75c562e28a56cae3ef4044955b8dffb5a2429f63ed62796fea5a7f164736f6c6343000810003360c06040523480156200001157600080fd5b50604051620017db380380620017db8339810160408190526200003491620000ef565b6001600160a01b0381166080819052604051635b69006f60e11b81527fa9214cc96615e0085d3bb077758db69497dc2dce3b2b1e97bc93c3d18d83efd3600482015263b6d200de90602401602060405180830381865afa1580156200009d573d6000803e3d6000fd5b505050506040513d601f19601f82011682018060405250810190620000c39190620000ef565b6001600160a01b031660a0525062000116565b6001600160a01b0381168114620000ec57600080fd5b50565b6000602082840312156200010257600080fd5b81516200010f81620000d6565b9392505050565b60805160a051611628620001b36000396000818161029a01528181610366015281816103fb015281816104ab01528181610520015281816105de015281816106e901528181610766015281816107aa01528181610851015281816108ef0152818161092501528181610abc01528181610b4101528181610bb001528181610bf30152610c2d015260008181610d150152610d8701526116286000f3fe608060405234801561001057600080fd5b50600436106100ea5760003560e01c8063308855911161008c5780637243fb93116100665780637243fb9314610222578063b4b333c614610235578063c5ad5c1a14610248578063e15536b61461025b57600080fd5b806330885591146101cd5780634d3f60f9146101e057806357e6aa361461020f57600080fd5b80630f1ac495116100c85780630f1ac4951461014b5780631d8b65261461018157806322c904d9146101a75780632860fd93146101ba57600080fd5b806309f0b495146100ef5780630bd0728d146101155780630c03399114610138575b600080fd5b6101026100fd366004610f76565b61026e565b6040519081526020015b60405180910390f35b610128610123366004610faf565b61030e565b604051901515815260200161010c565b610128610146366004611080565b61031d565b61015e610159366004610faf565b610336565b60408051948552600b9390930b602085015291830152606082015260800161010c565b61019461018f366004611108565b6103e1565b604051600b9190910b815260200161010c565b6101946101b5366004610faf565b610481565b61015e6101c8366004611108565b610518565b6101286101db366004611162565b6105c0565b6101f36101ee366004611108565b6105d9565b6040805160ff9093168352600b9190910b60208301520161010c565b61012861021d3660046111be565b610679565b610128610230366004610faf565b610687565b6101286102433660046111fe565b6106a2565b610128610256366004611273565b6106b0565b610128610269366004611080565b6106be565b6040516346ccbfb760e11b81526001600160a01b038381166004830152600b83900b60248301526000917f000000000000000000000000000000000000000000000000000000000000000090911690638d997f6e90604401602060405180830381865afa1580156102e3573d6000803e3d6000fd5b505050506040513d601f19601f8201168201806040525081019061030791906112b4565b9392505050565b600061030783836000806106cd565b600061032c868686868661078d565b9695505050505050565b604051630f1ac49560e01b81526001600160a01b03838116600483015282811660248301526000918291829182917f00000000000000000000000000000000000000000000000000000000000000001690630f1ac49590604401608060405180830381865afa1580156103ad573d6000803e3d6000fd5b505050506040513d601f19601f820116820180604052508101906103d191906112cd565b9299919850965090945092505050565b604051631cd43d1160e31b81526000906001600160a01b037f0000000000000000000000000000000000000000000000000000000000000000169063e6a1e888906104349087908790879060040161130b565b608060405180830381865afa158015610451573d6000803e3d6000fd5b505050506040513d601f19601f8201168201806040525081019061047591906112cd565b50909695505050505050565b60405163e8e7e2d160e01b81526001600160a01b03838116600483015282811660248301526000917f00000000000000000000000000000000000000000000000000000000000000009091169063e8e7e2d190604401602060405180830381865afa1580156104f4573d6000803e3d6000fd5b505050506040513d601f19601f82011682018060405250810190610307919061132e565b6000806000807f00000000000000000000000000000000000000000000000000000000000000006001600160a01b031663e6a1e8888888886040518463ffffffff1660e01b815260040161056e9392919061130b565b608060405180830381865afa15801561058b573d6000803e3d6000fd5b505050506040513d601f19601f820116820180604052508101906105af91906112cd565b929a91995097509095509350505050565b60006105ce858585856106cd565b90505b949350505050565b6000807f00000000000000000000000000000000000000000000000000000000000000006001600160a01b031662422bbe8686866040518463ffffffff1660e01b815260040161062b9392919061130b565b606060405180830381865afa158015610648573d6000803e3d6000fd5b505050506040513d601f19601f8201168201806040525081019061066c919061134b565b9097909650945050505050565b60006105d184338585610920565b6000610307838360076b7fffffffffffffffffffffff6106cd565b60006105ce85858585610a7d565b60006105ce85858585610920565b600061032c8686868686610bd6565b6040805160008082526020820190925281906001600160a01b037f0000000000000000000000000000000000000000000000000000000000000000169063811b3d4090610725908990899089908990604481016113d3565b60408051601f19818403018152918152602080830180516001600160e01b031660e09590951b949094179093528051600081529283019052925061032c91507f0000000000000000000000000000000000000000000000000000000000000000908390610c5c565b6000806001600160a01b0386163314610847576001600160a01b037f00000000000000000000000000000000000000000000000000000000000000001663354b95908888888860005b6040519080825280601f01601f191660200182016040528015610800576020820181803683370190505b50604051602401610815959493929190611412565b604051602081830303815290604052915060e01b6020820180516001600160e01b0383818316178352505050506108e8565b6001600160a01b037f0000000000000000000000000000000000000000000000000000000000000000166350209a6288878760005b6040519080825280601f01601f1916602001820160405280156108a6576020820181803683370190505b506040516024016108ba9493929190611450565b604051602081830303815290604052915060e01b6020820180516001600160e01b0383818316178352505050505b90506109157f00000000000000000000000000000000000000000000000000000000000000008285610c5c565b979650505050505050565b6000807f00000000000000000000000000000000000000000000000000000000000000006001600160a01b031663e6a1e8888787876040518463ffffffff1660e01b81526004016109739392919061130b565b608060405180830381865afa158015610990573d6000803e3d6000fd5b505050506040513d601f19601f820116820180604052508101906109b491906112cd565b5050915050600083600b0b1315610a2f5780600b0b6000036109f8576040805160008152602081019091526109f0908790879087908790610bd6565b9150506105d1565b82600b0b81600b0b14610a25576040805160008152602081019091526109f090879087908790879061078d565b60019150506105d1565b82600b0b600003610a6457600081600b0b1315610a25576040805160008152602081019091526109f090879087908790610a7d565b60405163cea9aa5f60e01b815260040160405180910390fd5b6000806001600160a01b038516331480610a9f57506001600160a01b03841633145b610b28576040805160008152602081019091526001600160a01b037f00000000000000000000000000000000000000000000000000000000000000001690634c8b181f90610af69089908990899060448101611486565b604051602081830303815290604052915060e01b6020820180516001600160e01b038381831617835250505050610ba9565b6040805160008152602081019091526001600160a01b037f0000000000000000000000000000000000000000000000000000000000000000169063b4b333c690610b7b9089908990899060448101611486565b604051602081830303815290604052915060e01b6020820180516001600160e01b0383818316178352505050505b905061032c7f00000000000000000000000000000000000000000000000000000000000000008285610c5c565b6000806001600160a01b0386163314610c23576001600160a01b037f0000000000000000000000000000000000000000000000000000000000000000166394229ecb8888888860006107d6565b6001600160a01b037f0000000000000000000000000000000000000000000000000000000000000000166362fc305e888787600061087c565b604080516001808252818301909252600091829190816020015b60408051606080820183526000808352602083015291810191909152815260200190600190039081610c76579050509050604051806060016040528060c963ffffffff168152602001866001600160a01b031681526020018585604051602001610ce19291906114ba565b60405160208183030381529060405281525081600081518110610d0657610d066114e8565b602002602001018190525060007f00000000000000000000000000000000000000000000000000000000000000006001600160a01b031663670e77e383604051602401610d5391906114fe565b604051602081830303815290604052915060e01b6020820180516001600160e01b03838183161783525050505090506000807f00000000000000000000000000000000000000000000000000000000000000006001600160a01b03168333604051602001610dc292919061158c565b60408051601f1981840301815290829052610ddc916115c3565b6000604051808303816000865af19150503d8060008114610e19576040519150601f19603f3d011682016040523d82523d6000602084013e610e1e565b606091505b509150915081610e3157610e3181610e3f565b506001979650505050505050565b600481511015610e965760405162461bcd60e51b815260206004820152601a60248201527f43616c6c5574696c733a2074617267657420726576657274282900000000000060448201526064015b60405180910390fd5b602081015163b1b7848f60e01b6001600160e01b0319821601610f465760408051808201825260208082527f43616c6c5574696c733a207461726765742070616e69636b65643a2030785f5f90820190815260248501517f43616c6c5574696c733a207461726765742070616e69636b65643a2030780000600482811c600f908116603090810160081b918516011791909117909252925162461bcd60e51b8152919291610e8d918491016115df565b81518060208401fd5b50565b6001600160a01b0381168114610f4f57600080fd5b80600b0b8114610f4f57600080fd5b60008060408385031215610f8957600080fd5b8235610f9481610f52565b91506020830135610fa481610f67565b809150509250929050565b60008060408385031215610fc257600080fd5b8235610fcd81610f52565b91506020830135610fa481610f52565b634e487b7160e01b600052604160045260246000fd5b600082601f83011261100457600080fd5b813567ffffffffffffffff8082111561101f5761101f610fdd565b604051601f8301601f19908116603f0116810190828211818310171561104757611047610fdd565b8160405283815286602085880101111561106057600080fd5b836020870160208301376000602085830101528094505050505092915050565b600080600080600060a0868803121561109857600080fd5b85356110a381610f52565b945060208601356110b381610f52565b935060408601356110c381610f52565b925060608601356110d381610f67565b9150608086013567ffffffffffffffff8111156110ef57600080fd5b6110fb88828901610ff3565b9150509295509295909350565b60008060006060848603121561111d57600080fd5b833561112881610f52565b9250602084013561113881610f52565b9150604084013561114881610f52565b809150509250925092565b60ff81168114610f4f57600080fd5b6000806000806080858703121561117857600080fd5b843561118381610f52565b9350602085013561119381610f52565b925060408501356111a381611153565b915060608501356111b381610f67565b939692955090935050565b6000806000606084860312156111d357600080fd5b83356111de81610f52565b925060208401356111ee81610f52565b9150604084013561114881610f67565b6000806000806080858703121561121457600080fd5b843561121f81610f52565b9350602085013561122f81610f52565b9250604085013561123f81610f52565b9150606085013567ffffffffffffffff81111561125b57600080fd5b61126787828801610ff3565b91505092959194509250565b6000806000806080858703121561128957600080fd5b843561129481610f52565b935060208501356112a481610f52565b925060408501356111a381610f52565b6000602082840312156112c657600080fd5b5051919050565b600080600080608085870312156112e357600080fd5b8451935060208501516112f581610f67565b6040860151606090960151949790965092505050565b6001600160a01b0393841681529183166020830152909116604082015260600190565b60006020828403121561134057600080fd5b815161030781610f67565b60008060006060848603121561136057600080fd5b83519250602084015161137281611153565b604085015190925061114881610f67565b60005b8381101561139e578181015183820152602001611386565b50506000910152565b600081518084526113bf816020860160208601611383565b601f01601f19169290920160200192915050565b6001600160a01b0386811682528516602082015260ff84166040820152600b83900b606082015260a060808201819052600090610915908301846113a7565b6001600160a01b038681168252858116602083015284166040820152600b83900b606082015260a060808201819052600090610915908301846113a7565b6001600160a01b03858116825284166020820152600b83900b604082015260806060820181905260009061032c908301846113a7565b6001600160a01b03858116825284811660208301528316604082015260806060820181905260009061032c908301846113a7565b6040815260006114cd60408301856113a7565b82810360208401526114df81856113a7565b95945050505050565b634e487b7160e01b600052603260045260246000fd5b60006020808301818452808551808352604092508286019150828160051b87010184880160005b8381101561157e57888303603f190185528151805163ffffffff168452878101516001600160a01b031688850152860151606087850181905261156a818601836113a7565b968901969450505090860190600101611525565b509098975050505050505050565b6000835161159e818460208801611383565b60609390931b6bffffffffffffffffffffffff19169190920190815260140192915050565b600082516115d5818460208701611383565b9190910192915050565b60208152600061030760208301846113a756fea264697066735822122096c27a13c0f004e494e1cd28b06b8083aea51b66e8c80dbcfbdba2b705449f3164736f6c6343000810003360a060405234801561001057600080fd5b506040516104ea3803806104ea83398101604081905261002f91610040565b6001600160a01b0316608052610070565b60006020828403121561005257600080fd5b81516001600160a01b038116811461006957600080fd5b9392505050565b60805161046061008a600039600060b501526104606000f3fe608060405234801561001057600080fd5b506004361061002b5760003560e01c8063f490e2f014610030575b600080fd5b61004361003e366004610307565b61008f565b604051610086919081516001600160a01b039081168252602080840151821690830152604080840151821690830152606092830151169181019190915260800190565b60405180910390f35b6040805160808101825260008082526020820181905291810182905260608101919091527f00000000000000000000000000000000000000000000000000000000000000006001600160a01b031663693ec85e84846040516020016100f5929190610379565b6040516020818303038152906040526040518263ffffffff1660e01b815260040161012091906103a0565b602060405180830381865afa15801561013d573d6000803e3d6000fd5b505050506040513d601f19601f820116820180604052508101906101619190610406565b6001600160a01b03168082526040805163398d76b760e11b8152905163731aed6e916004808201926020929091908290030181865afa1580156101a8573d6000803e3d6000fd5b505050506040513d601f19601f820116820180604052508101906101cc9190610406565b6001600160a01b0390811660208301528151604051635b69006f60e11b81527fa9214cc96615e0085d3bb077758db69497dc2dce3b2b1e97bc93c3d18d83efd3600482015291169063b6d200de90602401602060405180830381865afa15801561023a573d6000803e3d6000fd5b505050506040513d601f19601f8201168201806040525081019061025e9190610406565b6001600160a01b0390811660408381019190915282519051635b69006f60e11b81527f8aedc3b5d4bf031e11a7e2940f7251c005698405d58e02e1c247fed3b1b3a674600482015291169063b6d200de90602401602060405180830381865afa1580156102cf573d6000803e3d6000fd5b505050506040513d601f19601f820116820180604052508101906102f39190610406565b6001600160a01b0316606082015292915050565b6000806020838503121561031a57600080fd5b823567ffffffffffffffff8082111561033257600080fd5b818501915085601f83011261034657600080fd5b81358181111561035557600080fd5b86602082850101111561036757600080fd5b60209290920196919550909350505050565b6a29bab832b933363ab4b21760a91b81528183600b83013760009101600b01908152919050565b600060208083528351808285015260005b818110156103cd578581018301518582016040015282016103b1565b506000604082860101526040601f19601f8301168501019250505092915050565b6001600160a01b038116811461040357600080fd5b50565b60006020828403121561041857600080fd5b8151610423816103ee565b939250505056fea26469706673582212200372bee0d11ec7fef8f6b0b8d8a0faf1c8bb2d2252d51bd0b3653ad5d534daad64736f6c63430008100033",
  "linkReferences": {
    "contracts/utils/deployers/SuperfluidCFAv1DeployerLibrary.sol": {
      "SuperfluidCFAv1DeployerLibrary": [
        {
          "length": 20,
          "start": 726
        }
      ]
    },
    "contracts/utils/deployers/SuperfluidGovDeployerLibrary.sol": {
      "SuperfluidGovDeployerLibrary": [
        {
          "length": 20,
          "start": 20
        },
        {
          "length": 20,
          "start": 190
        }
      ]
    },
    "contracts/utils/deployers/SuperfluidHostDeployerLibrary.sol": {
      "SuperfluidHostDeployerLibrary": [
        {
          "length": 20,
          "start": 296
        }
      ]
    },
    "contracts/utils/deployers/SuperfluidIDAv1DeployerLibrary.sol": {
      "SuperfluidIDAv1DeployerLibrary": [
        {
          "length": 20,
          "start": 1202
        }
      ]
    },
    "contracts/utils/deployers/SuperfluidPeripheryDeployerLibrary.sol": {
      "SuperfluidPeripheryDeployerLibrary": [
        {
          "length": 20,
          "start": 1591
        },
        {
          "length": 20,
          "start": 1854
        }
      ]
    },
    "contracts/utils/deployers/SuperfluidSuperTokenFactoryHelperDeployerLibrary.sol": {
      "SuperfluidSuperTokenFactoryHelperDeployerLibrary": [
        {
          "length": 20,
          "start": 1436
        }
      ]
    }
  },
  "deployedLinkReferences": {}
}