{
  "_format": "hh-sol-artifact-1",
  "contractName": "SuperTokenFactoryHelper",
  "sourceName": "contracts/superfluid/SuperTokenFactory.sol",
  "abi": [
    {
      "inputs": [
        {
          "internalType": "contract ISuperfluid",
          "name": "host",
          "type": "address"
        }
      ],
      "name": "create",
      "outputs": [
        {
          "internalType": "address",
          "name": "logic",
          "type": "address"
        }
      ],
      "stateMutability": "nonpayable",
      "type": "function"
    }
  ],
  "bytecode": "0x608060405234801561001057600080fd5b506148da806100206000396000f3fe608060405234801561001057600080fd5b506004361061002b5760003560e01c80639ed9331814610030575b600080fd5b61004361003e3660046100ae565b61005f565b6040516001600160a01b03909116815260200160405180910390f35b60008160405161006e906100a1565b6001600160a01b039091168152602001604051809103906000f08015801561009a573d6000803e3d6000fd5b5092915050565b6147c6806100df83390190565b6000602082840312156100c057600080fd5b81356001600160a01b03811681146100d757600080fd5b939250505056fe60a06040523480156200001157600080fd5b50604051620047c6380380620047c6833981016040819052620000349162000046565b6001600160a01b031660805262000078565b6000602082840312156200005957600080fd5b81516001600160a01b03811681146200007157600080fd5b9392505050565b6080516146c2620001046000396000818161044801528181610aba01528181610b2901528181610dcc01528181610ee701528181610fb60152818161120801528181611317015281816114af0152818161188501528181611948015281816119b001528181611a3801528181612223015281816122ba0152818161330e015261354a01526146c26000f3fe608060405234801561001057600080fd5b50600436106103785760003560e01c806366a12fb6116101d3578063b84cdd4a11610104578063d9d078d6116100a2578063ee719bc81161007c578063ee719bc8146107ee578063fad8b32a146107ff578063fc673c4f14610812578063fe9d93031461082557600080fd5b8063d9d078d614610774578063dd62ed3e14610787578063eb3537cc146107c057600080fd5b8063ca0c1e7f116100de578063ca0c1e7f14610728578063ca7894641461073b578063cf97256d1461074e578063d95b63711461076157600080fd5b8063b84cdd4a146106ef578063bb0d196e14610702578063c68d42831461071557600080fd5b80639903ad3811610171578063a1b2bf8b1161014b578063a1b2bf8b146106a3578063a3a7e7f3146106b6578063a457c2d7146106c9578063a9059cbb146106dc57600080fd5b80639903ad38146106755780639bd9bbc61461067d5780639d8767411461069057600080fd5b806379359f6f116101ad57806379359f6f1461063457806383ba252514610647578063959b8c3f1461065a57806395d89b411461066d57600080fd5b806366a12fb6146105fb5780636c2d9f2f1461060e57806370a082311461062157600080fd5b8063313ce567116102ad5780634b61cc331161024b578063556f0dc711610225578063556f0dc7146105bb5780635b9d09cc146105c257806362aa5287146105d557806362ad1b83146105e857600080fd5b80634b61cc331461056d57806350d75d251461058d57806352d1902d1461059557600080fd5b806341b706be1161028757806341b706be1461052157806342fe09801461053457806345977d0314610547578063469519541461055a57600080fd5b8063313ce567146104ec578063386fa221146104fb578063395093511461050e57600080fd5b806318160ddd1161031a57806323b872dd116102f457806323b872dd14610480578063245887fc1461049357806327048397146104a65780632ec8eec7146104b957600080fd5b806318160ddd146104215780631863e8091461043357806320bc44251461044657600080fd5b8063095ea7b311610356578063095ea7b3146103c557806311bcc81e146103e857806312a6a3f8146103fb57806316d055d61461040e57600080fd5b806306e485381461037d57806306fdde031461039b578063090c415e146103b0575b600080fd5b610385610838565b6040516103929190613764565b60405180910390f35b6103a3610849565b6040516103929190613801565b6103c36103be366004613874565b6108db565b005b6103d86103d33660046138cf565b61098f565b6040519015158152602001610392565b6103c36103f63660046138fb565b6109a6565b6103c3610409366004613914565b6109d5565b6103c361041c36600461395f565b610ab8565b6003545b604051908152602001610392565b6103c3610441366004613a73565b610b14565b7f00000000000000000000000000000000000000000000000000000000000000005b6040516001600160a01b039091168152602001610392565b6103d861048e366004613b05565b610db4565b6103c36104a13660046138cf565b610dca565b6103c36104b4366004613b46565b610e43565b6104cc6104c7366004613b68565b610edf565b604080519485526020850193909352918301526060820152608001610392565b60405160128152602001610392565b610385610509366004613b68565b610f82565b6103d861051c3660046138cf565b611025565b6103c361052f36600461395f565b611061565b6103c3610542366004613bc6565b61108d565b6103c36105553660046138fb565b6111d1565b6103c3610568366004613b68565b6111fd565b61058061057b366004613c60565b61124f565b6040516103929190613ca6565b610468611294565b7f6bfbb132610e56cb96575dba244667b9d6dbfeffe22b68a79fa16f2d18eb0019610425565b6001610425565b6103c36105d0366004613cde565b6112be565b6103c36105e3366004613b05565b611315565b6103c36105f6366004613d2d565b61136e565b6103c3610609366004613b05565b61141c565b61058061061c366004613dcb565b61143c565b61042561062f366004613b68565b61147e565b6103d8610642366004613b68565b6114a7565b6103c36106553660046138cf565b61152f565b6103c3610668366004613b68565b61155b565b6103a36115ac565b6103c36115bb565b6103c361068b366004613cde565b61167d565b6103c361069e366004613e00565b6116d1565b6103c36106b1366004613914565b611711565b6103c36106c4366004613b68565b6117bb565b6103d86106d73660046138cf565b6117cf565b6103d86106ea3660046138cf565b61181e565b6103d86106fd3660046138cf565b61182c565b6103d8610710366004613b68565b61187d565b6103c3610723366004613e00565b611905565b6103c3610736366004613e58565b611946565b6103c36107493660046138cf565b6119ae565b6103c361075c3660046138cf565b611a23565b6103d861076f366004613ec3565b611b0c565b6103d86107823660046138cf565b611b1a565b610425610795366004613ec3565b6001600160a01b03918216600090815260116020908152604080832093909416825291909152205490565b6107d36107ce3660046138cf565b611b34565b60408051938452602084019290925290820152606001610392565b600e546001600160a01b0316610468565b6103c361080d366004613b68565b611c6e565b6103c3610820366004613efc565b611cbf565b6103c3610833366004613f43565b611d60565b60606108446012611db1565b905090565b6060600f805461085890613f81565b80601f016020809104026020016040519081016040528092919081815260200182805461088490613f81565b80156108d15780601f106108a6576101008083540402835291602001916108d1565b820191906000526020600020905b8154815290600101906020018083116108b457829003601f168201915b5050505050905090565b60003385856040516020016108f293929190613fbb565b60405160208183030381529060405280519060200120905061094781848480806020026020016040519081016040528093929190818152602001838360200280828437600092019190915250611e1792505050565b6040518481526001600160a01b0386169033907f30f416fa68fca014a0f334464c64b000ba53e99b6d2afdea9d5ca756372d5985906020015b60405180910390a35050505050565b600061099c338484611e58565b5060015b92915050565b6109d2333333846040518060200160405280600081525060405180602001604052806000815250611f08565b50565b60405133906000906109ed9083908790602001614004565b60408051601f1981840301815291905280516020909101209050610a1181846120c2565b15610a2f5760405163782a90fb60e11b815260040160405180910390fd5b610a6c81858580806020026020016040519081016040528093929190818152602001838360200280828437600092019190915250611e1792505050565b816001600160a01b03167f770ea40a13a4644573ed785e5c7116890709947918747febc5add46feb531e2d868686604051610aa993929190614041565b60405180910390a25050505050565b7f00000000000000000000000000000000000000000000000000000000000000006001600160a01b03163314610b015760405163c51efddd60e01b815260040160405180910390fd5b610b0d848484846120fe565b5050505050565b604051632329212160e21b81523360048201527f00000000000000000000000000000000000000000000000000000000000000006001600160a01b031690638ca4848490602401602060405180830381865afa158015610b78573d6000803e3d6000fd5b505050506040513d601f19601f82011682018060405250810190610b9c9190614082565b610bb95760405163327fd99160e21b815260040160405180910390fd5b6000610bc361221e565b90506001600160a01b038116610bd65750845b600085610be35786610be5565b815b905060008313610c8257610bf8836140b5565b610c0185612363565b14610c0e57610c0e6140d1565b610c1784612363565b6001600160a01b03821660009081526002602052604081208054909190610c3f9084906140e7565b90915550506001600160a01b03851660009081526002602052604081208054859290610c6c9084906140e7565b90915550610c7d90508582866123d1565b610d4c565b8515610c9057610c906140d1565b82610c9a85612363565b610ca491906140e7565b6001600160a01b03831660009081526002602052604081208054909190610ccc90849061410f565b90915550610cdb905084612363565b6001600160a01b03881660009081526002602052604081208054909190610d039084906140e7565b90915550506001600160a01b03851660009081526002602052604081208054859290610d309084906140e7565b90915550610d4190508288866123d1565b610d4c8286856123d1565b846001600160a01b0316876001600160a01b0316336001600160a01b03167fb8381a3ce157650e06186e3e8f4dd4dc29236f2688b6eed1893d0a60d7c6386f8c8589898f604051610da195949392919061412f565b60405180910390a4505050505050505050565b6000610dc2338585856120fe565b949350505050565b7f00000000000000000000000000000000000000000000000000000000000000006001600160a01b03163314610e135760405163c51efddd60e01b815260040160405180910390fd5b610e3f338384846040518060200160405280600081525060405180602001604052806000815250611f08565b5050565b6040513390600090610e5b9083908690602001614004565b604051602081830303815290604052805190602001209050610e7d81846120c2565b610e9a5760405163dae1880960e01b815260040160405180910390fd5b610ea48184612404565b60405184815233907f71a63dc095de07aa5512ad57a7596a39516317e316981a1cd71000057be1537b9060200160405180910390a250505050565b6000806000807f00000000000000000000000000000000000000000000000000000000000000006001600160a01b031663bbe4fd506040518163ffffffff1660e01b8152600401602060405180830381865afa158015610f43573d6000803e3d6000fd5b505050506040513d601f19601f82011682018060405250810190610f679190614162565b9050610f738582611b34565b91979096509094509092509050565b6001600160a01b038181166000908152600160205260409081902054905163c56a069d60e01b8152901960048201526060917f0000000000000000000000000000000000000000000000000000000000000000169063c56a069d90602401600060405180830381865afa158015610ffd573d6000803e3d6000fd5b505050506040513d6000823e601f3d908101601f191682016040526109a0919081019061417b565b3360008181526011602090815260408083206001600160a01b0387168452909152812054909161099c91859061105c90869061422c565b611e58565b33301461108157604051630fff4cc960e31b815260040160405180910390fd5b610b0d838584846120fe565b600054610100900460ff16158080156110ad5750600054600160ff909116105b806110c75750303b1580156110c7575060005460ff166001145b6110ec5760405162461bcd60e51b81526004016110e39061423f565b60405180910390fd5b6000805460ff19166001179055801561110f576000805461ff0019166101001790555b600e805460ff8816600160a01b026001600160a81b03199091166001600160a01b038a1617179055600f6111448587836142db565b5060106111528385836142db565b5061115c30612425565b60405160008082529081906000805160206146408339815191529060200160405180910390a380156111c8576000805461ff0019169055604051600181527f7f26b83ff96e1f2b6a682f133852f6798a09c465da95921460cefb38474024989060200160405180910390a15b50505050505050565b6109d2333333846040518060200160405280600081525060405180602001604052806000815250612553565b336001600160a01b037f000000000000000000000000000000000000000000000000000000000000000016146112465760405163263dcdc160e21b815260040160405180910390fd5b6109d281612703565b6060600085858560405160200161126893929190613fbb565b60405160208183030381529060405280519060200120905061128a818461293d565b9695505050505050565b60006108447f360894a13ba1a3210667c828492db98dca3e2076cc3735a920a3ca505d382bbc5490565b61130f3333868686868080601f016020809104026020016040519081016040528093929190818152602001838380828437600092018290525060408051602081019091529081529250612553915050565b50505050565b7f00000000000000000000000000000000000000000000000000000000000000006001600160a01b0316331461135e5760405163c51efddd60e01b815260040160405180910390fd5b611369838383611e58565b505050565b3361137b6012828a6129cc565b6113985760405163f7f0222760e01b815260040160405180910390fd5b6114128189898989898080601f01602080910402602001604051908101604052809392919081815260200183838082843760009201919091525050604080516020601f8d018190048102820181019092528b815292508b91508a908190840183828082843760009201919091525060019250612a75915050565b5050505050505050565b33301461135e57604051630fff4cc960e31b815260040160405180910390fd5b606060008484604051602001611453929190614004565b604051602081830303815290604052805190602001209050611475818461293d565b95945050505050565b60008061148a83610edf565b50505090506000811261149d57806114a0565b60005b9392505050565b60006109a0827f00000000000000000000000000000000000000000000000000000000000000006001600160a01b031663bbe4fd506040518163ffffffff1660e01b8152600401602060405180830381865afa15801561150b573d6000803e3d6000fd5b505050506040513d601f19601f820116820180604052508101906107829190614162565b610e3f333384846040518060200160405280600081525060405180602001604052806000815250611f08565b3361156860128284612aee565b806001600160a01b0316826001600160a01b03167ff4caeb2d6ca8932a215a353d0703c326ec2d81fc68170f320eb2ab49e9df61f960405160405180910390a35050565b60606010805461085890613f81565b600054610100900460ff16158080156115db5750600054600160ff909116105b806115f55750303b1580156115f5575060005460ff166001145b6116115760405162461bcd60e51b81526004016110e39061423f565b6000805460ff191660011790558015611634576000805461ff0019166101001790555b80156109d2576000805461ff0019169055604051600181527f7f26b83ff96e1f2b6a682f133852f6798a09c465da95921460cefb3847402498906020015b60405180910390a150565b61130f3333868686868080601f01602080910402602001604051908101604052809392919081815260200183838082843760009201829052506040805160208101909152908152925060019150612a759050565b3330146116f157604051630fff4cc960e31b815260040160405180910390fd5b604080516000815260208101909152611369903390859085908590612bf2565b60405133906000906117299083908790602001614004565b60405160208183030381529060405280519060200120905061177e81858580806020026020016040519081016040528093929190818152602001838360200280828437600092019190915250611e1792505050565b336001600160a01b03167f0c4c547b3a4fcaa5be8353b3111472b124155bccc86de811d4a481c9e6e9faca868686604051610aa993929190614041565b610e3f3333836117ca3361147e565b6120fe565b600061099c338461105c856040518060600160405280602a8152602001614616602a91393360009081526011602090815260408083206001600160a01b038d1684529091529020549190612cad565b60006114a0333385856120fe565b60008060008061183c8686611b34565b9250925092506000611864828411611855576000612363565b61185f838561439a565b612363565b61186e90856140e7565b60001315979650505050505050565b60006109a0827f00000000000000000000000000000000000000000000000000000000000000006001600160a01b031663bbe4fd506040518163ffffffff1660e01b8152600401602060405180830381865afa1580156118e1573d6000803e3d6000fd5b505050506040513d601f19601f820116820180604052508101906106fd9190614162565b33301461192557604051630fff4cc960e31b815260040160405180910390fd5b60408051600080825260208201909252611369913391869186918690612cd9565b7f00000000000000000000000000000000000000000000000000000000000000006001600160a01b0316331461198f5760405163c51efddd60e01b815260040160405180910390fd5b61130f3385858585604051806020016040528060008152506001612a75565b7f00000000000000000000000000000000000000000000000000000000000000006001600160a01b031633146119f75760405163c51efddd60e01b815260040160405180910390fd5b610e3f338384846040518060200160405280600081525060405180602001604052806000815250612553565b604051632329212160e21b81523360048201527f00000000000000000000000000000000000000000000000000000000000000006001600160a01b031690638ca4848490602401602060405180830381865afa158015611a87573d6000803e3d6000fd5b505050506040513d601f19601f82011682018060405250810190611aab9190614082565b611ac85760405163327fd99160e21b815260040160405180910390fd5b6001600160a01b038216600090815260026020526040902054611aec9082906140e7565b6001600160a01b0390921660009081526002602052604090209190915550565b60006114a0601284846129cc565b600080611b278484611b34565b5050600013949350505050565b6001600160a01b038216600090815260026020526040812054908080611b5986610f82565b905060005b8151811015611c65576000806000848481518110611b7e57611b7e6143ad565b60209081029190910101516040516326cb922f60e21b81523060048201526001600160a01b038c81166024830152604482018c905290911690639b2e48bc90606401606060405180830381865afa158015611bdd573d6000803e3d6000fd5b505050506040513d601f19601f82011682018060405250810190611c0191906143c3565b91945092509050611c12828861422c565b9650611c1e818761422c565b9550611c3b818311611c31576000612363565b61185f828461439a565b611c45848a6140e7565b611c4f919061410f565b975050505080611c5e906143f1565b9050611b5e565b50509250925092565b33611c7b60128284612da1565b806001600160a01b0316826001600160a01b03167f50546e66e5f44d728365dc3908c63bc5cfeeab470722c1677e3073a6ac294aa160405160405180910390a35050565b33611ccc601282896129cc565b611ce95760405163f7f0222760e01b815260040160405180910390fd5b6111c88188898989898080601f01602080910402602001604051908101604052809392919081815260200183838082843760009201919091525050604080516020601f8d018190048102820181019092528b815292508b91508a9081908401838280828437600092019190915250611f0892505050565b6113693333338686868080601f016020809104026020016040519081016040528093929190818152602001838380828437600092018290525060408051602081019091529081529250611f08915050565b606081600001805480602002602001604051908101604052809291908181526020018280548015611e0b57602002820191906000526020600020905b81546001600160a01b03168152600190910190602001808311611ded575b50505050509050919050565b60005b8151811015611369576000828281518110611e3757611e376143ad565b6020026020010151905080828501555080611e51906143f1565b9050611e1a565b6001600160a01b038316611e7f57604051638163862760e01b815260040160405180910390fd5b6001600160a01b038216611ea6576040516337c1c09d60e21b815260040160405180910390fd5b6001600160a01b0383811660008181526011602090815260408083209487168084529482529182902085905590518481527f8c5be1e5ebec7d5bd14f71427d1e84f3dd0314c0f7b2291e5b200ac8c7c3b92591015b60405180910390a3505050565b600e546001600160a01b0316611f3157604051637bce7b2b60e11b815260040160405180910390fd5b600080611f3d85612e99565b91509150611f4e8888838787612bf2565b600e546040516370a0823160e01b81523060048201526000916001600160a01b0316906370a0823190602401602060405180830381865afa158015611f97573d6000803e3d6000fd5b505050506040513d601f19601f82011682018060405250810190611fbb9190614162565b600e54909150611fd5906001600160a01b03168885612f55565b600e546040516370a0823160e01b81523060048201526000916001600160a01b0316906370a0823190602401602060405180830381865afa15801561201e573d6000803e3d6000fd5b505050506040513d601f19601f820116820180604052508101906120429190614162565b90506000612050828461439a565b905080851461207257604051631c7c26d360e31b815260040160405180910390fd5b896001600160a01b03167f3bc27981aebbb57f9247dc00fde9d6cd91e4b230083fec3238fedbcba1f9ab3d856040516120ad91815260200190565b60405180910390a25050505050505050505050565b6000805b828110156120f4578381015480156120e3576001925050506109a0565b506120ed816143f1565b90506120c6565b5060009392505050565b60006001600160a01b0384166121275760405163eecd6c9b60e01b815260040160405180910390fd5b6001600160a01b03831661214e5760405163e219bd3960e01b815260040160405180910390fd5b600033905061217f818686866040518060200160405280600081525060405180602001604052806000815250612fb8565b846001600160a01b0316866001600160a01b03161461221257612212858761105c866040518060600160405280602d8152602001614660602d9139601160008c6001600160a01b03166001600160a01b0316815260200190815260200160002060008d6001600160a01b03166001600160a01b0316815260200190815260200160002054612cad9092919063ffffffff16565b50600195945050505050565b6000807f00000000000000000000000000000000000000000000000000000000000000006001600160a01b031663289b3c0d6040518163ffffffff1660e01b8152600401602060405180830381865afa15801561227f573d6000803e3d6000fd5b505050506040513d601f19601f820116820180604052508101906122a3919061440a565b604051638369a0f160e01b81526001600160a01b037f0000000000000000000000000000000000000000000000000000000000000000811660048301523060248301527f9f60ae461adf056670e03ae602566409933242392cb06744f5747c9f38b05d09604483015291925090821690638369a0f190606401602060405180830381865afa158015612339573d6000803e3d6000fd5b505050506040513d601f19601f8201168201806040525081019061235d919061440a565b91505090565b60006001600160ff1b038211156123cd5760405162461bcd60e51b815260206004820152602860248201527f53616665436173743a2076616c756520646f65736e27742066697420696e2061604482015267371034b73a191a9b60c11b60648201526084016110e3565b5090565b816001600160a01b0316836001600160a01b031660008051602061464083398151915283604051611efb91815260200190565b60005b818110156113695760008382015561241e816143f1565b9050612407565b6040516329965a1d60e01b81526001600160a01b03821660048201527fac7fbab5f54a3ca8194167523c6753bfeb96a445279294b6125b68cce21770546024820152306044820152731820a4b7618bde71dce8cdc73aab6c95905fad24906329965a1d90606401600060405180830381600087803b1580156124a657600080fd5b505af11580156124ba573d6000803e3d6000fd5b50506040516329965a1d60e01b81526001600160a01b03841660048201527faea199e31a596269b42cdafd93407f14436db6e4cad65417994c2eb37381e05a6024820152306044820152731820a4b7618bde71dce8cdc73aab6c95905fad2492506329965a1d9150606401600060405180830381600087803b15801561253f57600080fd5b505af1158015610b0d573d6000803e3d6000fd5b600e546001600160a01b031661257c57604051637bce7b2b60e11b815260040160405180910390fd5b60008061258885612e99565b600e546040516370a0823160e01b81523060048201529294509092506000916001600160a01b03909116906370a0823190602401602060405180830381865afa1580156125d9573d6000803e3d6000fd5b505050506040513d601f19601f820116820180604052508101906125fd9190614162565b600e54909150612618906001600160a01b0316893086613057565b600e546040516370a0823160e01b81523060048201526000916001600160a01b0316906370a0823190602401602060405180830381865afa158015612661573d6000803e3d6000fd5b505050506040513d601f19601f820116820180604052508101906126859190614162565b90506000612693838361439a565b90508085146126b557604051631c7c26d360e31b815260040160405180910390fd5b6126c88b8a868a51600014158b8b612cd9565b886001600160a01b03167f25ca84076773b0455db53621c459ddc84fe40840e4932a62706a032566f399df856040516120ad91815260200190565b600061272d7f360894a13ba1a3210667c828492db98dca3e2076cc3735a920a3ca505d382bbc5490565b6001600160a01b0316036127835760405162461bcd60e51b815260206004820152601d60248201527f5555505350726f786961626c653a206e6f742075706772616461626c6500000060448201526064016110e3565b806001600160a01b03166352d1902d6040518163ffffffff1660e01b8152600401602060405180830381865afa1580156127c1573d6000803e3d6000fd5b505050506040513d601f19601f820116820180604052508101906127e59190614162565b7f6bfbb132610e56cb96575dba244667b9d6dbfeffe22b68a79fa16f2d18eb00191461285f5760405162461bcd60e51b815260206004820152602360248201527f5555505350726f786961626c653a206e6f7420636f6d70617469626c65206c6f60448201526267696360e81b60648201526084016110e3565b6001600160a01b03811630036128b75760405162461bcd60e51b815260206004820152601960248201527f5555505350726f786961626c653a2070726f7879206c6f6f700000000000000060448201526064016110e3565b6128df817f360894a13ba1a3210667c828492db98dca3e2076cc3735a920a3ca505d382bbc55565b7fe011bc04c286c344a8fcbb8de77f953da762c3e25d8cdea984147fc4168a5dcc7f6bfbb132610e56cb96575dba244667b9d6dbfeffe22b68a79fa16f2d18eb0019604080519182526001600160a01b038416602083015201611672565b6060816001600160401b03811115612957576129576139b0565b604051908082528060200260200182016040528015612980578160200160208202803683370190505b50905060005b828110156129c5576000818501549050808383815181106129a9576129a96143ad565b6020908102919091010152506129be816143f1565b9050612986565b5092915050565b6000816001600160a01b0316836001600160a01b03161480612a3b57506001600160a01b038316600090815260018501602052604090205460ff168015612a3b57506001600160a01b03808316600090815260038601602090815260408083209387168352929052205460ff16155b80610dc257506001600160a01b03808316600090815260028601602090815260408083209387168352929052205460ff1690509392505050565b6001600160a01b038616612a9c5760405163eecd6c9b60e01b815260040160405180910390fd5b6001600160a01b038516612ac35760405163e219bd3960e01b815260040160405180910390fd5b612ad187878787878761308f565b612adf878787878787612fb8565b6111c8878787878787876131b6565b806001600160a01b0316826001600160a01b031603612b655760405162461bcd60e51b815260206004820152602d60248201527f4552433737374f70657261746f72733a20617574686f72697a696e672073656c60448201526c331030b99037b832b930ba37b960991b60648201526084016110e3565b6001600160a01b038116600090815260018401602052604090205460ff1615612bbb576001600160a01b03918216600090815260039390930160209081526040808520929093168452529020805460ff19169055565b6001600160a01b0380831660009081526002850160209081526040808320938516835292905220805460ff19166001179055505050565b6001600160a01b038416612c1957604051632e8aac6160e21b815260040160405180910390fd5b612c288585600086868661308f565b612c328484613306565b836001600160a01b0316856001600160a01b03167fa78a9be3a7b862d26933ad85fb11d80ef66b8f972d7cbba06621d583943a4098858585604051612c7993929190614427565b60405180910390a36040518381526000906001600160a01b0386169060008051602061464083398151915290602001610980565b60008184841115612cd15760405162461bcd60e51b81526004016110e39190613801565b505050900390565b6001600160a01b038516612d0057604051630d24315760e01b815260040160405180910390fd5b612d0a8585613416565b612d1a86600087878686896131b6565b846001600160a01b0316866001600160a01b03167f2fe5be0146f74c5bce36c0b80911af6c7d86ff27e89d5cfa61fc681327954e5d868585604051612d6193929190614427565b60405180910390a36040518481526001600160a01b03861690600090600080516020614640833981519152906020015b60405180910390a3505050505050565b336001600160a01b03821603612e0c5760405162461bcd60e51b815260206004820152602a60248201527f4552433737374f70657261746f72733a207265766f6b696e672073656c662061604482015269399037b832b930ba37b960b11b60648201526084016110e3565b6001600160a01b038116600090815260018401602052604090205460ff1615612e66576001600160a01b0380831660009081526003850160209081526040808320938516835292905220805460ff19166001179055505050565b6001600160a01b03918216600090815260029390930160209081526040808520929093168452529020805460ff19169055565b600e54600090819081906012600160a01b90910460ff161015612ef857600e54612ece90600160a01b900460ff166012614452565b612ed990600a61454f565b9050612ee5818561455e565b9250612ef18184614580565b9150612f4f565b600e546012600160a01b90910460ff161115612f4857600e54612f2790601290600160a01b900460ff16614452565b612f3290600a61454f565b9050612f3e8185614580565b9250839150612f4f565b8391508192505b50915091565b6040516001600160a01b03831660248201526044810182905261136990849063a9059cbb60e01b906064015b60408051601f198184030181529190526020810180516001600160e01b03166001600160e01b031990931692909217909152613470565b612fcb8585612fc686612363565b613542565b836001600160a01b0316856001600160a01b0316876001600160a01b03167f06b541ddaa720db2b10a4d0cdac39b8d360425fc073085fac19bc8261467798786868660405161301c93929190614427565b60405180910390a4836001600160a01b0316856001600160a01b031660008051602061464083398151915285604051612d9191815260200190565b6040516001600160a01b038085166024830152831660448201526064810182905261130f9085906323b872dd60e01b90608401612f81565b60405163555ddc6560e11b81526001600160a01b03861660048201527f29ddb589b1fb5fc7cf394961c1adf5f8c6454761adf795e67fe149f658abe8956024820152600090731820a4b7618bde71dce8cdc73aab6c95905fad249063aabbb8ca90604401602060405180830381865afa158015613110573d6000803e3d6000fd5b505050506040513d601f19601f82011682018060405250810190613134919061440a565b90506001600160a01b038116156111c857604051633ad5cbc160e11b81526001600160a01b038216906375ab97829061317b908a908a908a908a908a908a9060040161459f565b600060405180830381600087803b15801561319557600080fd5b505af11580156131a9573d6000803e3d6000fd5b5050505050505050505050565b60405163555ddc6560e11b81526001600160a01b03861660048201527fb281fc8c12954d22544db45de3159a39272895b169a852b314f9cc762e44c53b6024820152600090731820a4b7618bde71dce8cdc73aab6c95905fad249063aabbb8ca90604401602060405180830381865afa158015613237573d6000803e3d6000fd5b505050506040513d601f19601f8201168201806040525081019061325b919061440a565b90506001600160a01b038116156132d7576040516223de2960e01b81526001600160a01b038216906223de29906132a0908b908b908b908b908b908b9060040161459f565b600060405180830381600087803b1580156132ba57600080fd5b505af11580156132ce573d6000803e3d6000fd5b50505050611412565b8115611412576001600160a01b0386163b156114125760405163fe737d0560e01b815260040160405180910390fd5b600061338e837f00000000000000000000000000000000000000000000000000000000000000006001600160a01b031663bbe4fd506040518163ffffffff1660e01b8152600401602060405180830381865afa15801561336a573d6000803e3d6000fd5b505050506040513d601f19601f820116820180604052508101906107ce9190614162565b5050905061339b82612363565b8112156133bb5760405163043b37d160e21b815260040160405180910390fd5b6133c482612363565b6001600160a01b0384166000908152600260205260409020546133e7919061410f565b6001600160a01b03841660009081526002602052604090205560035461340e90839061439a565b600355505050565b61341f81612363565b6001600160a01b03831660009081526002602052604090205461344291906140e7565b6001600160a01b03831660009081526002602052604090205560035461346990829061422c565b6003555050565b60006134c5826040518060400160405280602081526020017f5361666545524332303a206c6f772d6c6576656c2063616c6c206661696c6564815250856001600160a01b03166136419092919063ffffffff16565b80519091501561136957808060200190518101906134e39190614082565b6113695760405162461bcd60e51b815260206004820152602a60248201527f5361666545524332303a204552433230206f7065726174696f6e20646964206e6044820152691bdd081cdd58d8d9595960b21b60648201526084016110e3565b60006135a6847f00000000000000000000000000000000000000000000000000000000000000006001600160a01b031663bbe4fd506040518163ffffffff1660e01b8152600401602060405180830381865afa15801561336a573d6000803e3d6000fd5b50509050818112156135cb57604051632f4cb94160e01b815260040160405180910390fd5b6001600160a01b0384166000908152600260205260409020546135ef90839061410f565b6001600160a01b03808616600090815260026020526040808220939093559085168152205461361f9083906140e7565b6001600160a01b03909316600090815260026020526040902092909255505050565b6060610dc2848460008585600080866001600160a01b0316858760405161366891906145f9565b60006040518083038185875af1925050503d80600081146136a5576040519150601f19603f3d011682016040523d82523d6000602084013e6136aa565b606091505b50915091506136bb878383876136c6565b979650505050505050565b6060831561373557825160000361372e576001600160a01b0385163b61372e5760405162461bcd60e51b815260206004820152601d60248201527f416464726573733a2063616c6c20746f206e6f6e2d636f6e747261637400000060448201526064016110e3565b5081610dc2565b610dc2838381511561374a5781518083602001fd5b8060405162461bcd60e51b81526004016110e39190613801565b6020808252825182820181905260009190848201906040850190845b818110156137a55783516001600160a01b031683529284019291840191600101613780565b50909695505050505050565b60005b838110156137cc5781810151838201526020016137b4565b50506000910152565b600081518084526137ed8160208601602086016137b1565b601f01601f19169290920160200192915050565b6020815260006114a060208301846137d5565b6001600160a01b03811681146109d257600080fd5b60008083601f84011261383b57600080fd5b5081356001600160401b0381111561385257600080fd5b6020830191508360208260051b850101111561386d57600080fd5b9250929050565b6000806000806060858703121561388a57600080fd5b843561389581613814565b93506020850135925060408501356001600160401b038111156138b757600080fd5b6138c387828801613829565b95989497509550505050565b600080604083850312156138e257600080fd5b82356138ed81613814565b946020939093013593505050565b60006020828403121561390d57600080fd5b5035919050565b60008060006040848603121561392957600080fd5b8335925060208401356001600160401b0381111561394657600080fd5b61395286828701613829565b9497909650939450505050565b6000806000806080858703121561397557600080fd5b843561398081613814565b9350602085013561399081613814565b925060408501356139a081613814565b9396929550929360600135925050565b634e487b7160e01b600052604160045260246000fd5b604051601f8201601f191681016001600160401b03811182821017156139ee576139ee6139b0565b604052919050565b600082601f830112613a0757600080fd5b81356001600160401b03811115613a2057613a206139b0565b613a33601f8201601f19166020016139c6565b818152846020838601011115613a4857600080fd5b816020850160208301376000918101602001919091529392505050565b80151581146109d257600080fd5b600080600080600080600060e0888a031215613a8e57600080fd5b8735965060208801356001600160401b03811115613aab57600080fd5b613ab78a828b016139f6565b9650506040880135613ac881613814565b94506060880135613ad881613a65565b93506080880135613ae881613814565b9699959850939692959460a0840135945060c09093013592915050565b600080600060608486031215613b1a57600080fd5b8335613b2581613814565b92506020840135613b3581613814565b929592945050506040919091013590565b60008060408385031215613b5957600080fd5b50508035926020909101359150565b600060208284031215613b7a57600080fd5b81356114a081613814565b60008083601f840112613b9757600080fd5b5081356001600160401b03811115613bae57600080fd5b60208301915083602082850101111561386d57600080fd5b60008060008060008060808789031215613bdf57600080fd5b8635613bea81613814565b9550602087013560ff81168114613c0057600080fd5b945060408701356001600160401b0380821115613c1c57600080fd5b613c288a838b01613b85565b90965094506060890135915080821115613c4157600080fd5b50613c4e89828a01613b85565b979a9699509497509295939492505050565b60008060008060808587031215613c7657600080fd5b8435613c8181613814565b93506020850135613c9181613814565b93969395505050506040820135916060013590565b6020808252825182820181905260009190848201906040850190845b818110156137a557835183529284019291840191600101613cc2565b60008060008060608587031215613cf457600080fd5b8435613cff81613814565b93506020850135925060408501356001600160401b03811115613d2157600080fd5b6138c387828801613b85565b600080600080600080600060a0888a031215613d4857600080fd5b8735613d5381613814565b96506020880135613d6381613814565b95506040880135945060608801356001600160401b0380821115613d8657600080fd5b613d928b838c01613b85565b909650945060808a0135915080821115613dab57600080fd5b50613db88a828b01613b85565b989b979a50959850939692959293505050565b600080600060608486031215613de057600080fd5b8335613deb81613814565b95602085013595506040909401359392505050565b600080600060608486031215613e1557600080fd5b8335613e2081613814565b92506020840135915060408401356001600160401b03811115613e4257600080fd5b613e4e868287016139f6565b9150509250925092565b60008060008060808587031215613e6e57600080fd5b8435613e7981613814565b93506020850135613e8981613814565b92506040850135915060608501356001600160401b03811115613eab57600080fd5b613eb7878288016139f6565b91505092959194509250565b60008060408385031215613ed657600080fd5b8235613ee181613814565b91506020830135613ef181613814565b809150509250929050565b60008060008060008060808789031215613f1557600080fd5b8635613f2081613814565b95506020870135945060408701356001600160401b0380821115613c1c57600080fd5b600080600060408486031215613f5857600080fd5b8335925060208401356001600160401b03811115613f7557600080fd5b61395286828701613b85565b600181811c90821680613f9557607f821691505b602082108103613fb557634e487b7160e01b600052602260045260246000fd5b50919050565b6080808252600e908201526d41677265656d656e74537461746560901b60a08201526001600160a01b039384166020820152919092166040820152606081019190915260c00190565b6060808252600d908201526c41677265656d656e744461746160981b60808201526001600160a01b03929092166020830152604082015260a00190565b838152604060208201819052810182905260006001600160fb1b0383111561406857600080fd5b8260051b8085606085013791909101606001949350505050565b60006020828403121561409457600080fd5b81516114a081613a65565b634e487b7160e01b600052601160045260246000fd5b6000600160ff1b82016140ca576140ca61409f565b5060000390565b634e487b7160e01b600052600160045260246000fd5b80820182811260008312801582168215821617156141075761410761409f565b505092915050565b81810360008312801583831316838312821617156129c5576129c561409f565b85815260018060a01b038516602082015283604082015282606082015260a0608082015260006136bb60a08301846137d5565b60006020828403121561417457600080fd5b5051919050565b6000602080838503121561418e57600080fd5b82516001600160401b03808211156141a557600080fd5b818501915085601f8301126141b957600080fd5b8151818111156141cb576141cb6139b0565b8060051b91506141dc8483016139c6565b81815291830184019184810190888411156141f657600080fd5b938501935b83851015614220578451925061421083613814565b82825293850193908501906141fb565b98975050505050505050565b808201808211156109a0576109a061409f565b6020808252602e908201527f496e697469616c697a61626c653a20636f6e747261637420697320616c72656160408201526d191e481a5b9a5d1a585b1a5e995960921b606082015260800190565b601f82111561136957600081815260208120601f850160051c810160208610156142b45750805b601f850160051c820191505b818110156142d3578281556001016142c0565b505050505050565b6001600160401b038311156142f2576142f26139b0565b614306836143008354613f81565b8361428d565b6000601f84116001811461433a57600085156143225750838201355b600019600387901b1c1916600186901b178355610b0d565b600083815260209020601f19861690835b8281101561436b578685013582556020948501946001909201910161434b565b50868210156143885760001960f88860031b161c19848701351681555b505060018560011b0183555050505050565b818103818111156109a0576109a061409f565b634e487b7160e01b600052603260045260246000fd5b6000806000606084860312156143d857600080fd5b8351925060208401519150604084015190509250925092565b6000600182016144035761440361409f565b5060010190565b60006020828403121561441c57600080fd5b81516114a081613814565b83815260606020820152600061444060608301856137d5565b828103604084015261128a81856137d5565b60ff82811682821603908111156109a0576109a061409f565b600181815b808511156144a657816000190482111561448c5761448c61409f565b8085161561449957918102915b93841c9390800290614470565b509250929050565b6000826144bd575060016109a0565b816144ca575060006109a0565b81600181146144e057600281146144ea57614506565b60019150506109a0565b60ff8411156144fb576144fb61409f565b50506001821b6109a0565b5060208310610133831016604e8410600b8410161715614529575081810a6109a0565b614533838361446b565b80600019048211156145475761454761409f565b029392505050565b60006114a060ff8416836144ae565b60008261457b57634e487b7160e01b600052601260045260246000fd5b500490565b600081600019048311821515161561459a5761459a61409f565b500290565b6001600160a01b0387811682528681166020830152851660408201526060810184905260c0608082018190526000906145da908301856137d5565b82810360a08401526145ec81856137d5565b9998505050505050505050565b6000825161460b8184602087016137b1565b919091019291505056fe5375706572546f6b656e3a2064656372656173656420616c6c6f77616e63652062656c6f77207a65726fddf252ad1be2c89b69c2b068fc378daa952ba7f163c4a11628f55a4df523b3ef5375706572546f6b656e3a207472616e7366657220616d6f756e74206578636565647320616c6c6f77616e6365a2646970667358221220a93c803e655ba44bbf4a7a89d8d3856a32aa5467b400be1bb9ab8ffb1912360164736f6c63430008100033a26469706673582212204b98f6b190c80bf02605bc3dd1b573cff34170fbbfd913e1b2488f7d9908926964736f6c63430008100033",
  "linkReferences": {},
  "deployedLinkReferences": {}
}