{
  "_format": "hh-sol-artifact-1",
  "contractName": "Superfluid",
  "sourceName": "contracts/superfluid/Superfluid.sol",
  "abi": [
    {
      "inputs": [
        {
          "internalType": "bool",
          "name": "nonUpgradable",
          "type": "bool"
        },
        {
          "internalType": "bool",
          "name": "appWhiteListingEnabled",
          "type": "bool"
        }
      ],
      "stateMutability": "nonpayable",
      "type": "constructor"
    },
    {
      "inputs": [
        {
          "internalType": "uint256",
          "name": "_code",
          "type": "uint256"
        }
      ],
      "name": "APP_RULE",
      "type": "error"
    },
    {
      "inputs": [],
      "name": "HOST_AGREEMENT_ALREADY_REGISTERED",
      "type": "error"
    },
    {
      "inputs": [],
      "name": "HOST_AGREEMENT_CALLBACK_IS_NOT_ACTION",
      "type": "error"
    },
    {
      "inputs": [],
      "name": "HOST_AGREEMENT_IS_NOT_REGISTERED",
      "type": "error"
    },
    {
      "inputs": [],
      "name": "HOST_CALL_AGREEMENT_WITH_CTX_FROM_WRONG_ADDRESS",
      "type": "error"
    },
    {
      "inputs": [],
      "name": "HOST_CALL_APP_ACTION_WITH_CTX_FROM_WRONG_ADDRESS",
      "type": "error"
    },
    {
      "inputs": [],
      "name": "HOST_CANNOT_DOWNGRADE_TO_NON_UPGRADEABLE",
      "type": "error"
    },
    {
      "inputs": [],
      "name": "HOST_INVALID_CONFIG_WORD",
      "type": "error"
    },
    {
      "inputs": [],
      "name": "HOST_INVALID_OR_EXPIRED_SUPER_APP_REGISTRATION_KEY",
      "type": "error"
    },
    {
      "inputs": [],
      "name": "HOST_MAX_256_AGREEMENTS",
      "type": "error"
    },
    {
      "inputs": [],
      "name": "HOST_MUST_BE_CONTRACT",
      "type": "error"
    },
    {
      "inputs": [],
      "name": "HOST_NON_UPGRADEABLE",
      "type": "error"
    },
    {
      "inputs": [],
      "name": "HOST_NON_ZERO_LENGTH_PLACEHOLDER_CTX",
      "type": "error"
    },
    {
      "inputs": [],
      "name": "HOST_NOT_A_SUPER_APP",
      "type": "error"
    },
    {
      "inputs": [],
      "name": "HOST_NO_APP_REGISTRATION_PERMISSIONS",
      "type": "error"
    },
    {
      "inputs": [],
      "name": "HOST_ONLY_GOVERNANCE",
      "type": "error"
    },
    {
      "inputs": [],
      "name": "HOST_ONLY_LISTED_AGREEMENT",
      "type": "error"
    },
    {
      "inputs": [],
      "name": "HOST_RECEIVER_IS_NOT_SUPER_APP",
      "type": "error"
    },
    {
      "inputs": [],
      "name": "HOST_SENDER_IS_NOT_SUPER_APP",
      "type": "error"
    },
    {
      "inputs": [],
      "name": "HOST_SOURCE_APP_NEEDS_HIGHER_APP_LEVEL",
      "type": "error"
    },
    {
      "inputs": [],
      "name": "HOST_SUPER_APP_ALREADY_REGISTERED",
      "type": "error"
    },
    {
      "inputs": [],
      "name": "HOST_SUPER_APP_IS_JAILED",
      "type": "error"
    },
    {
      "inputs": [],
      "name": "HOST_UNAUTHORIZED_SUPER_APP_FACTORY",
      "type": "error"
    },
    {
      "inputs": [],
      "name": "HOST_UNKNOWN_BATCH_CALL_OPERATION_TYPE",
      "type": "error"
    },
    {
      "anonymous": false,
      "inputs": [
        {
          "indexed": false,
          "internalType": "bytes32",
          "name": "agreementType",
          "type": "bytes32"
        },
        {
          "indexed": false,
          "internalType": "address",
          "name": "code",
          "type": "address"
        }
      ],
      "name": "AgreementClassRegistered",
      "type": "event"
    },
    {
      "anonymous": false,
      "inputs": [
        {
          "indexed": false,
          "internalType": "bytes32",
          "name": "agreementType",
          "type": "bytes32"
        },
        {
          "indexed": false,
          "internalType": "address",
          "name": "code",
          "type": "address"
        }
      ],
      "name": "AgreementClassUpdated",
      "type": "event"
    },
    {
      "anonymous": false,
      "inputs": [
        {
          "indexed": true,
          "internalType": "contract ISuperApp",
          "name": "app",
          "type": "address"
        }
      ],
      "name": "AppRegistered",
      "type": "event"
    },
    {
      "anonymous": false,
      "inputs": [
        {
          "indexed": false,
          "internalType": "bytes32",
          "name": "uuid",
          "type": "bytes32"
        },
        {
          "indexed": false,
          "internalType": "address",
          "name": "codeAddress",
          "type": "address"
        }
      ],
      "name": "CodeUpdated",
      "type": "event"
    },
    {
      "anonymous": false,
      "inputs": [
        {
          "indexed": false,
          "internalType": "contract ISuperfluidGovernance",
          "name": "oldGov",
          "type": "address"
        },
        {
          "indexed": false,
          "internalType": "contract ISuperfluidGovernance",
          "name": "newGov",
          "type": "address"
        }
      ],
      "name": "GovernanceReplaced",
      "type": "event"
    },
    {
      "anonymous": false,
      "inputs": [
        {
          "indexed": false,
          "internalType": "uint8",
          "name": "version",
          "type": "uint8"
        }
      ],
      "name": "Initialized",
      "type": "event"
    },
    {
      "anonymous": false,
      "inputs": [
        {
          "indexed": true,
          "internalType": "contract ISuperApp",
          "name": "app",
          "type": "address"
        },
        {
          "indexed": false,
          "internalType": "uint256",
          "name": "reason",
          "type": "uint256"
        }
      ],
      "name": "Jail",
      "type": "event"
    },
    {
      "anonymous": false,
      "inputs": [
        {
          "indexed": false,
          "internalType": "contract ISuperTokenFactory",
          "name": "newFactory",
          "type": "address"
        }
      ],
      "name": "SuperTokenFactoryUpdated",
      "type": "event"
    },
    {
      "anonymous": false,
      "inputs": [
        {
          "indexed": true,
          "internalType": "contract ISuperToken",
          "name": "token",
          "type": "address"
        },
        {
          "indexed": false,
          "internalType": "address",
          "name": "code",
          "type": "address"
        }
      ],
      "name": "SuperTokenLogicUpdated",
      "type": "event"
    },
    {
      "inputs": [],
      "name": "APP_WHITE_LISTING_ENABLED",
      "outputs": [
        {
          "internalType": "bool",
          "name": "",
          "type": "bool"
        }
      ],
      "stateMutability": "view",
      "type": "function"
    },
    {
      "inputs": [],
      "name": "CALLBACK_GAS_LIMIT",
      "outputs": [
        {
          "internalType": "uint64",
          "name": "",
          "type": "uint64"
        }
      ],
      "stateMutability": "view",
      "type": "function"
    },
    {
      "inputs": [],
      "name": "MAX_APP_CALLBACK_LEVEL",
      "outputs": [
        {
          "internalType": "uint256",
          "name": "",
          "type": "uint256"
        }
      ],
      "stateMutability": "view",
      "type": "function"
    },
    {
      "inputs": [],
      "name": "NON_UPGRADABLE_DEPLOYMENT",
      "outputs": [
        {
          "internalType": "bool",
          "name": "",
          "type": "bool"
        }
      ],
      "stateMutability": "view",
      "type": "function"
    },
    {
      "inputs": [
        {
          "internalType": "uint256",
          "name": "bitmap",
          "type": "uint256"
        },
        {
          "internalType": "bytes32",
          "name": "agreementType",
          "type": "bytes32"
        }
      ],
      "name": "addToAgreementClassesBitmap",
      "outputs": [
        {
          "internalType": "uint256",
          "name": "newBitmap",
          "type": "uint256"
        }
      ],
      "stateMutability": "view",
      "type": "function"
    },
    {
      "inputs": [
        {
          "internalType": "contract ISuperApp",
          "name": "targetApp",
          "type": "address"
        }
      ],
      "name": "allowCompositeApp",
      "outputs": [],
      "stateMutability": "nonpayable",
      "type": "function"
    },
    {
      "inputs": [
        {
          "internalType": "bytes",
          "name": "ctx",
          "type": "bytes"
        },
        {
          "internalType": "int256",
          "name": "appCreditUsedDelta",
          "type": "int256"
        }
      ],
      "name": "appCallbackPop",
      "outputs": [
        {
          "internalType": "bytes",
          "name": "newCtx",
          "type": "bytes"
        }
      ],
      "stateMutability": "nonpayable",
      "type": "function"
    },
    {
      "inputs": [
        {
          "internalType": "bytes",
          "name": "ctx",
          "type": "bytes"
        },
        {
          "internalType": "contract ISuperApp",
          "name": "app",
          "type": "address"
        },
        {
          "internalType": "uint256",
          "name": "appCreditGranted",
          "type": "uint256"
        },
        {
          "internalType": "int256",
          "name": "appCreditUsed",
          "type": "int256"
        },
        {
          "internalType": "contract ISuperfluidToken",
          "name": "appCreditToken",
          "type": "address"
        }
      ],
      "name": "appCallbackPush",
      "outputs": [
        {
          "internalType": "bytes",
          "name": "appCtx",
          "type": "bytes"
        }
      ],
      "stateMutability": "nonpayable",
      "type": "function"
    },
    {
      "inputs": [
        {
          "components": [
            {
              "internalType": "uint32",
              "name": "operationType",
              "type": "uint32"
            },
            {
              "internalType": "address",
              "name": "target",
              "type": "address"
            },
            {
              "internalType": "bytes",
              "name": "data",
              "type": "bytes"
            }
          ],
          "internalType": "struct ISuperfluid.Operation[]",
          "name": "operations",
          "type": "tuple[]"
        }
      ],
      "name": "batchCall",
      "outputs": [],
      "stateMutability": "nonpayable",
      "type": "function"
    },
    {
      "inputs": [
        {
          "internalType": "contract ISuperAgreement",
          "name": "agreementClass",
          "type": "address"
        },
        {
          "internalType": "bytes",
          "name": "callData",
          "type": "bytes"
        },
        {
          "internalType": "bytes",
          "name": "userData",
          "type": "bytes"
        }
      ],
      "name": "callAgreement",
      "outputs": [
        {
          "internalType": "bytes",
          "name": "returnedData",
          "type": "bytes"
        }
      ],
      "stateMutability": "nonpayable",
      "type": "function"
    },
    {
      "inputs": [
        {
          "internalType": "contract ISuperAgreement",
          "name": "agreementClass",
          "type": "address"
        },
        {
          "internalType": "bytes",
          "name": "callData",
          "type": "bytes"
        },
        {
          "internalType": "bytes",
          "name": "userData",
          "type": "bytes"
        },
        {
          "internalType": "bytes",
          "name": "ctx",
          "type": "bytes"
        }
      ],
      "name": "callAgreementWithContext",
      "outputs": [
        {
          "internalType": "bytes",
          "name": "newCtx",
          "type": "bytes"
        },
        {
          "internalType": "bytes",
          "name": "returnedData",
          "type": "bytes"
        }
      ],
      "stateMutability": "nonpayable",
      "type": "function"
    },
    {
      "inputs": [
        {
          "internalType": "contract ISuperApp",
          "name": "app",
          "type": "address"
        },
        {
          "internalType": "bytes",
          "name": "callData",
          "type": "bytes"
        }
      ],
      "name": "callAppAction",
      "outputs": [
        {
          "internalType": "bytes",
          "name": "returnedData",
          "type": "bytes"
        }
      ],
      "stateMutability": "nonpayable",
      "type": "function"
    },
    {
      "inputs": [
        {
          "internalType": "contract ISuperApp",
          "name": "app",
          "type": "address"
        },
        {
          "internalType": "bytes",
          "name": "callData",
          "type": "bytes"
        },
        {
          "internalType": "bytes",
          "name": "ctx",
          "type": "bytes"
        }
      ],
      "name": "callAppActionWithContext",
      "outputs": [
        {
          "internalType": "bytes",
          "name": "newCtx",
          "type": "bytes"
        }
      ],
      "stateMutability": "nonpayable",
      "type": "function"
    },
    {
      "inputs": [
        {
          "internalType": "contract ISuperApp",
          "name": "app",
          "type": "address"
        },
        {
          "internalType": "bytes",
          "name": "callData",
          "type": "bytes"
        },
        {
          "internalType": "bool",
          "name": "isTermination",
          "type": "bool"
        },
        {
          "internalType": "bytes",
          "name": "ctx",
          "type": "bytes"
        }
      ],
      "name": "callAppAfterCallback",
      "outputs": [
        {
          "internalType": "bytes",
          "name": "newCtx",
          "type": "bytes"
        }
      ],
      "stateMutability": "nonpayable",
      "type": "function"
    },
    {
      "inputs": [
        {
          "internalType": "contract ISuperApp",
          "name": "app",
          "type": "address"
        },
        {
          "internalType": "bytes",
          "name": "callData",
          "type": "bytes"
        },
        {
          "internalType": "bool",
          "name": "isTermination",
          "type": "bool"
        },
        {
          "internalType": "bytes",
          "name": "ctx",
          "type": "bytes"
        }
      ],
      "name": "callAppBeforeCallback",
      "outputs": [
        {
          "internalType": "bytes",
          "name": "cbdata",
          "type": "bytes"
        }
      ],
      "stateMutability": "nonpayable",
      "type": "function"
    },
    {
      "inputs": [],
      "name": "castrate",
      "outputs": [],
      "stateMutability": "nonpayable",
      "type": "function"
    },
    {
      "inputs": [
        {
          "internalType": "bytes",
          "name": "ctx",
          "type": "bytes"
        },
        {
          "internalType": "int256",
          "name": "appCreditUsedMore",
          "type": "int256"
        }
      ],
      "name": "ctxUseCredit",
      "outputs": [
        {
          "internalType": "bytes",
          "name": "newCtx",
          "type": "bytes"
        }
      ],
      "stateMutability": "nonpayable",
      "type": "function"
    },
    {
      "inputs": [
        {
          "internalType": "bytes",
          "name": "ctx",
          "type": "bytes"
        }
      ],
      "name": "decodeCtx",
      "outputs": [
        {
          "components": [
            {
              "internalType": "uint8",
              "name": "appCallbackLevel",
              "type": "uint8"
            },
            {
              "internalType": "uint8",
              "name": "callType",
              "type": "uint8"
            },
            {
              "internalType": "uint256",
              "name": "timestamp",
              "type": "uint256"
            },
            {
              "internalType": "address",
              "name": "msgSender",
              "type": "address"
            },
            {
              "internalType": "bytes4",
              "name": "agreementSelector",
              "type": "bytes4"
            },
            {
              "internalType": "bytes",
              "name": "userData",
              "type": "bytes"
            },
            {
              "internalType": "uint256",
              "name": "appCreditGranted",
              "type": "uint256"
            },
            {
              "internalType": "uint256",
              "name": "appCreditWantedDeprecated",
              "type": "uint256"
            },
            {
              "internalType": "int256",
              "name": "appCreditUsed",
              "type": "int256"
            },
            {
              "internalType": "address",
              "name": "appAddress",
              "type": "address"
            },
            {
              "internalType": "contract ISuperfluidToken",
              "name": "appCreditToken",
              "type": "address"
            }
          ],
          "internalType": "struct ISuperfluid.Context",
          "name": "context",
          "type": "tuple"
        }
      ],
      "stateMutability": "pure",
      "type": "function"
    },
    {
      "inputs": [
        {
          "components": [
            {
              "internalType": "uint32",
              "name": "operationType",
              "type": "uint32"
            },
            {
              "internalType": "address",
              "name": "target",
              "type": "address"
            },
            {
              "internalType": "bytes",
              "name": "data",
              "type": "bytes"
            }
          ],
          "internalType": "struct ISuperfluid.Operation[]",
          "name": "operations",
          "type": "tuple[]"
        }
      ],
      "name": "forwardBatchCall",
      "outputs": [],
      "stateMutability": "nonpayable",
      "type": "function"
    },
    {
      "inputs": [
        {
          "internalType": "bytes32",
          "name": "agreementType",
          "type": "bytes32"
        }
      ],
      "name": "getAgreementClass",
      "outputs": [
        {
          "internalType": "contract ISuperAgreement",
          "name": "agreementClass",
          "type": "address"
        }
      ],
      "stateMutability": "view",
      "type": "function"
    },
    {
      "inputs": [
        {
          "internalType": "contract ISuperApp",
          "name": "appAddr",
          "type": "address"
        }
      ],
      "name": "getAppCallbackLevel",
      "outputs": [
        {
          "internalType": "uint8",
          "name": "",
          "type": "uint8"
        }
      ],
      "stateMutability": "view",
      "type": "function"
    },
    {
      "inputs": [
        {
          "internalType": "contract ISuperApp",
          "name": "app",
          "type": "address"
        }
      ],
      "name": "getAppManifest",
      "outputs": [
        {
          "internalType": "bool",
          "name": "isSuperApp",
          "type": "bool"
        },
        {
          "internalType": "bool",
          "name": "isJailed",
          "type": "bool"
        },
        {
          "internalType": "uint256",
          "name": "noopMask",
          "type": "uint256"
        }
      ],
      "stateMutability": "view",
      "type": "function"
    },
    {
      "inputs": [],
      "name": "getCodeAddress",
      "outputs": [
        {
          "internalType": "address",
          "name": "codeAddress",
          "type": "address"
        }
      ],
      "stateMutability": "view",
      "type": "function"
    },
    {
      "inputs": [],
      "name": "getGovernance",
      "outputs": [
        {
          "internalType": "contract ISuperfluidGovernance",
          "name": "",
          "type": "address"
        }
      ],
      "stateMutability": "view",
      "type": "function"
    },
    {
      "inputs": [],
      "name": "getNow",
      "outputs": [
        {
          "internalType": "uint256",
          "name": "",
          "type": "uint256"
        }
      ],
      "stateMutability": "view",
      "type": "function"
    },
    {
      "inputs": [],
      "name": "getSuperTokenFactory",
      "outputs": [
        {
          "internalType": "contract ISuperTokenFactory",
          "name": "factory",
          "type": "address"
        }
      ],
      "stateMutability": "view",
      "type": "function"
    },
    {
      "inputs": [],
      "name": "getSuperTokenFactoryLogic",
      "outputs": [
        {
          "internalType": "address",
          "name": "logic",
          "type": "address"
        }
      ],
      "stateMutability": "view",
      "type": "function"
    },
    {
      "inputs": [
        {
          "internalType": "contract ISuperfluidGovernance",
          "name": "gov",
          "type": "address"
        }
      ],
      "name": "initialize",
      "outputs": [],
      "stateMutability": "nonpayable",
      "type": "function"
    },
    {
      "inputs": [
        {
          "internalType": "contract ISuperAgreement",
          "name": "agreementClass",
          "type": "address"
        }
      ],
      "name": "isAgreementClassListed",
      "outputs": [
        {
          "internalType": "bool",
          "name": "yes",
          "type": "bool"
        }
      ],
      "stateMutability": "view",
      "type": "function"
    },
    {
      "inputs": [
        {
          "internalType": "bytes32",
          "name": "agreementType",
          "type": "bytes32"
        }
      ],
      "name": "isAgreementTypeListed",
      "outputs": [
        {
          "internalType": "bool",
          "name": "yes",
          "type": "bool"
        }
      ],
      "stateMutability": "view",
      "type": "function"
    },
    {
      "inputs": [
        {
          "internalType": "contract ISuperApp",
          "name": "app",
          "type": "address"
        }
      ],
      "name": "isApp",
      "outputs": [
        {
          "internalType": "bool",
          "name": "",
          "type": "bool"
        }
      ],
      "stateMutability": "view",
      "type": "function"
    },
    {
      "inputs": [
        {
          "internalType": "contract ISuperApp",
          "name": "app",
          "type": "address"
        }
      ],
      "name": "isAppJailed",
      "outputs": [
        {
          "internalType": "bool",
          "name": "",
          "type": "bool"
        }
      ],
      "stateMutability": "view",
      "type": "function"
    },
    {
      "inputs": [
        {
          "internalType": "contract ISuperApp",
          "name": "app",
          "type": "address"
        },
        {
          "internalType": "contract ISuperApp",
          "name": "targetApp",
          "type": "address"
        }
      ],
      "name": "isCompositeAppAllowed",
      "outputs": [
        {
          "internalType": "bool",
          "name": "",
          "type": "bool"
        }
      ],
      "stateMutability": "view",
      "type": "function"
    },
    {
      "inputs": [
        {
          "internalType": "bytes",
          "name": "ctx",
          "type": "bytes"
        }
      ],
      "name": "isCtxValid",
      "outputs": [
        {
          "internalType": "bool",
          "name": "",
          "type": "bool"
        }
      ],
      "stateMutability": "view",
      "type": "function"
    },
    {
      "inputs": [
        {
          "internalType": "address",
          "name": "forwarder",
          "type": "address"
        }
      ],
      "name": "isTrustedForwarder",
      "outputs": [
        {
          "internalType": "bool",
          "name": "",
          "type": "bool"
        }
      ],
      "stateMutability": "view",
      "type": "function"
    },
    {
      "inputs": [
        {
          "internalType": "bytes",
          "name": "ctx",
          "type": "bytes"
        },
        {
          "internalType": "contract ISuperApp",
          "name": "app",
          "type": "address"
        },
        {
          "internalType": "uint256",
          "name": "reason",
          "type": "uint256"
        }
      ],
      "name": "jailApp",
      "outputs": [
        {
          "internalType": "bytes",
          "name": "newCtx",
          "type": "bytes"
        }
      ],
      "stateMutability": "nonpayable",
      "type": "function"
    },
    {
      "inputs": [
        {
          "internalType": "uint256",
          "name": "bitmap",
          "type": "uint256"
        }
      ],
      "name": "mapAgreementClasses",
      "outputs": [
        {
          "internalType": "contract ISuperAgreement[]",
          "name": "agreementClasses",
          "type": "address[]"
        }
      ],
      "stateMutability": "view",
      "type": "function"
    },
    {
      "inputs": [],
      "name": "proxiableUUID",
      "outputs": [
        {
          "internalType": "bytes32",
          "name": "",
          "type": "bytes32"
        }
      ],
      "stateMutability": "pure",
      "type": "function"
    },
    {
      "inputs": [
        {
          "internalType": "contract ISuperAgreement",
          "name": "agreementClassLogic",
          "type": "address"
        }
      ],
      "name": "registerAgreementClass",
      "outputs": [],
      "stateMutability": "nonpayable",
      "type": "function"
    },
    {
      "inputs": [
        {
          "internalType": "uint256",
          "name": "configWord",
          "type": "uint256"
        }
      ],
      "name": "registerApp",
      "outputs": [],
      "stateMutability": "nonpayable",
      "type": "function"
    },
    {
      "inputs": [
        {
          "internalType": "contract ISuperApp",
          "name": "app",
          "type": "address"
        },
        {
          "internalType": "uint256",
          "name": "configWord",
          "type": "uint256"
        }
      ],
      "name": "registerAppByFactory",
      "outputs": [],
      "stateMutability": "nonpayable",
      "type": "function"
    },
    {
      "inputs": [
        {
          "internalType": "uint256",
          "name": "configWord",
          "type": "uint256"
        },
        {
          "internalType": "string",
          "name": "registrationKey",
          "type": "string"
        }
      ],
      "name": "registerAppWithKey",
      "outputs": [],
      "stateMutability": "nonpayable",
      "type": "function"
    },
    {
      "inputs": [
        {
          "internalType": "uint256",
          "name": "bitmap",
          "type": "uint256"
        },
        {
          "internalType": "bytes32",
          "name": "agreementType",
          "type": "bytes32"
        }
      ],
      "name": "removeFromAgreementClassesBitmap",
      "outputs": [
        {
          "internalType": "uint256",
          "name": "newBitmap",
          "type": "uint256"
        }
      ],
      "stateMutability": "view",
      "type": "function"
    },
    {
      "inputs": [
        {
          "internalType": "contract ISuperfluidGovernance",
          "name": "newGov",
          "type": "address"
        }
      ],
      "name": "replaceGovernance",
      "outputs": [],
      "stateMutability": "nonpayable",
      "type": "function"
    },
    {
      "inputs": [
        {
          "internalType": "contract ISuperAgreement",
          "name": "agreementClassLogic",
          "type": "address"
        }
      ],
      "name": "updateAgreementClass",
      "outputs": [],
      "stateMutability": "nonpayable",
      "type": "function"
    },
    {
      "inputs": [
        {
          "internalType": "address",
          "name": "newAddress",
          "type": "address"
        }
      ],
      "name": "updateCode",
      "outputs": [],
      "stateMutability": "nonpayable",
      "type": "function"
    },
    {
      "inputs": [
        {
          "internalType": "contract ISuperTokenFactory",
          "name": "newFactory",
          "type": "address"
        }
      ],
      "name": "updateSuperTokenFactory",
      "outputs": [],
      "stateMutability": "nonpayable",
      "type": "function"
    },
    {
      "inputs": [
        {
          "internalType": "contract ISuperToken",
          "name": "token",
          "type": "address"
        }
      ],
      "name": "updateSuperTokenLogic",
      "outputs": [],
      "stateMutability": "nonpayable",
      "type": "function"
    },
    {
      "inputs": [],
      "name": "versionRecipient",
      "outputs": [
        {
          "internalType": "string",
          "name": "",
          "type": "string"
        }
      ],
      "stateMutability": "pure",
      "type": "function"
    }
  ],
  "bytecode": "0x60c06040523480156200001157600080fd5b506040516200507f3803806200507f83398101604081905262000034916200005b565b901515608052151560a05262000093565b805180151581146200005657600080fd5b919050565b600080604083850312156200006f57600080fd5b6200007a8362000045565b91506200008a6020840162000045565b90509250929050565b60805160a051614f87620000f8600039600081816105a301528181611daa0152818161227d01526126910152600081816106df015281816107a101528181610a320152818161105a01528181611195015281816112f401526125bf0152614f876000f3fe608060405234801561001057600080fd5b50600436106102bb5760003560e01c8063768fabb011610182578063bb84cfa1116100e9578063c4d66de8116100a2578063e8dccb7d1161007c578063e8dccb7d14610701578063f2e55caf14610723578063f37330521461072b578063f9f522f41461073e57600080fd5b8063c4d66de8146106a7578063c56a069d146106ba578063cd312ec4146106da57600080fd5b8063bb84cfa114610624578063bbe4fd5014610660578063bced3ddc14610666578063bd1c448b14610679578063bd3252c81461068c578063bf4287341461069457600080fd5b80639d297e301161013b5780639d297e301461059e578063a5dbbbcd146105c5578063ad3915c8146105d8578063b6d200de146105eb578063b724211e146105fe578063ba48b5f81461061157600080fd5b8063768fabb014610525578063787afde7146105385780638ca484841461054b5780639378fa131461055e578063989b0c3e146105835780639903ad381461059657600080fd5b806350d75d2511610226578063670e77e3116101df578063670e77e3146104b55780636ad3ca7d146104c85780636b4f3335146104db5780637283100c146104ee578063731aed6e1461050157806374041e021461051257600080fd5b806350d75d251461043157806352d1902d1461043957806354fbc4931461046957806357121e0c1461047c578063572b6c051461048f57806359a29141146104a257600080fd5b806339255d5b1161027857806339255d5b146103715780633ca3ad4e146103845780633f6c923a146103bf5780634329d293146103df5780634695195414610400578063486ff0cd1461041357600080fd5b806306cecba8146102c057806315a024e1146102d55780631e6d0a84146102e85780631e855cf314610311578063289b3c0d1461032457806333d608f11461034f575b600080fd5b6102d36102ce366004613e4e565b61076e565b005b6102d36102e3366004613e4e565b610945565b6102fb6102f6366004613ec8565b610b95565b6040516103089190613fae565b60405180910390f35b6102fb61031f366004614084565b610de1565b6000546201000090046001600160a01b03165b6040516001600160a01b039091168152602001610308565b610359622dc6c081565b6040516001600160401b039091168152602001610308565b6102fb61037f3660046140d3565b610df7565b6103af610392366004613e4e565b6001600160a01b0316600090815260046020526040902054151590565b6040519015158152602001610308565b6103d26103cd366004614148565b610e0d565b604051610308919061417c565b6103f26103ed36600461425d565b610e1e565b604051610308929190614309565b6102d361040e366004613e4e565b611027565b604080518082019091526002815261763160f01b60208201526102fb565b610337611123565b7fcd355cae2c435f8c5e0c626c4691d22fd85aa7422a424c6f0bced6e64c7aba745b604051908152602001610308565b6102d3610477366004613e4e565b611152565b6102d361048a366004613e4e565b6113d5565b6103af61049d366004613e4e565b6114a3565b6102fb6104b036600461432e565b61152d565b6102d36104c3366004614379565b61160f565b6102d36104d6366004614379565b611625565b6103af6104e9366004613e4e565b611630565b6102d36104fc366004613e4e565b611654565b6003546001600160a01b0316610337565b6102fb610520366004613ec8565b6116fc565b6102fb6105333660046143ed565b61184b565b6102d3610546366004613e4e565b6119e7565b6103af610559366004613e4e565b611b2a565b61057161056c366004613e4e565b611bef565b60405160ff9091168152602001610308565b6102fb61059136600461432e565b611c10565b6102d3611ca3565b6103af7f000000000000000000000000000000000000000000000000000000000000000081565b61045b6105d3366004614468565b611d5e565b6102d36105e636600461448a565b611da8565b6103376105f936600461448a565b611df3565b6102fb61060c3660046144a3565b611e5a565b6102fb61061f3660046144ff565b611f1b565b6103af610632366004614581565b6001600160a01b03918216600090815260056020908152604080832093909416825291909152205460ff1690565b4261045b565b61045b610674366004614468565b612232565b6102d36106873660046145ba565b61227b565b61045b600181565b6103af6106a2366004614605565b612393565b6102d36106b5366004613e4e565b6123d4565b6106cd6106c836600461448a565b6124b8565b6040516103089190614646565b6103af7f000000000000000000000000000000000000000000000000000000000000000081565b6103af61070f36600461448a565b600090815260026020526040902054151590565b6103376125a2565b6102d3610739366004614693565b61266a565b61075161074c366004613e4e565b612772565b604080519315158452911515602084015290820152606001610308565b6000546201000090046001600160a01b0316331461079f576040516362e9152760e11b815260040160405180910390fd5b7f0000000000000000000000000000000000000000000000000000000000000000156107de576040516314f72c9f60e01b815260040160405180910390fd5b6000816001600160a01b0316637730599e6040518163ffffffff1660e01b8152600401602060405180830381865afa15801561081e573d6000803e3d6000fd5b505050506040513d601f19601f8201168201806040525081019061084291906146bf565b60008181526002602052604081205491925081900361087457604051630e4f4df560e11b815260040160405180910390fd5b6000600161088281846146ee565b8154811061089257610892614701565b6000918252602090912001546040516311a5465560e21b81526001600160a01b03868116600483015290911691508190634695195490602401600060405180830381600087803b1580156108e557600080fd5b505af11580156108f9573d6000803e3d6000fd5b5050604080518681526001600160a01b03881660208201527f9279aa773f2b588996032d8de89911555039f28b13a11a7c17074330bc082d9a935001905060405180910390a150505050565b6000546201000090046001600160a01b03163314610976576040516362e9152760e11b815260040160405180910390fd5b6000816001600160a01b0316637730599e6040518163ffffffff1660e01b8152600401602060405180830381865afa1580156109b6573d6000803e3d6000fd5b505050506040513d601f19601f820116820180604052508101906109da91906146bf565b60008181526002602052604090205490915015610a0a57604051631b93bb7560e31b815260040160405180910390fd5b60015461010011610a2e57604051630f85034f60e31b815260040160405180910390fd5b60007f0000000000000000000000000000000000000000000000000000000000000000610ae8576000604051610a6390613dd1565b604051809103906000f080158015610a7f573d6000803e3d6000fd5b50604051634a0687ef60e01b81526001600160a01b03868116600483015291925090821690634a0687ef90602401600060405180830381600087803b158015610ac757600080fd5b505af1158015610adb573d6000803e3d6000fd5b5050505080915050610aeb565b50815b6001805480820182557fb10e2d527612073b26eecdfd717e6a320cf44b4afac2b0732d9fcbe2b7fa0cf60180546001600160a01b0384166001600160a01b0319909116179055546000838152600260205260409081902091909155517f878135063a6cfb3bc333e534b1fdc83f4f12221cad6705c31c0567048a8bd3d190610b8890849086909182526001600160a01b0316602082015260400190565b60405180910390a1505050565b6060610ba033611b2a565b610bbd5760405163619c535960e01b815260040160405180910390fd5b82828080601f016020809104026020016040519081016040528093929190818152602001838380828437600092019190915250610bff92508391506127c19050565b610c0b57610c0b614717565b600080610c858a6000898c8c8080601f01602080910402602001604051908101604052809392919081815260200183838082843760009201919091525050604080516020601f8f018190048102820181019092528d815292508d91508c90819084018382808284376000920191909152506127e192505050565b915091508115610d9a57610c988161296e565b15610d325780806020019051810190610cb19190614772565b9350610cbc846127c1565b610d2d5786610ce65760405163a85ba64f60e01b8152601460048201526024015b60405180910390fd5b85858080601f016020809104026020016040519081016040528093929190818152602001838380828437600092019190915250929650610d2d92508c9150601490506129c2565b610dd4565b86610d535760405163a85ba64f60e01b815260166004820152602401610cdd565b85858080601f016020809104026020016040519081016040528093929190818152602001838380828437600092019190915250929650610d2d92508c9150601690506129c2565b85858080601f0160208091040260200160405190810160405280939291908181526020018383808284376000920191909152509296505050505b5050509695505050505050565b6060610dee338484612a37565b90505b92915050565b6060610e0533858585612c72565b949350505050565b610e15613dde565b610df182612d81565b60608083838080601f016020809104026020016040519081016040528093929190818152602001838380828437600092019190915250610e6392508391506127c19050565b610e835760405163a85ba64f60e01b815260146004820152602401610cdd565b89610e8d81611b2a565b610eaa5760405163619c535960e01b815260040160405180910390fd5b6000610eeb87878080601f016020809104026020016040519081016040528093929190818152602001838380828437600092019190915250610e0d92505050565b6101208101519091506001600160a01b03163314610f1c5760405163066875e160e11b815260040160405180910390fd5b60608101805133909152604080516020601f8c018190048102820181019092528a8152908b908b908190840183828082843760009201919091525050505060a0830152610f6882612e4c565b95506000610fae8e8e8e8080601f0160208091040260200160405190810160405280939291908181526020018383808284376000920191909152508c9250612f80915050565b96509050801561100d5785806020019051810190610fcc9190614772565b9650610fd7876127c1565b610fe357610fe3614717565b610fec87610e0d565b6001600160a01b0383166060820152925061100683612e4c565b9650611016565b61101686613039565b505050505097509795505050505050565b6000546201000090046001600160a01b03163314611058576040516362e9152760e11b815260040160405180910390fd5b7f000000000000000000000000000000000000000000000000000000000000000015611097576040516314f72c9f60e01b815260040160405180910390fd5b806001600160a01b031663cd312ec46040518163ffffffff1660e01b8152600401602060405180830381865afa1580156110d5573d6000803e3d6000fd5b505050506040513d601f19601f820116820180604052508101906110f991906147a6565b156111175760405163474e764160e01b815260040160405180910390fd5b61112081613144565b50565b600061114d7f360894a13ba1a3210667c828492db98dca3e2076cc3735a920a3ca505d382bbc5490565b905090565b6000546201000090046001600160a01b03163314611183576040516362e9152760e11b815260040160405180910390fd5b6003546001600160a01b03166112f2577f00000000000000000000000000000000000000000000000000000000000000006112695760006040516111c690613dd1565b604051809103906000f0801580156111e2573d6000803e3d6000fd5b50604051634a0687ef60e01b81526001600160a01b03848116600483015291925090821690634a0687ef90602401600060405180830381600087803b15801561122a57600080fd5b505af115801561123e573d6000803e3d6000fd5b5050600380546001600160a01b0319166001600160a01b039490941693909317909255506112859050565b600380546001600160a01b0319166001600160a01b0383161790555b600360009054906101000a90046001600160a01b03166001600160a01b0316638129fc1c6040518163ffffffff1660e01b8152600401600060405180830381600087803b1580156112d557600080fd5b505af11580156112e9573d6000803e3d6000fd5b50505050611391565b7f000000000000000000000000000000000000000000000000000000000000000015611331576040516314f72c9f60e01b815260040160405180910390fd5b6003546040516311a5465560e21b81526001600160a01b03838116600483015290911690634695195490602401600060405180830381600087803b15801561137857600080fd5b505af115801561138c573d6000803e3d6000fd5b505050505b6003546040516001600160a01b0390911681527fce13a9895a1719ad4493b2ac1a9bfb36070566161abab408e7ecbe586da8d499906020015b60405180910390a150565b33600081815260046020526040902054611402576040516302eb3f7160e61b815260040160405180910390fd5b6001600160a01b03821660009081526004602052604090205461143857604051634b5518af60e11b815260040160405180910390fd5b61144182611bef565b60ff1661144d82611bef565b60ff161161146e57604051630447252760e41b815260040160405180910390fd5b6001600160a01b039081166000908152600560209081526040808320949093168252929092529020805460ff19166001179055565b600080546201000090046001600160a01b03166380f70cba30836114c68661337e565b6040518463ffffffff1660e01b81526004016114e4939291906147c3565b602060405180830381865afa158015611501573d6000803e3d6000fd5b505050506040513d601f19601f8201168201806040525081019061152591906146bf565b151592915050565b606061153833611b2a565b6115555760405163619c535960e01b815260040160405180910390fd5b83838080601f01602080910402602001604051908101604052809392919081815260200183838082843760009201919091525061159792508391506127c19050565b6115a3576115a3614717565b60006115e486868080601f016020809104026020016040519081016040528093929190818152602001838380828437600092019190915250610e0d92505050565b90508381610100018181516115f991906147e7565b90525061160581612e4c565b9695505050505050565b61162161161a613406565b838361346e565b5050565b61162133838361346e565b6001600160a01b038116600090815260046020526040812054618000161515610df1565b6000546201000090046001600160a01b03163314611685576040516362e9152760e11b815260040160405180910390fd5b600054604080516001600160a01b03620100009093048316815291831660208301527f13abda02e63c790d0e2818b251282cfe5cbe0a8abd69c54bf5d2260c0907bd2e910160405180910390a1600080546001600160a01b03909216620100000262010000600160b01b0319909216919091179055565b606061170733611b2a565b6117245760405163619c535960e01b815260040160405180910390fd5b82828080601f01602080910402602001604051908101604052809392919081815260200183838082843760009201919091525061176692508391506127c19050565b61177257611772614717565b6000806117ec8a6001898c8c8080601f01602080910402602001604051908101604052809392919081815260200183838082843760009201919091525050604080516020601f8f018190048102820181019092528d815292508d91508c90819084018382808284376000920191909152506127e192505050565b915091508115610dd4576117ff8161296e565b1561181f57808060200190518101906118189190614772565b9350610dd4565b866118405760405163a85ba64f60e01b815260166004820152602401610cdd565b610dd48a60166129c2565b606061185633611b2a565b6118735760405163619c535960e01b815260040160405180910390fd5b86868080601f0160208091040260200160405190810160405280939291908181526020018383808284376000920191909152506118b592508391506127c19050565b6118c1576118c1614717565b600061190289898080601f016020809104026020016040519081016040528093929190818152602001838380828437600092019190915250610e0d92505050565b905061192981606001516001600160a01b0316600090815260046020526040902054151590565b801561193d57506001816000015160ff1610155b156119905760608101516001600160a01b039081166000908152600560209081526040808320938b168352929052205460ff166119905760405163a85ba64f60e01b8152601e6004820152602401610cdd565b80518161199c8261480f565b60ff169052506003602082015260c0810186905261010081018590526001600160a01b0380881661012083015284166101408201526119da81612e4c565b9998505050505050505050565b6000546201000090046001600160a01b03163314611a18576040516362e9152760e11b815260040160405180910390fd5b60035460408051634a3852d960e11b815290516000926001600160a01b031691639470a5b29160048083019260209291908290030181865afa158015611a62573d6000803e3d6000fd5b505050506040513d601f19601f82011682018060405250810190611a86919061482e565b6040516311a5465560e21b81526001600160a01b03808316600483015291925090831690634695195490602401600060405180830381600087803b158015611acd57600080fd5b505af1158015611ae1573d6000803e3d6000fd5b50506040516001600160a01b038481168252851692507f840acbd291b38534819f47f875839277e502f40e1c7bfea2c5fc2c8017442cd391506020015b60405180910390a25050565b600080826001600160a01b0316637730599e6040518163ffffffff1660e01b8152600401602060405180830381865afa158015611b6b573d6000803e3d6000fd5b505050506040513d601f19601f82011682018060405250810190611b8f91906146bf565b6000818152600260205260409020549091508015801590610e0557506001600160a01b0384166001611bc181846146ee565b81548110611bd157611bd1614701565b6000918252602090912001546001600160a01b031614949350505050565b6001600160a01b03811660009081526004602052604081205460ff16610df1565b6060611c1b33611b2a565b611c385760405163619c535960e01b815260040160405180910390fd5b6000611c7985858080601f016020809104026020016040519081016040528093929190818152602001838380828437600092019190915250610e0d92505050565b9050828161010001818151611c8e91906147e7565b905250611c9a81612e4c565b95945050505050565b600054610100900460ff1615808015611cc35750600054600160ff909116105b80611cdd5750303b158015611cdd575060005460ff166001145b611cf95760405162461bcd60e51b8152600401610cdd9061484b565b6000805460ff191660011790558015611d1c576000805461ff0019166101001790555b8015611120576000805461ff0019169055604051600181527f7f26b83ff96e1f2b6a682f133852f6798a09c465da95921460cefb3847402498906020016113ca565b600081815260026020526040812054808203611d8d57604051630e4f4df560e11b815260040160405180910390fd5b611d986001826146ee565b6001901b19841691505092915050565b7f000000000000000000000000000000000000000000000000000000000000000015611de7576040516305b93ebf60e41b815260040160405180910390fd5b61112081336001613a4c565b600081815260026020526040812054808203611e2257604051630e4f4df560e11b815260040160405180910390fd5b6001611e2e81836146ee565b81548110611e3e57611e3e614701565b6000918252602090912001546001600160a01b03169392505050565b6060611e6533611b2a565b611e825760405163619c535960e01b815260040160405180910390fd5b84848080601f016020809104026020016040519081016040528093929190818152602001838380828437600092019190915250611ec492508391506127c19050565b611ed057611ed0614717565b611eda84846129c2565b85858080601f016020809104026020016040519081016040528093929190818152602001838380828437600092019190915250929998505050505050505050565b606082828080601f016020809104026020016040519081016040528093929190818152602001838380828437600092019190915250611f5f92508391506127c19050565b611f7f5760405163a85ba64f60e01b815260146004820152602401610cdd565b6001600160a01b0387166000908152600460205260408120548891819003611fba5760405163163cbe4360e01b815260040160405180910390fd5b618000811615611fdc57604051628e12d960e21b815260040160405180910390fd5b87878080601f0160208091040260200160405190810160405280939291908181526020018383808284376000920182905250925061201d9150839050613b6b565b90506001600160e01b031981166330d9c91560e01b148061204e57506001600160e01b0319811663d86ed3e560e01b145b8061206957506001600160e01b03198116630221347d60e61b145b8061208457506001600160e01b0319811663230dbd2960e01b145b8061209f57506001600160e01b03198116635f9e7d7760e01b145b806120ba57506001600160e01b031981166353c11f9960e01b145b156120d8576040516377a14afb60e11b815260040160405180910390fd5b600061211989898080601f016020809104026020016040519081016040528093929190818152602001838380828437600092019190915250610e0d92505050565b6101208101519091506001600160a01b0316331461214a576040516311cfdef560e21b815260040160405180910390fd5b6060810180513390915261215d82612e4c565b97506000806121a48f8f8f8080601f0160208091040260200160405190810160405280939291908181526020018383808284376000920191909152508f9250612f80915050565b91509150811561221757808060200190518101906121c29190614772565b99506121cd8a6127c1565b6121ed5760405163a85ba64f60e01b815260146004820152602401610cdd565b6121f68a610e0d565b6001600160a01b0384166060820152935061221084612e4c565b9950612220565b61222081613039565b50505050505050505095945050505050565b60008181526002602052604081205480820361226157604051630e4f4df560e11b815260040160405180910390fd5b61226c6001826146ee565b6001901b841791505092915050565b7f0000000000000000000000000000000000000000000000000000000000000000156123825760006122e33284848080601f016020809104026020016040519081016040528093929190818152602001838380828437600092019190915250613bc792505050565b6000805460405163407b865d60e11b81529293504292620100009091046001600160a01b0316916380f70cba9161232091309187906004016147c3565b602060405180830381865afa15801561233d573d6000803e3d6000fd5b505050506040513d601f19601f8201168201806040525081019061236191906146bf565b1015612380576040516319ab84d160e01b815260040160405180910390fd5b505b61238e83336001613a4c565b505050565b6000610dee83838080601f0160208091040260200160405190810160405280939291908181526020018383808284376000920191909152506127c192505050565b600054610100900460ff16158080156123f45750600054600160ff909116105b8061240e5750303b15801561240e575060005460ff166001145b61242a5760405162461bcd60e51b8152600401610cdd9061484b565b6000805460ff19166001179055801561244d576000805461ff0019166101001790555b6000805462010000600160b01b031916620100006001600160a01b038516021790558015611621576000805461ff0019169055604051600181527f7f26b83ff96e1f2b6a682f133852f6798a09c465da95921460cefb38474024989060200160405180910390a15050565b60606000806001805490506001600160401b038111156124da576124da613fc1565b604051908082528060200260200182016040528015612503578160200160208202803683370190505b50925060009050600091505b60015482101561259a576001821b84161561258a576001828154811061253757612537614701565b6000918252602090912001546001600160a01b0316838261255781614899565b93508151811061256957612569614701565b60200260200101906001600160a01b031690816001600160a01b0316815250505b61259382614899565b915061250f565b825250919050565b6003546000906001600160a01b03166125bd576125bd614717565b7f0000000000000000000000000000000000000000000000000000000000000000156125f357506003546001600160a01b031690565b600360009054906101000a90046001600160a01b03166001600160a01b03166350d75d256040518163ffffffff1660e01b8152600401602060405180830381865afa158015612646573d6000803e3d6000fd5b505050506040513d601f19601f8201168201806040525081019061114d919061482e565b333b600081900361268e5760405163353dacc360e21b815260040160405180910390fd5b507f0000000000000000000000000000000000000000000000000000000000000000156127665760006126c033613bfa565b6000805460405163407b865d60e11b81529293509091620100009091046001600160a01b0316906380f70cba906126ff903090859087906004016147c3565b602060405180830381865afa15801561271c573d6000803e3d6000fd5b505050506040513d601f19601f8201168201806040525081019061274091906146bf565b6001149050806127635760405163289533c560e01b815260040160405180910390fd5b50505b61162181836000613a4c565b6001600160a01b0381166000908152600460209081526040808320815192830190915254808252158015929182916127b957805161800081161515935064ff000000001691505b509193909250565b60008151600014158015610df15750600654825160208401201492915050565b600060606001600160a01b0387166127fb576127fb614717565b6128058484613c74565b935060005a9050861561288357876001600160a01b0316622dc6c06001600160401b03168660405161283791906148b2565b6000604051808303818686fa925050503d8060008114612873576040519150601f19603f3d011682016040523d82523d6000602084013e612878565b606091505b5090935091506128f2565b876001600160a01b0316622dc6c06001600160401b0316866040516128a891906148b2565b60006040518083038160008787f1925050503d80600081146128e6576040519150601f19603f3d011682016040523d82523d6000602084013e6128eb565b606091505b5090935091505b8261296357612902603f826148ce565b5a1115612927578561291c5761291782613039565b612963565b61291788600a6129c2565b60405162461bcd60e51b815260206004820152601160248201527053463a206e656564206d6f72652067617360781b6044820152606401610cdd565b509550959350505050565b600060408251101561298257506000919050565b60208281015190600090821461299c575060009392505050565b5060408301516129ab81613d2b565b6129b69060406148f0565b84511492505050919050565b6001600160a01b038216600090815260046020526040812054618000169003611621576001600160a01b038216600081815260046020526040908190208054618000179055517fbe3aa33bd245135e4e26b223d79d14ea479a47bff09f2b03c53838af1edbb14b90611b1e9084815260200190565b60065460609015612a5e5760405163a85ba64f60e01b815260156004820152602401610cdd565b6001600160a01b0383166000908152600460205260408120548491819003612a995760405163163cbe4360e01b815260040160405180910390fd5b618000811615612abb57604051628e12d960e21b815260040160405180910390fd5b836000612ac782613b6b565b90506001600160e01b031981166330d9c91560e01b1480612af857506001600160e01b0319811663d86ed3e560e01b145b80612b1357506001600160e01b03198116630221347d60e61b145b80612b2e57506001600160e01b0319811663230dbd2960e01b145b80612b4957506001600160e01b03198116635f9e7d7760e01b145b80612b6457506001600160e01b031981166353c11f9960e01b145b15612b82576040516377a14afb60e11b815260040160405180910390fd5b60408051610160810182526000808252600260208084019190915242838501526001600160a01b03808d16606085015260808401839052845191820190945281815260a083015260c0820181905260e0820181905261010082018190529189166101208201526101408101829052612bf990612e4c565b90506000612c08898984612f80565b975090508015612c565786806020019051810190612c269190614772565b9150612c31826127c1565b612c515760405163a85ba64f60e01b815260146004820152602401610cdd565b612c5f565b612c5f87613039565b5050600060065550929695505050505050565b60065460609015612c995760405163a85ba64f60e01b815260156004820152602401610cdd565b83612ca381611b2a565b612cc05760405163619c535960e01b815260040160405180910390fd5b6000612ccb85613b6b565b6040805161016081018252600080825260016020830152929350612d4e9181014281526020018a6001600160a01b03168152602001846001600160e01b031916815260200187815260200160008152602001600081526020016000815260200160006001600160a01b0316815260200160006001600160a01b0316815250612e4c565b90506000612d5d888884612f80565b9550905080612d6f57612d6f85613039565b50506000600655509095945050505050565b612d89613dde565b60608083806020019051810190612da09190614903565b81519193509150600090612dbd908401602090810190850161495c565b60a08901526001600160e01b03191660808801526001600160a01b031660608701526040860152602081811c600f168187015260ff9091168552825160009250612e0e9190840181019084016149e0565b6001600160a01b03908116610140890152166101208701526101008601526001600160801b03811660c086015260801c60e085015250919392505050565b60606001826000015160ff161115612e7a5760405163a85ba64f60e01b815260286004820152602401610cdd565b815160208084015160009260ff1664ff000000009190921b1617905060006080612ea78560e00151613d64565b6001600160801b0316901b612ebf8560c00151613d64565b6001600160801b0316179050818460400151856060015186608001518760a00151604051602001612ef4959493929190614a2b565b60408051601f1981840301815282825261010087015161012088015161014089015160208601879052938501919091526001600160a01b03908116606085015290911660808301529060a00160408051601f1981840301815290829052612f5e9291602001614309565b60408051601f1981840301815291905280516020820120600655949350505050565b600060606001600160a01b038516612f9a57612f9a614717565b612fa48484613c74565b9350846001600160a01b031684604051612fbe91906148b2565b6000604051808303816000865af19150503d8060008114612ffb576040519150601f19603f3d011682016040523d82523d6000602084013e613000565b606091505b50909250905081156130315780516000036130315760405163a85ba64f60e01b815260166004820152602401610cdd565b935093915050565b60048151101561308b5760405162461bcd60e51b815260206004820152601a60248201527f43616c6c5574696c733a207461726765742072657665727428290000000000006044820152606401610cdd565b602081015163b1b7848f60e01b6001600160e01b031982160161313b5760408051808201825260208082527f43616c6c5574696c733a207461726765742070616e69636b65643a2030785f5f90820190815260248501517f43616c6c5574696c733a207461726765742070616e69636b65643a2030780000600482811c600f908116603090810160081b918516011791909117909252925162461bcd60e51b8152919291610cdd91849101613fae565b81518060208401fd5b600061316e7f360894a13ba1a3210667c828492db98dca3e2076cc3735a920a3ca505d382bbc5490565b6001600160a01b0316036131c45760405162461bcd60e51b815260206004820152601d60248201527f5555505350726f786961626c653a206e6f742075706772616461626c650000006044820152606401610cdd565b806001600160a01b03166352d1902d6040518163ffffffff1660e01b8152600401602060405180830381865afa158015613202573d6000803e3d6000fd5b505050506040513d601f19601f8201168201806040525081019061322691906146bf565b7fcd355cae2c435f8c5e0c626c4691d22fd85aa7422a424c6f0bced6e64c7aba74146132a05760405162461bcd60e51b815260206004820152602360248201527f5555505350726f786961626c653a206e6f7420636f6d70617469626c65206c6f60448201526267696360e81b6064820152608401610cdd565b6001600160a01b03811630036132f85760405162461bcd60e51b815260206004820152601960248201527f5555505350726f786961626c653a2070726f7879206c6f6f70000000000000006044820152606401610cdd565b613320817f360894a13ba1a3210667c828492db98dca3e2076cc3735a920a3ca505d382bbc55565b7fe011bc04c286c344a8fcbb8de77f953da762c3e25d8cdea984147fc4168a5dcc7fcd355cae2c435f8c5e0c626c4691d22fd85aa7422a424c6f0bced6e64c7aba74604080519182526001600160a01b0384166020830152016113ca565b6040805160208101829052603260608201527f6f72672e7375706572666c7569642d66696e616e63652e7375706572666c756960808201527132173a393ab9ba32b22337b93bb0b93232b960711b60a08201526001600160a01b0383169181019190915260009060c0015b604051602081830303815290604052805190602001209050919050565b60006018361080159061341d575061341d336114a3565b6134615760405162461bcd60e51b81526020600482015260156024820152742737ba103a393ab9ba32b2103337b93bb0b93232b960591b6044820152606401610cdd565b5060131936013560601c90565b60005b81811015613a4657600083838381811061348d5761348d614701565b905060200281019061349f9190614a77565b6134ad906020810190614a8d565b905060001963ffffffff8216016135a1576000808585858181106134d3576134d3614701565b90506020028101906134e59190614a77565b6134f3906040810190614ab3565b8101906135009190614693565b9150915085858581811061351657613516614701565b90506020028101906135289190614a77565b613539906040810190602001613e4e565b6001600160a01b03166362aa52878884846040518463ffffffff1660e01b8152600401613568939291906147c3565b600060405180830381600087803b15801561358257600080fd5b505af1158015613596573d6000803e3d6000fd5b505050505050613a35565b60011963ffffffff8216016136ac5760008060008686868181106135c7576135c7614701565b90506020028101906135d99190614a77565b6135e7906040810190614ab3565b8101906135f49190614af9565b92509250925086868681811061360c5761360c614701565b905060200281019061361e9190614a77565b61362f906040810190602001613e4e565b604051630b682aeb60e11b81526001600160a01b038a81166004830152858116602483015284811660448301526064820184905291909116906316d055d6906084015b600060405180830381600087803b15801561368c57600080fd5b505af11580156136a0573d6000803e3d6000fd5b50505050505050613a35565b60021963ffffffff82160161376b5760008060008686868181106136d2576136d2614701565b90506020028101906136e49190614a77565b6136f2906040810190614ab3565b8101906136ff9190614b3a565b92509250925086868681811061371757613717614701565b90506020028101906137299190614a77565b61373a906040810190602001613e4e565b6001600160a01b031663ca0c1e7f898585856040518563ffffffff1660e01b81526004016136729493929190614b88565b60641963ffffffff8216016138605783838381811061378c5761378c614701565b905060200281019061379e9190614a77565b6137af906040810190602001613e4e565b6001600160a01b031663ca789464868686868181106137d0576137d0614701565b90506020028101906137e29190614a77565b6137f0906040810190614ab3565b8101906137fd919061448a565b6040516001600160e01b031960e085901b1681526001600160a01b0390921660048301526024820152604401600060405180830381600087803b15801561384357600080fd5b505af1158015613857573d6000803e3d6000fd5b50505050613a35565b60651963ffffffff8216016138c55783838381811061388157613881614701565b90506020028101906138939190614a77565b6138a4906040810190602001613e4e565b6001600160a01b031663245887fc868686868181106137d0576137d0614701565b60c81963ffffffff821601613962576000808585858181106138e9576138e9614701565b90506020028101906138fb9190614a77565b613909906040810190614ab3565b8101906139169190614bbb565b9150915061395a8787878781811061393057613930614701565b90506020028101906139429190614a77565b613953906040810190602001613e4e565b8484612c72565b505050613a35565b60c91963ffffffff821601613a1c57613a168585858581811061398757613987614701565b90506020028101906139999190614a77565b6139aa906040810190602001613e4e565b8686868181106139bc576139bc614701565b90506020028101906139ce9190614a77565b6139dc906040810190614ab3565b8080601f016020809104026020016040519081016040528093929190818152602001838380828437600092019190915250612a3792505050565b50613a35565b60405163b477011560e01b815260040160405180910390fd5b50613a3f81614899565b9050613471565b50505050565b323303613a6f5760405163a85ba64f60e01b815260026004820152602401610cdd565b8015613a9b57813b8015613a995760405163a85ba64f60e01b815260016004820152602401610cdd565b505b64ff000080ff198316151580613ab2575060ff8316155b80613ac05750618000831615155b15613ade57604051633d3200a960e21b815260040160405180910390fd5b6001600160a01b03821660009081526004602052604090205415613b15576040516301b0a93560e01b815260040160405180910390fd5b60408051602080820183528582526001600160a01b038516600081815260049092528382209251909255915190917f0d540ad8f39e07d19909687352b9fa017405d93c91a6760981fbae9cf28bfef791a2505050565b6000600482511015613bbf5760405162461bcd60e51b815260206004820152601b60248201527f43616c6c5574696c733a20696e76616c69642063616c6c4461746100000000006044820152606401610cdd565b506020015190565b60008282604051602001613bdc929190614c14565b60405160208183030381529060405280519060200120905092915050565b6040805160208101829052603960608201527f6f72672e7375706572666c7569642d66696e616e63652e7375706572666c756960808201527f642e61707057686974654c697374696e672e666163746f72790000000000000060a08201526001600160a01b0383169181019190915260009060c0016133e9565b815180830151606091908015613c9d576040516367e9985b60e01b815260040160405180910390fd5b50601f1981018452825184908481613cb481613d2b565b613cbe91906146ee565b6001600160401b03811115613cd557613cd5613fc1565b6040519080825280601f01601f191660200182016040528015613cff576020820181803683370190505b50604051602001613d139493929190614c99565b60405160208183030381529060405291505092915050565b60008082601f1611613d3e576000613d41565b60015b60ff16613d4f6020846148ce565b613d5991906148f0565b610df1906020614ce8565b60006001600160801b03821115613dcd5760405162461bcd60e51b815260206004820152602760248201527f53616665436173743a2076616c756520646f65736e27742066697420696e20316044820152663238206269747360c81b6064820152608401610cdd565b5090565b61024a80614d0883390190565b604080516101608101825260008082526020820181905291810182905260608082018390526080820183905260a082015260c0810182905260e081018290526101008101829052610120810182905261014081019190915290565b6001600160a01b038116811461112057600080fd5b600060208284031215613e6057600080fd5b8135613e6b81613e39565b9392505050565b60008083601f840112613e8457600080fd5b5081356001600160401b03811115613e9b57600080fd5b602083019150836020828501011115613eb357600080fd5b9250929050565b801515811461112057600080fd5b60008060008060008060808789031215613ee157600080fd5b8635613eec81613e39565b955060208701356001600160401b0380821115613f0857600080fd5b613f148a838b01613e72565b909750955060408901359150613f2982613eba565b90935060608801359080821115613f3f57600080fd5b50613f4c89828a01613e72565b979a9699509497509295939492505050565b60005b83811015613f79578181015183820152602001613f61565b50506000910152565b60008151808452613f9a816020860160208601613f5e565b601f01601f19169290920160200192915050565b602081526000610dee6020830184613f82565b634e487b7160e01b600052604160045260246000fd5b604051601f8201601f191681016001600160401b0381118282101715613fff57613fff613fc1565b604052919050565b60006001600160401b0382111561402057614020613fc1565b50601f01601f191660200190565b600082601f83011261403f57600080fd5b813561405261404d82614007565b613fd7565b81815284602083860101111561406757600080fd5b816020850160208301376000918101602001919091529392505050565b6000806040838503121561409757600080fd5b82356140a281613e39565b915060208301356001600160401b038111156140bd57600080fd5b6140c98582860161402e565b9150509250929050565b6000806000606084860312156140e857600080fd5b83356140f381613e39565b925060208401356001600160401b038082111561410f57600080fd5b61411b8783880161402e565b9350604086013591508082111561413157600080fd5b5061413e8682870161402e565b9150509250925092565b60006020828403121561415a57600080fd5b81356001600160401b0381111561417057600080fd5b610e058482850161402e565b6020815261419060208201835160ff169052565b600060208301516141a6604084018260ff169052565b506040830151606083015260608301516141cb60808401826001600160a01b03169052565b5060808301516001600160e01b0319811660a08401525060a08301516101608060c08501526141fe610180850183613f82565b915060c085015160e085015260e0850151610100818187015280870151915050610120818187015280870151915050610140614244818701836001600160a01b03169052565b909501516001600160a01b031693019290925250919050565b60008060008060008060006080888a03121561427857600080fd5b873561428381613e39565b965060208801356001600160401b038082111561429f57600080fd5b6142ab8b838c01613e72565b909850965060408a01359150808211156142c457600080fd5b6142d08b838c01613e72565b909650945060608a01359150808211156142e957600080fd5b506142f68a828b01613e72565b989b979a50959850939692959293505050565b60408152600061431c6040830185613f82565b8281036020840152611c9a8185613f82565b60008060006040848603121561434357600080fd5b83356001600160401b0381111561435957600080fd5b61436586828701613e72565b909790965060209590950135949350505050565b6000806020838503121561438c57600080fd5b82356001600160401b03808211156143a357600080fd5b818501915085601f8301126143b757600080fd5b8135818111156143c657600080fd5b8660208260051b85010111156143db57600080fd5b60209290920196919550909350505050565b60008060008060008060a0878903121561440657600080fd5b86356001600160401b0381111561441c57600080fd5b61442889828a01613e72565b909750955050602087013561443c81613e39565b93506040870135925060608701359150608087013561445a81613e39565b809150509295509295509295565b6000806040838503121561447b57600080fd5b50508035926020909101359150565b60006020828403121561449c57600080fd5b5035919050565b600080600080606085870312156144b957600080fd5b84356001600160401b038111156144cf57600080fd5b6144db87828801613e72565b90955093505060208501356144ef81613e39565b9396929550929360400135925050565b60008060008060006060868803121561451757600080fd5b853561452281613e39565b945060208601356001600160401b038082111561453e57600080fd5b61454a89838a01613e72565b9096509450604088013591508082111561456357600080fd5b5061457088828901613e72565b969995985093965092949392505050565b6000806040838503121561459457600080fd5b823561459f81613e39565b915060208301356145af81613e39565b809150509250929050565b6000806000604084860312156145cf57600080fd5b8335925060208401356001600160401b038111156145ec57600080fd5b6145f886828701613e72565b9497909650939450505050565b6000806020838503121561461857600080fd5b82356001600160401b0381111561462e57600080fd5b61463a85828601613e72565b90969095509350505050565b6020808252825182820181905260009190848201906040850190845b818110156146875783516001600160a01b031683529284019291840191600101614662565b50909695505050505050565b600080604083850312156146a657600080fd5b82356146b181613e39565b946020939093013593505050565b6000602082840312156146d157600080fd5b5051919050565b634e487b7160e01b600052601160045260246000fd5b81810381811115610df157610df16146d8565b634e487b7160e01b600052603260045260246000fd5b634e487b7160e01b600052600160045260246000fd5b600082601f83011261473e57600080fd5b815161474c61404d82614007565b81815284602083860101111561476157600080fd5b610e05826020830160208701613f5e565b60006020828403121561478457600080fd5b81516001600160401b0381111561479a57600080fd5b610e058482850161472d565b6000602082840312156147b857600080fd5b8151613e6b81613eba565b6001600160a01b039384168152919092166020820152604081019190915260600190565b8082018281126000831280158216821582161715614807576148076146d8565b505092915050565b600060ff821660ff8103614825576148256146d8565b60010192915050565b60006020828403121561484057600080fd5b8151613e6b81613e39565b6020808252602e908201527f496e697469616c697a61626c653a20636f6e747261637420697320616c72656160408201526d191e481a5b9a5d1a585b1a5e995960921b606082015260800190565b6000600182016148ab576148ab6146d8565b5060010190565b600082516148c4818460208701613f5e565b9190910192915050565b6000826148eb57634e487b7160e01b600052601260045260246000fd5b500490565b80820180821115610df157610df16146d8565b6000806040838503121561491657600080fd5b82516001600160401b038082111561492d57600080fd5b6149398683870161472d565b9350602085015191508082111561494f57600080fd5b506140c98582860161472d565b600080600080600060a0868803121561497457600080fd5b8551945060208601519350604086015161498d81613e39565b60608701519093506001600160e01b0319811681146149ab57600080fd5b60808701519092506001600160401b038111156149c757600080fd5b6149d38882890161472d565b9150509295509295909350565b600080600080608085870312156149f657600080fd5b84519350602085015192506040850151614a0f81613e39565b6060860151909250614a2081613e39565b939692955090935050565b858152602081018590526001600160a01b03841660408201526001600160e01b03198316606082015260a060808201819052600090614a6c90830184613f82565b979650505050505050565b60008235605e198336030181126148c457600080fd5b600060208284031215614a9f57600080fd5b813563ffffffff81168114613e6b57600080fd5b6000808335601e19843603018112614aca57600080fd5b8301803591506001600160401b03821115614ae457600080fd5b602001915036819003821315613eb357600080fd5b600080600060608486031215614b0e57600080fd5b8335614b1981613e39565b92506020840135614b2981613e39565b929592945050506040919091013590565b600080600060608486031215614b4f57600080fd5b8335614b5a81613e39565b92506020840135915060408401356001600160401b03811115614b7c57600080fd5b61413e8682870161402e565b6001600160a01b038581168252841660208201526040810183905260806060820181905260009061160590830184613f82565b60008060408385031215614bce57600080fd5b82356001600160401b0380821115614be557600080fd5b614bf18683870161402e565b93506020850135915080821115614c0757600080fd5b506140c98582860161402e565b60608152604160608201527f6f72672e7375706572666c7569642d66696e616e63652e7375706572666c756960808201527f642e61707057686974654c697374696e672e726567697374726174696f6e4b6560a0820152607960f81b60c082015260018060a01b038316602082015260e060408201526000610e0560e0830184613f82565b600085516020614cac8285838b01613f5e565b81840191508682528551614cc581838501848a01613f5e565b8551920191614cd981838501848901613f5e565b91909101019695505050505050565b6000816000190483118215151615614d0257614d026146d8565b50029056fe608060405234801561001057600080fd5b5061022a806100206000396000f3fe6080604052600436106100225760003560e01c80634a0687ef1461003957610031565b366100315761002f610059565b005b61002f610059565b34801561004557600080fd5b5061002f6100543660046101c4565b61006b565b610069610064610171565b6101a0565b565b6001600160a01b0381166100c65760405162461bcd60e51b815260206004820152601760248201527f5555505350726f78793a207a65726f206164647265737300000000000000000060448201526064015b60405180910390fd5b60006100f07f360894a13ba1a3210667c828492db98dca3e2076cc3735a920a3ca505d382bbc5490565b6001600160a01b0316146101465760405162461bcd60e51b815260206004820152601e60248201527f5555505350726f78793a20616c726561647920696e697469616c697a6564000060448201526064016100bd565b61016e817f360894a13ba1a3210667c828492db98dca3e2076cc3735a920a3ca505d382bbc55565b50565b600061019b7f360894a13ba1a3210667c828492db98dca3e2076cc3735a920a3ca505d382bbc5490565b905090565b3660008037600080366000845af43d6000803e8080156101bf573d6000f35b3d6000fd5b6000602082840312156101d657600080fd5b81356001600160a01b03811681146101ed57600080fd5b939250505056fea26469706673582212209b58aa53d1a30f60f937a8ec6ab95e94f3b48e2e1cae54384ae904ce731e1a4e64736f6c63430008100033a2646970667358221220ba96cd3d86c7abbbf586248b0c848fc225458300936ff1dda3c84ab01e70780364736f6c63430008100033",
  "linkReferences": {},
  "deployedLinkReferences": {}
}