{
  "_format": "hh-sol-artifact-1",
  "contractName": "SuperTokenStorageLayoutTester",
  "sourceName": "contracts/mocks/SuperTokenMock.sol",
  "abi": [
    {
      "inputs": [
        {
          "internalType": "contract ISuperfluid",
          "name": "host",
          "type": "address"
        }
      ],
      "stateMutability": "nonpayable",
      "type": "constructor"
    },
    {
      "inputs": [],
      "name": "SF_TOKEN_AGREEMENT_ALREADY_EXISTS",
      "type": "error"
    },
    {
      "inputs": [],
      "name": "SF_TOKEN_AGREEMENT_DOES_NOT_EXIST",
      "type": "error"
    },
    {
      "inputs": [],
      "name": "SF_TOKEN_BURN_INSUFFICIENT_BALANCE",
      "type": "error"
    },
    {
      "inputs": [],
      "name": "SF_TOKEN_MOVE_INSUFFICIENT_BALANCE",
      "type": "error"
    },
    {
      "inputs": [],
      "name": "SF_TOKEN_ONLY_HOST",
      "type": "error"
    },
    {
      "inputs": [],
      "name": "SF_TOKEN_ONLY_LISTED_AGREEMENT",
      "type": "error"
    },
    {
      "inputs": [],
      "name": "SUPER_TOKEN_APPROVE_FROM_ZERO_ADDRESS",
      "type": "error"
    },
    {
      "inputs": [],
      "name": "SUPER_TOKEN_APPROVE_TO_ZERO_ADDRESS",
      "type": "error"
    },
    {
      "inputs": [],
      "name": "SUPER_TOKEN_BURN_FROM_ZERO_ADDRESS",
      "type": "error"
    },
    {
      "inputs": [],
      "name": "SUPER_TOKEN_CALLER_IS_NOT_OPERATOR_FOR_HOLDER",
      "type": "error"
    },
    {
      "inputs": [],
      "name": "SUPER_TOKEN_INFLATIONARY_DEFLATIONARY_NOT_SUPPORTED",
      "type": "error"
    },
    {
      "inputs": [],
      "name": "SUPER_TOKEN_MINT_TO_ZERO_ADDRESS",
      "type": "error"
    },
    {
      "inputs": [],
      "name": "SUPER_TOKEN_NOT_ERC777_TOKENS_RECIPIENT",
      "type": "error"
    },
    {
      "inputs": [],
      "name": "SUPER_TOKEN_NO_UNDERLYING_TOKEN",
      "type": "error"
    },
    {
      "inputs": [],
      "name": "SUPER_TOKEN_ONLY_HOST",
      "type": "error"
    },
    {
      "inputs": [],
      "name": "SUPER_TOKEN_ONLY_SELF",
      "type": "error"
    },
    {
      "inputs": [],
      "name": "SUPER_TOKEN_TRANSFER_FROM_ZERO_ADDRESS",
      "type": "error"
    },
    {
      "inputs": [],
      "name": "SUPER_TOKEN_TRANSFER_TO_ZERO_ADDRESS",
      "type": "error"
    },
    {
      "anonymous": false,
      "inputs": [
        {
          "indexed": true,
          "internalType": "address",
          "name": "agreementClass",
          "type": "address"
        },
        {
          "indexed": false,
          "internalType": "bytes32",
          "name": "id",
          "type": "bytes32"
        },
        {
          "indexed": false,
          "internalType": "bytes32[]",
          "name": "data",
          "type": "bytes32[]"
        }
      ],
      "name": "AgreementCreated",
      "type": "event"
    },
    {
      "anonymous": false,
      "inputs": [
        {
          "indexed": true,
          "internalType": "address",
          "name": "agreementClass",
          "type": "address"
        },
        {
          "indexed": false,
          "internalType": "bytes32",
          "name": "id",
          "type": "bytes32"
        },
        {
          "indexed": true,
          "internalType": "address",
          "name": "penaltyAccount",
          "type": "address"
        },
        {
          "indexed": true,
          "internalType": "address",
          "name": "rewardAccount",
          "type": "address"
        },
        {
          "indexed": false,
          "internalType": "uint256",
          "name": "rewardAmount",
          "type": "uint256"
        }
      ],
      "name": "AgreementLiquidated",
      "type": "event"
    },
    {
      "anonymous": false,
      "inputs": [
        {
          "indexed": false,
          "internalType": "address",
          "name": "liquidatorAccount",
          "type": "address"
        },
        {
          "indexed": true,
          "internalType": "address",
          "name": "agreementClass",
          "type": "address"
        },
        {
          "indexed": false,
          "internalType": "bytes32",
          "name": "id",
          "type": "bytes32"
        },
        {
          "indexed": true,
          "internalType": "address",
          "name": "penaltyAccount",
          "type": "address"
        },
        {
          "indexed": true,
          "internalType": "address",
          "name": "bondAccount",
          "type": "address"
        },
        {
          "indexed": false,
          "internalType": "uint256",
          "name": "rewardAmount",
          "type": "uint256"
        },
        {
          "indexed": false,
          "internalType": "uint256",
          "name": "bailoutAmount",
          "type": "uint256"
        }
      ],
      "name": "AgreementLiquidatedBy",
      "type": "event"
    },
    {
      "anonymous": false,
      "inputs": [
        {
          "indexed": true,
          "internalType": "address",
          "name": "agreementClass",
          "type": "address"
        },
        {
          "indexed": false,
          "internalType": "bytes32",
          "name": "id",
          "type": "bytes32"
        },
        {
          "indexed": true,
          "internalType": "address",
          "name": "liquidatorAccount",
          "type": "address"
        },
        {
          "indexed": true,
          "internalType": "address",
          "name": "targetAccount",
          "type": "address"
        },
        {
          "indexed": false,
          "internalType": "address",
          "name": "rewardAmountReceiver",
          "type": "address"
        },
        {
          "indexed": false,
          "internalType": "uint256",
          "name": "rewardAmount",
          "type": "uint256"
        },
        {
          "indexed": false,
          "internalType": "int256",
          "name": "targetAccountBalanceDelta",
          "type": "int256"
        },
        {
          "indexed": false,
          "internalType": "bytes",
          "name": "liquidationTypeData",
          "type": "bytes"
        }
      ],
      "name": "AgreementLiquidatedV2",
      "type": "event"
    },
    {
      "anonymous": false,
      "inputs": [
        {
          "indexed": true,
          "internalType": "address",
          "name": "agreementClass",
          "type": "address"
        },
        {
          "indexed": true,
          "internalType": "address",
          "name": "account",
          "type": "address"
        },
        {
          "indexed": false,
          "internalType": "uint256",
          "name": "slotId",
          "type": "uint256"
        }
      ],
      "name": "AgreementStateUpdated",
      "type": "event"
    },
    {
      "anonymous": false,
      "inputs": [
        {
          "indexed": true,
          "internalType": "address",
          "name": "agreementClass",
          "type": "address"
        },
        {
          "indexed": false,
          "internalType": "bytes32",
          "name": "id",
          "type": "bytes32"
        }
      ],
      "name": "AgreementTerminated",
      "type": "event"
    },
    {
      "anonymous": false,
      "inputs": [
        {
          "indexed": true,
          "internalType": "address",
          "name": "agreementClass",
          "type": "address"
        },
        {
          "indexed": false,
          "internalType": "bytes32",
          "name": "id",
          "type": "bytes32"
        },
        {
          "indexed": false,
          "internalType": "bytes32[]",
          "name": "data",
          "type": "bytes32[]"
        }
      ],
      "name": "AgreementUpdated",
      "type": "event"
    },
    {
      "anonymous": false,
      "inputs": [
        {
          "indexed": true,
          "internalType": "address",
          "name": "owner",
          "type": "address"
        },
        {
          "indexed": true,
          "internalType": "address",
          "name": "spender",
          "type": "address"
        },
        {
          "indexed": false,
          "internalType": "uint256",
          "name": "value",
          "type": "uint256"
        }
      ],
      "name": "Approval",
      "type": "event"
    },
    {
      "anonymous": false,
      "inputs": [
        {
          "indexed": true,
          "internalType": "address",
          "name": "operator",
          "type": "address"
        },
        {
          "indexed": true,
          "internalType": "address",
          "name": "tokenHolder",
          "type": "address"
        }
      ],
      "name": "AuthorizedOperator",
      "type": "event"
    },
    {
      "anonymous": false,
      "inputs": [
        {
          "indexed": true,
          "internalType": "address",
          "name": "bailoutAccount",
          "type": "address"
        },
        {
          "indexed": false,
          "internalType": "uint256",
          "name": "bailoutAmount",
          "type": "uint256"
        }
      ],
      "name": "Bailout",
      "type": "event"
    },
    {
      "anonymous": false,
      "inputs": [
        {
          "indexed": true,
          "internalType": "address",
          "name": "operator",
          "type": "address"
        },
        {
          "indexed": true,
          "internalType": "address",
          "name": "from",
          "type": "address"
        },
        {
          "indexed": false,
          "internalType": "uint256",
          "name": "amount",
          "type": "uint256"
        },
        {
          "indexed": false,
          "internalType": "bytes",
          "name": "data",
          "type": "bytes"
        },
        {
          "indexed": false,
          "internalType": "bytes",
          "name": "operatorData",
          "type": "bytes"
        }
      ],
      "name": "Burned",
      "type": "event"
    },
    {
      "anonymous": false,
      "inputs": [
        {
          "indexed": false,
          "internalType": "bytes32",
          "name": "uuid",
          "type": "bytes32"
        },
        {
          "indexed": false,
          "internalType": "address",
          "name": "codeAddress",
          "type": "address"
        }
      ],
      "name": "CodeUpdated",
      "type": "event"
    },
    {
      "anonymous": false,
      "inputs": [
        {
          "indexed": false,
          "internalType": "uint8",
          "name": "version",
          "type": "uint8"
        }
      ],
      "name": "Initialized",
      "type": "event"
    },
    {
      "anonymous": false,
      "inputs": [
        {
          "indexed": true,
          "internalType": "address",
          "name": "operator",
          "type": "address"
        },
        {
          "indexed": true,
          "internalType": "address",
          "name": "to",
          "type": "address"
        },
        {
          "indexed": false,
          "internalType": "uint256",
          "name": "amount",
          "type": "uint256"
        },
        {
          "indexed": false,
          "internalType": "bytes",
          "name": "data",
          "type": "bytes"
        },
        {
          "indexed": false,
          "internalType": "bytes",
          "name": "operatorData",
          "type": "bytes"
        }
      ],
      "name": "Minted",
      "type": "event"
    },
    {
      "anonymous": false,
      "inputs": [
        {
          "indexed": true,
          "internalType": "address",
          "name": "operator",
          "type": "address"
        },
        {
          "indexed": true,
          "internalType": "address",
          "name": "tokenHolder",
          "type": "address"
        }
      ],
      "name": "RevokedOperator",
      "type": "event"
    },
    {
      "anonymous": false,
      "inputs": [
        {
          "indexed": true,
          "internalType": "address",
          "name": "operator",
          "type": "address"
        },
        {
          "indexed": true,
          "internalType": "address",
          "name": "from",
          "type": "address"
        },
        {
          "indexed": true,
          "internalType": "address",
          "name": "to",
          "type": "address"
        },
        {
          "indexed": false,
          "internalType": "uint256",
          "name": "amount",
          "type": "uint256"
        },
        {
          "indexed": false,
          "internalType": "bytes",
          "name": "data",
          "type": "bytes"
        },
        {
          "indexed": false,
          "internalType": "bytes",
          "name": "operatorData",
          "type": "bytes"
        }
      ],
      "name": "Sent",
      "type": "event"
    },
    {
      "anonymous": false,
      "inputs": [
        {
          "indexed": true,
          "internalType": "address",
          "name": "account",
          "type": "address"
        },
        {
          "indexed": false,
          "internalType": "uint256",
          "name": "amount",
          "type": "uint256"
        }
      ],
      "name": "TokenDowngraded",
      "type": "event"
    },
    {
      "anonymous": false,
      "inputs": [
        {
          "indexed": true,
          "internalType": "address",
          "name": "account",
          "type": "address"
        },
        {
          "indexed": false,
          "internalType": "uint256",
          "name": "amount",
          "type": "uint256"
        }
      ],
      "name": "TokenUpgraded",
      "type": "event"
    },
    {
      "anonymous": false,
      "inputs": [
        {
          "indexed": true,
          "internalType": "address",
          "name": "from",
          "type": "address"
        },
        {
          "indexed": true,
          "internalType": "address",
          "name": "to",
          "type": "address"
        },
        {
          "indexed": false,
          "internalType": "uint256",
          "name": "value",
          "type": "uint256"
        }
      ],
      "name": "Transfer",
      "type": "event"
    },
    {
      "inputs": [
        {
          "internalType": "address",
          "name": "account",
          "type": "address"
        },
        {
          "internalType": "address",
          "name": "spender",
          "type": "address"
        }
      ],
      "name": "allowance",
      "outputs": [
        {
          "internalType": "uint256",
          "name": "",
          "type": "uint256"
        }
      ],
      "stateMutability": "view",
      "type": "function"
    },
    {
      "inputs": [
        {
          "internalType": "address",
          "name": "spender",
          "type": "address"
        },
        {
          "internalType": "uint256",
          "name": "amount",
          "type": "uint256"
        }
      ],
      "name": "approve",
      "outputs": [
        {
          "internalType": "bool",
          "name": "",
          "type": "bool"
        }
      ],
      "stateMutability": "nonpayable",
      "type": "function"
    },
    {
      "inputs": [
        {
          "internalType": "address",
          "name": "operator",
          "type": "address"
        }
      ],
      "name": "authorizeOperator",
      "outputs": [],
      "stateMutability": "nonpayable",
      "type": "function"
    },
    {
      "inputs": [
        {
          "internalType": "address",
          "name": "account",
          "type": "address"
        }
      ],
      "name": "balanceOf",
      "outputs": [
        {
          "internalType": "uint256",
          "name": "balance",
          "type": "uint256"
        }
      ],
      "stateMutability": "view",
      "type": "function"
    },
    {
      "inputs": [
        {
          "internalType": "uint256",
          "name": "amount",
          "type": "uint256"
        },
        {
          "internalType": "bytes",
          "name": "data",
          "type": "bytes"
        }
      ],
      "name": "burn",
      "outputs": [],
      "stateMutability": "nonpayable",
      "type": "function"
    },
    {
      "inputs": [],
      "name": "castrate",
      "outputs": [],
      "stateMutability": "nonpayable",
      "type": "function"
    },
    {
      "inputs": [
        {
          "internalType": "bytes32",
          "name": "id",
          "type": "bytes32"
        },
        {
          "internalType": "bytes32[]",
          "name": "data",
          "type": "bytes32[]"
        }
      ],
      "name": "createAgreement",
      "outputs": [],
      "stateMutability": "nonpayable",
      "type": "function"
    },
    {
      "inputs": [],
      "name": "decimals",
      "outputs": [
        {
          "internalType": "uint8",
          "name": "",
          "type": "uint8"
        }
      ],
      "stateMutability": "pure",
      "type": "function"
    },
    {
      "inputs": [
        {
          "internalType": "address",
          "name": "spender",
          "type": "address"
        },
        {
          "internalType": "uint256",
          "name": "subtractedValue",
          "type": "uint256"
        }
      ],
      "name": "decreaseAllowance",
      "outputs": [
        {
          "internalType": "bool",
          "name": "",
          "type": "bool"
        }
      ],
      "stateMutability": "nonpayable",
      "type": "function"
    },
    {
      "inputs": [],
      "name": "defaultOperators",
      "outputs": [
        {
          "internalType": "address[]",
          "name": "",
          "type": "address[]"
        }
      ],
      "stateMutability": "view",
      "type": "function"
    },
    {
      "inputs": [
        {
          "internalType": "uint256",
          "name": "amount",
          "type": "uint256"
        }
      ],
      "name": "downgrade",
      "outputs": [],
      "stateMutability": "nonpayable",
      "type": "function"
    },
    {
      "inputs": [
        {
          "internalType": "address",
          "name": "to",
          "type": "address"
        },
        {
          "internalType": "uint256",
          "name": "amount",
          "type": "uint256"
        }
      ],
      "name": "downgradeTo",
      "outputs": [],
      "stateMutability": "nonpayable",
      "type": "function"
    },
    {
      "inputs": [
        {
          "internalType": "address",
          "name": "account",
          "type": "address"
        }
      ],
      "name": "getAccountActiveAgreements",
      "outputs": [
        {
          "internalType": "contract ISuperAgreement[]",
          "name": "",
          "type": "address[]"
        }
      ],
      "stateMutability": "view",
      "type": "function"
    },
    {
      "inputs": [
        {
          "internalType": "address",
          "name": "agreementClass",
          "type": "address"
        },
        {
          "internalType": "bytes32",
          "name": "id",
          "type": "bytes32"
        },
        {
          "internalType": "uint256",
          "name": "dataLength",
          "type": "uint256"
        }
      ],
      "name": "getAgreementData",
      "outputs": [
        {
          "internalType": "bytes32[]",
          "name": "data",
          "type": "bytes32[]"
        }
      ],
      "stateMutability": "view",
      "type": "function"
    },
    {
      "inputs": [
        {
          "internalType": "address",
          "name": "agreementClass",
          "type": "address"
        },
        {
          "internalType": "address",
          "name": "account",
          "type": "address"
        },
        {
          "internalType": "uint256",
          "name": "slotId",
          "type": "uint256"
        },
        {
          "internalType": "uint256",
          "name": "dataLength",
          "type": "uint256"
        }
      ],
      "name": "getAgreementStateSlot",
      "outputs": [
        {
          "internalType": "bytes32[]",
          "name": "slotData",
          "type": "bytes32[]"
        }
      ],
      "stateMutability": "view",
      "type": "function"
    },
    {
      "inputs": [],
      "name": "getCodeAddress",
      "outputs": [
        {
          "internalType": "address",
          "name": "codeAddress",
          "type": "address"
        }
      ],
      "stateMutability": "view",
      "type": "function"
    },
    {
      "inputs": [],
      "name": "getHost",
      "outputs": [
        {
          "internalType": "address",
          "name": "host",
          "type": "address"
        }
      ],
      "stateMutability": "view",
      "type": "function"
    },
    {
      "inputs": [],
      "name": "getLastSuperTokenStorageSlot",
      "outputs": [
        {
          "internalType": "uint256",
          "name": "slot",
          "type": "uint256"
        }
      ],
      "stateMutability": "pure",
      "type": "function"
    },
    {
      "inputs": [],
      "name": "getUnderlyingToken",
      "outputs": [
        {
          "internalType": "address",
          "name": "",
          "type": "address"
        }
      ],
      "stateMutability": "view",
      "type": "function"
    },
    {
      "inputs": [],
      "name": "granularity",
      "outputs": [
        {
          "internalType": "uint256",
          "name": "",
          "type": "uint256"
        }
      ],
      "stateMutability": "pure",
      "type": "function"
    },
    {
      "inputs": [
        {
          "internalType": "address",
          "name": "spender",
          "type": "address"
        },
        {
          "internalType": "uint256",
          "name": "addedValue",
          "type": "uint256"
        }
      ],
      "name": "increaseAllowance",
      "outputs": [
        {
          "internalType": "bool",
          "name": "",
          "type": "bool"
        }
      ],
      "stateMutability": "nonpayable",
      "type": "function"
    },
    {
      "inputs": [
        {
          "internalType": "contract IERC20",
          "name": "underlyingToken",
          "type": "address"
        },
        {
          "internalType": "uint8",
          "name": "underlyingDecimals",
          "type": "uint8"
        },
        {
          "internalType": "string",
          "name": "n",
          "type": "string"
        },
        {
          "internalType": "string",
          "name": "s",
          "type": "string"
        }
      ],
      "name": "initialize",
      "outputs": [],
      "stateMutability": "nonpayable",
      "type": "function"
    },
    {
      "inputs": [
        {
          "internalType": "address",
          "name": "account",
          "type": "address"
        },
        {
          "internalType": "uint256",
          "name": "timestamp",
          "type": "uint256"
        }
      ],
      "name": "isAccountCritical",
      "outputs": [
        {
          "internalType": "bool",
          "name": "isCritical",
          "type": "bool"
        }
      ],
      "stateMutability": "view",
      "type": "function"
    },
    {
      "inputs": [
        {
          "internalType": "address",
          "name": "account",
          "type": "address"
        }
      ],
      "name": "isAccountCriticalNow",
      "outputs": [
        {
          "internalType": "bool",
          "name": "isCritical",
          "type": "bool"
        }
      ],
      "stateMutability": "view",
      "type": "function"
    },
    {
      "inputs": [
        {
          "internalType": "address",
          "name": "account",
          "type": "address"
        },
        {
          "internalType": "uint256",
          "name": "timestamp",
          "type": "uint256"
        }
      ],
      "name": "isAccountSolvent",
      "outputs": [
        {
          "internalType": "bool",
          "name": "isSolvent",
          "type": "bool"
        }
      ],
      "stateMutability": "view",
      "type": "function"
    },
    {
      "inputs": [
        {
          "internalType": "address",
          "name": "account",
          "type": "address"
        }
      ],
      "name": "isAccountSolventNow",
      "outputs": [
        {
          "internalType": "bool",
          "name": "isSolvent",
          "type": "bool"
        }
      ],
      "stateMutability": "view",
      "type": "function"
    },
    {
      "inputs": [
        {
          "internalType": "address",
          "name": "operator",
          "type": "address"
        },
        {
          "internalType": "address",
          "name": "tokenHolder",
          "type": "address"
        }
      ],
      "name": "isOperatorFor",
      "outputs": [
        {
          "internalType": "bool",
          "name": "",
          "type": "bool"
        }
      ],
      "stateMutability": "view",
      "type": "function"
    },
    {
      "inputs": [
        {
          "internalType": "bytes32",
          "name": "id",
          "type": "bytes32"
        },
        {
          "internalType": "bytes",
          "name": "liquidationTypeData",
          "type": "bytes"
        },
        {
          "internalType": "address",
          "name": "liquidatorAccount",
          "type": "address"
        },
        {
          "internalType": "bool",
          "name": "useDefaultRewardAccount",
          "type": "bool"
        },
        {
          "internalType": "address",
          "name": "targetAccount",
          "type": "address"
        },
        {
          "internalType": "uint256",
          "name": "rewardAmount",
          "type": "uint256"
        },
        {
          "internalType": "int256",
          "name": "targetAccountBalanceDelta",
          "type": "int256"
        }
      ],
      "name": "makeLiquidationPayoutsV2",
      "outputs": [],
      "stateMutability": "nonpayable",
      "type": "function"
    },
    {
      "inputs": [],
      "name": "name",
      "outputs": [
        {
          "internalType": "string",
          "name": "",
          "type": "string"
        }
      ],
      "stateMutability": "view",
      "type": "function"
    },
    {
      "inputs": [
        {
          "internalType": "address",
          "name": "account",
          "type": "address"
        },
        {
          "internalType": "address",
          "name": "spender",
          "type": "address"
        },
        {
          "internalType": "uint256",
          "name": "amount",
          "type": "uint256"
        }
      ],
      "name": "operationApprove",
      "outputs": [],
      "stateMutability": "nonpayable",
      "type": "function"
    },
    {
      "inputs": [
        {
          "internalType": "address",
          "name": "account",
          "type": "address"
        },
        {
          "internalType": "uint256",
          "name": "amount",
          "type": "uint256"
        }
      ],
      "name": "operationDowngrade",
      "outputs": [],
      "stateMutability": "nonpayable",
      "type": "function"
    },
    {
      "inputs": [
        {
          "internalType": "address",
          "name": "spender",
          "type": "address"
        },
        {
          "internalType": "address",
          "name": "recipient",
          "type": "address"
        },
        {
          "internalType": "uint256",
          "name": "amount",
          "type": "uint256"
        },
        {
          "internalType": "bytes",
          "name": "userData",
          "type": "bytes"
        }
      ],
      "name": "operationSend",
      "outputs": [],
      "stateMutability": "nonpayable",
      "type": "function"
    },
    {
      "inputs": [
        {
          "internalType": "address",
          "name": "account",
          "type": "address"
        },
        {
          "internalType": "address",
          "name": "spender",
          "type": "address"
        },
        {
          "internalType": "address",
          "name": "recipient",
          "type": "address"
        },
        {
          "internalType": "uint256",
          "name": "amount",
          "type": "uint256"
        }
      ],
      "name": "operationTransferFrom",
      "outputs": [],
      "stateMutability": "nonpayable",
      "type": "function"
    },
    {
      "inputs": [
        {
          "internalType": "address",
          "name": "account",
          "type": "address"
        },
        {
          "internalType": "uint256",
          "name": "amount",
          "type": "uint256"
        }
      ],
      "name": "operationUpgrade",
      "outputs": [],
      "stateMutability": "nonpayable",
      "type": "function"
    },
    {
      "inputs": [
        {
          "internalType": "address",
          "name": "account",
          "type": "address"
        },
        {
          "internalType": "uint256",
          "name": "amount",
          "type": "uint256"
        },
        {
          "internalType": "bytes",
          "name": "data",
          "type": "bytes"
        },
        {
          "internalType": "bytes",
          "name": "operatorData",
          "type": "bytes"
        }
      ],
      "name": "operatorBurn",
      "outputs": [],
      "stateMutability": "nonpayable",
      "type": "function"
    },
    {
      "inputs": [
        {
          "internalType": "address",
          "name": "sender",
          "type": "address"
        },
        {
          "internalType": "address",
          "name": "recipient",
          "type": "address"
        },
        {
          "internalType": "uint256",
          "name": "amount",
          "type": "uint256"
        },
        {
          "internalType": "bytes",
          "name": "data",
          "type": "bytes"
        },
        {
          "internalType": "bytes",
          "name": "operatorData",
          "type": "bytes"
        }
      ],
      "name": "operatorSend",
      "outputs": [],
      "stateMutability": "nonpayable",
      "type": "function"
    },
    {
      "inputs": [],
      "name": "proxiableUUID",
      "outputs": [
        {
          "internalType": "bytes32",
          "name": "",
          "type": "bytes32"
        }
      ],
      "stateMutability": "pure",
      "type": "function"
    },
    {
      "inputs": [
        {
          "internalType": "address",
          "name": "account",
          "type": "address"
        },
        {
          "internalType": "uint256",
          "name": "timestamp",
          "type": "uint256"
        }
      ],
      "name": "realtimeBalanceOf",
      "outputs": [
        {
          "internalType": "int256",
          "name": "availableBalance",
          "type": "int256"
        },
        {
          "internalType": "uint256",
          "name": "deposit",
          "type": "uint256"
        },
        {
          "internalType": "uint256",
          "name": "owedDeposit",
          "type": "uint256"
        }
      ],
      "stateMutability": "view",
      "type": "function"
    },
    {
      "inputs": [
        {
          "internalType": "address",
          "name": "account",
          "type": "address"
        }
      ],
      "name": "realtimeBalanceOfNow",
      "outputs": [
        {
          "internalType": "int256",
          "name": "availableBalance",
          "type": "int256"
        },
        {
          "internalType": "uint256",
          "name": "deposit",
          "type": "uint256"
        },
        {
          "internalType": "uint256",
          "name": "owedDeposit",
          "type": "uint256"
        },
        {
          "internalType": "uint256",
          "name": "timestamp",
          "type": "uint256"
        }
      ],
      "stateMutability": "view",
      "type": "function"
    },
    {
      "inputs": [
        {
          "internalType": "address",
          "name": "operator",
          "type": "address"
        }
      ],
      "name": "revokeOperator",
      "outputs": [],
      "stateMutability": "nonpayable",
      "type": "function"
    },
    {
      "inputs": [
        {
          "internalType": "address",
          "name": "account",
          "type": "address"
        },
        {
          "internalType": "address",
          "name": "spender",
          "type": "address"
        },
        {
          "internalType": "uint256",
          "name": "amount",
          "type": "uint256"
        }
      ],
      "name": "selfApproveFor",
      "outputs": [],
      "stateMutability": "nonpayable",
      "type": "function"
    },
    {
      "inputs": [
        {
          "internalType": "address",
          "name": "account",
          "type": "address"
        },
        {
          "internalType": "uint256",
          "name": "amount",
          "type": "uint256"
        },
        {
          "internalType": "bytes",
          "name": "userData",
          "type": "bytes"
        }
      ],
      "name": "selfBurn",
      "outputs": [],
      "stateMutability": "nonpayable",
      "type": "function"
    },
    {
      "inputs": [
        {
          "internalType": "address",
          "name": "account",
          "type": "address"
        },
        {
          "internalType": "uint256",
          "name": "amount",
          "type": "uint256"
        },
        {
          "internalType": "bytes",
          "name": "userData",
          "type": "bytes"
        }
      ],
      "name": "selfMint",
      "outputs": [],
      "stateMutability": "nonpayable",
      "type": "function"
    },
    {
      "inputs": [
        {
          "internalType": "address",
          "name": "holder",
          "type": "address"
        },
        {
          "internalType": "address",
          "name": "spender",
          "type": "address"
        },
        {
          "internalType": "address",
          "name": "recipient",
          "type": "address"
        },
        {
          "internalType": "uint256",
          "name": "amount",
          "type": "uint256"
        }
      ],
      "name": "selfTransferFrom",
      "outputs": [],
      "stateMutability": "nonpayable",
      "type": "function"
    },
    {
      "inputs": [
        {
          "internalType": "address",
          "name": "recipient",
          "type": "address"
        },
        {
          "internalType": "uint256",
          "name": "amount",
          "type": "uint256"
        },
        {
          "internalType": "bytes",
          "name": "data",
          "type": "bytes"
        }
      ],
      "name": "send",
      "outputs": [],
      "stateMutability": "nonpayable",
      "type": "function"
    },
    {
      "inputs": [
        {
          "internalType": "address",
          "name": "account",
          "type": "address"
        },
        {
          "internalType": "int256",
          "name": "delta",
          "type": "int256"
        }
      ],
      "name": "settleBalance",
      "outputs": [],
      "stateMutability": "nonpayable",
      "type": "function"
    },
    {
      "inputs": [],
      "name": "symbol",
      "outputs": [
        {
          "internalType": "string",
          "name": "",
          "type": "string"
        }
      ],
      "stateMutability": "view",
      "type": "function"
    },
    {
      "inputs": [
        {
          "internalType": "bytes32",
          "name": "id",
          "type": "bytes32"
        },
        {
          "internalType": "uint256",
          "name": "dataLength",
          "type": "uint256"
        }
      ],
      "name": "terminateAgreement",
      "outputs": [],
      "stateMutability": "nonpayable",
      "type": "function"
    },
    {
      "inputs": [],
      "name": "totalSupply",
      "outputs": [
        {
          "internalType": "uint256",
          "name": "",
          "type": "uint256"
        }
      ],
      "stateMutability": "view",
      "type": "function"
    },
    {
      "inputs": [
        {
          "internalType": "address",
          "name": "recipient",
          "type": "address"
        },
        {
          "internalType": "uint256",
          "name": "amount",
          "type": "uint256"
        }
      ],
      "name": "transfer",
      "outputs": [
        {
          "internalType": "bool",
          "name": "",
          "type": "bool"
        }
      ],
      "stateMutability": "nonpayable",
      "type": "function"
    },
    {
      "inputs": [
        {
          "internalType": "address",
          "name": "recipient",
          "type": "address"
        }
      ],
      "name": "transferAll",
      "outputs": [],
      "stateMutability": "nonpayable",
      "type": "function"
    },
    {
      "inputs": [
        {
          "internalType": "address",
          "name": "holder",
          "type": "address"
        },
        {
          "internalType": "address",
          "name": "recipient",
          "type": "address"
        },
        {
          "internalType": "uint256",
          "name": "amount",
          "type": "uint256"
        }
      ],
      "name": "transferFrom",
      "outputs": [
        {
          "internalType": "bool",
          "name": "",
          "type": "bool"
        }
      ],
      "stateMutability": "nonpayable",
      "type": "function"
    },
    {
      "inputs": [
        {
          "internalType": "bytes32",
          "name": "id",
          "type": "bytes32"
        },
        {
          "internalType": "bytes32[]",
          "name": "data",
          "type": "bytes32[]"
        }
      ],
      "name": "updateAgreementData",
      "outputs": [],
      "stateMutability": "nonpayable",
      "type": "function"
    },
    {
      "inputs": [
        {
          "internalType": "address",
          "name": "account",
          "type": "address"
        },
        {
          "internalType": "uint256",
          "name": "slotId",
          "type": "uint256"
        },
        {
          "internalType": "bytes32[]",
          "name": "slotData",
          "type": "bytes32[]"
        }
      ],
      "name": "updateAgreementStateSlot",
      "outputs": [],
      "stateMutability": "nonpayable",
      "type": "function"
    },
    {
      "inputs": [
        {
          "internalType": "address",
          "name": "newAddress",
          "type": "address"
        }
      ],
      "name": "updateCode",
      "outputs": [],
      "stateMutability": "nonpayable",
      "type": "function"
    },
    {
      "inputs": [
        {
          "internalType": "uint256",
          "name": "amount",
          "type": "uint256"
        }
      ],
      "name": "upgrade",
      "outputs": [],
      "stateMutability": "nonpayable",
      "type": "function"
    },
    {
      "inputs": [
        {
          "internalType": "address",
          "name": "to",
          "type": "address"
        },
        {
          "internalType": "uint256",
          "name": "amount",
          "type": "uint256"
        },
        {
          "internalType": "bytes",
          "name": "data",
          "type": "bytes"
        }
      ],
      "name": "upgradeTo",
      "outputs": [],
      "stateMutability": "nonpayable",
      "type": "function"
    },
    {
      "inputs": [],
      "name": "validateStorageLayout",
      "outputs": [],
      "stateMutability": "pure",
      "type": "function"
    }
  ],
  "bytecode": "0x60a06040523480156200001157600080fd5b50604051620047e3380380620047e3833981016040819052620000349162000046565b6001600160a01b031660805262000078565b6000602082840312156200005957600080fd5b81516001600160a01b03811681146200007157600080fd5b9392505050565b6080516146df620001046000396000818161045e01528181610ad701528181610b4601528181610de901528181610f0401528181610fd30152818161122501528181611334015281816114cc015281816118a201528181611965015281816119cd01528181611a5501528181612240015281816122d70152818161332b015261356701526146df6000f3fe608060405234801561001057600080fd5b506004361061038e5760003560e01c80636c2d9f2f116101de578063b84cdd4a1161010f578063d9d078d6116100ad578063f99a38c41161007c578063f99a38c4146103d9578063fad8b32a1461081c578063fc673c4f1461082f578063fe9d93031461084257600080fd5b8063d9d078d614610791578063dd62ed3e146107a4578063eb3537cc146107dd578063ee719bc81461080b57600080fd5b8063ca0c1e7f116100e9578063ca0c1e7f14610745578063ca78946414610758578063cf97256d1461076b578063d95b63711461077e57600080fd5b8063b84cdd4a1461070c578063bb0d196e1461071f578063c68d42831461073257600080fd5b80639903ad381161017c578063a1b2bf8b11610156578063a1b2bf8b146106c0578063a3a7e7f3146106d3578063a457c2d7146106e6578063a9059cbb146106f957600080fd5b80639903ad38146106925780639bd9bbc61461069a5780639d876741146106ad57600080fd5b806379359f6f116101b857806379359f6f1461065157806383ba252514610664578063959b8c3f1461067757806395d89b411461068a57600080fd5b80636c2d9f2f146106245780636fed61fc1461063757806370a082311461063e57600080fd5b8063313ce567116102c35780634b61cc33116102615780635b9d09cc116102305780635b9d09cc146105d857806362aa5287146105eb57806362ad1b83146105fe57806366a12fb61461061157600080fd5b80634b61cc331461058357806350d75d25146105a357806352d1902d146105ab578063556f0dc7146105d157600080fd5b806341b706be1161029d57806341b706be1461053757806342fe09801461054a57806345977d031461055d578063469519541461057057600080fd5b8063313ce56714610502578063386fa22114610511578063395093511461052457600080fd5b806318160ddd1161033057806323b872dd1161030a57806323b872dd14610496578063245887fc146104a957806327048397146104bc5780632ec8eec7146104cf57600080fd5b806318160ddd146104375780631863e8091461044957806320bc44251461045c57600080fd5b8063095ea7b31161036c578063095ea7b3146103db57806311bcc81e146103fe57806312a6a3f81461041157806316d055d61461042457600080fd5b806306e485381461039357806306fdde03146103b1578063090c415e146103c6575b600080fd5b61039b610855565b6040516103a89190613781565b60405180910390f35b6103b9610866565b6040516103a8919061381e565b6103d96103d4366004613891565b6108f8565b005b6103ee6103e93660046138ec565b6109ac565b60405190151581526020016103a8565b6103d961040c366004613918565b6109c3565b6103d961041f366004613931565b6109f2565b6103d961043236600461397c565b610ad5565b6003545b6040519081526020016103a8565b6103d9610457366004613a90565b610b31565b7f00000000000000000000000000000000000000000000000000000000000000005b6040516001600160a01b0390911681526020016103a8565b6103ee6104a4366004613b22565b610dd1565b6103d96104b73660046138ec565b610de7565b6103d96104ca366004613b63565b610e60565b6104e26104dd366004613b85565b610efc565b6040805194855260208501939093529183015260608201526080016103a8565b604051601281526020016103a8565b61039b61051f366004613b85565b610f9f565b6103ee6105323660046138ec565b611042565b6103d961054536600461397c565b61107e565b6103d9610558366004613be3565b6110aa565b6103d961056b366004613918565b6111ee565b6103d961057e366004613b85565b61121a565b610596610591366004613c7d565b61126c565b6040516103a89190613cc3565b61047e6112b1565b7f6bfbb132610e56cb96575dba244667b9d6dbfeffe22b68a79fa16f2d18eb001961043b565b600161043b565b6103d96105e6366004613cfb565b6112db565b6103d96105f9366004613b22565b611332565b6103d961060c366004613d4a565b61138b565b6103d961061f366004613b22565b611439565b610596610632366004613de8565b611459565b601f61043b565b61043b61064c366004613b85565b61149b565b6103ee61065f366004613b85565b6114c4565b6103d96106723660046138ec565b61154c565b6103d9610685366004613b85565b611578565b6103b96115c9565b6103d96115d8565b6103d96106a8366004613cfb565b61169a565b6103d96106bb366004613e1d565b6116ee565b6103d96106ce366004613931565b61172e565b6103d96106e1366004613b85565b6117d8565b6103ee6106f43660046138ec565b6117ec565b6103ee6107073660046138ec565b61183b565b6103ee61071a3660046138ec565b611849565b6103ee61072d366004613b85565b61189a565b6103d9610740366004613e1d565b611922565b6103d9610753366004613e75565b611963565b6103d96107663660046138ec565b6119cb565b6103d96107793660046138ec565b611a40565b6103ee61078c366004613ee0565b611b29565b6103ee61079f3660046138ec565b611b37565b61043b6107b2366004613ee0565b6001600160a01b03918216600090815260116020908152604080832093909416825291909152205490565b6107f06107eb3660046138ec565b611b51565b604080519384526020840192909252908201526060016103a8565b600e546001600160a01b031661047e565b6103d961082a366004613b85565b611c8b565b6103d961083d366004613f19565b611cdc565b6103d9610850366004613f60565b611d7d565b60606108616012611dce565b905090565b6060600f805461087590613f9e565b80601f01602080910402602001604051908101604052809291908181526020018280546108a190613f9e565b80156108ee5780601f106108c3576101008083540402835291602001916108ee565b820191906000526020600020905b8154815290600101906020018083116108d157829003601f168201915b5050505050905090565b600033858560405160200161090f93929190613fd8565b60405160208183030381529060405280519060200120905061096481848480806020026020016040519081016040528093929190818152602001838360200280828437600092019190915250611e3492505050565b6040518481526001600160a01b0386169033907f30f416fa68fca014a0f334464c64b000ba53e99b6d2afdea9d5ca756372d5985906020015b60405180910390a35050505050565b60006109b9338484611e75565b5060015b92915050565b6109ef333333846040518060200160405280600081525060405180602001604052806000815250611f25565b50565b6040513390600090610a0a9083908790602001614021565b60408051601f1981840301815291905280516020909101209050610a2e81846120df565b15610a4c5760405163782a90fb60e11b815260040160405180910390fd5b610a8981858580806020026020016040519081016040528093929190818152602001838360200280828437600092019190915250611e3492505050565b816001600160a01b03167f770ea40a13a4644573ed785e5c7116890709947918747febc5add46feb531e2d868686604051610ac69392919061405e565b60405180910390a25050505050565b7f00000000000000000000000000000000000000000000000000000000000000006001600160a01b03163314610b1e5760405163c51efddd60e01b815260040160405180910390fd5b610b2a8484848461211b565b5050505050565b604051632329212160e21b81523360048201527f00000000000000000000000000000000000000000000000000000000000000006001600160a01b031690638ca4848490602401602060405180830381865afa158015610b95573d6000803e3d6000fd5b505050506040513d601f19601f82011682018060405250810190610bb9919061409f565b610bd65760405163327fd99160e21b815260040160405180910390fd5b6000610be061223b565b90506001600160a01b038116610bf35750845b600085610c005786610c02565b815b905060008313610c9f57610c15836140d2565b610c1e85612380565b14610c2b57610c2b6140ee565b610c3484612380565b6001600160a01b03821660009081526002602052604081208054909190610c5c908490614104565b90915550506001600160a01b03851660009081526002602052604081208054859290610c89908490614104565b90915550610c9a90508582866123ee565b610d69565b8515610cad57610cad6140ee565b82610cb785612380565b610cc19190614104565b6001600160a01b03831660009081526002602052604081208054909190610ce990849061412c565b90915550610cf8905084612380565b6001600160a01b03881660009081526002602052604081208054909190610d20908490614104565b90915550506001600160a01b03851660009081526002602052604081208054859290610d4d908490614104565b90915550610d5e90508288866123ee565b610d698286856123ee565b846001600160a01b0316876001600160a01b0316336001600160a01b03167fb8381a3ce157650e06186e3e8f4dd4dc29236f2688b6eed1893d0a60d7c6386f8c8589898f604051610dbe95949392919061414c565b60405180910390a4505050505050505050565b6000610ddf3385858561211b565b949350505050565b7f00000000000000000000000000000000000000000000000000000000000000006001600160a01b03163314610e305760405163c51efddd60e01b815260040160405180910390fd5b610e5c338384846040518060200160405280600081525060405180602001604052806000815250611f25565b5050565b6040513390600090610e789083908690602001614021565b604051602081830303815290604052805190602001209050610e9a81846120df565b610eb75760405163dae1880960e01b815260040160405180910390fd5b610ec18184612421565b60405184815233907f71a63dc095de07aa5512ad57a7596a39516317e316981a1cd71000057be1537b9060200160405180910390a250505050565b6000806000807f00000000000000000000000000000000000000000000000000000000000000006001600160a01b031663bbe4fd506040518163ffffffff1660e01b8152600401602060405180830381865afa158015610f60573d6000803e3d6000fd5b505050506040513d601f19601f82011682018060405250810190610f84919061417f565b9050610f908582611b51565b91979096509094509092509050565b6001600160a01b038181166000908152600160205260409081902054905163c56a069d60e01b8152901960048201526060917f0000000000000000000000000000000000000000000000000000000000000000169063c56a069d90602401600060405180830381865afa15801561101a573d6000803e3d6000fd5b505050506040513d6000823e601f3d908101601f191682016040526109bd9190810190614198565b3360008181526011602090815260408083206001600160a01b038716845290915281205490916109b9918590611079908690614249565b611e75565b33301461109e57604051630fff4cc960e31b815260040160405180910390fd5b610b2a8385848461211b565b600054610100900460ff16158080156110ca5750600054600160ff909116105b806110e45750303b1580156110e4575060005460ff166001145b6111095760405162461bcd60e51b81526004016111009061425c565b60405180910390fd5b6000805460ff19166001179055801561112c576000805461ff0019166101001790555b600e805460ff8816600160a01b026001600160a81b03199091166001600160a01b038a1617179055600f6111618587836142f8565b50601061116f8385836142f8565b5061117930612442565b604051600080825290819060008051602061465d8339815191529060200160405180910390a380156111e5576000805461ff0019169055604051600181527f7f26b83ff96e1f2b6a682f133852f6798a09c465da95921460cefb38474024989060200160405180910390a15b50505050505050565b6109ef333333846040518060200160405280600081525060405180602001604052806000815250612570565b336001600160a01b037f000000000000000000000000000000000000000000000000000000000000000016146112635760405163263dcdc160e21b815260040160405180910390fd5b6109ef81612720565b6060600085858560405160200161128593929190613fd8565b6040516020818303038152906040528051906020012090506112a7818461295a565b9695505050505050565b60006108617f360894a13ba1a3210667c828492db98dca3e2076cc3735a920a3ca505d382bbc5490565b61132c3333868686868080601f016020809104026020016040519081016040528093929190818152602001838380828437600092018290525060408051602081019091529081529250612570915050565b50505050565b7f00000000000000000000000000000000000000000000000000000000000000006001600160a01b0316331461137b5760405163c51efddd60e01b815260040160405180910390fd5b611386838383611e75565b505050565b336113986012828a6129e9565b6113b55760405163f7f0222760e01b815260040160405180910390fd5b61142f8189898989898080601f01602080910402602001604051908101604052809392919081815260200183838082843760009201919091525050604080516020601f8d018190048102820181019092528b815292508b91508a908190840183828082843760009201919091525060019250612a92915050565b5050505050505050565b33301461137b57604051630fff4cc960e31b815260040160405180910390fd5b606060008484604051602001611470929190614021565b604051602081830303815290604052805190602001209050611492818461295a565b95945050505050565b6000806114a783610efc565b5050509050600081126114ba57806114bd565b60005b9392505050565b60006109bd827f00000000000000000000000000000000000000000000000000000000000000006001600160a01b031663bbe4fd506040518163ffffffff1660e01b8152600401602060405180830381865afa158015611528573d6000803e3d6000fd5b505050506040513d601f19601f8201168201806040525081019061079f919061417f565b610e5c333384846040518060200160405280600081525060405180602001604052806000815250611f25565b3361158560128284612b0b565b806001600160a01b0316826001600160a01b03167ff4caeb2d6ca8932a215a353d0703c326ec2d81fc68170f320eb2ab49e9df61f960405160405180910390a35050565b60606010805461087590613f9e565b600054610100900460ff16158080156115f85750600054600160ff909116105b806116125750303b158015611612575060005460ff166001145b61162e5760405162461bcd60e51b81526004016111009061425c565b6000805460ff191660011790558015611651576000805461ff0019166101001790555b80156109ef576000805461ff0019169055604051600181527f7f26b83ff96e1f2b6a682f133852f6798a09c465da95921460cefb3847402498906020015b60405180910390a150565b61132c3333868686868080601f01602080910402602001604051908101604052809392919081815260200183838082843760009201829052506040805160208101909152908152925060019150612a929050565b33301461170e57604051630fff4cc960e31b815260040160405180910390fd5b604080516000815260208101909152611386903390859085908590612c0f565b60405133906000906117469083908790602001614021565b60405160208183030381529060405280519060200120905061179b81858580806020026020016040519081016040528093929190818152602001838360200280828437600092019190915250611e3492505050565b336001600160a01b03167f0c4c547b3a4fcaa5be8353b3111472b124155bccc86de811d4a481c9e6e9faca868686604051610ac69392919061405e565b610e5c3333836117e73361149b565b61211b565b60006109b93384611079856040518060600160405280602a8152602001614633602a91393360009081526011602090815260408083206001600160a01b038d1684529091529020549190612cca565b60006114bd3333858561211b565b6000806000806118598686611b51565b9250925092506000611881828411611872576000612380565b61187c83856143b7565b612380565b61188b9085614104565b60001315979650505050505050565b60006109bd827f00000000000000000000000000000000000000000000000000000000000000006001600160a01b031663bbe4fd506040518163ffffffff1660e01b8152600401602060405180830381865afa1580156118fe573d6000803e3d6000fd5b505050506040513d601f19601f8201168201806040525081019061071a919061417f565b33301461194257604051630fff4cc960e31b815260040160405180910390fd5b60408051600080825260208201909252611386913391869186918690612cf6565b7f00000000000000000000000000000000000000000000000000000000000000006001600160a01b031633146119ac5760405163c51efddd60e01b815260040160405180910390fd5b61132c3385858585604051806020016040528060008152506001612a92565b7f00000000000000000000000000000000000000000000000000000000000000006001600160a01b03163314611a145760405163c51efddd60e01b815260040160405180910390fd5b610e5c338384846040518060200160405280600081525060405180602001604052806000815250612570565b604051632329212160e21b81523360048201527f00000000000000000000000000000000000000000000000000000000000000006001600160a01b031690638ca4848490602401602060405180830381865afa158015611aa4573d6000803e3d6000fd5b505050506040513d601f19601f82011682018060405250810190611ac8919061409f565b611ae55760405163327fd99160e21b815260040160405180910390fd5b6001600160a01b038216600090815260026020526040902054611b09908290614104565b6001600160a01b0390921660009081526002602052604090209190915550565b60006114bd601284846129e9565b600080611b448484611b51565b5050600013949350505050565b6001600160a01b038216600090815260026020526040812054908080611b7686610f9f565b905060005b8151811015611c82576000806000848481518110611b9b57611b9b6143ca565b60209081029190910101516040516326cb922f60e21b81523060048201526001600160a01b038c81166024830152604482018c905290911690639b2e48bc90606401606060405180830381865afa158015611bfa573d6000803e3d6000fd5b505050506040513d601f19601f82011682018060405250810190611c1e91906143e0565b91945092509050611c2f8288614249565b9650611c3b8187614249565b9550611c58818311611c4e576000612380565b61187c82846143b7565b611c62848a614104565b611c6c919061412c565b975050505080611c7b9061440e565b9050611b7b565b50509250925092565b33611c9860128284612dbe565b806001600160a01b0316826001600160a01b03167f50546e66e5f44d728365dc3908c63bc5cfeeab470722c1677e3073a6ac294aa160405160405180910390a35050565b33611ce9601282896129e9565b611d065760405163f7f0222760e01b815260040160405180910390fd5b6111e58188898989898080601f01602080910402602001604051908101604052809392919081815260200183838082843760009201919091525050604080516020601f8d018190048102820181019092528b815292508b91508a9081908401838280828437600092019190915250611f2592505050565b6113863333338686868080601f016020809104026020016040519081016040528093929190818152602001838380828437600092018290525060408051602081019091529081529250611f25915050565b606081600001805480602002602001604051908101604052809291908181526020018280548015611e2857602002820191906000526020600020905b81546001600160a01b03168152600190910190602001808311611e0a575b50505050509050919050565b60005b8151811015611386576000828281518110611e5457611e546143ca565b6020026020010151905080828501555080611e6e9061440e565b9050611e37565b6001600160a01b038316611e9c57604051638163862760e01b815260040160405180910390fd5b6001600160a01b038216611ec3576040516337c1c09d60e21b815260040160405180910390fd5b6001600160a01b0383811660008181526011602090815260408083209487168084529482529182902085905590518481527f8c5be1e5ebec7d5bd14f71427d1e84f3dd0314c0f7b2291e5b200ac8c7c3b92591015b60405180910390a3505050565b600e546001600160a01b0316611f4e57604051637bce7b2b60e11b815260040160405180910390fd5b600080611f5a85612eb6565b91509150611f6b8888838787612c0f565b600e546040516370a0823160e01b81523060048201526000916001600160a01b0316906370a0823190602401602060405180830381865afa158015611fb4573d6000803e3d6000fd5b505050506040513d601f19601f82011682018060405250810190611fd8919061417f565b600e54909150611ff2906001600160a01b03168885612f72565b600e546040516370a0823160e01b81523060048201526000916001600160a01b0316906370a0823190602401602060405180830381865afa15801561203b573d6000803e3d6000fd5b505050506040513d601f19601f8201168201806040525081019061205f919061417f565b9050600061206d82846143b7565b905080851461208f57604051631c7c26d360e31b815260040160405180910390fd5b896001600160a01b03167f3bc27981aebbb57f9247dc00fde9d6cd91e4b230083fec3238fedbcba1f9ab3d856040516120ca91815260200190565b60405180910390a25050505050505050505050565b6000805b8281101561211157838101548015612100576001925050506109bd565b5061210a8161440e565b90506120e3565b5060009392505050565b60006001600160a01b0384166121445760405163eecd6c9b60e01b815260040160405180910390fd5b6001600160a01b03831661216b5760405163e219bd3960e01b815260040160405180910390fd5b600033905061219c818686866040518060200160405280600081525060405180602001604052806000815250612fd5565b846001600160a01b0316866001600160a01b03161461222f5761222f8587611079866040518060600160405280602d815260200161467d602d9139601160008c6001600160a01b03166001600160a01b0316815260200190815260200160002060008d6001600160a01b03166001600160a01b0316815260200190815260200160002054612cca9092919063ffffffff16565b50600195945050505050565b6000807f00000000000000000000000000000000000000000000000000000000000000006001600160a01b031663289b3c0d6040518163ffffffff1660e01b8152600401602060405180830381865afa15801561229c573d6000803e3d6000fd5b505050506040513d601f19601f820116820180604052508101906122c09190614427565b604051638369a0f160e01b81526001600160a01b037f0000000000000000000000000000000000000000000000000000000000000000811660048301523060248301527f9f60ae461adf056670e03ae602566409933242392cb06744f5747c9f38b05d09604483015291925090821690638369a0f190606401602060405180830381865afa158015612356573d6000803e3d6000fd5b505050506040513d601f19601f8201168201806040525081019061237a9190614427565b91505090565b60006001600160ff1b038211156123ea5760405162461bcd60e51b815260206004820152602860248201527f53616665436173743a2076616c756520646f65736e27742066697420696e2061604482015267371034b73a191a9b60c11b6064820152608401611100565b5090565b816001600160a01b0316836001600160a01b031660008051602061465d83398151915283604051611f1891815260200190565b60005b818110156113865760008382015561243b8161440e565b9050612424565b6040516329965a1d60e01b81526001600160a01b03821660048201527fac7fbab5f54a3ca8194167523c6753bfeb96a445279294b6125b68cce21770546024820152306044820152731820a4b7618bde71dce8cdc73aab6c95905fad24906329965a1d90606401600060405180830381600087803b1580156124c357600080fd5b505af11580156124d7573d6000803e3d6000fd5b50506040516329965a1d60e01b81526001600160a01b03841660048201527faea199e31a596269b42cdafd93407f14436db6e4cad65417994c2eb37381e05a6024820152306044820152731820a4b7618bde71dce8cdc73aab6c95905fad2492506329965a1d9150606401600060405180830381600087803b15801561255c57600080fd5b505af1158015610b2a573d6000803e3d6000fd5b600e546001600160a01b031661259957604051637bce7b2b60e11b815260040160405180910390fd5b6000806125a585612eb6565b600e546040516370a0823160e01b81523060048201529294509092506000916001600160a01b03909116906370a0823190602401602060405180830381865afa1580156125f6573d6000803e3d6000fd5b505050506040513d601f19601f8201168201806040525081019061261a919061417f565b600e54909150612635906001600160a01b0316893086613074565b600e546040516370a0823160e01b81523060048201526000916001600160a01b0316906370a0823190602401602060405180830381865afa15801561267e573d6000803e3d6000fd5b505050506040513d601f19601f820116820180604052508101906126a2919061417f565b905060006126b083836143b7565b90508085146126d257604051631c7c26d360e31b815260040160405180910390fd5b6126e58b8a868a51600014158b8b612cf6565b886001600160a01b03167f25ca84076773b0455db53621c459ddc84fe40840e4932a62706a032566f399df856040516120ca91815260200190565b600061274a7f360894a13ba1a3210667c828492db98dca3e2076cc3735a920a3ca505d382bbc5490565b6001600160a01b0316036127a05760405162461bcd60e51b815260206004820152601d60248201527f5555505350726f786961626c653a206e6f742075706772616461626c650000006044820152606401611100565b806001600160a01b03166352d1902d6040518163ffffffff1660e01b8152600401602060405180830381865afa1580156127de573d6000803e3d6000fd5b505050506040513d601f19601f82011682018060405250810190612802919061417f565b7f6bfbb132610e56cb96575dba244667b9d6dbfeffe22b68a79fa16f2d18eb00191461287c5760405162461bcd60e51b815260206004820152602360248201527f5555505350726f786961626c653a206e6f7420636f6d70617469626c65206c6f60448201526267696360e81b6064820152608401611100565b6001600160a01b03811630036128d45760405162461bcd60e51b815260206004820152601960248201527f5555505350726f786961626c653a2070726f7879206c6f6f70000000000000006044820152606401611100565b6128fc817f360894a13ba1a3210667c828492db98dca3e2076cc3735a920a3ca505d382bbc55565b7fe011bc04c286c344a8fcbb8de77f953da762c3e25d8cdea984147fc4168a5dcc7f6bfbb132610e56cb96575dba244667b9d6dbfeffe22b68a79fa16f2d18eb0019604080519182526001600160a01b03841660208301520161168f565b6060816001600160401b03811115612974576129746139cd565b60405190808252806020026020018201604052801561299d578160200160208202803683370190505b50905060005b828110156129e2576000818501549050808383815181106129c6576129c66143ca565b6020908102919091010152506129db8161440e565b90506129a3565b5092915050565b6000816001600160a01b0316836001600160a01b03161480612a5857506001600160a01b038316600090815260018501602052604090205460ff168015612a5857506001600160a01b03808316600090815260038601602090815260408083209387168352929052205460ff16155b80610ddf57506001600160a01b03808316600090815260028601602090815260408083209387168352929052205460ff1690509392505050565b6001600160a01b038616612ab95760405163eecd6c9b60e01b815260040160405180910390fd5b6001600160a01b038516612ae05760405163e219bd3960e01b815260040160405180910390fd5b612aee8787878787876130ac565b612afc878787878787612fd5565b6111e5878787878787876131d3565b806001600160a01b0316826001600160a01b031603612b825760405162461bcd60e51b815260206004820152602d60248201527f4552433737374f70657261746f72733a20617574686f72697a696e672073656c60448201526c331030b99037b832b930ba37b960991b6064820152608401611100565b6001600160a01b038116600090815260018401602052604090205460ff1615612bd8576001600160a01b03918216600090815260039390930160209081526040808520929093168452529020805460ff19169055565b6001600160a01b0380831660009081526002850160209081526040808320938516835292905220805460ff19166001179055505050565b6001600160a01b038416612c3657604051632e8aac6160e21b815260040160405180910390fd5b612c45858560008686866130ac565b612c4f8484613323565b836001600160a01b0316856001600160a01b03167fa78a9be3a7b862d26933ad85fb11d80ef66b8f972d7cbba06621d583943a4098858585604051612c9693929190614444565b60405180910390a36040518381526000906001600160a01b0386169060008051602061465d8339815191529060200161099d565b60008184841115612cee5760405162461bcd60e51b8152600401611100919061381e565b505050900390565b6001600160a01b038516612d1d57604051630d24315760e01b815260040160405180910390fd5b612d278585613433565b612d3786600087878686896131d3565b846001600160a01b0316866001600160a01b03167f2fe5be0146f74c5bce36c0b80911af6c7d86ff27e89d5cfa61fc681327954e5d868585604051612d7e93929190614444565b60405180910390a36040518481526001600160a01b0386169060009060008051602061465d833981519152906020015b60405180910390a3505050505050565b336001600160a01b03821603612e295760405162461bcd60e51b815260206004820152602a60248201527f4552433737374f70657261746f72733a207265766f6b696e672073656c662061604482015269399037b832b930ba37b960b11b6064820152608401611100565b6001600160a01b038116600090815260018401602052604090205460ff1615612e83576001600160a01b0380831660009081526003850160209081526040808320938516835292905220805460ff19166001179055505050565b6001600160a01b03918216600090815260029390930160209081526040808520929093168452529020805460ff19169055565b600e54600090819081906012600160a01b90910460ff161015612f1557600e54612eeb90600160a01b900460ff16601261446f565b612ef690600a61456c565b9050612f02818561457b565b9250612f0e818461459d565b9150612f6c565b600e546012600160a01b90910460ff161115612f6557600e54612f4490601290600160a01b900460ff1661446f565b612f4f90600a61456c565b9050612f5b818561459d565b9250839150612f6c565b8391508192505b50915091565b6040516001600160a01b03831660248201526044810182905261138690849063a9059cbb60e01b906064015b60408051601f198184030181529190526020810180516001600160e01b03166001600160e01b03199093169290921790915261348d565b612fe88585612fe386612380565b61355f565b836001600160a01b0316856001600160a01b0316876001600160a01b03167f06b541ddaa720db2b10a4d0cdac39b8d360425fc073085fac19bc8261467798786868660405161303993929190614444565b60405180910390a4836001600160a01b0316856001600160a01b031660008051602061465d83398151915285604051612dae91815260200190565b6040516001600160a01b038085166024830152831660448201526064810182905261132c9085906323b872dd60e01b90608401612f9e565b60405163555ddc6560e11b81526001600160a01b03861660048201527f29ddb589b1fb5fc7cf394961c1adf5f8c6454761adf795e67fe149f658abe8956024820152600090731820a4b7618bde71dce8cdc73aab6c95905fad249063aabbb8ca90604401602060405180830381865afa15801561312d573d6000803e3d6000fd5b505050506040513d601f19601f820116820180604052508101906131519190614427565b90506001600160a01b038116156111e557604051633ad5cbc160e11b81526001600160a01b038216906375ab978290613198908a908a908a908a908a908a906004016145bc565b600060405180830381600087803b1580156131b257600080fd5b505af11580156131c6573d6000803e3d6000fd5b5050505050505050505050565b60405163555ddc6560e11b81526001600160a01b03861660048201527fb281fc8c12954d22544db45de3159a39272895b169a852b314f9cc762e44c53b6024820152600090731820a4b7618bde71dce8cdc73aab6c95905fad249063aabbb8ca90604401602060405180830381865afa158015613254573d6000803e3d6000fd5b505050506040513d601f19601f820116820180604052508101906132789190614427565b90506001600160a01b038116156132f4576040516223de2960e01b81526001600160a01b038216906223de29906132bd908b908b908b908b908b908b906004016145bc565b600060405180830381600087803b1580156132d757600080fd5b505af11580156132eb573d6000803e3d6000fd5b5050505061142f565b811561142f576001600160a01b0386163b1561142f5760405163fe737d0560e01b815260040160405180910390fd5b60006133ab837f00000000000000000000000000000000000000000000000000000000000000006001600160a01b031663bbe4fd506040518163ffffffff1660e01b8152600401602060405180830381865afa158015613387573d6000803e3d6000fd5b505050506040513d601f19601f820116820180604052508101906107eb919061417f565b505090506133b882612380565b8112156133d85760405163043b37d160e21b815260040160405180910390fd5b6133e182612380565b6001600160a01b038416600090815260026020526040902054613404919061412c565b6001600160a01b03841660009081526002602052604090205560035461342b9083906143b7565b600355505050565b61343c81612380565b6001600160a01b03831660009081526002602052604090205461345f9190614104565b6001600160a01b038316600090815260026020526040902055600354613486908290614249565b6003555050565b60006134e2826040518060400160405280602081526020017f5361666545524332303a206c6f772d6c6576656c2063616c6c206661696c6564815250856001600160a01b031661365e9092919063ffffffff16565b8051909150156113865780806020019051810190613500919061409f565b6113865760405162461bcd60e51b815260206004820152602a60248201527f5361666545524332303a204552433230206f7065726174696f6e20646964206e6044820152691bdd081cdd58d8d9595960b21b6064820152608401611100565b60006135c3847f00000000000000000000000000000000000000000000000000000000000000006001600160a01b031663bbe4fd506040518163ffffffff1660e01b8152600401602060405180830381865afa158015613387573d6000803e3d6000fd5b50509050818112156135e857604051632f4cb94160e01b815260040160405180910390fd5b6001600160a01b03841660009081526002602052604090205461360c90839061412c565b6001600160a01b03808616600090815260026020526040808220939093559085168152205461363c908390614104565b6001600160a01b03909316600090815260026020526040902092909255505050565b6060610ddf848460008585600080866001600160a01b031685876040516136859190614616565b60006040518083038185875af1925050503d80600081146136c2576040519150601f19603f3d011682016040523d82523d6000602084013e6136c7565b606091505b50915091506136d8878383876136e3565b979650505050505050565b6060831561375257825160000361374b576001600160a01b0385163b61374b5760405162461bcd60e51b815260206004820152601d60248201527f416464726573733a2063616c6c20746f206e6f6e2d636f6e74726163740000006044820152606401611100565b5081610ddf565b610ddf83838151156137675781518083602001fd5b8060405162461bcd60e51b8152600401611100919061381e565b6020808252825182820181905260009190848201906040850190845b818110156137c25783516001600160a01b03168352928401929184019160010161379d565b50909695505050505050565b60005b838110156137e95781810151838201526020016137d1565b50506000910152565b6000815180845261380a8160208601602086016137ce565b601f01601f19169290920160200192915050565b6020815260006114bd60208301846137f2565b6001600160a01b03811681146109ef57600080fd5b60008083601f84011261385857600080fd5b5081356001600160401b0381111561386f57600080fd5b6020830191508360208260051b850101111561388a57600080fd5b9250929050565b600080600080606085870312156138a757600080fd5b84356138b281613831565b93506020850135925060408501356001600160401b038111156138d457600080fd5b6138e087828801613846565b95989497509550505050565b600080604083850312156138ff57600080fd5b823561390a81613831565b946020939093013593505050565b60006020828403121561392a57600080fd5b5035919050565b60008060006040848603121561394657600080fd5b8335925060208401356001600160401b0381111561396357600080fd5b61396f86828701613846565b9497909650939450505050565b6000806000806080858703121561399257600080fd5b843561399d81613831565b935060208501356139ad81613831565b925060408501356139bd81613831565b9396929550929360600135925050565b634e487b7160e01b600052604160045260246000fd5b604051601f8201601f191681016001600160401b0381118282101715613a0b57613a0b6139cd565b604052919050565b600082601f830112613a2457600080fd5b81356001600160401b03811115613a3d57613a3d6139cd565b613a50601f8201601f19166020016139e3565b818152846020838601011115613a6557600080fd5b816020850160208301376000918101602001919091529392505050565b80151581146109ef57600080fd5b600080600080600080600060e0888a031215613aab57600080fd5b8735965060208801356001600160401b03811115613ac857600080fd5b613ad48a828b01613a13565b9650506040880135613ae581613831565b94506060880135613af581613a82565b93506080880135613b0581613831565b9699959850939692959460a0840135945060c09093013592915050565b600080600060608486031215613b3757600080fd5b8335613b4281613831565b92506020840135613b5281613831565b929592945050506040919091013590565b60008060408385031215613b7657600080fd5b50508035926020909101359150565b600060208284031215613b9757600080fd5b81356114bd81613831565b60008083601f840112613bb457600080fd5b5081356001600160401b03811115613bcb57600080fd5b60208301915083602082850101111561388a57600080fd5b60008060008060008060808789031215613bfc57600080fd5b8635613c0781613831565b9550602087013560ff81168114613c1d57600080fd5b945060408701356001600160401b0380821115613c3957600080fd5b613c458a838b01613ba2565b90965094506060890135915080821115613c5e57600080fd5b50613c6b89828a01613ba2565b979a9699509497509295939492505050565b60008060008060808587031215613c9357600080fd5b8435613c9e81613831565b93506020850135613cae81613831565b93969395505050506040820135916060013590565b6020808252825182820181905260009190848201906040850190845b818110156137c257835183529284019291840191600101613cdf565b60008060008060608587031215613d1157600080fd5b8435613d1c81613831565b93506020850135925060408501356001600160401b03811115613d3e57600080fd5b6138e087828801613ba2565b600080600080600080600060a0888a031215613d6557600080fd5b8735613d7081613831565b96506020880135613d8081613831565b95506040880135945060608801356001600160401b0380821115613da357600080fd5b613daf8b838c01613ba2565b909650945060808a0135915080821115613dc857600080fd5b50613dd58a828b01613ba2565b989b979a50959850939692959293505050565b600080600060608486031215613dfd57600080fd5b8335613e0881613831565b95602085013595506040909401359392505050565b600080600060608486031215613e3257600080fd5b8335613e3d81613831565b92506020840135915060408401356001600160401b03811115613e5f57600080fd5b613e6b86828701613a13565b9150509250925092565b60008060008060808587031215613e8b57600080fd5b8435613e9681613831565b93506020850135613ea681613831565b92506040850135915060608501356001600160401b03811115613ec857600080fd5b613ed487828801613a13565b91505092959194509250565b60008060408385031215613ef357600080fd5b8235613efe81613831565b91506020830135613f0e81613831565b809150509250929050565b60008060008060008060808789031215613f3257600080fd5b8635613f3d81613831565b95506020870135945060408701356001600160401b0380821115613c3957600080fd5b600080600060408486031215613f7557600080fd5b8335925060208401356001600160401b03811115613f9257600080fd5b61396f86828701613ba2565b600181811c90821680613fb257607f821691505b602082108103613fd257634e487b7160e01b600052602260045260246000fd5b50919050565b6080808252600e908201526d41677265656d656e74537461746560901b60a08201526001600160a01b039384166020820152919092166040820152606081019190915260c00190565b6060808252600d908201526c41677265656d656e744461746160981b60808201526001600160a01b03929092166020830152604082015260a00190565b838152604060208201819052810182905260006001600160fb1b0383111561408557600080fd5b8260051b8085606085013791909101606001949350505050565b6000602082840312156140b157600080fd5b81516114bd81613a82565b634e487b7160e01b600052601160045260246000fd5b6000600160ff1b82016140e7576140e76140bc565b5060000390565b634e487b7160e01b600052600160045260246000fd5b8082018281126000831280158216821582161715614124576141246140bc565b505092915050565b81810360008312801583831316838312821617156129e2576129e26140bc565b85815260018060a01b038516602082015283604082015282606082015260a0608082015260006136d860a08301846137f2565b60006020828403121561419157600080fd5b5051919050565b600060208083850312156141ab57600080fd5b82516001600160401b03808211156141c257600080fd5b818501915085601f8301126141d657600080fd5b8151818111156141e8576141e86139cd565b8060051b91506141f98483016139e3565b818152918301840191848101908884111561421357600080fd5b938501935b8385101561423d578451925061422d83613831565b8282529385019390850190614218565b98975050505050505050565b808201808211156109bd576109bd6140bc565b6020808252602e908201527f496e697469616c697a61626c653a20636f6e747261637420697320616c72656160408201526d191e481a5b9a5d1a585b1a5e995960921b606082015260800190565b601f82111561138657600081815260208120601f850160051c810160208610156142d15750805b601f850160051c820191505b818110156142f0578281556001016142dd565b505050505050565b6001600160401b0383111561430f5761430f6139cd565b6143238361431d8354613f9e565b836142aa565b6000601f841160018114614357576000851561433f5750838201355b600019600387901b1c1916600186901b178355610b2a565b600083815260209020601f19861690835b828110156143885786850135825560209485019460019092019101614368565b50868210156143a55760001960f88860031b161c19848701351681555b505060018560011b0183555050505050565b818103818111156109bd576109bd6140bc565b634e487b7160e01b600052603260045260246000fd5b6000806000606084860312156143f557600080fd5b8351925060208401519150604084015190509250925092565b600060018201614420576144206140bc565b5060010190565b60006020828403121561443957600080fd5b81516114bd81613831565b83815260606020820152600061445d60608301856137f2565b82810360408401526112a781856137f2565b60ff82811682821603908111156109bd576109bd6140bc565b600181815b808511156144c35781600019048211156144a9576144a96140bc565b808516156144b657918102915b93841c939080029061448d565b509250929050565b6000826144da575060016109bd565b816144e7575060006109bd565b81600181146144fd576002811461450757614523565b60019150506109bd565b60ff841115614518576145186140bc565b50506001821b6109bd565b5060208310610133831016604e8410600b8410161715614546575081810a6109bd565b6145508383614488565b8060001904821115614564576145646140bc565b029392505050565b60006114bd60ff8416836144cb565b60008261459857634e487b7160e01b600052601260045260246000fd5b500490565b60008160001904831182151516156145b7576145b76140bc565b500290565b6001600160a01b0387811682528681166020830152851660408201526060810184905260c0608082018190526000906145f7908301856137f2565b82810360a084015261460981856137f2565b9998505050505050505050565b600082516146288184602087016137ce565b919091019291505056fe5375706572546f6b656e3a2064656372656173656420616c6c6f77616e63652062656c6f77207a65726fddf252ad1be2c89b69c2b068fc378daa952ba7f163c4a11628f55a4df523b3ef5375706572546f6b656e3a207472616e7366657220616d6f756e74206578636565647320616c6c6f77616e6365a26469706673582212201ecf6a564e9833a496a732f2bb864bb95a47f66cbca415727df2275c8c94062464736f6c63430008100033",
  "linkReferences": {},
  "deployedLinkReferences": {}
}