{
  "_format": "hh-sol-artifact-1",
  "contractName": "SuperTokenFactoryStorageLayoutTester",
  "sourceName": "contracts/mocks/SuperTokenFactoryMock.sol",
  "abi": [
    {
      "inputs": [
        {
          "internalType": "contract ISuperfluid",
          "name": "host",
          "type": "address"
        }
      ],
      "stateMutability": "nonpayable",
      "type": "constructor"
    },
    {
      "inputs": [],
      "name": "SUPER_TOKEN_FACTORY_ALREADY_EXISTS",
      "type": "error"
    },
    {
      "inputs": [],
      "name": "SUPER_TOKEN_FACTORY_DOES_NOT_EXIST",
      "type": "error"
    },
    {
      "inputs": [],
      "name": "SUPER_TOKEN_FACTORY_ONLY_GOVERNANCE_OWNER",
      "type": "error"
    },
    {
      "inputs": [],
      "name": "SUPER_TOKEN_FACTORY_ONLY_HOST",
      "type": "error"
    },
    {
      "inputs": [],
      "name": "SUPER_TOKEN_FACTORY_UNINITIALIZED",
      "type": "error"
    },
    {
      "inputs": [],
      "name": "SUPER_TOKEN_FACTORY_ZERO_ADDRESS",
      "type": "error"
    },
    {
      "anonymous": false,
      "inputs": [
        {
          "indexed": false,
          "internalType": "bytes32",
          "name": "uuid",
          "type": "bytes32"
        },
        {
          "indexed": false,
          "internalType": "address",
          "name": "codeAddress",
          "type": "address"
        }
      ],
      "name": "CodeUpdated",
      "type": "event"
    },
    {
      "anonymous": false,
      "inputs": [
        {
          "indexed": true,
          "internalType": "contract ISuperToken",
          "name": "token",
          "type": "address"
        }
      ],
      "name": "CustomSuperTokenCreated",
      "type": "event"
    },
    {
      "anonymous": false,
      "inputs": [
        {
          "indexed": false,
          "internalType": "uint8",
          "name": "version",
          "type": "uint8"
        }
      ],
      "name": "Initialized",
      "type": "event"
    },
    {
      "anonymous": false,
      "inputs": [
        {
          "indexed": true,
          "internalType": "contract ISuperToken",
          "name": "token",
          "type": "address"
        }
      ],
      "name": "SuperTokenCreated",
      "type": "event"
    },
    {
      "anonymous": false,
      "inputs": [
        {
          "indexed": true,
          "internalType": "contract ISuperToken",
          "name": "tokenLogic",
          "type": "address"
        }
      ],
      "name": "SuperTokenLogicCreated",
      "type": "event"
    },
    {
      "inputs": [],
      "name": "castrate",
      "outputs": [],
      "stateMutability": "nonpayable",
      "type": "function"
    },
    {
      "inputs": [
        {
          "internalType": "address",
          "name": "_underlyingToken",
          "type": "address"
        }
      ],
      "name": "computeCanonicalERC20WrapperAddress",
      "outputs": [
        {
          "internalType": "address",
          "name": "superTokenAddress",
          "type": "address"
        },
        {
          "internalType": "bool",
          "name": "isDeployed",
          "type": "bool"
        }
      ],
      "stateMutability": "view",
      "type": "function"
    },
    {
      "inputs": [
        {
          "internalType": "contract ERC20WithTokenInfo",
          "name": "_underlyingToken",
          "type": "address"
        }
      ],
      "name": "createCanonicalERC20Wrapper",
      "outputs": [
        {
          "internalType": "contract ISuperToken",
          "name": "",
          "type": "address"
        }
      ],
      "stateMutability": "nonpayable",
      "type": "function"
    },
    {
      "inputs": [
        {
          "internalType": "contract ERC20WithTokenInfo",
          "name": "underlyingToken",
          "type": "address"
        },
        {
          "internalType": "enum ISuperTokenFactory.Upgradability",
          "name": "upgradability",
          "type": "uint8"
        },
        {
          "internalType": "string",
          "name": "name",
          "type": "string"
        },
        {
          "internalType": "string",
          "name": "symbol",
          "type": "string"
        }
      ],
      "name": "createERC20Wrapper",
      "outputs": [
        {
          "internalType": "contract ISuperToken",
          "name": "superToken",
          "type": "address"
        }
      ],
      "stateMutability": "nonpayable",
      "type": "function"
    },
    {
      "inputs": [
        {
          "internalType": "contract IERC20",
          "name": "underlyingToken",
          "type": "address"
        },
        {
          "internalType": "uint8",
          "name": "underlyingDecimals",
          "type": "uint8"
        },
        {
          "internalType": "enum ISuperTokenFactory.Upgradability",
          "name": "upgradability",
          "type": "uint8"
        },
        {
          "internalType": "string",
          "name": "name",
          "type": "string"
        },
        {
          "internalType": "string",
          "name": "symbol",
          "type": "string"
        }
      ],
      "name": "createERC20Wrapper",
      "outputs": [
        {
          "internalType": "contract ISuperToken",
          "name": "superToken",
          "type": "address"
        }
      ],
      "stateMutability": "nonpayable",
      "type": "function"
    },
    {
      "inputs": [
        {
          "internalType": "contract ISuperfluid",
          "name": "",
          "type": "address"
        }
      ],
      "name": "createSuperTokenLogic",
      "outputs": [
        {
          "internalType": "address",
          "name": "",
          "type": "address"
        }
      ],
      "stateMutability": "pure",
      "type": "function"
    },
    {
      "inputs": [
        {
          "internalType": "address",
          "name": "_underlyingTokenAddress",
          "type": "address"
        }
      ],
      "name": "getCanonicalERC20Wrapper",
      "outputs": [
        {
          "internalType": "address",
          "name": "superTokenAddress",
          "type": "address"
        }
      ],
      "stateMutability": "view",
      "type": "function"
    },
    {
      "inputs": [],
      "name": "getCodeAddress",
      "outputs": [
        {
          "internalType": "address",
          "name": "codeAddress",
          "type": "address"
        }
      ],
      "stateMutability": "view",
      "type": "function"
    },
    {
      "inputs": [],
      "name": "getHost",
      "outputs": [
        {
          "internalType": "address",
          "name": "host",
          "type": "address"
        }
      ],
      "stateMutability": "view",
      "type": "function"
    },
    {
      "inputs": [],
      "name": "getSuperTokenLogic",
      "outputs": [
        {
          "internalType": "contract ISuperToken",
          "name": "",
          "type": "address"
        }
      ],
      "stateMutability": "view",
      "type": "function"
    },
    {
      "inputs": [],
      "name": "initialize",
      "outputs": [],
      "stateMutability": "nonpayable",
      "type": "function"
    },
    {
      "inputs": [
        {
          "components": [
            {
              "internalType": "address",
              "name": "underlyingToken",
              "type": "address"
            },
            {
              "internalType": "address",
              "name": "superToken",
              "type": "address"
            }
          ],
          "internalType": "struct SuperTokenFactoryBase.InitializeData[]",
          "name": "_data",
          "type": "tuple[]"
        }
      ],
      "name": "initializeCanonicalWrapperSuperTokens",
      "outputs": [],
      "stateMutability": "nonpayable",
      "type": "function"
    },
    {
      "inputs": [
        {
          "internalType": "address",
          "name": "customSuperTokenProxy",
          "type": "address"
        }
      ],
      "name": "initializeCustomSuperToken",
      "outputs": [],
      "stateMutability": "nonpayable",
      "type": "function"
    },
    {
      "inputs": [],
      "name": "proxiableUUID",
      "outputs": [
        {
          "internalType": "bytes32",
          "name": "",
          "type": "bytes32"
        }
      ],
      "stateMutability": "pure",
      "type": "function"
    },
    {
      "inputs": [
        {
          "internalType": "address",
          "name": "newAddress",
          "type": "address"
        }
      ],
      "name": "updateCode",
      "outputs": [],
      "stateMutability": "nonpayable",
      "type": "function"
    },
    {
      "inputs": [],
      "name": "validateStorageLayout",
      "outputs": [],
      "stateMutability": "pure",
      "type": "function"
    }
  ],
  "bytecode": "0x60a060405234801561001057600080fd5b50604051611d7d380380611d7d83398101604081905261002f91610040565b6001600160a01b0316608052610070565b60006020828403121561005257600080fd5b81516001600160a01b038116811461006957600080fd5b9392505050565b608051611cd66100a760003960008181610137015281816106ad0152818161080501528181610b2901526111730152611cd66000f3fe608060405234801561001057600080fd5b50600436106101005760003560e01c80639470a5b211610097578063bab74c8911610066578063bab74c891461021a578063d412d3441461024c578063eff0a89d1461025f578063f99a38c41461018157600080fd5b80639470a5b2146101d557806397e011ed146101ec5780639903ad38146101ff578063a6d0c5341461020757600080fd5b80634dcc4d79116100d35780634dcc4d791461018357806350d75d251461019757806352d1902d1461019f5780638129fc1c146101cd57600080fd5b8063151188dc1461010557806320bc442514610135578063431f14811461015b578063469519541461016e575b600080fd5b6101186101133660046112e0565b61028b565b6040516001600160a01b0390911681526020015b60405180910390f35b7f0000000000000000000000000000000000000000000000000000000000000000610118565b610118610169366004611361565b610625565b61018161017c3660046112e0565b6106a2565b005b6101186101913660046112e0565b50600090565b6101186106ff565b6040517fb146a22bc9644a3313a7e28592f37d32718a2b618d3d136aa524b0d86b87b620815260200161012c565b61018161072e565b6000546201000090046001600160a01b0316610118565b6101816101fa3660046113f4565b610801565b610181610a16565b610118610215366004611478565b610ad0565b61022d6102283660046112e0565b610d81565b604080516001600160a01b03909316835290151560208301520161012c565b61018161025a3660046112e0565b610e84565b61011861026d3660046112e0565b6001600160a01b039081166000908152600160205260409020541690565b600080805260016020527fa6eef7e35abe7026729641147f7915573c7e97b47efa546f5f6e3230263bcb49546001600160a01b03166102dd576040516306ce6e6d60e21b815260040160405180910390fd5b6001600160a01b038083166000908152600160205260409020548391168015610319576040516348eb3cb960e11b815260040160405180910390fd5b604080516001600160a01b038416602082015260009101604051602081830303815290604052805190602001209050600081604051610357906112b1565b8190604051809103906000f5905080158015610377573d6000803e3d6000fd5b506001600160a01b0385811660009081526001602052604080822080546001600160a01b03191685851690811790915591549051634a0687ef60e01b8152620100009091049092166004830152919250634a0687ef90602401600060405180830381600087803b1580156103ea57600080fd5b505af11580156103fe573d6000803e3d6000fd5b5050505060008190506000876001600160a01b031663313ce5676040518163ffffffff1660e01b8152600401602060405180830381865afa158015610447573d6000803e3d6000fd5b505050506040513d601f19601f8201168201806040525081019061046b919061151e565b90506000886001600160a01b03166306fdde036040518163ffffffff1660e01b8152600401600060405180830381865afa1580156104ad573d6000803e3d6000fd5b505050506040513d6000823e601f3d908101601f191682016040526104d59190810190611575565b90506000896001600160a01b03166395d89b416040518163ffffffff1660e01b8152600401600060405180830381865afa158015610517573d6000803e3d6000fd5b505050506040513d6000823e601f3d908101601f1916820160405261053f9190810190611575565b9050836001600160a01b03166342fe09808b85856040516020016105639190611617565b604051602081830303815290604052856040516020016105839190611645565b6040516020818303038152906040526040518563ffffffff1660e01b81526004016105b19493929190611696565b600060405180830381600087803b1580156105cb57600080fd5b505af11580156105df573d6000803e3d6000fd5b50506040516001600160a01b03871692507fb52c6d9d122e8c07769b96d7bb14e66db58ee03fdebaaa2f92547e9c7ef0e65f9150600090a2509198975050505050505050565b600061069787886001600160a01b031663313ce5676040518163ffffffff1660e01b8152600401602060405180830381865afa158015610669573d6000803e3d6000fd5b505050506040513d601f19601f8201168201806040525081019061068d919061151e565b8888888888610ad0565b979650505050505050565b336001600160a01b037f000000000000000000000000000000000000000000000000000000000000000016146106eb5760405163478b8e8360e01b815260040160405180910390fd5b6106f481610f22565b6106fc61115c565b50565b60006107297f360894a13ba1a3210667c828492db98dca3e2076cc3735a920a3ca505d382bbc5490565b905090565b600054610100900460ff161580801561074e5750600054600160ff909116105b806107685750303b158015610768575060005460ff166001145b61078d5760405162461bcd60e51b8152600401610784906116d5565b60405180910390fd5b6000805460ff1916600117905580156107b0576000805461ff0019166101001790555b6107b861115c565b80156106fc576000805461ff0019169055604051600181527f7f26b83ff96e1f2b6a682f133852f6798a09c465da95921460cefb3847402498906020015b60405180910390a150565b60007f00000000000000000000000000000000000000000000000000000000000000006001600160a01b031663289b3c0d6040518163ffffffff1660e01b8152600401602060405180830381865afa158015610861573d6000803e3d6000fd5b505050506040513d601f19601f820116820180604052508101906108859190611723565b9050806001600160a01b0316638da5cb5b6040518163ffffffff1660e01b8152600401602060405180830381865afa1580156108c5573d6000803e3d6000fd5b505050506040513d601f19601f820116820180604052508101906108e99190611723565b6001600160a01b0316336001600160a01b03161461091a57604051632bf2a63360e21b815260040160405180910390fd5b6000805260016020527fa6eef7e35abe7026729641147f7915573c7e97b47efa546f5f6e3230263bcb49546001600160a01b03161561096c576040516348eb3cb960e11b815260040160405180910390fd5b60005b82811015610a105783838281811061098957610989611740565b90506040020160200160208101906109a191906112e0565b600160008686858181106109b7576109b7611740565b6109cd92602060409092020190810191506112e0565b6001600160a01b039081168252602082019290925260400160002080546001600160a01b0319169290911691909117905580610a0881611756565b91505061096f565b50505050565b600054610100900460ff1615808015610a365750600054600160ff909116105b80610a505750303b158015610a50575060005460ff166001145b610a6c5760405162461bcd60e51b8152600401610784906116d5565b6000805460ff1916600117905580156107b8576000805461ff00191661010017905580156106fc576000805461ff0019169055604051600181527f7f26b83ff96e1f2b6a682f133852f6798a09c465da95921460cefb3847402498906020016107f6565b60006001600160a01b038816610af95760405163182e4f4160e11b815260040160405180910390fd5b6000866002811115610b0d57610b0d61177d565b03610ba357604051634dcc4d7960e01b81526001600160a01b037f00000000000000000000000000000000000000000000000000000000000000001660048201523090634dcc4d79906024016020604051808303816000875af1158015610b78573d6000803e3d6000fd5b505050506040513d601f19601f82011682018060405250810190610b9c9190611723565b9050610cdb565b6001866002811115610bb757610bb761177d565b03610c57576000604051610bca906112b1565b604051809103906000f080158015610be6573d6000803e3d6000fd5b50600054604051634a0687ef60e01b81526001600160a01b036201000090920482166004820152919250821690634a0687ef90602401600060405180830381600087803b158015610c3657600080fd5b505af1158015610c4a573d6000803e3d6000fd5b5050505080915050610cdb565b6000604051610c65906112be565b604051809103906000f080158015610c81573d6000803e3d6000fd5b509050806001600160a01b0316638129fc1c6040518163ffffffff1660e01b8152600401600060405180830381600087803b158015610cbf57600080fd5b505af1158015610cd3573d6000803e3d6000fd5b509293505050505b6040516285fc1360e71b81526001600160a01b038216906342fe098090610d10908b908b908a908a908a908a906004016117bc565b600060405180830381600087803b158015610d2a57600080fd5b505af1158015610d3e573d6000803e3d6000fd5b50506040516001600160a01b03841692507fb52c6d9d122e8c07769b96d7bb14e66db58ee03fdebaaa2f92547e9c7ef0e65f9150600090a2979650505050505050565b6001600160a01b0380821660009081526001602052604081205490918291168015610db25780925060019150610e7e565b600060405180602001610dc4906112b1565b601f1982820381018352601f9091011660408181526001600160a01b03881660208301529192506001600160f81b031991309101604051602081830303815290604052805190602001208380519060200120604051602001610e5d94939291906001600160f81b031994909416845260609290921b6bffffffffffffffffffffffff191660018401526015830152603582015260550190565b6040516020818303038152906040528051906020012060001c935060009250505b50915091565b600054604051634a0687ef60e01b81526001600160a01b0362010000909204821660048201528291821690634a0687ef90602401600060405180830381600087803b158015610ed257600080fd5b505af1158015610ee6573d6000803e3d6000fd5b50506040516001600160a01b03851692507f437790724a6e97b75d23117f28cdd4b1beeafc34f7a0911ef256e9334f4369a59150600090a25050565b6000610f4c7f360894a13ba1a3210667c828492db98dca3e2076cc3735a920a3ca505d382bbc5490565b6001600160a01b031603610fa25760405162461bcd60e51b815260206004820152601d60248201527f5555505350726f786961626c653a206e6f742075706772616461626c650000006044820152606401610784565b806001600160a01b03166352d1902d6040518163ffffffff1660e01b8152600401602060405180830381865afa158015610fe0573d6000803e3d6000fd5b505050506040513d601f19601f82011682018060405250810190611004919061180a565b7fb146a22bc9644a3313a7e28592f37d32718a2b618d3d136aa524b0d86b87b6201461107e5760405162461bcd60e51b815260206004820152602360248201527f5555505350726f786961626c653a206e6f7420636f6d70617469626c65206c6f60448201526267696360e81b6064820152608401610784565b6001600160a01b03811630036110d65760405162461bcd60e51b815260206004820152601960248201527f5555505350726f786961626c653a2070726f7879206c6f6f70000000000000006044820152606401610784565b6110fe817f360894a13ba1a3210667c828492db98dca3e2076cc3735a920a3ca505d382bbc55565b7fe011bc04c286c344a8fcbb8de77f953da762c3e25d8cdea984147fc4168a5dcc7fb146a22bc9644a3313a7e28592f37d32718a2b618d3d136aa524b0d86b87b620604080519182526001600160a01b0384166020830152016107f6565b604051634dcc4d7960e01b81526001600160a01b037f00000000000000000000000000000000000000000000000000000000000000001660048201523090634dcc4d79906024016020604051808303816000875af11580156111c2573d6000803e3d6000fd5b505050506040513d601f19601f820116820180604052508101906111e69190611723565b600060026101000a8154816001600160a01b0302191690836001600160a01b03160217905550600060029054906101000a90046001600160a01b03166001600160a01b0316639903ad386040518163ffffffff1660e01b8152600401600060405180830381600087803b15801561125c57600080fd5b505af1158015611270573d6000803e3d6000fd5b505060008054604051620100009091046001600160a01b031693507fc13fb19d60857980e565bf5dae406b8802d3c1cec50c6156b30b12b8740297839250a2565b61024a8061182483390190565b61023380611a6e83390190565b6001600160a01b03811681146106fc57600080fd5b6000602082840312156112f257600080fd5b81356112fd816112cb565b9392505050565b80356003811061131357600080fd5b919050565b60008083601f84011261132a57600080fd5b50813567ffffffffffffffff81111561134257600080fd5b60208301915083602082850101111561135a57600080fd5b9250929050565b6000806000806000806080878903121561137a57600080fd5b8635611385816112cb565b955061139360208801611304565b9450604087013567ffffffffffffffff808211156113b057600080fd5b6113bc8a838b01611318565b909650945060608901359150808211156113d557600080fd5b506113e289828a01611318565b979a9699509497509295939492505050565b6000806020838503121561140757600080fd5b823567ffffffffffffffff8082111561141f57600080fd5b818501915085601f83011261143357600080fd5b81358181111561144257600080fd5b8660208260061b850101111561145757600080fd5b60209290920196919550909350505050565b60ff811681146106fc57600080fd5b600080600080600080600060a0888a03121561149357600080fd5b873561149e816112cb565b965060208801356114ae81611469565b95506114bc60408901611304565b9450606088013567ffffffffffffffff808211156114d957600080fd5b6114e58b838c01611318565b909650945060808a01359150808211156114fe57600080fd5b5061150b8a828b01611318565b989b979a50959850939692959293505050565b60006020828403121561153057600080fd5b81516112fd81611469565b634e487b7160e01b600052604160045260246000fd5b60005b8381101561156c578181015183820152602001611554565b50506000910152565b60006020828403121561158757600080fd5b815167ffffffffffffffff8082111561159f57600080fd5b818401915084601f8301126115b357600080fd5b8151818111156115c5576115c561153b565b604051601f8201601f19908116603f011681019083821181831017156115ed576115ed61153b565b8160405282815287602084870101111561160657600080fd5b610697836020830160208801611551565b65029bab832b9160d51b815260008251611638816006850160208701611551565b9190910160060192915050565b60008251611657818460208701611551565b600f60fb1b920191825250600101919050565b60008151808452611682816020860160208601611551565b601f01601f19169290920160200192915050565b6001600160a01b038516815260ff841660208201526080604082018190526000906116c39083018561166a565b8281036060840152610697818561166a565b6020808252602e908201527f496e697469616c697a61626c653a20636f6e747261637420697320616c72656160408201526d191e481a5b9a5d1a585b1a5e995960921b606082015260800190565b60006020828403121561173557600080fd5b81516112fd816112cb565b634e487b7160e01b600052603260045260246000fd5b60006001820161177657634e487b7160e01b600052601160045260246000fd5b5060010190565b634e487b7160e01b600052602160045260246000fd5b81835281816020850137506000828201602090810191909152601f909101601f19169091010190565b6001600160a01b038716815260ff861660208201526080604082018190526000906117ea9083018688611793565b82810360608401526117fd818587611793565b9998505050505050505050565b60006020828403121561181c57600080fd5b505191905056fe608060405234801561001057600080fd5b5061022a806100206000396000f3fe6080604052600436106100225760003560e01c80634a0687ef1461003957610031565b366100315761002f610059565b005b61002f610059565b34801561004557600080fd5b5061002f6100543660046101c4565b61006b565b610069610064610171565b6101a0565b565b6001600160a01b0381166100c65760405162461bcd60e51b815260206004820152601760248201527f5555505350726f78793a207a65726f206164647265737300000000000000000060448201526064015b60405180910390fd5b60006100f07f360894a13ba1a3210667c828492db98dca3e2076cc3735a920a3ca505d382bbc5490565b6001600160a01b0316146101465760405162461bcd60e51b815260206004820152601e60248201527f5555505350726f78793a20616c726561647920696e697469616c697a6564000060448201526064016100bd565b61016e817f360894a13ba1a3210667c828492db98dca3e2076cc3735a920a3ca505d382bbc55565b50565b600061019b7f360894a13ba1a3210667c828492db98dca3e2076cc3735a920a3ca505d382bbc5490565b905090565b3660008037600080366000845af43d6000803e8080156101bf573d6000f35b3d6000fd5b6000602082840312156101d657600080fd5b81356001600160a01b03811681146101ed57600080fd5b939250505056fea26469706673582212209b58aa53d1a30f60f937a8ec6ab95e94f3b48e2e1cae54384ae904ce731e1a4e64736f6c63430008100033608060405234801561001057600080fd5b50610213806100206000396000f3fe6080604052600436106100225760003560e01c80638129fc1c1461003957610031565b366100315761002f61004e565b005b61002f61004e565b34801561004557600080fd5b5061002f610060565b61005e6100596100d0565b610173565b565b7fb8fcd5719b3ddf8626f3664705a89b7fc476129a58c1aa5eda57c600cc1821a0546001600160a01b038116156100aa576040516305c5d81960e01b815260040160405180910390fd5b50337fb8fcd5719b3ddf8626f3664705a89b7fc476129a58c1aa5eda57c600cc1821a055565b7fb8fcd5719b3ddf8626f3664705a89b7fc476129a58c1aa5eda57c600cc1821a0546000906001600160a01b03811661010b5761010b610197565b806001600160a01b0316639470a5b26040518163ffffffff1660e01b8152600401602060405180830381865afa158015610149573d6000803e3d6000fd5b505050506040513d601f19601f8201168201806040525081019061016d91906101ad565b91505090565b3660008037600080366000845af43d6000803e808015610192573d6000f35b3d6000fd5b634e487b7160e01b600052600160045260246000fd5b6000602082840312156101bf57600080fd5b81516001600160a01b03811681146101d657600080fd5b939250505056fea2646970667358221220a8b65c73e76c1cd1d055a1dcb94db8e993b101cd6795e0a31a71e054d0a9732464736f6c63430008100033a2646970667358221220eb256d3a03ab5114bb19084645d3ab7c5e4b07f9ca7f77ad4eb68edc647f106d64736f6c63430008100033",
  "linkReferences": {},
  "deployedLinkReferences": {}
}