{
  "_format": "hh-sol-artifact-1",
  "contractName": "SuperfluidUpgradabilityTester",
  "sourceName": "contracts/mocks/SuperfluidMock.sol",
  "abi": [
    {
      "inputs": [],
      "stateMutability": "nonpayable",
      "type": "constructor"
    },
    {
      "inputs": [
        {
          "internalType": "uint256",
          "name": "_code",
          "type": "uint256"
        }
      ],
      "name": "APP_RULE",
      "type": "error"
    },
    {
      "inputs": [],
      "name": "HOST_AGREEMENT_ALREADY_REGISTERED",
      "type": "error"
    },
    {
      "inputs": [],
      "name": "HOST_AGREEMENT_CALLBACK_IS_NOT_ACTION",
      "type": "error"
    },
    {
      "inputs": [],
      "name": "HOST_AGREEMENT_IS_NOT_REGISTERED",
      "type": "error"
    },
    {
      "inputs": [],
      "name": "HOST_CALL_AGREEMENT_WITH_CTX_FROM_WRONG_ADDRESS",
      "type": "error"
    },
    {
      "inputs": [],
      "name": "HOST_CALL_APP_ACTION_WITH_CTX_FROM_WRONG_ADDRESS",
      "type": "error"
    },
    {
      "inputs": [],
      "name": "HOST_CANNOT_DOWNGRADE_TO_NON_UPGRADEABLE",
      "type": "error"
    },
    {
      "inputs": [],
      "name": "HOST_INVALID_CONFIG_WORD",
      "type": "error"
    },
    {
      "inputs": [],
      "name": "HOST_INVALID_OR_EXPIRED_SUPER_APP_REGISTRATION_KEY",
      "type": "error"
    },
    {
      "inputs": [],
      "name": "HOST_MAX_256_AGREEMENTS",
      "type": "error"
    },
    {
      "inputs": [],
      "name": "HOST_MUST_BE_CONTRACT",
      "type": "error"
    },
    {
      "inputs": [],
      "name": "HOST_NON_UPGRADEABLE",
      "type": "error"
    },
    {
      "inputs": [],
      "name": "HOST_NON_ZERO_LENGTH_PLACEHOLDER_CTX",
      "type": "error"
    },
    {
      "inputs": [],
      "name": "HOST_NOT_A_SUPER_APP",
      "type": "error"
    },
    {
      "inputs": [],
      "name": "HOST_NO_APP_REGISTRATION_PERMISSIONS",
      "type": "error"
    },
    {
      "inputs": [],
      "name": "HOST_ONLY_GOVERNANCE",
      "type": "error"
    },
    {
      "inputs": [],
      "name": "HOST_ONLY_LISTED_AGREEMENT",
      "type": "error"
    },
    {
      "inputs": [],
      "name": "HOST_RECEIVER_IS_NOT_SUPER_APP",
      "type": "error"
    },
    {
      "inputs": [],
      "name": "HOST_SENDER_IS_NOT_SUPER_APP",
      "type": "error"
    },
    {
      "inputs": [],
      "name": "HOST_SOURCE_APP_NEEDS_HIGHER_APP_LEVEL",
      "type": "error"
    },
    {
      "inputs": [],
      "name": "HOST_SUPER_APP_ALREADY_REGISTERED",
      "type": "error"
    },
    {
      "inputs": [],
      "name": "HOST_SUPER_APP_IS_JAILED",
      "type": "error"
    },
    {
      "inputs": [],
      "name": "HOST_UNAUTHORIZED_SUPER_APP_FACTORY",
      "type": "error"
    },
    {
      "inputs": [],
      "name": "HOST_UNKNOWN_BATCH_CALL_OPERATION_TYPE",
      "type": "error"
    },
    {
      "anonymous": false,
      "inputs": [
        {
          "indexed": false,
          "internalType": "bytes32",
          "name": "agreementType",
          "type": "bytes32"
        },
        {
          "indexed": false,
          "internalType": "address",
          "name": "code",
          "type": "address"
        }
      ],
      "name": "AgreementClassRegistered",
      "type": "event"
    },
    {
      "anonymous": false,
      "inputs": [
        {
          "indexed": false,
          "internalType": "bytes32",
          "name": "agreementType",
          "type": "bytes32"
        },
        {
          "indexed": false,
          "internalType": "address",
          "name": "code",
          "type": "address"
        }
      ],
      "name": "AgreementClassUpdated",
      "type": "event"
    },
    {
      "anonymous": false,
      "inputs": [
        {
          "indexed": true,
          "internalType": "contract ISuperApp",
          "name": "app",
          "type": "address"
        }
      ],
      "name": "AppRegistered",
      "type": "event"
    },
    {
      "anonymous": false,
      "inputs": [
        {
          "indexed": false,
          "internalType": "bytes32",
          "name": "uuid",
          "type": "bytes32"
        },
        {
          "indexed": false,
          "internalType": "address",
          "name": "codeAddress",
          "type": "address"
        }
      ],
      "name": "CodeUpdated",
      "type": "event"
    },
    {
      "anonymous": false,
      "inputs": [
        {
          "indexed": false,
          "internalType": "contract ISuperfluidGovernance",
          "name": "oldGov",
          "type": "address"
        },
        {
          "indexed": false,
          "internalType": "contract ISuperfluidGovernance",
          "name": "newGov",
          "type": "address"
        }
      ],
      "name": "GovernanceReplaced",
      "type": "event"
    },
    {
      "anonymous": false,
      "inputs": [
        {
          "indexed": false,
          "internalType": "uint8",
          "name": "version",
          "type": "uint8"
        }
      ],
      "name": "Initialized",
      "type": "event"
    },
    {
      "anonymous": false,
      "inputs": [
        {
          "indexed": true,
          "internalType": "contract ISuperApp",
          "name": "app",
          "type": "address"
        },
        {
          "indexed": false,
          "internalType": "uint256",
          "name": "reason",
          "type": "uint256"
        }
      ],
      "name": "Jail",
      "type": "event"
    },
    {
      "anonymous": false,
      "inputs": [
        {
          "indexed": false,
          "internalType": "contract ISuperTokenFactory",
          "name": "newFactory",
          "type": "address"
        }
      ],
      "name": "SuperTokenFactoryUpdated",
      "type": "event"
    },
    {
      "anonymous": false,
      "inputs": [
        {
          "indexed": true,
          "internalType": "contract ISuperToken",
          "name": "token",
          "type": "address"
        },
        {
          "indexed": false,
          "internalType": "address",
          "name": "code",
          "type": "address"
        }
      ],
      "name": "SuperTokenLogicUpdated",
      "type": "event"
    },
    {
      "inputs": [],
      "name": "APP_WHITE_LISTING_ENABLED",
      "outputs": [
        {
          "internalType": "bool",
          "name": "",
          "type": "bool"
        }
      ],
      "stateMutability": "view",
      "type": "function"
    },
    {
      "inputs": [],
      "name": "CALLBACK_GAS_LIMIT",
      "outputs": [
        {
          "internalType": "uint64",
          "name": "",
          "type": "uint64"
        }
      ],
      "stateMutability": "view",
      "type": "function"
    },
    {
      "inputs": [],
      "name": "MAX_APP_CALLBACK_LEVEL",
      "outputs": [
        {
          "internalType": "uint256",
          "name": "",
          "type": "uint256"
        }
      ],
      "stateMutability": "view",
      "type": "function"
    },
    {
      "inputs": [],
      "name": "NON_UPGRADABLE_DEPLOYMENT",
      "outputs": [
        {
          "internalType": "bool",
          "name": "",
          "type": "bool"
        }
      ],
      "stateMutability": "view",
      "type": "function"
    },
    {
      "inputs": [
        {
          "internalType": "uint256",
          "name": "bitmap",
          "type": "uint256"
        },
        {
          "internalType": "bytes32",
          "name": "agreementType",
          "type": "bytes32"
        }
      ],
      "name": "addToAgreementClassesBitmap",
      "outputs": [
        {
          "internalType": "uint256",
          "name": "newBitmap",
          "type": "uint256"
        }
      ],
      "stateMutability": "view",
      "type": "function"
    },
    {
      "inputs": [
        {
          "internalType": "contract ISuperApp",
          "name": "targetApp",
          "type": "address"
        }
      ],
      "name": "allowCompositeApp",
      "outputs": [],
      "stateMutability": "nonpayable",
      "type": "function"
    },
    {
      "inputs": [
        {
          "internalType": "bytes",
          "name": "ctx",
          "type": "bytes"
        },
        {
          "internalType": "int256",
          "name": "appCreditUsedDelta",
          "type": "int256"
        }
      ],
      "name": "appCallbackPop",
      "outputs": [
        {
          "internalType": "bytes",
          "name": "newCtx",
          "type": "bytes"
        }
      ],
      "stateMutability": "nonpayable",
      "type": "function"
    },
    {
      "inputs": [
        {
          "internalType": "bytes",
          "name": "ctx",
          "type": "bytes"
        },
        {
          "internalType": "contract ISuperApp",
          "name": "app",
          "type": "address"
        },
        {
          "internalType": "uint256",
          "name": "appCreditGranted",
          "type": "uint256"
        },
        {
          "internalType": "int256",
          "name": "appCreditUsed",
          "type": "int256"
        },
        {
          "internalType": "contract ISuperfluidToken",
          "name": "appCreditToken",
          "type": "address"
        }
      ],
      "name": "appCallbackPush",
      "outputs": [
        {
          "internalType": "bytes",
          "name": "appCtx",
          "type": "bytes"
        }
      ],
      "stateMutability": "nonpayable",
      "type": "function"
    },
    {
      "inputs": [
        {
          "components": [
            {
              "internalType": "uint32",
              "name": "operationType",
              "type": "uint32"
            },
            {
              "internalType": "address",
              "name": "target",
              "type": "address"
            },
            {
              "internalType": "bytes",
              "name": "data",
              "type": "bytes"
            }
          ],
          "internalType": "struct ISuperfluid.Operation[]",
          "name": "operations",
          "type": "tuple[]"
        }
      ],
      "name": "batchCall",
      "outputs": [],
      "stateMutability": "nonpayable",
      "type": "function"
    },
    {
      "inputs": [
        {
          "internalType": "contract ISuperAgreement",
          "name": "agreementClass",
          "type": "address"
        },
        {
          "internalType": "bytes",
          "name": "callData",
          "type": "bytes"
        },
        {
          "internalType": "bytes",
          "name": "userData",
          "type": "bytes"
        }
      ],
      "name": "callAgreement",
      "outputs": [
        {
          "internalType": "bytes",
          "name": "returnedData",
          "type": "bytes"
        }
      ],
      "stateMutability": "nonpayable",
      "type": "function"
    },
    {
      "inputs": [
        {
          "internalType": "contract ISuperAgreement",
          "name": "agreementClass",
          "type": "address"
        },
        {
          "internalType": "bytes",
          "name": "callData",
          "type": "bytes"
        },
        {
          "internalType": "bytes",
          "name": "userData",
          "type": "bytes"
        },
        {
          "internalType": "bytes",
          "name": "ctx",
          "type": "bytes"
        }
      ],
      "name": "callAgreementWithContext",
      "outputs": [
        {
          "internalType": "bytes",
          "name": "newCtx",
          "type": "bytes"
        },
        {
          "internalType": "bytes",
          "name": "returnedData",
          "type": "bytes"
        }
      ],
      "stateMutability": "nonpayable",
      "type": "function"
    },
    {
      "inputs": [
        {
          "internalType": "contract ISuperApp",
          "name": "app",
          "type": "address"
        },
        {
          "internalType": "bytes",
          "name": "callData",
          "type": "bytes"
        }
      ],
      "name": "callAppAction",
      "outputs": [
        {
          "internalType": "bytes",
          "name": "returnedData",
          "type": "bytes"
        }
      ],
      "stateMutability": "nonpayable",
      "type": "function"
    },
    {
      "inputs": [
        {
          "internalType": "contract ISuperApp",
          "name": "app",
          "type": "address"
        },
        {
          "internalType": "bytes",
          "name": "callData",
          "type": "bytes"
        },
        {
          "internalType": "bytes",
          "name": "ctx",
          "type": "bytes"
        }
      ],
      "name": "callAppActionWithContext",
      "outputs": [
        {
          "internalType": "bytes",
          "name": "newCtx",
          "type": "bytes"
        }
      ],
      "stateMutability": "nonpayable",
      "type": "function"
    },
    {
      "inputs": [
        {
          "internalType": "contract ISuperApp",
          "name": "app",
          "type": "address"
        },
        {
          "internalType": "bytes",
          "name": "callData",
          "type": "bytes"
        },
        {
          "internalType": "bool",
          "name": "isTermination",
          "type": "bool"
        },
        {
          "internalType": "bytes",
          "name": "ctx",
          "type": "bytes"
        }
      ],
      "name": "callAppAfterCallback",
      "outputs": [
        {
          "internalType": "bytes",
          "name": "newCtx",
          "type": "bytes"
        }
      ],
      "stateMutability": "nonpayable",
      "type": "function"
    },
    {
      "inputs": [
        {
          "internalType": "contract ISuperApp",
          "name": "app",
          "type": "address"
        },
        {
          "internalType": "bytes",
          "name": "callData",
          "type": "bytes"
        },
        {
          "internalType": "bool",
          "name": "isTermination",
          "type": "bool"
        },
        {
          "internalType": "bytes",
          "name": "ctx",
          "type": "bytes"
        }
      ],
      "name": "callAppBeforeCallback",
      "outputs": [
        {
          "internalType": "bytes",
          "name": "cbdata",
          "type": "bytes"
        }
      ],
      "stateMutability": "nonpayable",
      "type": "function"
    },
    {
      "inputs": [],
      "name": "castrate",
      "outputs": [],
      "stateMutability": "nonpayable",
      "type": "function"
    },
    {
      "inputs": [
        {
          "internalType": "bytes",
          "name": "ctx",
          "type": "bytes"
        },
        {
          "internalType": "int256",
          "name": "appCreditUsedMore",
          "type": "int256"
        }
      ],
      "name": "ctxUseCredit",
      "outputs": [
        {
          "internalType": "bytes",
          "name": "newCtx",
          "type": "bytes"
        }
      ],
      "stateMutability": "nonpayable",
      "type": "function"
    },
    {
      "inputs": [
        {
          "internalType": "bytes",
          "name": "ctx",
          "type": "bytes"
        }
      ],
      "name": "decodeCtx",
      "outputs": [
        {
          "components": [
            {
              "internalType": "uint8",
              "name": "appCallbackLevel",
              "type": "uint8"
            },
            {
              "internalType": "uint8",
              "name": "callType",
              "type": "uint8"
            },
            {
              "internalType": "uint256",
              "name": "timestamp",
              "type": "uint256"
            },
            {
              "internalType": "address",
              "name": "msgSender",
              "type": "address"
            },
            {
              "internalType": "bytes4",
              "name": "agreementSelector",
              "type": "bytes4"
            },
            {
              "internalType": "bytes",
              "name": "userData",
              "type": "bytes"
            },
            {
              "internalType": "uint256",
              "name": "appCreditGranted",
              "type": "uint256"
            },
            {
              "internalType": "uint256",
              "name": "appCreditWantedDeprecated",
              "type": "uint256"
            },
            {
              "internalType": "int256",
              "name": "appCreditUsed",
              "type": "int256"
            },
            {
              "internalType": "address",
              "name": "appAddress",
              "type": "address"
            },
            {
              "internalType": "contract ISuperfluidToken",
              "name": "appCreditToken",
              "type": "address"
            }
          ],
          "internalType": "struct ISuperfluid.Context",
          "name": "context",
          "type": "tuple"
        }
      ],
      "stateMutability": "pure",
      "type": "function"
    },
    {
      "inputs": [
        {
          "components": [
            {
              "internalType": "uint32",
              "name": "operationType",
              "type": "uint32"
            },
            {
              "internalType": "address",
              "name": "target",
              "type": "address"
            },
            {
              "internalType": "bytes",
              "name": "data",
              "type": "bytes"
            }
          ],
          "internalType": "struct ISuperfluid.Operation[]",
          "name": "operations",
          "type": "tuple[]"
        }
      ],
      "name": "forwardBatchCall",
      "outputs": [],
      "stateMutability": "nonpayable",
      "type": "function"
    },
    {
      "inputs": [
        {
          "internalType": "bytes32",
          "name": "agreementType",
          "type": "bytes32"
        }
      ],
      "name": "getAgreementClass",
      "outputs": [
        {
          "internalType": "contract ISuperAgreement",
          "name": "agreementClass",
          "type": "address"
        }
      ],
      "stateMutability": "view",
      "type": "function"
    },
    {
      "inputs": [
        {
          "internalType": "contract ISuperApp",
          "name": "appAddr",
          "type": "address"
        }
      ],
      "name": "getAppCallbackLevel",
      "outputs": [
        {
          "internalType": "uint8",
          "name": "",
          "type": "uint8"
        }
      ],
      "stateMutability": "view",
      "type": "function"
    },
    {
      "inputs": [
        {
          "internalType": "contract ISuperApp",
          "name": "app",
          "type": "address"
        }
      ],
      "name": "getAppManifest",
      "outputs": [
        {
          "internalType": "bool",
          "name": "isSuperApp",
          "type": "bool"
        },
        {
          "internalType": "bool",
          "name": "isJailed",
          "type": "bool"
        },
        {
          "internalType": "uint256",
          "name": "noopMask",
          "type": "uint256"
        }
      ],
      "stateMutability": "view",
      "type": "function"
    },
    {
      "inputs": [],
      "name": "getCodeAddress",
      "outputs": [
        {
          "internalType": "address",
          "name": "codeAddress",
          "type": "address"
        }
      ],
      "stateMutability": "view",
      "type": "function"
    },
    {
      "inputs": [],
      "name": "getGovernance",
      "outputs": [
        {
          "internalType": "contract ISuperfluidGovernance",
          "name": "",
          "type": "address"
        }
      ],
      "stateMutability": "view",
      "type": "function"
    },
    {
      "inputs": [],
      "name": "getNow",
      "outputs": [
        {
          "internalType": "uint256",
          "name": "",
          "type": "uint256"
        }
      ],
      "stateMutability": "view",
      "type": "function"
    },
    {
      "inputs": [],
      "name": "getSuperTokenFactory",
      "outputs": [
        {
          "internalType": "contract ISuperTokenFactory",
          "name": "factory",
          "type": "address"
        }
      ],
      "stateMutability": "view",
      "type": "function"
    },
    {
      "inputs": [],
      "name": "getSuperTokenFactoryLogic",
      "outputs": [
        {
          "internalType": "address",
          "name": "logic",
          "type": "address"
        }
      ],
      "stateMutability": "view",
      "type": "function"
    },
    {
      "inputs": [
        {
          "internalType": "contract ISuperfluidGovernance",
          "name": "gov",
          "type": "address"
        }
      ],
      "name": "initialize",
      "outputs": [],
      "stateMutability": "nonpayable",
      "type": "function"
    },
    {
      "inputs": [
        {
          "internalType": "contract ISuperAgreement",
          "name": "agreementClass",
          "type": "address"
        }
      ],
      "name": "isAgreementClassListed",
      "outputs": [
        {
          "internalType": "bool",
          "name": "yes",
          "type": "bool"
        }
      ],
      "stateMutability": "view",
      "type": "function"
    },
    {
      "inputs": [
        {
          "internalType": "bytes32",
          "name": "agreementType",
          "type": "bytes32"
        }
      ],
      "name": "isAgreementTypeListed",
      "outputs": [
        {
          "internalType": "bool",
          "name": "yes",
          "type": "bool"
        }
      ],
      "stateMutability": "view",
      "type": "function"
    },
    {
      "inputs": [
        {
          "internalType": "contract ISuperApp",
          "name": "app",
          "type": "address"
        }
      ],
      "name": "isApp",
      "outputs": [
        {
          "internalType": "bool",
          "name": "",
          "type": "bool"
        }
      ],
      "stateMutability": "view",
      "type": "function"
    },
    {
      "inputs": [
        {
          "internalType": "contract ISuperApp",
          "name": "app",
          "type": "address"
        }
      ],
      "name": "isAppJailed",
      "outputs": [
        {
          "internalType": "bool",
          "name": "",
          "type": "bool"
        }
      ],
      "stateMutability": "view",
      "type": "function"
    },
    {
      "inputs": [
        {
          "internalType": "contract ISuperApp",
          "name": "app",
          "type": "address"
        },
        {
          "internalType": "contract ISuperApp",
          "name": "targetApp",
          "type": "address"
        }
      ],
      "name": "isCompositeAppAllowed",
      "outputs": [
        {
          "internalType": "bool",
          "name": "",
          "type": "bool"
        }
      ],
      "stateMutability": "view",
      "type": "function"
    },
    {
      "inputs": [
        {
          "internalType": "bytes",
          "name": "ctx",
          "type": "bytes"
        }
      ],
      "name": "isCtxValid",
      "outputs": [
        {
          "internalType": "bool",
          "name": "",
          "type": "bool"
        }
      ],
      "stateMutability": "view",
      "type": "function"
    },
    {
      "inputs": [
        {
          "internalType": "address",
          "name": "forwarder",
          "type": "address"
        }
      ],
      "name": "isTrustedForwarder",
      "outputs": [
        {
          "internalType": "bool",
          "name": "",
          "type": "bool"
        }
      ],
      "stateMutability": "view",
      "type": "function"
    },
    {
      "inputs": [
        {
          "internalType": "bytes",
          "name": "ctx",
          "type": "bytes"
        },
        {
          "internalType": "contract ISuperApp",
          "name": "app",
          "type": "address"
        },
        {
          "internalType": "uint256",
          "name": "reason",
          "type": "uint256"
        }
      ],
      "name": "jailApp",
      "outputs": [
        {
          "internalType": "bytes",
          "name": "newCtx",
          "type": "bytes"
        }
      ],
      "stateMutability": "nonpayable",
      "type": "function"
    },
    {
      "inputs": [
        {
          "internalType": "uint256",
          "name": "bitmap",
          "type": "uint256"
        }
      ],
      "name": "mapAgreementClasses",
      "outputs": [
        {
          "internalType": "contract ISuperAgreement[]",
          "name": "agreementClasses",
          "type": "address[]"
        }
      ],
      "stateMutability": "view",
      "type": "function"
    },
    {
      "inputs": [],
      "name": "proxiableUUID",
      "outputs": [
        {
          "internalType": "bytes32",
          "name": "",
          "type": "bytes32"
        }
      ],
      "stateMutability": "pure",
      "type": "function"
    },
    {
      "inputs": [
        {
          "internalType": "contract ISuperAgreement",
          "name": "agreementClassLogic",
          "type": "address"
        }
      ],
      "name": "registerAgreementClass",
      "outputs": [],
      "stateMutability": "nonpayable",
      "type": "function"
    },
    {
      "inputs": [
        {
          "internalType": "uint256",
          "name": "configWord",
          "type": "uint256"
        }
      ],
      "name": "registerApp",
      "outputs": [],
      "stateMutability": "nonpayable",
      "type": "function"
    },
    {
      "inputs": [
        {
          "internalType": "contract ISuperApp",
          "name": "app",
          "type": "address"
        },
        {
          "internalType": "uint256",
          "name": "configWord",
          "type": "uint256"
        }
      ],
      "name": "registerAppByFactory",
      "outputs": [],
      "stateMutability": "nonpayable",
      "type": "function"
    },
    {
      "inputs": [
        {
          "internalType": "uint256",
          "name": "configWord",
          "type": "uint256"
        },
        {
          "internalType": "string",
          "name": "registrationKey",
          "type": "string"
        }
      ],
      "name": "registerAppWithKey",
      "outputs": [],
      "stateMutability": "nonpayable",
      "type": "function"
    },
    {
      "inputs": [
        {
          "internalType": "uint256",
          "name": "bitmap",
          "type": "uint256"
        },
        {
          "internalType": "bytes32",
          "name": "agreementType",
          "type": "bytes32"
        }
      ],
      "name": "removeFromAgreementClassesBitmap",
      "outputs": [
        {
          "internalType": "uint256",
          "name": "newBitmap",
          "type": "uint256"
        }
      ],
      "stateMutability": "view",
      "type": "function"
    },
    {
      "inputs": [
        {
          "internalType": "contract ISuperfluidGovernance",
          "name": "newGov",
          "type": "address"
        }
      ],
      "name": "replaceGovernance",
      "outputs": [],
      "stateMutability": "nonpayable",
      "type": "function"
    },
    {
      "inputs": [
        {
          "internalType": "contract ISuperAgreement",
          "name": "agreementClassLogic",
          "type": "address"
        }
      ],
      "name": "updateAgreementClass",
      "outputs": [],
      "stateMutability": "nonpayable",
      "type": "function"
    },
    {
      "inputs": [
        {
          "internalType": "address",
          "name": "newAddress",
          "type": "address"
        }
      ],
      "name": "updateCode",
      "outputs": [],
      "stateMutability": "nonpayable",
      "type": "function"
    },
    {
      "inputs": [
        {
          "internalType": "contract ISuperTokenFactory",
          "name": "newFactory",
          "type": "address"
        }
      ],
      "name": "updateSuperTokenFactory",
      "outputs": [],
      "stateMutability": "nonpayable",
      "type": "function"
    },
    {
      "inputs": [
        {
          "internalType": "contract ISuperToken",
          "name": "token",
          "type": "address"
        }
      ],
      "name": "updateSuperTokenLogic",
      "outputs": [],
      "stateMutability": "nonpayable",
      "type": "function"
    },
    {
      "inputs": [],
      "name": "validateContextStructLayout",
      "outputs": [],
      "stateMutability": "pure",
      "type": "function"
    },
    {
      "inputs": [],
      "name": "validateStorageLayout",
      "outputs": [],
      "stateMutability": "pure",
      "type": "function"
    },
    {
      "inputs": [],
      "name": "versionRecipient",
      "outputs": [
        {
          "internalType": "string",
          "name": "",
          "type": "string"
        }
      ],
      "stateMutability": "pure",
      "type": "function"
    }
  ],
  "bytecode": "0x60c060405234801561001057600080fd5b506000608081905260a08190528061513e61007b8239600081816105d901528181611de8015281816122bb01526126cf015260008181610715015281816107df01528181610a7001528181611098015281816111d30152818161133201526125fd015261513e6000f3fe608060405234801561001057600080fd5b50600436106102f15760003560e01c8063787afde71161019d578063bced3ddc116100e9578063cd312ec4116100a2578063f37330521161007c578063f373305214610761578063f99a38c414610309578063f9f522f414610774578063fbdb0ee2146107a457600080fd5b8063cd312ec414610710578063e8dccb7d14610737578063f2e55caf1461075957600080fd5b8063bced3ddc1461069c578063bd1c448b146106af578063bd3252c8146106c2578063bf428734146106ca578063c4d66de8146106dd578063c56a069d146106f057600080fd5b8063a5dbbbcd11610156578063b724211e11610130578063b724211e14610634578063ba48b5f814610647578063bb84cfa11461065a578063bbe4fd501461069657600080fd5b8063a5dbbbcd146105fb578063ad3915c81461060e578063b6d200de1461062157600080fd5b8063787afde71461056e5780638ca48484146105815780639378fa1314610594578063989b0c3e146105b95780639903ad38146105cc5780639d297e30146105d457600080fd5b806350d75d251161025c578063670e77e3116102155780637283100c116101ef5780637283100c14610524578063731aed6e1461053757806374041e0214610548578063768fabb01461055b57600080fd5b8063670e77e3146104eb5780636ad3ca7d146104fe5780636b4f33351461051157600080fd5b806350d75d251461046757806352d1902d1461046f57806354fbc4931461049f57806357121e0c146104b2578063572b6c05146104c557806359a29141146104d857600080fd5b806339255d5b116102ae57806339255d5b146103a75780633ca3ad4e146103ba5780633f6c923a146103f55780634329d293146104155780634695195414610436578063486ff0cd1461044957600080fd5b806306cecba8146102f657806315a024e11461030b5780631e6d0a841461031e5780631e855cf314610347578063289b3c0d1461035a57806333d608f114610385575b600080fd5b610309610304366004614005565b6107ac565b005b610309610319366004614005565b610983565b61033161032c36600461407f565b610bd3565b60405161033e9190614165565b60405180910390f35b61033161035536600461423b565b610e1f565b6000546201000090046001600160a01b03165b6040516001600160a01b03909116815260200161033e565b61038f622dc6c081565b6040516001600160401b03909116815260200161033e565b6103316103b536600461428a565b610e35565b6103e56103c8366004614005565b6001600160a01b0316600090815260046020526040902054151590565b604051901515815260200161033e565b6104086104033660046142ff565b610e4b565b60405161033e9190614333565b610428610423366004614414565b610e5c565b60405161033e9291906144c0565b610309610444366004614005565b611065565b604080518082019091526002815261763160f01b6020820152610331565b61036d611161565b7fcd355cae2c435f8c5e0c626c4691d22fd85aa7422a424c6f0bced6e64c7aba745b60405190815260200161033e565b6103096104ad366004614005565b611190565b6103096104c0366004614005565b611413565b6103e56104d3366004614005565b6114e1565b6103316104e63660046144e5565b61156b565b6103096104f9366004614530565b61164d565b61030961050c366004614530565b611663565b6103e561051f366004614005565b61166e565b610309610532366004614005565b611692565b6003546001600160a01b031661036d565b61033161055636600461407f565b61173a565b6103316105693660046145a4565b611889565b61030961057c366004614005565b611a25565b6103e561058f366004614005565b611b68565b6105a76105a2366004614005565b611c2d565b60405160ff909116815260200161033e565b6103316105c73660046144e5565b611c4e565b610309611ce1565b6103e57f000000000000000000000000000000000000000000000000000000000000000081565b61049161060936600461461f565b611d9c565b61030961061c366004614641565b611de6565b61036d61062f366004614641565b611e31565b61033161064236600461465a565b611e98565b6103316106553660046146b6565b611f59565b6103e5610668366004614738565b6001600160a01b03918216600090815260056020908152604080832093909416825291909152205460ff1690565b42610491565b6104916106aa36600461461f565b612270565b6103096106bd366004614771565b6122b9565b610491600181565b6103e56106d83660046147bc565b6123d1565b6103096106eb366004614005565b612412565b6107036106fe366004614641565b6124f6565b60405161033e91906147fd565b6103e57f000000000000000000000000000000000000000000000000000000000000000081565b6103e5610745366004614641565b600090815260026020526040902054151590565b61036d6125e0565b61030961076f36600461484a565b6126a8565b610787610782366004614005565b6127b0565b60408051931515845291151560208401529082015260600161033e565b6103096127ff565b6000546201000090046001600160a01b031633146107dd576040516362e9152760e11b815260040160405180910390fd5b7f00000000000000000000000000000000000000000000000000000000000000001561081c576040516314f72c9f60e01b815260040160405180910390fd5b6000816001600160a01b0316637730599e6040518163ffffffff1660e01b8152600401602060405180830381865afa15801561085c573d6000803e3d6000fd5b505050506040513d601f19601f820116820180604052508101906108809190614876565b6000818152600260205260408120549192508190036108b257604051630e4f4df560e11b815260040160405180910390fd5b600060016108c081846148a5565b815481106108d0576108d06148b8565b6000918252602090912001546040516311a5465560e21b81526001600160a01b03868116600483015290911691508190634695195490602401600060405180830381600087803b15801561092357600080fd5b505af1158015610937573d6000803e3d6000fd5b5050604080518681526001600160a01b03881660208201527f9279aa773f2b588996032d8de89911555039f28b13a11a7c17074330bc082d9a935001905060405180910390a150505050565b6000546201000090046001600160a01b031633146109b4576040516362e9152760e11b815260040160405180910390fd5b6000816001600160a01b0316637730599e6040518163ffffffff1660e01b8152600401602060405180830381865afa1580156109f4573d6000803e3d6000fd5b505050506040513d601f19601f82011682018060405250810190610a189190614876565b60008181526002602052604090205490915015610a4857604051631b93bb7560e31b815260040160405180910390fd5b60015461010011610a6c57604051630f85034f60e31b815260040160405180910390fd5b60007f0000000000000000000000000000000000000000000000000000000000000000610b26576000604051610aa190613f88565b604051809103906000f080158015610abd573d6000803e3d6000fd5b50604051634a0687ef60e01b81526001600160a01b03868116600483015291925090821690634a0687ef90602401600060405180830381600087803b158015610b0557600080fd5b505af1158015610b19573d6000803e3d6000fd5b5050505080915050610b29565b50815b6001805480820182557fb10e2d527612073b26eecdfd717e6a320cf44b4afac2b0732d9fcbe2b7fa0cf60180546001600160a01b0384166001600160a01b0319909116179055546000838152600260205260409081902091909155517f878135063a6cfb3bc333e534b1fdc83f4f12221cad6705c31c0567048a8bd3d190610bc690849086909182526001600160a01b0316602082015260400190565b60405180910390a1505050565b6060610bde33611b68565b610bfb5760405163619c535960e01b815260040160405180910390fd5b82828080601f016020809104026020016040519081016040528093929190818152602001838380828437600092019190915250610c3d92508391506129789050565b610c4957610c496148ce565b600080610cc38a6000898c8c8080601f01602080910402602001604051908101604052809392919081815260200183838082843760009201919091525050604080516020601f8f018190048102820181019092528d815292508d91508c908190840183828082843760009201919091525061299892505050565b915091508115610dd857610cd681612b25565b15610d705780806020019051810190610cef9190614929565b9350610cfa84612978565b610d6b5786610d245760405163a85ba64f60e01b8152601460048201526024015b60405180910390fd5b85858080601f016020809104026020016040519081016040528093929190818152602001838380828437600092019190915250929650610d6b92508c915060149050612b79565b610e12565b86610d915760405163a85ba64f60e01b815260166004820152602401610d1b565b85858080601f016020809104026020016040519081016040528093929190818152602001838380828437600092019190915250929650610d6b92508c915060169050612b79565b85858080601f0160208091040260200160405190810160405280939291908181526020018383808284376000920191909152509296505050505b5050509695505050505050565b6060610e2c338484612bee565b90505b92915050565b6060610e4333858585612e29565b949350505050565b610e53613f95565b610e2f82612f38565b60608083838080601f016020809104026020016040519081016040528093929190818152602001838380828437600092019190915250610ea192508391506129789050565b610ec15760405163a85ba64f60e01b815260146004820152602401610d1b565b89610ecb81611b68565b610ee85760405163619c535960e01b815260040160405180910390fd5b6000610f2987878080601f016020809104026020016040519081016040528093929190818152602001838380828437600092019190915250610e4b92505050565b6101208101519091506001600160a01b03163314610f5a5760405163066875e160e11b815260040160405180910390fd5b60608101805133909152604080516020601f8c018190048102820181019092528a8152908b908b908190840183828082843760009201919091525050505060a0830152610fa682613003565b95506000610fec8e8e8e8080601f0160208091040260200160405190810160405280939291908181526020018383808284376000920191909152508c9250613137915050565b96509050801561104b578580602001905181019061100a9190614929565b965061101587612978565b611021576110216148ce565b61102a87610e4b565b6001600160a01b0383166060820152925061104483613003565b9650611054565b611054866131f0565b505050505097509795505050505050565b6000546201000090046001600160a01b03163314611096576040516362e9152760e11b815260040160405180910390fd5b7f0000000000000000000000000000000000000000000000000000000000000000156110d5576040516314f72c9f60e01b815260040160405180910390fd5b806001600160a01b031663cd312ec46040518163ffffffff1660e01b8152600401602060405180830381865afa158015611113573d6000803e3d6000fd5b505050506040513d601f19601f82011682018060405250810190611137919061495d565b156111555760405163474e764160e01b815260040160405180910390fd5b61115e816132fb565b50565b600061118b7f360894a13ba1a3210667c828492db98dca3e2076cc3735a920a3ca505d382bbc5490565b905090565b6000546201000090046001600160a01b031633146111c1576040516362e9152760e11b815260040160405180910390fd5b6003546001600160a01b0316611330577f00000000000000000000000000000000000000000000000000000000000000006112a757600060405161120490613f88565b604051809103906000f080158015611220573d6000803e3d6000fd5b50604051634a0687ef60e01b81526001600160a01b03848116600483015291925090821690634a0687ef90602401600060405180830381600087803b15801561126857600080fd5b505af115801561127c573d6000803e3d6000fd5b5050600380546001600160a01b0319166001600160a01b039490941693909317909255506112c39050565b600380546001600160a01b0319166001600160a01b0383161790555b600360009054906101000a90046001600160a01b03166001600160a01b0316638129fc1c6040518163ffffffff1660e01b8152600401600060405180830381600087803b15801561131357600080fd5b505af1158015611327573d6000803e3d6000fd5b505050506113cf565b7f00000000000000000000000000000000000000000000000000000000000000001561136f576040516314f72c9f60e01b815260040160405180910390fd5b6003546040516311a5465560e21b81526001600160a01b03838116600483015290911690634695195490602401600060405180830381600087803b1580156113b657600080fd5b505af11580156113ca573d6000803e3d6000fd5b505050505b6003546040516001600160a01b0390911681527fce13a9895a1719ad4493b2ac1a9bfb36070566161abab408e7ecbe586da8d499906020015b60405180910390a150565b33600081815260046020526040902054611440576040516302eb3f7160e61b815260040160405180910390fd5b6001600160a01b03821660009081526004602052604090205461147657604051634b5518af60e11b815260040160405180910390fd5b61147f82611c2d565b60ff1661148b82611c2d565b60ff16116114ac57604051630447252760e41b815260040160405180910390fd5b6001600160a01b039081166000908152600560209081526040808320949093168252929092529020805460ff19166001179055565b600080546201000090046001600160a01b03166380f70cba308361150486613535565b6040518463ffffffff1660e01b81526004016115229392919061497a565b602060405180830381865afa15801561153f573d6000803e3d6000fd5b505050506040513d601f19601f820116820180604052508101906115639190614876565b151592915050565b606061157633611b68565b6115935760405163619c535960e01b815260040160405180910390fd5b83838080601f0160208091040260200160405190810160405280939291908181526020018383808284376000920191909152506115d592508391506129789050565b6115e1576115e16148ce565b600061162286868080601f016020809104026020016040519081016040528093929190818152602001838380828437600092019190915250610e4b92505050565b9050838161010001818151611637919061499e565b90525061164381613003565b9695505050505050565b61165f6116586135bd565b8383613625565b5050565b61165f338383613625565b6001600160a01b038116600090815260046020526040812054618000161515610e2f565b6000546201000090046001600160a01b031633146116c3576040516362e9152760e11b815260040160405180910390fd5b600054604080516001600160a01b03620100009093048316815291831660208301527f13abda02e63c790d0e2818b251282cfe5cbe0a8abd69c54bf5d2260c0907bd2e910160405180910390a1600080546001600160a01b03909216620100000262010000600160b01b0319909216919091179055565b606061174533611b68565b6117625760405163619c535960e01b815260040160405180910390fd5b82828080601f0160208091040260200160405190810160405280939291908181526020018383808284376000920191909152506117a492508391506129789050565b6117b0576117b06148ce565b60008061182a8a6001898c8c8080601f01602080910402602001604051908101604052809392919081815260200183838082843760009201919091525050604080516020601f8f018190048102820181019092528d815292508d91508c908190840183828082843760009201919091525061299892505050565b915091508115610e125761183d81612b25565b1561185d57808060200190518101906118569190614929565b9350610e12565b8661187e5760405163a85ba64f60e01b815260166004820152602401610d1b565b610e128a6016612b79565b606061189433611b68565b6118b15760405163619c535960e01b815260040160405180910390fd5b86868080601f0160208091040260200160405190810160405280939291908181526020018383808284376000920191909152506118f392508391506129789050565b6118ff576118ff6148ce565b600061194089898080601f016020809104026020016040519081016040528093929190818152602001838380828437600092019190915250610e4b92505050565b905061196781606001516001600160a01b0316600090815260046020526040902054151590565b801561197b57506001816000015160ff1610155b156119ce5760608101516001600160a01b039081166000908152600560209081526040808320938b168352929052205460ff166119ce5760405163a85ba64f60e01b8152601e6004820152602401610d1b565b8051816119da826149c6565b60ff169052506003602082015260c0810186905261010081018590526001600160a01b038088166101208301528416610140820152611a1881613003565b9998505050505050505050565b6000546201000090046001600160a01b03163314611a56576040516362e9152760e11b815260040160405180910390fd5b60035460408051634a3852d960e11b815290516000926001600160a01b031691639470a5b29160048083019260209291908290030181865afa158015611aa0573d6000803e3d6000fd5b505050506040513d601f19601f82011682018060405250810190611ac491906149e5565b6040516311a5465560e21b81526001600160a01b03808316600483015291925090831690634695195490602401600060405180830381600087803b158015611b0b57600080fd5b505af1158015611b1f573d6000803e3d6000fd5b50506040516001600160a01b038481168252851692507f840acbd291b38534819f47f875839277e502f40e1c7bfea2c5fc2c8017442cd391506020015b60405180910390a25050565b600080826001600160a01b0316637730599e6040518163ffffffff1660e01b8152600401602060405180830381865afa158015611ba9573d6000803e3d6000fd5b505050506040513d601f19601f82011682018060405250810190611bcd9190614876565b6000818152600260205260409020549091508015801590610e4357506001600160a01b0384166001611bff81846148a5565b81548110611c0f57611c0f6148b8565b6000918252602090912001546001600160a01b031614949350505050565b6001600160a01b03811660009081526004602052604081205460ff16610e2f565b6060611c5933611b68565b611c765760405163619c535960e01b815260040160405180910390fd5b6000611cb785858080601f016020809104026020016040519081016040528093929190818152602001838380828437600092019190915250610e4b92505050565b9050828161010001818151611ccc919061499e565b905250611cd881613003565b95945050505050565b600054610100900460ff1615808015611d015750600054600160ff909116105b80611d1b5750303b158015611d1b575060005460ff166001145b611d375760405162461bcd60e51b8152600401610d1b90614a02565b6000805460ff191660011790558015611d5a576000805461ff0019166101001790555b801561115e576000805461ff0019169055604051600181527f7f26b83ff96e1f2b6a682f133852f6798a09c465da95921460cefb384740249890602001611408565b600081815260026020526040812054808203611dcb57604051630e4f4df560e11b815260040160405180910390fd5b611dd66001826148a5565b6001901b19841691505092915050565b7f000000000000000000000000000000000000000000000000000000000000000015611e25576040516305b93ebf60e41b815260040160405180910390fd5b61115e81336001613c03565b600081815260026020526040812054808203611e6057604051630e4f4df560e11b815260040160405180910390fd5b6001611e6c81836148a5565b81548110611e7c57611e7c6148b8565b6000918252602090912001546001600160a01b03169392505050565b6060611ea333611b68565b611ec05760405163619c535960e01b815260040160405180910390fd5b84848080601f016020809104026020016040519081016040528093929190818152602001838380828437600092019190915250611f0292508391506129789050565b611f0e57611f0e6148ce565b611f188484612b79565b85858080601f016020809104026020016040519081016040528093929190818152602001838380828437600092019190915250929998505050505050505050565b606082828080601f016020809104026020016040519081016040528093929190818152602001838380828437600092019190915250611f9d92508391506129789050565b611fbd5760405163a85ba64f60e01b815260146004820152602401610d1b565b6001600160a01b0387166000908152600460205260408120548891819003611ff85760405163163cbe4360e01b815260040160405180910390fd5b61800081161561201a57604051628e12d960e21b815260040160405180910390fd5b87878080601f0160208091040260200160405190810160405280939291908181526020018383808284376000920182905250925061205b9150839050613d22565b90506001600160e01b031981166330d9c91560e01b148061208c57506001600160e01b0319811663d86ed3e560e01b145b806120a757506001600160e01b03198116630221347d60e61b145b806120c257506001600160e01b0319811663230dbd2960e01b145b806120dd57506001600160e01b03198116635f9e7d7760e01b145b806120f857506001600160e01b031981166353c11f9960e01b145b15612116576040516377a14afb60e11b815260040160405180910390fd5b600061215789898080601f016020809104026020016040519081016040528093929190818152602001838380828437600092019190915250610e4b92505050565b6101208101519091506001600160a01b03163314612188576040516311cfdef560e21b815260040160405180910390fd5b6060810180513390915261219b82613003565b97506000806121e28f8f8f8080601f0160208091040260200160405190810160405280939291908181526020018383808284376000920191909152508f9250613137915050565b91509150811561225557808060200190518101906122009190614929565b995061220b8a612978565b61222b5760405163a85ba64f60e01b815260146004820152602401610d1b565b6122348a610e4b565b6001600160a01b0384166060820152935061224e84613003565b995061225e565b61225e816131f0565b50505050505050505095945050505050565b60008181526002602052604081205480820361229f57604051630e4f4df560e11b815260040160405180910390fd5b6122aa6001826148a5565b6001901b841791505092915050565b7f0000000000000000000000000000000000000000000000000000000000000000156123c05760006123213284848080601f016020809104026020016040519081016040528093929190818152602001838380828437600092019190915250613d7e92505050565b6000805460405163407b865d60e11b81529293504292620100009091046001600160a01b0316916380f70cba9161235e913091879060040161497a565b602060405180830381865afa15801561237b573d6000803e3d6000fd5b505050506040513d601f19601f8201168201806040525081019061239f9190614876565b10156123be576040516319ab84d160e01b815260040160405180910390fd5b505b6123cc83336001613c03565b505050565b6000610e2c83838080601f01602080910402602001604051908101604052809392919081815260200183838082843760009201919091525061297892505050565b600054610100900460ff16158080156124325750600054600160ff909116105b8061244c5750303b15801561244c575060005460ff166001145b6124685760405162461bcd60e51b8152600401610d1b90614a02565b6000805460ff19166001179055801561248b576000805461ff0019166101001790555b6000805462010000600160b01b031916620100006001600160a01b03851602179055801561165f576000805461ff0019169055604051600181527f7f26b83ff96e1f2b6a682f133852f6798a09c465da95921460cefb38474024989060200160405180910390a15050565b60606000806001805490506001600160401b0381111561251857612518614178565b604051908082528060200260200182016040528015612541578160200160208202803683370190505b50925060009050600091505b6001548210156125d8576001821b8416156125c85760018281548110612575576125756148b8565b6000918252602090912001546001600160a01b0316838261259581614a50565b9350815181106125a7576125a76148b8565b60200260200101906001600160a01b031690816001600160a01b0316815250505b6125d182614a50565b915061254d565b825250919050565b6003546000906001600160a01b03166125fb576125fb6148ce565b7f00000000000000000000000000000000000000000000000000000000000000001561263157506003546001600160a01b031690565b600360009054906101000a90046001600160a01b03166001600160a01b03166350d75d256040518163ffffffff1660e01b8152600401602060405180830381865afa158015612684573d6000803e3d6000fd5b505050506040513d601f19601f8201168201806040525081019061118b91906149e5565b333b60008190036126cc5760405163353dacc360e21b815260040160405180910390fd5b507f0000000000000000000000000000000000000000000000000000000000000000156127a45760006126fe33613db1565b6000805460405163407b865d60e11b81529293509091620100009091046001600160a01b0316906380f70cba9061273d9030908590879060040161497a565b602060405180830381865afa15801561275a573d6000803e3d6000fd5b505050506040513d601f19601f8201168201806040525081019061277e9190614876565b6001149050806127a15760405163289533c560e01b815260040160405180910390fd5b50505b61165f81836000613c03565b6001600160a01b0381166000908152600460209081526040808320815192830190915254808252158015929182916127f757805161800081161515935064ff000000001691505b509193909250565b612807613f95565b602a9052612813613f95565b602a602082015250612823613f95565b602a604082015250612833613f95565b602a606082015250612843613f95565b63deadbeef60e01b608082015250612859613f95565b60408051602a808252606082019092529060208201818036833750505060a0820181905260008190036128ce5760405162461bcd60e51b815260206004820152601760248201527f7573657244617461206f6666736574206973207a65726f0000000000000000006044820152606401610d1b565b8051602a81146129205760405162461bcd60e51b815260206004820152601960248201527f7573657244617461206368616e676564206c6f636174696f6e000000000000006044820152606401610d1b565b50505061292b613f95565b602a60c08201525061293b613f95565b602a60e08201525061294b613f95565b602a6101008201525061295c613f95565b602a6101208201525061296d613f95565b602a61014082015250565b60008151600014158015610e2f5750600654825160208401201492915050565b600060606001600160a01b0387166129b2576129b26148ce565b6129bc8484613e2b565b935060005a90508615612a3a57876001600160a01b0316622dc6c06001600160401b0316866040516129ee9190614a69565b6000604051808303818686fa925050503d8060008114612a2a576040519150601f19603f3d011682016040523d82523d6000602084013e612a2f565b606091505b509093509150612aa9565b876001600160a01b0316622dc6c06001600160401b031686604051612a5f9190614a69565b60006040518083038160008787f1925050503d8060008114612a9d576040519150601f19603f3d011682016040523d82523d6000602084013e612aa2565b606091505b5090935091505b82612b1a57612ab9603f82614a85565b5a1115612ade5785612ad357612ace826131f0565b612b1a565b612ace88600a612b79565b60405162461bcd60e51b815260206004820152601160248201527053463a206e656564206d6f72652067617360781b6044820152606401610d1b565b509550959350505050565b6000604082511015612b3957506000919050565b602082810151906000908214612b53575060009392505050565b506040830151612b6281613ee2565b612b6d906040614aa7565b84511492505050919050565b6001600160a01b03821660009081526004602052604081205461800016900361165f576001600160a01b038216600081815260046020526040908190208054618000179055517fbe3aa33bd245135e4e26b223d79d14ea479a47bff09f2b03c53838af1edbb14b90611b5c9084815260200190565b60065460609015612c155760405163a85ba64f60e01b815260156004820152602401610d1b565b6001600160a01b0383166000908152600460205260408120548491819003612c505760405163163cbe4360e01b815260040160405180910390fd5b618000811615612c7257604051628e12d960e21b815260040160405180910390fd5b836000612c7e82613d22565b90506001600160e01b031981166330d9c91560e01b1480612caf57506001600160e01b0319811663d86ed3e560e01b145b80612cca57506001600160e01b03198116630221347d60e61b145b80612ce557506001600160e01b0319811663230dbd2960e01b145b80612d0057506001600160e01b03198116635f9e7d7760e01b145b80612d1b57506001600160e01b031981166353c11f9960e01b145b15612d39576040516377a14afb60e11b815260040160405180910390fd5b60408051610160810182526000808252600260208084019190915242838501526001600160a01b03808d16606085015260808401839052845191820190945281815260a083015260c0820181905260e0820181905261010082018190529189166101208201526101408101829052612db090613003565b90506000612dbf898984613137565b975090508015612e0d5786806020019051810190612ddd9190614929565b9150612de882612978565b612e085760405163a85ba64f60e01b815260146004820152602401610d1b565b612e16565b612e16876131f0565b5050600060065550929695505050505050565b60065460609015612e505760405163a85ba64f60e01b815260156004820152602401610d1b565b83612e5a81611b68565b612e775760405163619c535960e01b815260040160405180910390fd5b6000612e8285613d22565b6040805161016081018252600080825260016020830152929350612f059181014281526020018a6001600160a01b03168152602001846001600160e01b031916815260200187815260200160008152602001600081526020016000815260200160006001600160a01b0316815260200160006001600160a01b0316815250613003565b90506000612f14888884613137565b9550905080612f2657612f26856131f0565b50506000600655509095945050505050565b612f40613f95565b60608083806020019051810190612f579190614aba565b81519193509150600090612f749084016020908101908501614b13565b60a08901526001600160e01b03191660808801526001600160a01b031660608701526040860152602081811c600f168187015260ff9091168552825160009250612fc5919084018101908401614b97565b6001600160a01b03908116610140890152166101208701526101008601526001600160801b03811660c086015260801c60e085015250919392505050565b60606001826000015160ff1611156130315760405163a85ba64f60e01b815260286004820152602401610d1b565b815160208084015160009260ff1664ff000000009190921b161790506000608061305e8560e00151613f1b565b6001600160801b0316901b6130768560c00151613f1b565b6001600160801b0316179050818460400151856060015186608001518760a001516040516020016130ab959493929190614be2565b60408051601f1981840301815282825261010087015161012088015161014089015160208601879052938501919091526001600160a01b03908116606085015290911660808301529060a00160408051601f198184030181529082905261311592916020016144c0565b60408051601f1981840301815291905280516020820120600655949350505050565b600060606001600160a01b038516613151576131516148ce565b61315b8484613e2b565b9350846001600160a01b0316846040516131759190614a69565b6000604051808303816000865af19150503d80600081146131b2576040519150601f19603f3d011682016040523d82523d6000602084013e6131b7565b606091505b50909250905081156131e85780516000036131e85760405163a85ba64f60e01b815260166004820152602401610d1b565b935093915050565b6004815110156132425760405162461bcd60e51b815260206004820152601a60248201527f43616c6c5574696c733a207461726765742072657665727428290000000000006044820152606401610d1b565b602081015163b1b7848f60e01b6001600160e01b03198216016132f25760408051808201825260208082527f43616c6c5574696c733a207461726765742070616e69636b65643a2030785f5f90820190815260248501517f43616c6c5574696c733a207461726765742070616e69636b65643a2030780000600482811c600f908116603090810160081b918516011791909117909252925162461bcd60e51b8152919291610d1b91849101614165565b81518060208401fd5b60006133257f360894a13ba1a3210667c828492db98dca3e2076cc3735a920a3ca505d382bbc5490565b6001600160a01b03160361337b5760405162461bcd60e51b815260206004820152601d60248201527f5555505350726f786961626c653a206e6f742075706772616461626c650000006044820152606401610d1b565b806001600160a01b03166352d1902d6040518163ffffffff1660e01b8152600401602060405180830381865afa1580156133b9573d6000803e3d6000fd5b505050506040513d601f19601f820116820180604052508101906133dd9190614876565b7fcd355cae2c435f8c5e0c626c4691d22fd85aa7422a424c6f0bced6e64c7aba74146134575760405162461bcd60e51b815260206004820152602360248201527f5555505350726f786961626c653a206e6f7420636f6d70617469626c65206c6f60448201526267696360e81b6064820152608401610d1b565b6001600160a01b03811630036134af5760405162461bcd60e51b815260206004820152601960248201527f5555505350726f786961626c653a2070726f7879206c6f6f70000000000000006044820152606401610d1b565b6134d7817f360894a13ba1a3210667c828492db98dca3e2076cc3735a920a3ca505d382bbc55565b7fe011bc04c286c344a8fcbb8de77f953da762c3e25d8cdea984147fc4168a5dcc7fcd355cae2c435f8c5e0c626c4691d22fd85aa7422a424c6f0bced6e64c7aba74604080519182526001600160a01b038416602083015201611408565b6040805160208101829052603260608201527f6f72672e7375706572666c7569642d66696e616e63652e7375706572666c756960808201527132173a393ab9ba32b22337b93bb0b93232b960711b60a08201526001600160a01b0383169181019190915260009060c0015b604051602081830303815290604052805190602001209050919050565b6000601836108015906135d457506135d4336114e1565b6136185760405162461bcd60e51b81526020600482015260156024820152742737ba103a393ab9ba32b2103337b93bb0b93232b960591b6044820152606401610d1b565b5060131936013560601c90565b60005b81811015613bfd576000838383818110613644576136446148b8565b90506020028101906136569190614c2e565b613664906020810190614c44565b905060001963ffffffff8216016137585760008085858581811061368a5761368a6148b8565b905060200281019061369c9190614c2e565b6136aa906040810190614c6a565b8101906136b7919061484a565b915091508585858181106136cd576136cd6148b8565b90506020028101906136df9190614c2e565b6136f0906040810190602001614005565b6001600160a01b03166362aa52878884846040518463ffffffff1660e01b815260040161371f9392919061497a565b600060405180830381600087803b15801561373957600080fd5b505af115801561374d573d6000803e3d6000fd5b505050505050613bec565b60011963ffffffff82160161386357600080600086868681811061377e5761377e6148b8565b90506020028101906137909190614c2e565b61379e906040810190614c6a565b8101906137ab9190614cb0565b9250925092508686868181106137c3576137c36148b8565b90506020028101906137d59190614c2e565b6137e6906040810190602001614005565b604051630b682aeb60e11b81526001600160a01b038a81166004830152858116602483015284811660448301526064820184905291909116906316d055d6906084015b600060405180830381600087803b15801561384357600080fd5b505af1158015613857573d6000803e3d6000fd5b50505050505050613bec565b60021963ffffffff821601613922576000806000868686818110613889576138896148b8565b905060200281019061389b9190614c2e565b6138a9906040810190614c6a565b8101906138b69190614cf1565b9250925092508686868181106138ce576138ce6148b8565b90506020028101906138e09190614c2e565b6138f1906040810190602001614005565b6001600160a01b031663ca0c1e7f898585856040518563ffffffff1660e01b81526004016138299493929190614d3f565b60641963ffffffff821601613a1757838383818110613943576139436148b8565b90506020028101906139559190614c2e565b613966906040810190602001614005565b6001600160a01b031663ca78946486868686818110613987576139876148b8565b90506020028101906139999190614c2e565b6139a7906040810190614c6a565b8101906139b49190614641565b6040516001600160e01b031960e085901b1681526001600160a01b0390921660048301526024820152604401600060405180830381600087803b1580156139fa57600080fd5b505af1158015613a0e573d6000803e3d6000fd5b50505050613bec565b60651963ffffffff821601613a7c57838383818110613a3857613a386148b8565b9050602002810190613a4a9190614c2e565b613a5b906040810190602001614005565b6001600160a01b031663245887fc86868686818110613987576139876148b8565b60c81963ffffffff821601613b1957600080858585818110613aa057613aa06148b8565b9050602002810190613ab29190614c2e565b613ac0906040810190614c6a565b810190613acd9190614d72565b91509150613b1187878787818110613ae757613ae76148b8565b9050602002810190613af99190614c2e565b613b0a906040810190602001614005565b8484612e29565b505050613bec565b60c91963ffffffff821601613bd357613bcd85858585818110613b3e57613b3e6148b8565b9050602002810190613b509190614c2e565b613b61906040810190602001614005565b868686818110613b7357613b736148b8565b9050602002810190613b859190614c2e565b613b93906040810190614c6a565b8080601f016020809104026020016040519081016040528093929190818152602001838380828437600092019190915250612bee92505050565b50613bec565b60405163b477011560e01b815260040160405180910390fd5b50613bf681614a50565b9050613628565b50505050565b323303613c265760405163a85ba64f60e01b815260026004820152602401610d1b565b8015613c5257813b8015613c505760405163a85ba64f60e01b815260016004820152602401610d1b565b505b64ff000080ff198316151580613c69575060ff8316155b80613c775750618000831615155b15613c9557604051633d3200a960e21b815260040160405180910390fd5b6001600160a01b03821660009081526004602052604090205415613ccc576040516301b0a93560e01b815260040160405180910390fd5b60408051602080820183528582526001600160a01b038516600081815260049092528382209251909255915190917f0d540ad8f39e07d19909687352b9fa017405d93c91a6760981fbae9cf28bfef791a2505050565b6000600482511015613d765760405162461bcd60e51b815260206004820152601b60248201527f43616c6c5574696c733a20696e76616c69642063616c6c4461746100000000006044820152606401610d1b565b506020015190565b60008282604051602001613d93929190614dcb565b60405160208183030381529060405280519060200120905092915050565b6040805160208101829052603960608201527f6f72672e7375706572666c7569642d66696e616e63652e7375706572666c756960808201527f642e61707057686974654c697374696e672e666163746f72790000000000000060a08201526001600160a01b0383169181019190915260009060c0016135a0565b815180830151606091908015613e54576040516367e9985b60e01b815260040160405180910390fd5b50601f1981018452825184908481613e6b81613ee2565b613e7591906148a5565b6001600160401b03811115613e8c57613e8c614178565b6040519080825280601f01601f191660200182016040528015613eb6576020820181803683370190505b50604051602001613eca9493929190614e50565b60405160208183030381529060405291505092915050565b60008082601f1611613ef5576000613ef8565b60015b60ff16613f06602084614a85565b613f109190614aa7565b610e2f906020614e9f565b60006001600160801b03821115613f845760405162461bcd60e51b815260206004820152602760248201527f53616665436173743a2076616c756520646f65736e27742066697420696e20316044820152663238206269747360c81b6064820152608401610d1b565b5090565b61024a80614ebf83390190565b604080516101608101825260008082526020820181905291810182905260608082018390526080820183905260a082015260c0810182905260e081018290526101008101829052610120810182905261014081019190915290565b6001600160a01b038116811461115e57600080fd5b60006020828403121561401757600080fd5b813561402281613ff0565b9392505050565b60008083601f84011261403b57600080fd5b5081356001600160401b0381111561405257600080fd5b60208301915083602082850101111561406a57600080fd5b9250929050565b801515811461115e57600080fd5b6000806000806000806080878903121561409857600080fd5b86356140a381613ff0565b955060208701356001600160401b03808211156140bf57600080fd5b6140cb8a838b01614029565b9097509550604089013591506140e082614071565b909350606088013590808211156140f657600080fd5b5061410389828a01614029565b979a9699509497509295939492505050565b60005b83811015614130578181015183820152602001614118565b50506000910152565b60008151808452614151816020860160208601614115565b601f01601f19169290920160200192915050565b602081526000610e2c6020830184614139565b634e487b7160e01b600052604160045260246000fd5b604051601f8201601f191681016001600160401b03811182821017156141b6576141b6614178565b604052919050565b60006001600160401b038211156141d7576141d7614178565b50601f01601f191660200190565b600082601f8301126141f657600080fd5b8135614209614204826141be565b61418e565b81815284602083860101111561421e57600080fd5b816020850160208301376000918101602001919091529392505050565b6000806040838503121561424e57600080fd5b823561425981613ff0565b915060208301356001600160401b0381111561427457600080fd5b614280858286016141e5565b9150509250929050565b60008060006060848603121561429f57600080fd5b83356142aa81613ff0565b925060208401356001600160401b03808211156142c657600080fd5b6142d2878388016141e5565b935060408601359150808211156142e857600080fd5b506142f5868287016141e5565b9150509250925092565b60006020828403121561431157600080fd5b81356001600160401b0381111561432757600080fd5b610e43848285016141e5565b6020815261434760208201835160ff169052565b6000602083015161435d604084018260ff169052565b5060408301516060830152606083015161438260808401826001600160a01b03169052565b5060808301516001600160e01b0319811660a08401525060a08301516101608060c08501526143b5610180850183614139565b915060c085015160e085015260e08501516101008181870152808701519150506101208181870152808701519150506101406143fb818701836001600160a01b03169052565b909501516001600160a01b031693019290925250919050565b60008060008060008060006080888a03121561442f57600080fd5b873561443a81613ff0565b965060208801356001600160401b038082111561445657600080fd5b6144628b838c01614029565b909850965060408a013591508082111561447b57600080fd5b6144878b838c01614029565b909650945060608a01359150808211156144a057600080fd5b506144ad8a828b01614029565b989b979a50959850939692959293505050565b6040815260006144d36040830185614139565b8281036020840152611cd88185614139565b6000806000604084860312156144fa57600080fd5b83356001600160401b0381111561451057600080fd5b61451c86828701614029565b909790965060209590950135949350505050565b6000806020838503121561454357600080fd5b82356001600160401b038082111561455a57600080fd5b818501915085601f83011261456e57600080fd5b81358181111561457d57600080fd5b8660208260051b850101111561459257600080fd5b60209290920196919550909350505050565b60008060008060008060a087890312156145bd57600080fd5b86356001600160401b038111156145d357600080fd5b6145df89828a01614029565b90975095505060208701356145f381613ff0565b93506040870135925060608701359150608087013561461181613ff0565b809150509295509295509295565b6000806040838503121561463257600080fd5b50508035926020909101359150565b60006020828403121561465357600080fd5b5035919050565b6000806000806060858703121561467057600080fd5b84356001600160401b0381111561468657600080fd5b61469287828801614029565b90955093505060208501356146a681613ff0565b9396929550929360400135925050565b6000806000806000606086880312156146ce57600080fd5b85356146d981613ff0565b945060208601356001600160401b03808211156146f557600080fd5b61470189838a01614029565b9096509450604088013591508082111561471a57600080fd5b5061472788828901614029565b969995985093965092949392505050565b6000806040838503121561474b57600080fd5b823561475681613ff0565b9150602083013561476681613ff0565b809150509250929050565b60008060006040848603121561478657600080fd5b8335925060208401356001600160401b038111156147a357600080fd5b6147af86828701614029565b9497909650939450505050565b600080602083850312156147cf57600080fd5b82356001600160401b038111156147e557600080fd5b6147f185828601614029565b90969095509350505050565b6020808252825182820181905260009190848201906040850190845b8181101561483e5783516001600160a01b031683529284019291840191600101614819565b50909695505050505050565b6000806040838503121561485d57600080fd5b823561486881613ff0565b946020939093013593505050565b60006020828403121561488857600080fd5b5051919050565b634e487b7160e01b600052601160045260246000fd5b81810381811115610e2f57610e2f61488f565b634e487b7160e01b600052603260045260246000fd5b634e487b7160e01b600052600160045260246000fd5b600082601f8301126148f557600080fd5b8151614903614204826141be565b81815284602083860101111561491857600080fd5b610e43826020830160208701614115565b60006020828403121561493b57600080fd5b81516001600160401b0381111561495157600080fd5b610e43848285016148e4565b60006020828403121561496f57600080fd5b815161402281614071565b6001600160a01b039384168152919092166020820152604081019190915260600190565b80820182811260008312801582168215821617156149be576149be61488f565b505092915050565b600060ff821660ff81036149dc576149dc61488f565b60010192915050565b6000602082840312156149f757600080fd5b815161402281613ff0565b6020808252602e908201527f496e697469616c697a61626c653a20636f6e747261637420697320616c72656160408201526d191e481a5b9a5d1a585b1a5e995960921b606082015260800190565b600060018201614a6257614a6261488f565b5060010190565b60008251614a7b818460208701614115565b9190910192915050565b600082614aa257634e487b7160e01b600052601260045260246000fd5b500490565b80820180821115610e2f57610e2f61488f565b60008060408385031215614acd57600080fd5b82516001600160401b0380821115614ae457600080fd5b614af0868387016148e4565b93506020850151915080821115614b0657600080fd5b50614280858286016148e4565b600080600080600060a08688031215614b2b57600080fd5b85519450602086015193506040860151614b4481613ff0565b60608701519093506001600160e01b031981168114614b6257600080fd5b60808701519092506001600160401b03811115614b7e57600080fd5b614b8a888289016148e4565b9150509295509295909350565b60008060008060808587031215614bad57600080fd5b84519350602085015192506040850151614bc681613ff0565b6060860151909250614bd781613ff0565b939692955090935050565b858152602081018590526001600160a01b03841660408201526001600160e01b03198316606082015260a060808201819052600090614c2390830184614139565b979650505050505050565b60008235605e19833603018112614a7b57600080fd5b600060208284031215614c5657600080fd5b813563ffffffff8116811461402257600080fd5b6000808335601e19843603018112614c8157600080fd5b8301803591506001600160401b03821115614c9b57600080fd5b60200191503681900382131561406a57600080fd5b600080600060608486031215614cc557600080fd5b8335614cd081613ff0565b92506020840135614ce081613ff0565b929592945050506040919091013590565b600080600060608486031215614d0657600080fd5b8335614d1181613ff0565b92506020840135915060408401356001600160401b03811115614d3357600080fd5b6142f5868287016141e5565b6001600160a01b038581168252841660208201526040810183905260806060820181905260009061164390830184614139565b60008060408385031215614d8557600080fd5b82356001600160401b0380821115614d9c57600080fd5b614da8868387016141e5565b93506020850135915080821115614dbe57600080fd5b50614280858286016141e5565b60608152604160608201527f6f72672e7375706572666c7569642d66696e616e63652e7375706572666c756960808201527f642e61707057686974654c697374696e672e726567697374726174696f6e4b6560a0820152607960f81b60c082015260018060a01b038316602082015260e060408201526000610e4360e0830184614139565b600085516020614e638285838b01614115565b81840191508682528551614e7c81838501848a01614115565b8551920191614e9081838501848901614115565b91909101019695505050505050565b6000816000190483118215151615614eb957614eb961488f565b50029056fe608060405234801561001057600080fd5b5061022a806100206000396000f3fe6080604052600436106100225760003560e01c80634a0687ef1461003957610031565b366100315761002f610059565b005b61002f610059565b34801561004557600080fd5b5061002f6100543660046101c4565b61006b565b610069610064610171565b6101a0565b565b6001600160a01b0381166100c65760405162461bcd60e51b815260206004820152601760248201527f5555505350726f78793a207a65726f206164647265737300000000000000000060448201526064015b60405180910390fd5b60006100f07f360894a13ba1a3210667c828492db98dca3e2076cc3735a920a3ca505d382bbc5490565b6001600160a01b0316146101465760405162461bcd60e51b815260206004820152601e60248201527f5555505350726f78793a20616c726561647920696e697469616c697a6564000060448201526064016100bd565b61016e817f360894a13ba1a3210667c828492db98dca3e2076cc3735a920a3ca505d382bbc55565b50565b600061019b7f360894a13ba1a3210667c828492db98dca3e2076cc3735a920a3ca505d382bbc5490565b905090565b3660008037600080366000845af43d6000803e8080156101bf573d6000f35b3d6000fd5b6000602082840312156101d657600080fd5b81356001600160a01b03811681146101ed57600080fd5b939250505056fea26469706673582212209b58aa53d1a30f60f937a8ec6ab95e94f3b48e2e1cae54384ae904ce731e1a4e64736f6c63430008100033a2646970667358221220e07de0af1e15991de39f43c918e4ea352fa297ce23175880c900c77a6906201a64736f6c63430008100033",
  "linkReferences": {},
  "deployedLinkReferences": {}
}